:020000040800F2
:10000000F80C00204D020008732F0008CF280008CC
:10001000712F0008BF160008C1360008000000005C
:1000200000000000000000000000000099310008FE
:10003000C116000800000000853000089B31000850
:1000400067020008670200086702000867020008EC
:1000500067020008670200086702000867020008DC
:1000600067020008670200086702000867020008CC
:1000700067020008670200086702000867020008BC
:1000800067020008670200086702000867020008AC
:10009000670200086702000867020008670200089C
:1000A000670200086702000867020008670200088C
:1000B000670200086702000867020008670200087C
:1000C000670200086702000867020008670200086C
:1000D000670200084D36000867020008593600081C
:1000E000670200086702000867020008670200084C
:1000F000670200086702000867020008670200083C
:10010000670200086702000867020008670200082B
:10011000670200086702000867020008670200081B
:10012000670200086702000867020008670200080B
:1001300067020008670200086702000867020008FB
:1001400067020008670200086702000867020008EB
:1001500067020008670200086702000867020008DB
:1001600067020008670200086702000867020008CB
:10017000670200086702000867020008000000002C
:10018000670200086702000800F002F800F04FF86C
:100190000AA090E8000C82448344AAF10107DA45E2
:1001A00001D100F044F8AFF2090EBAE80F0013F0E5
:1001B000010F18BFFB1A43F001031847F466000053
:1001C00014670000103A24BF78C878C1FAD85207E3
:1001D00024BF30C830C144BF04680C6070470000C1
:1001E0000023002400250026103A28BF78C1FBD840
:1001F000520728BF30C148BF0B607047662904F022
:100200000F87642900F01E81732900F012850020F9
:1002100070471FB504F0FFFE00F010FD0400002041
:10022000002104F06BFEE0601FBD10B510BD00F0B2
:1002300009FE1146FFF7EDFF04F006F900F027FE76
:1002400003B4FFF7F2FF03BC00F06AFE09488047E1
:1002500009480047FEE7FEE7FEE7FEE7FEE7FEE7A8
:10026000FEE7FEE7FEE7FEE704480549054A064BC0
:10027000704700003532000889010008F8060020A8
:10028000F80C0020F8080020F808002053EA020CBF
:1002900000F069802DE9F04B4FF00006002B1FBFE6
:1002A000B3FA83F503FA05F424FA05F65E4012BFAB
:1002B0001643B2FA82F502FA05F4C5F120051EBF15
:1002C00022FA05FC44EA0C04203556EA044C4FEAB5
:1002D000144418BF641C4FF000084FF0000990420E
:1002E00071EB030C39D3002919BFB1FA81F701FA78
:1002F00007F6B0FA80F700FA07F6C7F120071EBF2D
:1003000020FA07FC46EA0C062037B6FBF4FCA7EB04
:100310000507103F07F01F0BCBF120060CFA0BFB73
:100320002CFA06F644BFB3460026202FA4BF5E4633
:100330004FF0000B5BEA060C08BF4FF0010B19EB06
:100340000B09ABFB027C48EB0608C01B06FB02CC8A
:100350000BFB03CC71EB0C01C1E70B460246414697
:100360004846BDE8F08B13B54FF000004FF0000198
:10037000AFF30080BDE81C40704700000FB41CB50F
:10038000074B06AA7B4469460090059800F027FCBD
:100390000020694600F036FC1CBC5DF814FB000030
:1003A0007D08000070B5044685690068C10601D566
:1003B000302600E02026C00707D070BDD4E9012117
:1003C00030469047206A401C20626D1EF6D570BDF5
:1003D00070B5044685690078C00707D170BDD4E9BF
:1003E000012120209047206A401C20626D1EF6D516
:1003F00070BD70B50C460546012A05D028788006E8
:1004000000D5EA69002302E0012305E05B1C93426A
:1004100002D2E05C0028F9D1A869E618C01AA861E8
:10042000286A184428622846FFF7BCFF04E0D5E993
:10043000012114F8010B9047B442F8D32846FFF786
:10044000C7FF70BD2DE9F0410646002410687529EC
:10045000314616A510D0AFF30080002802DA4042E2
:1004600013A507E031688A0701D512A502E0490704
:1004700004D511A5012401E0AFF3008000210A2278
:1004800006F1240709E0B0FBF2FCB0FBF2F302FB3B
:100490001C00303078541846491C0028F3D12346FC
:1004A0002A463046BDE8F04100F02CB900000000BB
:1004B0002D0000002B000000200000002DE9F05F5F
:1004C000894604464FF0000ADFF824B1FB44C0F827
:1004D00020A02046E168884700287DD0252806D046
:1004E000D4E901219047206A401C2062F1E70025F1
:1004F0005F462046E16888472028064607DB312E04
:1005000005D2B81910F8200C08B10543F1E7A80787
:1005100001D525F00405C4F81CA00027C4F818A0D4
:100520002A2E09D0304603F011F938B304EB8708BE
:10053000303EC8F8186019E059F8041B204604EB57
:1005400087029161E1688847012F064618D1E0696A
:10055000002820DA25F020051DE0D8F8180000EB6F
:10056000800006EB40003038C8F818002046E168EB
:100570008847064603F0EAF80028EED1012F0AD09A
:100580002E2E08D12046E16888477F1C0646022FA0
:1005900045F02005C4DBA069002803DA404245F09D
:1005A0000105A061E80701D025F01005A6B1A6F16C
:1005B0004100192802D8203645F400654A463146E4
:1005C000204625604D46FFF719FE60B1012807D08F
:1005D000ED1D25F0070000E007E000F1080978E7CD
:1005E00005F1040975E730467AE7206ABDE8F09F17
:1005F0003863000030B505460B462A4613F8014B18
:1006000012F8010B08B1A042F8D01CB1002802D0AA
:100610006D1CF1E7284630BD10B5431C02E010F810
:10062000011B71B18107FAD14FF0013202C88C1A57
:100630008C4314EAC211F9D0C01A0A0603D0C01EB6
:1006400010BDC01A10BD0A0401D0801E10BD0902E1
:10065000FCD0401E10BD4FF000020429C0F01280F3
:1006600010F0030C00F01B80CCF1040CBCF1020F65
:1006700018BF00F8012BA8BF20F8022BA1EB0C013A
:1006800000F00DB85FEAC17C24BF00F8012B00F830
:10069000012B48BF00F8012B70474FF0000200B556
:1006A000134694469646203922BFA0E80C50A0E895
:1006B0000C50B1F12001BFF4F7AF090728BFA0E843
:1006C0000C5048BF0CC05DF804EB890028BF40F80F
:1006D000042B08BF704748BF20F8022B11F0804F51
:1006E00018BF00F8012B704770477047704710B56E
:1006F00000F0A8FA006810BD10B5044600F0A2FA98
:10070000046010BD2DE9F0470D4699469246044617
:1007100000F124080168880604D5E06921F0100181
:10072000216000E00120A84201DD471B00E0002716
:10073000A1697A1902EB0900081AA0612078C006A5
:1007400002D42046FFF72EFE002608E0D4E901215E
:100750001AF806009047206A401C761C20624E451D
:10076000F4DB2078C0060AD52046FFF71BFE06E022
:10077000D4E9012130209047206A401C2062381EB5
:10078000A7F10107F4DC07E0D4E9012118F805001E
:100790009047206A401C2062281EA5F10105F3DC69
:1007A0002046FFF715FE2078000602D50220BDE89E
:1007B000F0870120FBE770472DE9FF4F0C461E46EE
:1007C0004FF0FF378BB0D2E90001DDF860800A906E
:1007D0008A46C1F30A5505B93D46002108464FF047
:1007E0000000BAF1000F00F4400005DA00EB8000D1
:1007F0004FF4400101EA50004FEA9059B9F1010F5E
:1008000000DDB9460A9850EA4A000ED044F610506E
:10081000A5F2FF3545432F14B8F1000F1ED07542E5
:10082000291E1EDDC9F100021CE0B8F1010F4FF0D6
:10083000000001D0302103E0F24305E02154401CC8
:10084000B042FBDB30460022002121540B99C1F855
:100850000880C1E900200FB0BDE8F08FBD1B6D1C02
:10086000DEE74A4600DA694206A800F075FA06ABF0
:1008700093E8070003AB83E8070050460A9900F0AD
:1008800056FB8DE80700A0F500501F380090039834
:10089000002D0ADD42F21F014A460844002303A945
:1008A0000390684600F0BFFD09E0A0F500504A46FD
:1008B0001F38002303A90390684600F0C9FD8DE8A6
:1008C00007000004000C03D04FF0FF30410800E0A7
:1008D0001046B8F1000F03D00022009215461EE02A
:1008E000751E05D400F0B2F9303262556D1EF9D58F
:1008F000B3460122084302D000227F1C04E0207886
:10090000302801D100227F1E002A099784D01DE0E3
:10091000112D07DA00F09AF9303262556D1C50EA59
:100920000102F5D1084302D00098C8B10EE00021C1
:10093000681E05E0235C625C63542254401E491C1F
:100940008142F7DBAB46A81B401E0990002004F84B
:100950000B000B98099AC0F80880C0E9002B7AE7D1
:1009600011264FF0000857E72DE9F04F884604465E
:10097000D21D22F0070191B0D1E90001CDE90A01B1
:1009800002F09FFE02460B98C00F01D02D2007E019
:100990002068810701D52B2002E0202101EAC00058
:1009A000032A099001D0072A05DB03464146204669
:1009B00000F092F90BE12078800601D5E06900E0B3
:1009C0000620B8F1650F814606D0B8F1660F18D041
:1009D000B8F1670F70D131E00020B9F1110F00902C
:1009E00001DB112301E009F101030AAA01A90CA806
:1009F000FFF7E2FEDDE90C70002609F101058346F0
:100A000047E001204B4600904FF000470AAA01A999
:100A10000CA8FFF7D1FEDDE90DB00C995D4600266C
:100A200010B909F101000D18B9EB050003D4C0F1AC
:100A3000FF3609F10105A5EB09002BE0B9F1010F23
:100A400001DA4FF001090020B9F1110F009048467A
:100A500001DD112300E003460AAA01A90CA8FFF753
:100A6000ABFEDDE90C704D4600268346207800077A
:100A70000AD4AB4500DA5D4601A8012D04DD411919
:100A800011F8011C302907D04F4502DA17F1040F85
:100A900004DA012082460FE06D1EEEE7002F02DC33
:100AA000ED1B3E4403E0781CA84200DD7D1CB81B12
:100AB00000F1010A4FF000472078000703D4AA454F
:100AC00001DB4FF0FF3A0021B7F1004F0DF1430871
:100AD0008DF8431024D002202B23002F01DA7F420F
:100AE0002D230A21021EA0F1010000DC5FB197FB5B
:100AF000F1FC97FBF1F201FB1C7C17460CF1300C6A
:100B000008F801CDEEE7A8F101000370218809057E
:100B100001D5452100E06521A0F1010800F8011C84
:100B200009980FA9A1EB0807FF1D00B10120411989
:100B300001EBEA70A1693844081A401EA0612078D0
:100B4000C00602D42046FFF72DFC099828B1D4E94D
:100B500001219047206A401C20622078C00622D5DF
:100B60002046FFF71FFC1EE0002E04DBB34502DD2C
:100B700001A8805D00E03020D4E901219047206A7F
:100B8000401C2062761CAAF101005FEA000A0AD12B
:100B900000F054F8C0680168405CD4E90121904736
:100BA000206A401C2062281EA5F10105DCDC07E05C
:100BB000D4E9012118F8010B9047206A401C2062FB
:100BC000381EA7F10107F3DC2046FFF701FC0320E4
:100BD00011B041E601694A1C02610878704700B50E
:100BE0008FB0CDE901310021059105497944CDE966
:100BF000031011466846FFF761FC0FB000BD00000E
:100C0000E5FFFFFF0A6802F8010B0A60704710B5A4
:100C1000436913B1AFF3008001E0FFF7EAFB012065
:100C200010BD127800F124010A7000224A700122DE
:100C3000EDE711684FF0FF32E9E700000048704728
:100C4000B4060020004870479406002030B5B0F18B
:100C50000A024FEA900E71F100034EEA817EB0EB7A
:100C60000E0061EB91014FEA101E4EEA017E10EB7F
:100C70000E0041EB11114FEA102E4EEA016E10EBFF
:100C80000E0041EB11214FEA104E4EEA014E10EBDF
:100C90000E0041EB1141401841F100014FEAD00034
:100CA00040EA41704FEAD10110EB80054FEA810420
:100CB00044EA907444EB01046D1944EB0404521BA4
:100CC000A3414FF0000348BF0A3200D530BD401C9D
:100CD00041F1000130BD00002DE9F0411F460446FE
:100CE00003260168072A01F4006004DB08B116A599
:100CF00005E016A503E008B115A500E015A521F053
:100D000010002060A069C01EA0610FB1401EA0614C
:100D10002046FFF747FB4FB1D4E901213846904701
:100D2000206A401C2062C01C206206E0206AFAE7AC
:100D3000D4E9012115F8010B9047761EF8D2204620
:100D4000FFF746FBBDE8F0814E414E006E616E003C
:100D5000494E4600696E66002DE9F0478146164609
:100D60008AB0354878440DC88DE80D003248784483
:100D7000801C03AC0DC884E80D0041F69B3008448C
:100D8000372190FBF1F290FBF1F5A5F1800501FB15
:100D900012041B3C02D56442012000E00020DFF871
:100DA00098A080460027FA44AAF1BE0A0EE0E007A8
:100DB0000AD03246684607EB470101230AEB81015E
:100DC00000F046FB8DE8070064107F1C002CEED17C
:100DD000194F7F44AE3F19E0E80715D007EB041028
:100DE0000DF1180A90E80E008AE80E00C068F04283
:100DF00001D1981908903246012306A903A800F0F2
:100E000027FB03AB83E807006D10641C002DE3D1C2
:100E10004FF0010332466946B8F1000F03A802D033
:100E200000F001FB01E000F013FBC9E90001C9F883
:100E300008200AB0BDE8F087305B0000004870472A
:100E4000940600207546FFF7F9FFAE460500694697
:100E5000534620F00700854618B020B5FFF704FA86
:100E6000BDE820404FF000064FF000074FF00008AB
:100E70004FF0000B21F00701AC46ACE8C009ACE82C
:100E8000C009ACE8C009ACE8C0098D46704710B590
:100E90000446AFF300802046BDE81040FFF7D0B90C
:100EA0004FF0013C50F8042B51F8043B9A4221D1F9
:100EB000A2EB0C03934313EACC1317D150F8042B85
:100EC00051F8043B9A4215D1A2EB0C03934313EA69
:100ED000CC130BD150F8042B51F8043B9A4209D1A2
:100EE000A2EB0C03934313EACC13DBD04FF00000CA
:100EF000704700BFD01A01BAB1FA81F101F01801B0
:100F000022FA01F0CB40C1F12001DBB2C0B2C01A1D
:100F10002CFA01F3D11A914311EAC311E6D17047BB
:100F200001491820ABBEFEE72600020070475FEAC9
:100F3000400C08BF91F0000F4FEA8C234FEAC1220A
:100F400043EA51514FEA1C5018BF00F5F0404FEAF8
:100F5000300018BF41F000415FEA6C5C00F029806E
:100F6000BCF1FF3F08BF40F080407047130C06BF44
:100F700012044FF0100C4FF0000C130E04BF1202BD
:100F80000CF1080C130F04BF12010CF1040C930FA9
:100F900004BF92000CF1020CD30F04BF52000CF1FD
:100FA000010C11464FF00002A0F11F00A0EB0C0055
:100FB000704711F0004F08BF704731F000413FF417
:100FC000D5AF0B0C06BF09044FF0100C4FF0000C0E
:100FD0000B0E04BF09020CF1080C0B0F04BF090132
:100FE0000CF1040C8B0F04BF89000CF1020CCB0F29
:100FF00004BF49000CF1010CCCF12003A0EB0C0064
:1010000022FA03F302FA0CF241EA030100F10100B3
:10101000704720F07F4C80EA030023F07F47ACEB61
:10102000070303F57C5300F0004003F1FF032DE9B3
:1010300080494FEA154B09B44FEA144325EA0B4E99
:1010400024EA03480FF2042606EB132749083E78EA
:101050005FEA320203FB0667C7F5000707FB06F6E7
:101060004FEA54374FEAD64606F1020607FB066CF4
:10107000CCF1005C4FEA1C472CEA074C07FB06F456
:101080000CFB06F504EB15464FEA961634BF00201C
:101090004FF000404FEAD13706FB07FC4FEA1C4CEB
:1010A0000CFB0BF7D21B03FB0CF761EB07010CFBEE
:1010B0000EF7B0EB074072EB17420CFB08F734BF9A
:1010C000A2EB0742B2EB074261EB17414FEA0C4437
:1010D0004FEA910706FB07FC4FEA1C4C0CFB0BF791
:1010E000B0EBC74072EB573203FB0CF734BFA2EBF7
:1010F000C742B2EBC74261EB57310CFB0EF7B0EBC6
:10110000C70072EB57720CFB08F734BFA2EBC702A3
:10111000B2EBC70261EB5771039F4FEA816141EA6D
:10112000921104EBCC044FEAD1374FEA826206FBFE
:1011300007FC42EA90124FEA80604FEA1C4C0CFB1D
:101140000BF7D21B03FB0CF761EB07010CFB0EF74F
:10115000B0EB074072EB17420CFB08F734BFA2EB71
:101160000742B2EB074261EB17414FEA8C554FEA59
:10117000910704EB9C2406FB07FC4FEA1C4C0CFB7C
:101180000BF7B0EBC74072EB573203FB0CF734BFE1
:10119000A2EBC742B2EBC74261EB57310CFB0EF733
:1011A000B0EBC70072EB57720CFB08F734BFA2EB31
:1011B000C702B2EBC70261EB577115EB4C254FEA42
:1011C000816141EA92114FEA82624FEAD13742EAE5
:1011D000901206FB07FC44F100044FEA80604FEADE
:1011E0001C4C0CFB0BF7D21B03FB0CF761EB07014C
:1011F0000CFB0EF7B0EB074072EB17420CFB08F745
:1012000034BFA2EB0742B2EB074261EB174115EB8B
:101210001C154FEA813141EA92414FEA823242EA9B
:1012200090424FEA80304FEA0C7644F1000448EADD
:1012300003434EEA0B484FF0000EB2EB080C71EB83
:10124000030724BF624639464EEB0E0E4FF0000BEB
:101250000018524149414BEB0B0BB2EB080C71EB00
:1012600003077BF1000B24BF624639464EEB0E0E9E
:101270004FF0000B0018524149414BEB0B0BB2EB06
:10128000080C71EB03077BF1000B24BF6246394663
:101290004EEB0E0E51EA020718BF46F0010616EBA0
:1012A0000E7655F1000254F1000103D5BDE8890125
:1012B000BDE80088BDE88901BDE80048B619524183
:1012C00041EB0101A3F10103704780807F7E7D7CAB
:1012D0007B7A7978777676757473727171706F6EC8
:1012E0006E6D6C6C6B6A6A69686867666665646473
:1012F000636362616160605F5F5E5E5D5D5C5C5BFD
:101300005B5A5A595958585757565655555554546B
:10131000535352525251515050504F4F4F4E4E4DC9
:101320004D4D4C4C4C4B4B4B4A4A4A494949484815
:101330004847474747464646454545444444444355
:1013400043434342424242414141002B9C4630D4F8
:1013500077002BD01CB54FEA370703B44FF01000CD
:101360004FF01001BAF1000F06D0BCF1000FDCBF46
:1013700040F0080040F008014FF000000FBCBDE84D
:1013800010400BF1010BBBF1010F08BF5FEA17071B
:1013900022BF12F1010211F101014FF0004143F1AE
:1013A000000300F0004043EA00007047F9D35708FB
:1013B000D0E746EA064613F1400F4FEA16461FDD16
:1013C00013F1200FDFBF16430A46002120335B4292
:1013D000BED0C3F1200746EA064602FA07F74FEAF5
:1013E000164646EA0706C3F1200722FA03F201FA7D
:1013F00007F721FA03F14FF0000342EA0702A7E7DB
:1014000046EA020646EA06464FEA164646EA01065C
:10141000BCBF46EA0646360C4FF000034FF0000210
:101420004FF0000194E72DE9804C9A46934670B442
:1014300091E8380007C831EA400C48BF34EA430C51
:1014400003D5FFF7E6FDFFF780FFF0BCBDE8008C99
:101450002DE9804C9A46934670B491E8380007C84D
:1014600010F0804F08BF13F0804F03D100F005F853
:10147000FFF76BFFF0BCBDE8008C20F07F4780EAEF
:10148000030023F07F4C07EB0C03A3F57C5300F023
:101490000040A3F1FE0392F0000F00F0B38095F03E
:1014A000000F00F077802DE901494FEA11404FEA23
:1014B000144621EA004800FB06FC24EA064708FB24
:1014C00006F607FB08F800FB07F718EB06484CEB9D
:1014D000164C4FEA124B18EB07484FEA15464CEBF7
:1014E000174022EA0B4E0BFB06FC25EA06470EFBD3
:1014F00006F607FB0EFE0BFB07F71EEB064E4CEB4A
:10150000164C4FF000061EEB074E4CEB174B18EB3A
:101510000B0840F1000018EB0E0B58EB000840F1EF
:1015200000008F1A4FF000013CBFC943661B14BF77
:10153000B5EB040C00213CBFC943F61B4FEA17442E
:101540004EEA8E0E27EA04454FEA1C4704FB076269
:101550002CEA074C05FB07F70CFB05F604FB0CFC1B
:1015600016EB074642EB174216EB0C4642EB1C42C9
:101570001BEB060658EB0202414146EA9E0601D5E6
:10158000BDE80189B619524141EB0101A3F1010304
:10159000BDE801894FEA14454FEA114724EA0546A0
:1015A00021EA074C05FB07F406FB07F70CFB06F1E5
:1015B00005FB0CFC11EB074144EB17444FEA1247C3
:1015C00011EB0C4144EB1C4422EA074C05FB07F2EB
:1015D00006FB07F70CFB06F605FB0CFC16EB0746B3
:1015E00042EB174216EB0C4642EB1C456A1854F1CD
:1015F000000148BF7047B619524141EB0101A3F108
:101600000103704795F0000F37D04FEA11424FEABF
:10161000144721EA024624EA074C02FB07F106FBC5
:1016200007F70CFB06F402FB0CFC14EB074441EB40
:1016300017414FEA154714EB0C4441EB1C4125EAD6
:10164000074C02FB07F506FB07F70CFB06F602FB4F
:101650000CFC16EB074645EB174516EB0C4645EB25
:101660001C42121951F1000148BF7047B61952418E
:1016700041EB0101A3F1010370474FEA14454FEA22
:10168000114724EA054621EA074C05FB07F106FB52
:1016900007F70CFB06F24FF0000605FB0CFC12EB03
:1016A000074241EB174112EB0C4251EB1C4148BF82
:1016B0007047921841EB0101A3F101037047FEE767
:1016C000704772B6FEE72DE9F0410446876D00F0E1
:1016D00063F9064694F835000025022806D08020DC
:1016E000606584F834500120BDE8F081206801680D
:1016F00021F0160101602068416921F080014161FB
:10170000206C08B9A06C20B12068016821F00801A4
:1017100001602068016821F0010101600CE000F027
:101720003BF9801B052807D920206065032084F839
:10173000350084F83450D7E720680068C007EED140
:1017400094F85C103F208840B860012084F8350090
:1017500084F834500020C7E790F83510022903D0F0
:101760008021416501207047052180F8351000680F
:10177000016821F0010101600020704780B202F091
:1017800033B800002DE9F84FDFF8BCA10022012595
:101790000AF1040B03264FF00F090BF1040E00BFF2
:1017A0000B6805FA02F42340A34270D10F7907F0C9
:1017B0000307012F01D0022F16D187684FEA420894
:1017C00006FA08FC27EA0C07D1F80CC00CFA08FC52
:1017D0004CEA070CC0F808C04768A7430C79C4F36B
:1017E000001494403C4344600C79E443A4070AD0BD
:1017F000C4684FEA420C06FA0CF7BC438F6807FA3C
:101800000CF72743C7600C7904F00304022C12D1B3
:10181000D40800EB840CDCF820405707FF0E09FACF
:1018200007F824EA0804D1F8108008FA07F848EA13
:101830000408CCF8208004684FEA420C06FA0CF742
:10184000BC430F7907F0030707FA0CF7274307603B
:101850004C6814F4403F70D03C4C276847F48047F4
:101860002760246822F0030704F480440094384C75
:1018700007EB040CDCF8084897074FEA177809FAD9
:1018800008F7BC43334FB84202D1002724E054E0AC
:10189000314FB84201D101271EE0304FB84201D18B
:1018A000022719E02E4FB84201D1032714E02D4F33
:1018B000B84201D104270FE02B4FB84201D10527D0
:1018C0000AE02A4FB84201D1062705E0284FB84266
:1018D00001D1072700E0082707FA08F72743CCF8CB
:1018E0000878DAF800405746D1F804C09C435FEA14
:1018F000CC3C00D51C433C60DBF800405F46D1F88F
:1019000004C09C435FEA8C3C00D51C433C60DEF87D
:1019100000407746D1F804C09C435FEACC2C00D548
:101920001C433C60084F0C373C68D1F804C09C4312
:101930005FEA8C2C00D51C433C60521C102AFFF43B
:101940002FAFBDE8F88F0000003C01404438024052
:101950000030014000000240000402400008024044
:10196000000C024000100240001402400018024027
:10197000001C02400069084000D001207047426905
:1019800021EA02030A4043EA0241816170470AB139
:10199000816170470904FBE70148806870470000D7
:1019A0000C00002002488168027811448160704771
:1019B0000C0000200B4810B5016841F40071016073
:1019C000016841F480610160016841F48071016047
:1019D000032000F06FF80F2000F006F800F024F864
:1019E000002010BD003C024070B50D4D04464FF480
:1019F0007A712878B1FBF0F00A490968B1FBF0F080
:101A000000F01CFC48B9102C07D200222146501EC1
:101A100000F030F800206C6070BD012070BD000047
:101A20000C000020180000200A4808B5016841F4A5
:101A300080410160006800F4804000900548001F6C
:101A4000016841F080510160006800F08050009012
:101A500008BD000044380240002809DB00F01F02E6
:101A6000012191404009800000F1E020C0F8001100
:101A700070470000F0B40E4B1B680C46C3F3022302
:101A8000C3F10705042D00D90425191D072901D22A
:101A9000002300E0DB1E012606FA05F1491E214065
:101AA00099409E40761E16403143F0BC01F021BEA5
:101AB0000CED00E0064900F0070208684FF6FF034E
:101AC000184040EA0220034A1043086070470000B3
:101AD0000CED00E00000FA052DE9F0470E46050088
:101AE00065D0DFF81481D8F80000F7B200F00700E5
:101AF000B04207D288F80070D8F8000000F0070064
:101B0000B04254D128683D4C810712D5400703D517
:101B1000206840F4E05020602878000703D5206852
:101B200040F4604020602068A96820F0F00008437D
:101B300020602878C0072DD030496868083901280E
:101B400012D0022813D0032811D009688907002970
:101B50002DDA216821F0030101432160FFF71CFF0A
:101B6000814641F2883A0EE009688903EFE7096887
:101B70008901ECE7FFF710FFA0EB0901514502D9FD
:101B80000320BDE8F0872068696800F00C00B0EB26
:101B9000810FEFD1D8F80010404601F00701B142A3
:101BA00007D90770006800F00700B04201D001209B
:101BB000E7E72878400705D52068E96820F4E05079
:101BC000084320602878000706D52068296920F49A
:101BD000604040EAC100206000F038F82168084AFF
:101BE000C1F30311515CC84006490860064800680B
:101BF000FFF7FAFE0020C4E7003C0240083802402C
:101C00002450000818000020100000200448054956
:101C100000680968044AC1F38221515CC8407047DA
:101C200018000020083802403450000804480549D4
:101C300000680968044AC1F34231515CC8407047EA
:101C4000180000200838024034500008154810B52C
:101C5000006810F00C02144813D04110042A0FD071
:101C6000082A0ED10F4C241F2268236802F03F027D
:101C70005B0207D52068C0F38810A0FB010106E0D5
:101C8000084610BD2168C1F38811A1FB00010023A3
:101C9000FEF7FCFA2168C1F30141491C4900B0FB81
:101CA000F1F010BD083802400024F4002DE9F84F8F
:101CB00004006ED02078DFF84C93C007A9F104052A
:101CC0004AD009F104000168C1F38101012908D05B
:101CD0000068C0F3810002280AD1D9F80000400250
:101CE00006D52868800337D560680028E1D033E046
:101CF0006068B0F5803F10D0B0F5A02F286810D0F4
:101D000020F480302860286820F4802028606068F3
:101D1000A8B1FFF741FE06460DE0286840F4803088
:101D2000F4E740F480202860F7E700BFFFF734FEB7
:101D3000801B642873D828688003F7D50CE0FFF770
:101D40002BFE064605E000BFFFF726FE801B642839
:101D5000F0D828688003F7D42078DFF8AC828007B9
:101D60004FF0000A3ED5A748001D016811F00C0F86
:101D700008D00068C0F3810002280BD1D9F8000018
:101D8000400207D42868800716D5E068012800D1F2
:101D900012E033E1E068B8B10120C8F80000FFF7B5
:101DA000FBFD064605E000BFFFF7F6FD801B02289D
:101DB000C0D828688007F7D52868216920F0F80086
:101DC00040EAC10028600DE0C8F800A0FFF7E4FD7C
:101DD000064604E0FFF7E0FD801B02281FD82868B4
:101DE0008007F7D42078000722D5864F874861699D
:101DF000703771B101210160FFF7CEFD064604E0A6
:101E0000FFF7CAFD801B022809D838688007F7D57C
:101E10000EE0C0F800A0FFF7BFFD064605E082E037
:101E2000FFF7BAFD801B02287DD838688007F7D4F9
:101E30002078400768D5DFF8CCB100270BF13C0BC8
:101E4000DBF80000C0000BD4DBF8001041F080513B
:101E5000CBF80010DBF80000012700F08050009064
:101E60006B4E3068C00510D4306840F4807030602C
:101E7000FFF792FD009005E0FFF78EFD0099401AF4
:101E8000022850D83068C005F6D55E4EA0686C3682
:101E900001280FD00528306810D020F001003060F4
:101EA000306820F004003060A068B8B1FFF774FD1E
:101EB00000900FE0306840F00100F4E740F00400CB
:101EC0003060F7E7FFF768FD0099411A41F288306A
:101ED000814266D830688007F4D50EE0FFF75CFDDC
:101EE000009007E0FFF758FD0099411A41F2883051
:101EF000814256D830688007F4D42FB1DBF8001047
:101F000021F08051CBF80010A069C8B33D49091DEC
:101F10000968C1F3810102294AD00228504607D03E
:101F2000C8F8600000E03CE0FFF736FD04463BE007
:101F30004746C8F86000FFF72FFD064605E000BFE2
:101F4000FFF72AFD801B02282BD828688001F7D4D0
:101F5000D4E907010843A16A2E4A490802EB01416E
:101F6000626A41EA8211084394F82C1040EA016148
:101F7000C9F8001001203866FFF70EFD044606E0A0
:101F80003EE000BFFFF708FD001B022809D82868C3
:101F90008001F7D534E000BFFFF7FEFC001B0228EC
:101FA00002D90320BDE8F88F28688001F4D427E027
:101FB0000128F7D0D9F80000E26900F480019142CD
:101FC0001CD1226A00F03F01914217D147F6C0713F
:101FD000626A0140B1EB821F10D1A26A4FF0FF3359
:101FE00000F4403103EB5202B1EB024F06D194F8FA
:101FF0002C1000F07060B0EB016F01D00120D1E730
:102000000020CFE70438024000004742800E4742DC
:10201000007000400000FFFF70B5040009D0606A46
:10202000002540B125616561A56294F8510040B179
:102030000CE0012070BD6068B0F5827FF4D0E561EE
:10204000F2E784F85050204600F044F8022084F86B
:1020500051002068016821F040010160A0882189B9
:1020600000F4827001F404410843A18901F4006185
:102070000843217C01F002010843217D01F00101A8
:102080000843218B01F400710843217F01F03801DE
:10209000084394F8201001F080010843218D01F4D9
:1020A0000051084321680860A069042101EA10403A
:1020B00094F8241001F0100108432168486020685A
:1020C000C16921F40061C1616565012084F8510096
:1020D000002070BD70472DE9F84F044690F850007D
:1020E00000271D461646894601280DD04FF0010BEA
:1020F00084F850B0FFF750FC804694F85100BA467F
:10210000012804D0022793E00220BDE8F88FB9F13E
:10211000000F73D0002E71D0032084F85100C4F852
:1021200054A0C4F83090A686E686C4F838A0A4F877
:102130003CA0A4F83EA0C4F844A0C4F840A0A06805
:10214000B0F5004F09D12068016821F0400101601D
:102150002068016841F480410160206801684906F7
:1021600003D4016841F040010160E068B0F5006F00
:10217000606803D030B3012E24D041E008B1012EB5
:102180001CD1206B21680088C86006E02068816847
:10219000890709D5216B0988C160206B801C2063E9
:1021A000E08E401EE08609E0FFF7F6FBA0EB08009A
:1021B000A84202D3681C01D031E07DB3E08E002834
:1021C000E4D120E0206B21680078087306E02068E5
:1021D0008168890709D5216B09780173206B401C40
:1021E0002063E08E401EE0860AE0FFF7D5FBA0EBFF
:1021F0000800A84203D3681C02D010E017E06DB1BC
:10220000E08E0028E3D142462946204600F03CFFFC
:1022100008B120206065A06818B106E0FFE7032739
:1022200006E02068C16880680090606D00B10127F9
:1022300084F851B084F850A0384666E710B5401EC7
:10224000B0F1807F01D3012010BD4FF0E024606128
:102250000F21601701F04DFA0020A06107202061D6
:10226000002010BD70B590F83C20012A32D0012426
:1022700080F83C40022280F83D2003685A689D683F
:1022800022F070060A6832435A60134B02689A4281
:1022900014D0B2F1804F11D0104B9A420ED0104B97
:1022A0009A420BD00F4B9A4208D00F4B9A4205D05E
:1022B0000E4B9A4202D00E4B9A4204D1496825F047
:1022C00080031943916080F83D40002180F83C1064
:1022D000084670BD022070BD0000014000040040AF
:1022E00000080040000C0040000401400040014094
:1022F0000018004010B5040003D094F83D0010B160
:1023000007E0012010BD002084F83C00204600F0CA
:102310001FF8022084F83D00211D206800F092FF84
:10232000012084F8460084F83E0084F83F0084F8D9
:10233000400084F8410084F8420084F8430084F8A7
:10234000440084F8450084F83D00002010BD0000E2
:1023500008B500680649884208D10648016841F07E
:1023600008010160006800F00800009008BD00004E
:10237000000C00404038024070B5044690F83C0024
:102380000025012817D0012684F83C60022084F83B
:102390003D002068826822F0770222F47F4282604A
:1023A0000868502838D00DDC20284FD005DC90B3C9
:1023B000102811D14AE0022070BD302846D04028B4
:1023C0000AD13BE060282FD070280DD0B0F5805F97
:1023D00003D0B0F5005F12D0012584F83D600020E5
:1023E00084F83C00284670BDCB68D1E90121206803
:1023F00000F08CFF2068816841F0770109E0CB682C
:10240000D1E90121206800F081FF2068816841F452
:1024100080418160E1E719E0CA684968206800F0FE
:1024200087FF5021206806E0CA684968206800F0EC
:1024300090FF6021206800F073FFCEE7CA6849680A
:10244000206800F075FF40212068F4E7226801460B
:102450001046F0E770477047F8B501680446086811
:10246000CA684B6910F00F0F4FF0000559D003F008
:10247000010602F49077374365D0C10705D0D10536
:1024800003D5616C41F001016164410705D5D907AD
:1024900003D0616C41F002016164810705D5D90761
:1024A00003D0616C41F004016164010707D502F0BB
:1024B0002001314303D0616C41F008016164616C1B
:1024C00000293AD0800604D5900602D5204600F0B7
:1024D00081FF20684069616CC0F38010090700D457
:1024E00060B3204600F04FFF20684069400621D5C8
:1024F0002068143050E8001F21F0400140E800122D
:10250000002AF5D1E06BA8B16E490165E06BFFF7D9
:1025100023F9002811D0E06B016D01B0BDE8F04057
:10252000084783060FD593060DD52046BDE8F84031
:1025300000F050BF2046FFF78EFFF8BD2046FFF7A2
:102540008AFF6564F8BD266B2023012E7DD1C60667
:102550007BD5D60679D508684868009048694FF061
:102560000206400641D5E16B086840680004000C93
:10257000E8D0A28D8242E5D9E085C869B0F5807FB8
:102580002DD020680C3050E8001F21F4807140E805
:102590000012002AF5D12068143050E8001F21F005
:1025A000010140E80012002AF5D12068143050E8FB
:1025B000001F21F0400140E80012002AF5D184F804
:1025C0004230256320680C3050E8001F21F01001D4
:1025D00040E80012002AF5D1E06BFFF774F866635B
:1025E000A08DE18D401A81B22AE0A08DE18D401AC4
:1025F00081B2E08D0028A5D00029A3D022680C323A
:1026000052E8000F20F4907042E80007002FF5D147
:102610002068143050E8002F22F0010240E8002723
:10262000002FF5D184F84230256320680C3050E843
:10263000002F22F0100240E80023002BF5D1666342
:102640002046FFF707FFF8BDFFE705062BD5150667
:1026500029D594F841002128F5D1A068B0F5805F14
:1026600001D12069B0B1206A411C21622168007843
:102670004860E08C401E0004000CE084E3D1206838
:10268000C16821F08001C1602068C16841F040014B
:10269000C160D8E7206A0088C0F308004860206A5B
:1026A000801C2062E5E74006CDD55006CBD5CA6830
:1026B000204622F04002CA6084F8413000F006F95A
:1026C000C1E700007733000870B5040004D094F827
:1026D0004100002510B106E0012070BD84F8405093
:1026E000204600F023F8242084F841002068C168C7
:1026F00021F40051C160204600F0CEFE206801693F
:1027000021F4904101612068416921F02A01416171
:102710002068C16841F40051C1606564202084F8DC
:10272000410084F842006563002070BD70B586B03A
:10273000044614216846FDF7B0FF2B4E22680021A5
:102740002A48022303240725B24222D1274A143201
:10275000166846F010061660126802F01002059224
:10276000026842F001020260006802AA00F0010063
:10277000059082E832006002CDE9000369461C48FA
:10278000FFF700F8002205212520FFF773F9252027
:1027900025E0184EB24224D1144A1032166846F48D
:1027A00080261660126802F480220592026842F0C8
:1027B00002020260006802AA00F00200059082E8AE
:1027C00032004FF44060CDE9000369460A48FEF745
:1027D000D9FF002205212720FFF74CF92720FFF71A
:1027E0003BF906B070BD00000010014030380240D7
:1027F00000000240004800400004024090F84230CF
:10280000202B01D00220704721B11AB100230363AD
:1028100000F0C8BE0120704700680349884201D11A
:1028200000F002BC70470000001001402DE9F843A1
:10283000044690F84100984616460D46202802D0DE
:102840000220BDE8F88385B17EB1002060642120BC
:1028500084F84100FFF7A0F8A6848146E684A068CA
:102860002027B0F5805F02D003E00120E9E720696E
:1028700010B12E4600250EE000260CE080212046F7
:1028800000F0ABFEA8B9C6B116F8010B216848608C
:10289000E08C401EE084E08C4B464FF00002CDF807
:1028A00000800028EAD14FF04001204600F095FE5C
:1028B00040B184F841700320C3E735F8020BC0F340
:1028C0000800E3E784F841700020BAE77047FEE7AC
:1028D0007CB514460D4606466B4606223B21682011
:1028E00000F09EF900280BD1BDF8001049BA3180E4
:1028F000BDF8021049BA2980BDF8041049BA2180F8
:102900007CBD000010B586B014216846FDF7C5FEF9
:102910001448016841F002010160016801F0020100
:102920000591016841F00201016000680E4C00F061
:1029300002000590402000900120019002900220AA
:10294000039069462046FEF71DFF8020009011206D
:10295000019069462046FEF715FF00F0B3F806B077
:1029600010BD000030380240000402402DE9F04163
:1029700000242B4E074625466006040E0122402106
:102980003046FFF704F8022000F034FF8021304683
:10299000FEF7F0FF08B1641CE4B20022402130468B
:1029A000FEF7F5FF022000F025FF6D1CEDB2082DAB
:1029B000E2D317B3002280213046FEF7E8FF022061
:1029C00000F018FF012240213046FEF7E0FF022010
:1029D00000F010FF002240213046FEF7D8FF022011
:1029E00000F008FF012280213046FEF7D0FF0220D0
:1029F00000F000FF2046BDE8F08101228021304632
:102A0000FEF7C5FF022000F0F5FE0122402130460E
:102A1000FEF7BDFF022000F0EDFE00224021E3E7BB
:102A20000004024070B5144E05460024280601D566
:102A3000012200E0002280213046FEF7A8FF02209C
:102A400000F0D8FE012240213046FEF7A0FF022010
:102A500000F0D0FE002240213046FEF798FF6806C5
:102A6000641C050EE4B2082CE0D33046BDE870408B
:102A700001228021FEF78BBF0004024010B5104CEC
:102A8000012280212046FEF782FF012240212046BC
:102A9000FEF77DFF022000F0ADFE002280212046DF
:102AA000FEF775FF022000F0A5FE0022402120461F
:102AB000FEF76DFFBDE81040022000F09BBE000055
:102AC0000004024010B50D4C002280212046FEF784
:102AD0005EFF022000F08EFE012240212046FEF71C
:102AE00056FF022000F086FE012280212046FEF7DC
:102AF0004EFFBDE81040022000F07CBE0004024002
:102B000070B5164E00242546012280213046FEF77E
:102B10003EFF022000F06EFE012240213046FEF70B
:102B200036FF022000F066FE07E0641CE4B2FA2CD7
:102B300003D9FFF7C7FF012505E080213046FEF7E6
:102B400019FF0028F1D1002240213046FEF71FFF77
:102B5000022000F04FFE284670BD00000004024035
:102B600010B5FFF7CFFE80216B2000F0C8F864207D
:102B7000FEF704FE00216B2000F0C1F80A20FEF7EA
:102B8000FDFD032000F087F8002000F07FF83220E0
:102B900000F09EF80021382000F0B1F800216A20F2
:102BA00000F0ADF80021232000F0A9F880213720A3
:102BB00000F0A5F8752000F015F8682805D07028F9
:102BC00003D0712801D0012010BD01216B2000F03D
:102BD00096F800216C2000F092F8322000F078F88E
:102BE000002010BD10B50446FFF748FFD020FFF7C6
:102BF00019FFFFF785FF2046FFF714FFFFF780FF5F
:102C0000FFF73CFFD120FFF70DFFFFF779FF002012
:102C1000FFF7ACFE0446FFF755FF204610BD00004D
:102C20002DE9F0411D4614460F460646FFF726FFE4
:102C30007006000EFFF7F6FEFFF762FF20B1FFF708
:102C400041FF0120BDE8F0813846FFF7EBFEFFF7BA
:102C500057FFFFF713FF012000EB4600C0B2FFF75C
:102C6000E1FEFFF74DFF09E0012C0DD05FF0010000
:102C7000FFF77CFE641E05F8010BE4B2002CF3D1D3
:102C8000FFF720FF0020DDE70020F1E7C006010E7E
:102C90001C2000F034B8C006010E1B2000F02FB835
:102CA000BC2801D3012110E0622801D302210CE0ED
:102CB0002A2801D3032108E0142801D3042104E0C9
:102CC0000A2801D3052100E006211A2000F017B8D8
:102CD00010B504464FF47A70844201D9044602E0EC
:102CE000042C00D20424B0FBF4F0401EC1B2192021
:102CF00000F005F86008BDE81040FFF7D1BF70B5DF
:102D00000C460546FFF7BAFED020FFF78BFEFFF713
:102D1000F7FE50B92846FFF785FEFFF7F1FE204683
:102D2000FFF780FEFFF7ECFE18B1FFF7CBFE0120A6
:102D300070BDFFF7C7FE002070BD00002DE9F04711
:102D400086B014216846FDF7A8FC4F4800240168AE
:102D500041F004010160016801F00401059101687E
:102D600041F020010160016801F020010591016836
:102D700041F080010160016801F080010591016866
:102D800041F001010160016801F001010591016854
:102D900041F010010160016801F010010591016826
:102DA00041F002010160016801F002010591016832
:102DB00041F008010160016801F008010591016816
:102DC00041F0400101600068304F00F04000059084
:102DD000012202213846FEF7DAFDDFF8B480002236
:102DE000B9154046FEF7D3FD01224FF4C0614046BD
:102DF000FEF7CDFDDFF89C90012240214846FEF70A
:102E0000C6FDDFF894A00022C0215046FEF7BFFDAA
:102E10000125CDE90054694638460294FEF7B2FC1C
:102E200002260096CDE90154694638460394FEF720
:102E3000A9FC4FF4E060CDE90005CDE90246694602
:102E40004046FEF79FFC102000904FF44410CDE95F
:102E5000010469464846FEF795FC40200090CDE904
:102E60000154694648460394FEF78CFCC02000904C
:102E700011200394CDE9010569465046FEF782FC16
:102E800006B0BDE8F087000030380240000802407C
:102E900000140240000002400004024010B586B059
:102EA0000024164800940194029403940494124957
:102EB0000594C0E90014611EC0E902410461846107
:102EC000FFF718FA08B1FEF7FCFB4FF480500090B2
:102ED00069460A48FFF750FA08B1FEF7F2FB04947E
:102EE00004A906480594FFF7BDF9002801D0FEF7B4
:102EF000E8FB06B010BD0000000C00407800002088
:102F00000C4810B50A4901604FF416514160002188
:102F100081600C22C160C0E904128161C161FFF7C8
:102F2000D3FB002803D0BDE81040FEF7CABB10BD9C
:102F300000100140C00000200C4810B50A49016093
:102F40004FF4E1314160002181600C22C160C0E991
:102F500004128161C161FFF7B7FB002803D0BDE80F
:102F60001040FEF7AEBB10BD004800400801002035
:102F7000FEE7FEE7004870475001002010B51A2117
:102F80000648FDF768FB0649002008700349BDE8C4
:102F900010401A3101220348FFF730BC50010020D5
:102FA0001E000020C00000200178422939D141785C
:102FB0004D2936D1418849BA1C2932D10022114607
:102FC000435C491C1A4492B21E29F9DBC18B49BAF1
:102FD0008A4226D1818801224BBA12490B80C388CC
:102FE0005BBA4B8003895BBA8B8043895BBACB8029
:102FF00083895BBA0B81C3895BBA4B81038A5BBA55
:103000008B81438A5BBACB81838A5BBA0B82C38A8A
:103010005BBA4B82038B5BBA8B82408B40BAC8820F
:103020000A7670475001002070B5134C134AA078FF
:10303000617861B1002501290ED05054491CC8B2F5
:10304000607020280FD31046FFF7AEFF06E042283D
:1030500009D11070012005E04D2801D0657002E013
:10306000507002206070BDE8704003490122891C45
:103070000348FFF7C3BB00001E000020AA01002088
:10308000C00000207047000038B504461248134BBA
:103090000068B0FBF3F04FF47A7358430090606817
:1030A000B0F5827F0DD10B46009200228021204690
:1030B00000F016F870B1606D40F0200060650320EC
:1030C00038BD009830B1401E009020688068C04331
:1030D0000006F6D5002038BD1800002000366E012D
:1030E0002DE9F8431E46914688460446089DFEF7A2
:1030F00053FC401B351AFEF74FFC07462548006875
:10310000C0F3CB30684338E0701C37D0FEF744FC86
:10311000C01BA84203D215B1009860B32CE0206810
:10312000416821F0E00141606068B0F5827F0BD119
:10313000A068B0F5004F02D0B0F5806F04D12068D0
:10314000016821F040010160A06AB0F5005F09D17B
:103150002068016821F4005101602068016841F491
:1031600000510160012084F85100002084F85000D3
:103170000320BDE8F8830025401E00902068816888
:1031800038EA010004D000214945BDD10020F0E714
:103190000121F9E7180000207047FEF703BC00008A
:1031A00030B593B030216846FDF777FA14210CA8AA
:1031B000FDF773FA1D480025016841F08051016058
:1031C000006800F0805011901948016841F4804176
:1031D00001600068022400F48040119001200090FA
:1031E000000401908001CDE9064008AA0420A8212E
:1031F00082E813000B906846FEF758FD08B172B6DE
:10320000FEE70CA90F2081E831004FF4A0500F9089
:103210004FF48050109005210CA8FEF75DFC0028AB
:1032200001D072B6FEE713B030BD00004038024056
:10323000007000400248016841F47001016070476D
:1032400088ED00E0F0B50268254C264D264E274F4C
:10325000274B4FF0804CA04209D0604507D0A842D0
:1032600005D0B04203D0B84201D0984204D122F038
:10327000700E4A6842EA0E02A0421BD0604519D087
:10328000A84217D0B04215D0B84213D0984211D0FE
:10329000184DA8420ED0184DA8420BD0174DA84289
:1032A00008D0174DA84205D0164DA84202D0164DA1
:1032B000A84203D122F44075CA682A434D6922F01E
:1032C00080022A4302608A68C2620A688262A0425F
:1032D00001D0984201D10969016301214161F0BD2A
:1032E000000001400004004000080040000C0040C5
:1032F00000040140004001400044014000480140FA
:1033000000180040001C00400020004010B58468F8
:1033100042EA032224F47F440A432243826010BD20
:10332000826822F070020A4342F007018160704710
:1033300010B5036A046A24F001040462846924F06D
:10334000F00444EA021423F00A020A438461026290
:1033500010BD10B5036A23F0100303628369046A89
:1033600023F4704343EA023224F0A00343EA01113C
:103370008261016210BD10B5806B0021C185C184DE
:10338000FFF769F810BD01680C3151E8002F22F4F5
:10339000907241E80023002BF5D10168143151E807
:1033A000002F22F0010241E80023002BF5D1016B30
:1033B000012909D101680C3151E8002F22F01002D7
:1033C00041E80023002BF5D1202180F84210002194
:1033D0000163704708B590F84210222901D00220FD
:1033E00008BD82684FF480539A4201D1016921B12E
:1033F000816A9A421BD04AB10AE00268816A526827
:10340000C2F308020A80816A891C08E0026972B16D
:103410000268526802F07F020A70816A491C816268
:10342000C18D491E0904090CC18503D01BE0026847
:103430005268F1E70168CA6822F02002CA60016898
:10344000CA6822F48072CA6001684A6922F00102E7
:103450004A61202180F8421000214163026B012A59
:1034600003D0FFF7D9F9002008BD016301680C31D2
:1034700051E8002F22F0100241E80023002BF5D183
:1034800001680A68D20602D50A6849680091818DF0
:10349000FEF7E0FFE7E7000070B504460068016949
:1034A000E26821F44051114301612169A068E26999
:1034B00008436169114308432168CA6849F20C63F3
:1034C0009A430243CA6020684169A26921F44071AD
:1034D0001143416131492068884202D03049884215
:1034E00002D1FEF7A3FB01E0FEF790FBE2690023A7
:1034F000192164253226B2F5004F626828D0A0FB5E
:103500000101930F9200FCF7C1FE0146B0FBF5F0FC
:103510006FF01802504301EB800006EB0010B0FB87
:10352000F5F000F0F002B1FBF5F002EB0012B1FB98
:10353000F5F06FF01803584301EB800006EB001024
:10354000B0FBF5F000F00F0021681044886070BDFA
:10355000A0FB010192185B41FCF798FE0146B0FB0D
:10356000F5F00201B1FBF5F06FF01803584301EBE1
:10357000800006EBC000B0FBF5F000F0F80002EBB5
:103580004002B1FBF5F0584301EB800006EBC000B0
:10359000B0FBF5F000F00700D6E700000010014096
:1035A0000014014081628285C2850021416422218C
:1035B00080F84210016921B10168CA6842F4807242
:1035C000CA6001684A6942F001024A610068C16844
:1035D00041F02001C160002070472DE9F843984672
:1035E00017460D460446089E24E0701C22D0FEF7C4
:1035F000D3F9A0EB0800B0421AD8CEB12068C16858
:10360000490717D5802D15D0402D13D00168C94327
:1036100009070FD401680025406800902046FFF795
:10362000B2FE0820606484F840500120BDE8F883B1
:103630000320FBE72068006835EA000004D0002082
:10364000B842D2D00020F1E70120F9E70148FEF7A7
:1036500003BF0000C000002078B51648006801686C
:103660004FF00003C943090704D401684168009181
:10367000016841680168104CC9438A060F490BD4A0
:10368000426840F2FF36D5B20A88B24203D2A5544E
:10369000521C0A8000E00B800268D243D20607D495
:1036A0000268406800900888B0F5806F00D223540B
:1036B00078BD0000080100202B020020220000201D
:1036C000FEE703B401984100009850EAC12018BFFA
:1036D00004204A0D18BF40F0010040F2FF72B2EB27
:1036E000515F08BF40F00200012808BF052002B06A
:1036F00070470907090E002804DB00F1E02080F87C
:103700000014704700F00F0000F1E02080F8141D55
:10371000704710B52DED028BB1EEC08A18EE100A7D
:1037200020F00040C0F1FF40C00F0AD010EE100A98
:1037300020F00040C0F1FF40C00F04BF0120FCF7A3
:10374000DBFFB0EE480ABDEC028B10BD30380A2812
:1037500001D20120704700207047000030B587B0CB
:1037600014216846FCF799FF0E480021026842F0D8
:103770002002026000684FF4807400F02000009482
:1037800005900120CDE90101074D039169462846C6
:10379000FDF7F8FF002221462846FEF7F8F807B0AB
:1037A00030BD0000303802400014024000224FF4C7
:1037B00080710148FEF7EBB80014024001221102AB
:1037C0000148FEF7E4B80000001402404FF4807195
:1037D0000148FEF7D4B80000001402400149086017
:1037E00070470000080000204FF47A71484300F051
:1037F00001B8000070B54FF0E02400226569094966
:10380000A36909684843A1699942FCD002D2A3EB9D
:10381000010302E0A5EB010633441A440B46824241
:10382000F1D370BD0800002001A101A000F046B84E
:10383000000000002DE9FE43144ADFF85480002404
:1038400007CA8DE807006F464FF4FA7657F8241040
:103850000F48C8F80410FEF737FF6420FDF78EFF0D
:10386000022532460BA10CA000F004F900280AD072
:103870003046FDF783FF6D1EEDB2F2D2641CE4B258
:10388000032CE3D30120BDE8FE8300003C50000878
:10389000080100204F4B000041540D0A00000000B9
:1038A00010B54FF480610348FCF7D5FE02490020B3
:1038B000088010BD2B0200202200002030B50546F4
:1038C000A1B00C46012000F0FDF8002822D17CB107
:1038D000207868B123462A460FA16846FCF74EFDC2
:1038E00042F2107212A1684600F0C4F821B030BD57
:1038F0004FF4FA6422460EA10EA000F0BBF840F689
:10390000B830FDF73BFF22460FA111A000F0B2F83E
:103910000028EBD00120E9E741542B43574A41509E
:103920003D222573222C222573220D0A000000005F
:103930004F4B000041542B43574155544F434F4E7A
:103940004E3D310D0A0000002B43574A41503A00CA
:1039500041542B43574A41503F0D0A0000B5A1B0D6
:103960000B46024607A16846FCF708FD42F21072BA
:103970000BA1684600F07EF8002800D0012021B09D
:1039800000BD000041542B41544B434C445354411F
:103990003D222573222C222573220D0A00000000EF
:1039A000434C4F554420434F4E4E454354454400ED
:1039B0004FF4FA6201A102A000F05CB84F4B000086
:1039C00041542B43575141500D0A000010B54FF49C
:1039D000FA7204A108A000F04DF8002800D00120E0
:1039E00010BD0000434C4F554420444953434F4EB3
:1039F0004E4543540000000041542B41544B434C6E
:103A000044434C530D0A000010B5114C0F480C21D3
:103A100020604FF4E13060600020A060E060C4E905
:103A20000401A061E0612046FEF74EFE08B1FDF7FB
:103A300048FE2068C16841F02001C160FFF730FFF7
:103A4000BDE810404FF47A70FDF798BE0048004082
:103A50000801002010B50446FCF7DEFD82B24FF4E9
:103A60007A7321460248FEF7E1FE002010BD0000F7
:103A70000801002070B515460E460446FFF710FFFA
:103A80002046FCF7C9FD82B2642321460B48FEF7AD
:103A9000CDFEFDF781FF044609E031460848FCF7FA
:103AA000A9FD08B1002070BD0A20FDF767FEFDF7F3
:103AB00073FF001BA842F0D3012070BD0801002055
:103AC0002B02002000B589B0024606A16846FCF72B
:103AD00055FC4FF4FA6207A16846FFF7CBFF09B027
:103AE00000BD000041542B43574D4F44453D2564D4
:103AF0000D0A00004F4B000010B50120FFF7E2FF58
:103B000008B1012010BDBDE810404FF4FA6202A1D7
:103B100002A0FFF7AFBF00004F4B000041542B4302
:103B2000575354415254534D4152540D0A00000012
:103B30004FF4FA6201A102A0FFF79CBF4F4B0000B7
:103B400041542B435753544F50534D4152540D0A37
:103B50000000000005280ED2DFE800F00305070989
:103B60000B0006A0704707A0704709A070470AA085
:103B700070470BA070470CA0704700004E6F726D2D
:103B8000616C00004672656546616C6C0000000067
:103B9000496D706163740000537461626C6500006C
:103BA00046414C4C21000000556E6B6E6F776E00E5
:103BB00010B504462DED028B3C21FCF76EFD002074
:103BC000207060609FED0F8AA06084F83800B0EE2E
:103BD000480A04F10C0000F013FCB0EE480A04F1AE
:103BE000180000F00DFCB0EE480A04F1240000F0CB
:103BF00007FC9FED050A84ED0C0A84ED0D0ABDEC6F
:103C0000028B10BD9A99993E000080462DE9F04143
:103C100000EE101A2DED028B04461E461746B8EE34
:103C2000C00A0C30089D00F0F7FBB0EE408A00EEB1
:103C3000107A04F11800B8EEC00A00F0EDFBF0EEC7
:103C4000408A00EE106A04F12400B8EEC00A00F0C9
:103C5000E3FBF0EE400A94ED0C0A84ED0D0AB0EEA1
:103C6000480A20EE000A08EEA80A00EEA00AFFF7B4
:103C700050FD84ED0C0A94F8380040F6B83218B1C3
:103C8000A068281A90424FD3267800200121274BA4
:103C90004FF47A77052E47D2DFE806F0030A1124A5
:103CA0003F0010EE100A224A90423DDA217012E0E5
:103CB00010EE101A1F4A91420FDD02200AE0D4EDE7
:103CC0000D0A30EE600AB0EEC00A10EE101A9942EA
:103CD00003DA03202070656026E06168691AB94242
:103CE00019D821E0D4ED0D0A30EE600AB0EEC00A1A
:103CF00010EE102A9A420EDA6068281AB0F5AF7FEB
:103D000012D30420207084F838100120A560BDEC87
:103D1000028BBDE8F081207006E0A168691A91422B
:103D200002D3207084F838000020F0E700007A45C4
:103D30000010244600D0844630B587B01421684670
:103D4000FCF7ABFC21480024016841F0010101604F
:103D5000016801F001010591016841F01001016065
:103D6000016801F010010591016841F01001016046
:103D7000016801F010010591016841F01001016036
:103D80000068012500F01000009505900220CDE9A3
:103D9000014069460E480394FDF7F4FC10208DE8BD
:103DA000310003940B4C69462046FDF7EBFC0820DC
:103DB000009069462046FDF7E5FC04200090694626
:103DC0002046FDF7DFFC07B030BD00003038024070
:103DD00000000240001002402DE9F0470027234E6A
:103DE000234C244D012809D101213046FDF7C2FDA5
:103DF000207010212846FDF7BDFD60700121B146FD
:103E00003046FDF7B7FD06461021A8462846FDF7C7
:103E1000B1FD0546207808B9012E03D0607801284D
:103E200010D01EE00A20FFF7DFFC01214846FDF715
:103E3000A1FD012815D1012739464846FDF79AFD15
:103E400006460EE06DB90A20FFF7CEFC1021404671
:103E5000FDF790FD28B9022710214046FDF78AFDA5
:103E60000546267065703846BDE8F08700000240C0
:103E70001C0000200010024070B5064600214FF4DF
:103E8000963540F23F13EF22084600F073F9012205
:103E900010210548FDF77BFD0024304600F09EFA16
:103EA000641CAC42F9D370BD000402400849F02202
:103EB0004FF4A073887140B10B804A802C20088198
:103EC0002A2048812B20888170470A804B80F5E7A3
:103ED0008406002010B514460B46024600F04AF94D
:103EE000A0B2BDE8104000F079BA000070B586B00D
:103EF00014216846FCF7D1FB1F48016841F002011C
:103F00000160016801F002010591016841F0400182
:103F100001600068012400F0400005901020CDE908
:103F20000004022569461548CDE90245FDF72AFC43
:103F30004020CDE90004124E69463046CDE90245E5
:103F4000FDF720FC8020CDE9000469463046CDE92C
:103F50000245FDF717FC2002CDE900046946304612
:103F6000CDE90245FDF70EFC002280213046FDF729
:103F70000EFD06B070BD0000303802400004024063
:103F80000018024070B500F0B3F9FFF7AFFF1A4D0B
:103F90004FF48074002221462846FDF7F8FC0A20E1
:103FA000FFF722FC012221462846FDF7F0FC78208D
:103FB000FFF71AFC00F024F8012240212846FDF703
:103FC000E6FC0E48F02101804FF4A071418047F2D9
:103FD00089718180002181712C2101812A214181F7
:103FE0002B2181810020FFF761FFBDE870404FF673
:103FF000FF70FFF741BF0000001802408406002058
:1040000010B5112000F0CEF97820FFF7EDFB362037
:1040100000F0C8F9002000F0D3F93A2000F0C2F90E
:10402000652000F0CDF9B22000F0BCF90C2000F0C2
:10403000C7F90C2000F0C4F9002000F0C1F93320CA
:1040400000F0BEF9332000F0BBF9B72000F0AAF968
:10405000722000F0B5F9BB2000F0A4F93D2000F07B
:10406000AFF9C02000F09EF92C2000F0A9F9C22081
:1040700000F098F9012000F0A3F9C32000F092F9B4
:10408000192000F09DF9C42000F08CF9202000F0E8
:1040900097F9C62000F086F90F2000F091F9D020A2
:1040A00000F080F9A42000F08BF9A12000F088F93D
:1040B000E02000F077F9D02000F082F9042000F031
:1040C0007FF90D2000F07CF9112000F079F9132020
:1040D00000F076F92B2000F073F93F2000F070F922
:1040E000542000F06DF94C2000F06AF9182000F01F
:1040F00067F90D2000F064F90B2000F061F91F2032
:1041000000F05EF9232000F05BF9E12000F04AF9AD
:10411000D02000F055F9042000F052F90C2000F0F6
:104120004FF9112000F04CF9132000F049F92C2030
:1041300000F046F93F2000F043F9442000F040F938
:10414000512000F03DF92F2000F03AF91F2000F037
:1041500037F91F2000F034F9202000F031F9232036
:1041600000F02EF9212000F01DF9BDE810402920B3
:1041700000F018B92DE9F04107461C4615460E46D9
:104180002A2000F00FF9380A00F01AF9F8B200F00E
:1041900017F9280A00F014F9E8B200F011F92B2001
:1041A00000F000F9300A00F00BF9F0B200F008F965
:1041B000200A00F005F9E0B200F002F9BDE8F04194
:1041C0002C2000F0EFB800002DE9FF5F1D460C46E3
:1041D0008A46580700D0012000EBD500690810FB83
:1041E00001F0203A00F0FF09D0B20026DFF894B0C9
:1041F000029043E00C2D10D0102D13D0182D3FD17C
:104200000298214900EBC00001EB80004FF000084C
:10421000875D38060BD50F9A0DE002981B4900EB1D
:104220004000F1E71A49029801EB0010EEE70E9802
:1042300028B91848026821460098FFF74BFE780617
:10424000070E641CBBF80200A4B2A04218D9A4EB6C
:104250000A00A84209D100985446401C80B2009040
:10426000BBF8001081420BD906E008F1010000F014
:10427000FF08B8F1080FCCD3761CF6B24E45B9D37F
:10428000BDE8FF9F84060020AC5A00084850000893
:10429000BC540008240000202DE9FC5F044600F017
:1042A000FF0910190D46DDE90CB61FFA80F8581900
:1042B00087B24FF0000A13E0444503D305EB0B002F
:1042C0004C4685B2BD4210D20E985B46CDE900A0A7
:1042D00029462046FFF778FF04EB5B0084B2761C8A
:1042E0003278A2F120005E28E6D9BDE8FC9F0000EC
:1042F0002DE9F04186B014216846FCF7CEF920483C
:104300000024016841F480510160006800F480508D
:1043100005901B481438016841F0020101600068F3
:10432000022500F002000590082001268DE86100BA
:104330000527DFF85080CDE9035769464046FDF771
:1043400021FA20208DE86100CDE9035769464046F7
:10435000FDF718FA0D480C4902C04FF48271E0E8ED
:104360000214290270C060E806140A210462446243
:10437000C0E90A410548FDF74FFE06B0BDE8F081EF
:104380004438024000040240003001402C06002066
:104390000A4601464FF0FF330148FDF79CBE00007E
:1043A0002C06002001B5002210210448FDF7EFFA89
:1043B00001216846FFF7ECFF08BD00000004024041
:1043C00001B5012210210448FDF7E1FA01216846F8
:1043D000FFF7DEFF08BD00000004024008B5010A37
:1043E0008DF800108DF80100012210210348FDF71F
:1043F000CEFA02216846FFF7CBFF08BD0004024059
:1044000080ED000A9FED030A002180ED010A017290
:104410007047000000000000017A81B1D0ED000A71
:10442000B7EE001AD0ED011A31EE601A21EE211A12
:1044300000EE801A80ED011A90ED010A704780EDC0
:10444000010A01210172F7E792B0FDF7B3FAFEF716
:10445000A7FEFEF773FCFEF721FDFEF751FDFEF708
:104460006BFD002507954FF0010A09950695089503
:10447000FDF792FAA820FFF7B1F9FFF783FDFFF7E8
:104480006DF9FFF759FCFEF779FD1822F8A0CDE988
:1044900000204FF478481346CDF80880C822052143
:1044A0001E20FFF7F9FE1024F5A0CDE900401F26DD
:1044B00023466E22232102960A20FFF7EDFEFEF727
:1044C0004FFB5FEA000979D0F0A1CDE9004110234C
:1044D0006E22CDF8088023210A20FFF7DDFE4FF47D
:1044E000FA60FDF74BF9EC48FFF762FBEBA0CDE972
:1044F0000040B34637461023DC223C2102960A20B6
:10450000FFF7CAFEE9A0CDE900400026102364228F
:10451000502102960A20FFF7BFFEE6A0CDE9004039
:1045200010239622502102974620FFF7B5FEE4A003
:10453000CDE9004064221023114602960A20FFF7BD
:10454000ABFEE1A0CDE900401023DC227D210297E3
:104550000A20FFF7A1FEE1A0CDE900401023DC22F4
:10456000912102960A20FFF797FEE1A0CDE90040D5
:104570001023DC22A52102960A20FFF78DFEE1A080
:10458000CDE900401023DC22BE2102970A20FFF76C
:1045900083FEE1A0CDE9004010236422D2210296DF
:1045A0000A20FFF779FEDFA0CDE900401023642246
:1045B000E62102960A20FFF76FFE00E04EE0DCA045
:1045C000CDE9004010236422FA2102960A20FFF769
:1045D00063FEDAA0CDE900401023DC2240F2131183
:1045E00002970A20FFF758FED8A0CDE9004010231B
:1045F0006E2240F2271102960A20FFF74DFED6A048
:10460000CDE900401023DC2240F23B1102970A2042
:10461000FFF742FED4A0CDE9004010236E2240F205
:104620003B1102968220FFF737FED2A0CDE9004071
:1046300010236E22232102978220FFF72DFEFFF721
:10464000E3F9FFF7F7F8CF4E98B1CFA1CDE90041DC
:1046500010236E22CDF8088023215BE0CDA0CDE9A8
:10466000004010236E22232102960A20FFF714FE39
:1046700039E7CBA0CDE900405F4610236E2223210D
:10468000CDF808B08220FFF707FEFDF785F9C7A037
:10469000CDE900401023DC2240F2271102970A20C6
:1046A000FFF7FAFDFFF7C0F848B1C5A0CDE900401B
:1046B0001023DC2240F2271102970A202BE0012070
:1046C000B0704FF4FC60C3A10094CDE90110102339
:1046D000DC2240F227110A20FFF7DEFDFDF75CF92E
:1046E000C1A0CDE9004010236E2240F227110297AD
:1046F0008220FFF7D1FDBFA1C1A0FFF72FF998B12C
:10470000C5A1CDE9004110236E22CDF8088000BF7D
:1047100040F227118220FFF7BFFDFDF73DF94FF46E
:104720007A70FDF72BF80AE00120F0704FF4FC607E
:10473000BCA10094CDE9011010236E22E8E700200F
:10474000FFF74AFB07460121B948FDF713F9024676
:104750004FF48061B748FDF71AF9012F02D0022FFC
:1047600064D0CFE17078B17850EA01020FD0002810
:1047700037D0FFF7DDF900207070AFA10094CDE9CC
:1047800001101023DC2240F227110A2049E0012009
:104790007070AEA0CDE900405F461023DC2240F2ED
:1047A0002711CDF808B00A20FFF776FDFFF7A4F92E
:1047B00070B1ABA1CDE900411023DC22CDF8088017
:1047C00040F227110A20FFF767FD002070702AE0F1
:1047D000A8A0CDE900401023DC2240F22711029767
:1047E000D3E7002921D0F07818B1FFF7EFF80020C7
:1047F000F070FFF7DDF80027B770A3A0CDE9004007
:104800001023DC2240F2271102970A20FFF744FD13
:10481000A2A0CDE9004010236E2240F2271102979A
:104820008220FFF739FDFDF7B7F86BE1BAF1000F11
:104830001DD006984FF0000AB8B10020024606903D
:1048400002219948FDF7A3F898A0CDE90040002780
:104850001023DC2240F23B1102970A20FFF71CFDD7
:10486000069818B15F4695A042E13BE13EE12BE19D
:10487000536D6172742048656C6D657400000000B2
:104880004D50553A496E69742E2E2E004D50553AB2
:104890004572726F722000003C0000203D3D2053A5
:1048A0007461747573203D3D00000000537973748A
:1048B000656D3A004E6F726D616C20202020000003
:1048C00053746174653A00003D3D20416972205186
:1048D00075616C697479203D3D000000504D322EA9
:1048E000353A2020202020202020202020200000D9
:1048F000447573743A20202020202020202020207E
:10490000202000003D3D20416363656C6572617449
:10491000696F6E203D3D0000416363656C20583A2D
:1049200000000000416363656C20593A00000000FC
:10493000416363656C205A3A000000003D3D204E03
:104940006574776F726B203D3D00000057694669C2
:104950003A202020202020004D4F44453A41555414
:104960004F202020202000004C414D503A4F464619
:1049700000000000576946693A496E69742E2E2E70
:104980000000000000000020576946693A45727235
:104990006F7220004D50553A4F4B202020200000D0
:1049A000576946693A4F4B202020200057694669D5
:1049B0003A436F6E6E6563742E2E20202020000017
:1049C000576946693A4E65656420436F6E6669674C
:1049D00020200000576946693A436F6E6E65637424
:1049E0006564202020200000436C643A436F6E6EA3
:1049F0002E2E0000313233343536373800000000B7
:104A0000303434353430363139363336343638385C
:104A10003637303300000000436C643A4572726FE1
:104A200072200000436C643A4F4B2020202000008D
:104A30000000024000140240576946693A53746FFF
:104A4000707065642020202020200000576946698E
:104A50003A436F6E6669672E2E2E202020200000BC
:104A6000576946693A436667204572726F72202023
:104A700020200000576946693A57616974696E677A
:104A80002E2E2E2020200000576946693A44697373
:104A9000636F6E6E6563746564200000436C643AF6
:104AA0002020202020200000000802404D4F4445D7
:104AB0003A4D414E20202020202000004C414D50F6
:104AC0003A4F4E20000000004FF0010AAFF278117B
:104AD000CDE900411023DC22CDF808B040F23B11B3
:104AE0000A200DE0012002460690A9E6AFF28810E8
:104AF000CDE9004010236E2240F23B110297822044
:104B0000FFF7CAFB0520B5FBF0F100FB11500028B0
:104B100077D1D04F01213846FCF72CFF012800D077
:104B20000020BAF1000F2BD018B1012002460690E8
:104B300002E000200246069002213846FCF727FFDB
:104B40005F46AFF2EC10CDE900401023DC2240F2CA
:104B50003B11CDF808B00A20FFF79EFB069810B174
:104B6000AFF2A80002E00027AFF20420CDE9004038
:104B700010236E2240F23B1102978220FFF78CFB3C
:104B80007078E8B3B4A1B748FBF734FDC0B3002098
:104B900070700127B770FEF7CBFF4FF4FC60AFF2E7
:104BA000CC110094CDE901101023DC2240F2271132
:104BB0000A20FFF771FBFCF7EFFEAFF2D411CDE94D
:104BC000004110236E22CDF808B040F22711822058
:104BD000FFF762FBAFF2E411AFF2DC10FEF7BEFEAE
:104BE00068B3AFF2CC11CDE9004110236E22CDF8AD
:104BF000088000BF40F227118220FFF74DFB01E043
:104C000002E0D8E0FCF7C8FEFEF7B4F90746007EE4
:104C1000002863D07A88B2F57A7F1BD992A1974891
:104C2000FBF7ACFB95491023CDE90041DC22CDF820
:104C3000088091210A20FFF72FFB01201AE0F7706E
:104C40004FF4FC60AFF224210094CDE90110102351
:104C50006E22CFE78AA18948FBF790FB00218748A5
:104C60000094CDE901011023DC2291210A20FFF7F5
:104C700013FB00200990788800EE100AB8EE401A65
:104C8000DFED840A81EE200A10EE100A00F052F9DE
:104C900041EC100B80A153EC102B7848FBF76EFB16
:104CA000002176480094CDE901011023DC22A521E2
:104CB0000A20FFF7F1FAF07880B171680898081AB5
:104CC00041F28831884209D3706808907A8877A1C8
:104CD0000AA8FBF753FB0AA8FEF7BCFEB9F1000FC8
:104CE00069D105AA04A903A8FDF7F2FD002862D145
:104CF000706800906148BDF91430BDF91020BDF90D
:104D00000C101430FEF782FF0A90BDF90C206AA146
:104D10005A48FBF733FB0020584F0094CDE901704F
:104D20001023C822D2210A20FFF7B6FABDF91020BD
:104D300064A13846FBF722FB00200094CDE9017006
:104D40001023C822E6210A20FFF7A6FABDF9142095
:104D50005FA13846FBF712FB00200094CDE90170FB
:104D60001023C822FA210A20FFF796FA07F114004F
:104D70000078FEF7EFFE024658A13846FBF7FEFA30
:104D80008DE890081023962264214620FFF784FACC
:104D90000A9880B153A1CDE9004110239622CDF8A5
:104DA000088050214620FFF777FA3078A0BBFEF745
:104DB00005FD00200790307870BB30481430007833
:104DC00004280FD00998B8B349A1CDE900411023B8
:104DD0009622CDF8088050214620FFF75DFAFEF7B5
:104DE000EDFC1CE03FA1CDE9004110239622CDF857
:104DF000088050214620FFF74FFA07983C280CD234
:104E00000A21B0FBF1F201FB120008B9FEF7DEFC4B
:104E10000798401CC0B2079001E0FEF7C7FC0A20CB
:104E2000FCF7ACFC70686D1C0A30EDB27060142D9C
:104E30007FF479AC002582E4FFE7AFF28851CDE939
:104E4000004110239622CDF808B050214620FFF7EC
:104E500023FAE2E7000802405749464920474F54E9
:104E6000204950002B020020504D322E353A253477
:104E70006420414C41524D210000000028000020D8
:104E8000504D322E353A2534642075672F6D33200E
:104E90000000000000007A44447573743A252E33F4
:104EA00066206D672F6D332020000000504D322E9C
:104EB000353A25640D0A0000416363656C20583A59
:104EC00025366400416363656C20593A25366400D9
:104ED000416363656C205A3A25366400252D3130D4
:104EE0007300000046414C4C21212020202000006E
:104EF000504D322E352121202020000010B50029F0
:104F00000AD00878002807D005487844FBF7C8FF86
:104F1000002801D0002010BD0248784410BD0000D8
:104F2000C6190000BE1900000808A0F500114FEADC
:104F30003101704743004FEAD30C4FEA3C0C434029
:104F40001FBF40070CF1605113F0FE4F70471CF07B
:104F5000006F03D100200CF0004170470CF00043BB
:104F600043EA507010B540EACC0000F00EF800BFE4
:104F7000000000924FEA0001FFF7D6BF4FF000415A
:104F80004FF00000A1F5002170470EF1020E2EF047
:104F9000030E5EF8044B244204D44FEA4102B2F1FE
:104FA0007F4F11D84FEA4003B3F17F4F0CD80ED199
:104FB0004FEAD07CB2F17F4F0CEB4C0C0CF1020CA1
:104FC00008BF4CEBD17C04E04FF0080C01E04FEA45
:104FD000D17C0CEB4C0324FA03F404F00704B4F185
:104FE000040C06D20EEB840CBDE810404CF0010C12
:104FF0006047DFE80CF0070802024FF00040A0F520
:10500000800010BD0846420018BFD2F1807288BFF0
:1050100000F0004010BD4FF04070E1EE100A704704
:10502000FBF7A2BC00000000000000000102030426
:1050300006070809000000000102030400C2010085
:105040008025000000E100000000000000000000DA
:1050500000000000000000003F40000000000000D1
:1050600000003000400030004000000009000BC08C
:105070003D000BC03D00090018C024407FE02240E5
:1050800031800000180024C01B000D8032400180D8
:1050900003801C4027401C80074000401000600037
:1050A00000000000000000000000000000001F8061
:1050B000204040200000402020401F8000000000D1
:1050C000090006001F80060009000000040004001B
:1050D0003F80040004000000001000600000000099
:1050E00000000000040004000400040004000000AC
:1050F000000000400000000000000000002001C08F
:1051000006003800400000001F8020402040204062
:105110001F800000000010403FC000400000000061
:1051200018C0214022402440184000001080204038
:10513000244024401B80000002000D0011003FC0ED
:10514000014000003C802440244024402380000093
:105150001F802440244034400380000030002000A1
:1051600027C03800200000001B8024402440244039
:105170001B8000001C0022C0224022401F80000033
:1051800000000000084000000000000000000000D7
:105190000460000000000000000004000A0011008C
:1051A00020804040090009000900090009000000B2
:1051B00000004040208011000A0004001800200078
:1051C00023402400180000001F8020402740294071
:1051D0001F400000004007C039000F0001C0004020
:1051E00020403FC0244024401B8000001F802040FE
:1051F000204020403080000020403FC02040204020
:105200001F80000020403FC024402E4030C00000DE
:1052100020403FC024402E00300000000F001080CE
:10522000204022403380020020403FC004000400A0
:105230003FC02040204020403FC020402040000090
:105240000060202020203FC02000200020403FC0E0
:1052500024400B0030C0204020403FC02040004090
:10526000004000C03FC03C0003C03C003FC0000005
:1052700020403FC00C4023003FC020001F80204042
:10528000204020401F80000020403FC024402400D8
:10529000180000001F802140214020E01FA00000D6
:1052A00020403FC02440260019C0004018C02440C0
:1052B0002440224031800000300020403FC0204088
:1052C0003000000020003F80004000403F80200070
:1052D00020003E0001C0070038002000380007C051
:1052E0003C0007C038000000204039C0060039C02B
:1052F000204000002000384007C038402000000057
:10530000304021C02640384020C00000000000008E
:105310007FE0402040200000000070000C0003806F
:10532000004000000000402040207FE0000000001E
:1053300000002000400020000000000000100010CD
:1053400000100010001000100000000040000000DD
:1053500000000000000002800540054003C000403E
:1053600020003FC004400440038000000000038090
:105370000440044006400000000003800440244034
:105380003FC000400000038005400540034000008E
:10539000000004401FC0244024402000000002E020
:1053A000055005500650042020403FC00440040032
:1053B00003C000400000044027C00040000000007F
:1053C00000100010041027E00000000020403FC043
:1053D0000140070004C00440204020403FC000407E
:1053E0000040000007C0040007C0040003C0000024
:1053F000044007C00440040003C0004000000380D4
:105400000440044003800000041007F004500440EE
:1054100003800000000003800440045007F00010E7
:10542000044007C0024004000400000000000640E1
:105430000540054004C00000000004001F80044037
:1054400000400000040007800040044007C0004006
:105450000400070004C0018006000400060001C02B
:10546000070001C006000000044006C0010006C09D
:10547000044000000410071004E00180060004004E
:105480000000044005C00640044000000000000089
:1054900004007BE040200000000000000000FFF05E
:1054A00000000000000040207BE00400000000003D
:1054B000400080004000200020004000000000006C
:1054C00000000000000000000000000000000000DC
:1054D00000001FCC000C00000000000000000800CD
:1054E000300060000800300060000000022003FC73
:1054F0001E20022003FC1E200220000000000E18C7
:1055000011043FFF10840C78000000000F0010848D
:105510000F3800C0077818840078000000780F84E6
:1055200010C411240E9800E40084000808006800EC
:1055300070000000000000000000000000000000FB
:10554000000007E01818200440020000000040029C
:105550002004181807E0000000000000024002408C
:1055600001800FF0018002400240000000800080B6
:1055700000800FF800800080008000000001000D16
:10558000000E00000000000000000000000000808D
:105590000080008000800080008000800000000CFF
:1055A000000C0000000000000000000000000006E9
:1055B000001800600180060018002000000007F0BD
:1055C000080810041004080807F000000000080490
:1055D00008041FFC000400040000000000000E0C82
:1055E00010141024104411840E0C000000000C183C
:1055F00010041104110412880C700000000000E077
:105600000320042408241FFC0024000000001F982D
:10561000108411041104108810700000000007F0BD
:1056200008881104110418880070000000001C0094
:10563000100010FC13001C001000000000000E38C9
:1056400011441084108411440E380000000007003B
:10565000088C10441044088807F000000000000087
:105660000000030C030C000000000000000000001C
:1056700000010106000000000000000000000080A2
:10568000014002200410080810040000022002203B
:10569000022002200220022002200000000010044C
:1056A00008080410022001400080000000000E00E5
:1056B0001200100C106C10800F00000003E00C189A
:1056C00013E4142417C4082807D000000004003C89
:1056D00003C41C40074000E4001C000410041FFC2D
:1056E0001104110411040E880070000003E00C186E
:1056F00010041004100410081C10000010041FFCFB
:10570000100410041004080807F0000010041FFC27
:105710001104110417C410040818000010041FFC21
:105720001104110017C010000800000003E00C185D
:105730001004100410441C780040000010041FFCEA
:1057400010840080008010841FFC100400001004EE
:1057500010041FFC100410040000000000030001EE
:10576000100110011FFE10001000000010041FFCAB
:10577000110403801464181C1004000010041FFCA2
:105780001004000400040004000C000010041FFCBE
:105790001F0000FC1F001FFC1004000010041FFC71
:1057A0000C04030000E010181FFC100007F00808AC
:1057B000100410041004080807F0000010041FFC77
:1057C00010841080108010800F00000007F008186F
:1057D00010241024101C080A07F2000010041FFCFB
:1057E0001104110011C011300E0C000400000E1C39
:1057F00011041084108410441C380000180010009C
:1058000010041FFC100410001800000010001FF806
:1058100010040004000410041FF8100010001E0003
:1058200011E0001C007013801C0010001FC0103C11
:1058300000E01F0000E0103C1FC000001004180C26
:10584000163401C001C01634180C100410001C00DE
:10585000130400FC13041C00100000000804101CBA
:105860001064108413041C041018000000000000D1
:1058700000007FFE400240024002000000003000B5
:105880000C0003800060001C0003000000004002C8
:10589000400240027FFE0000000000000000000007
:1058A00020004000400040002000000000010001F6
:1058B00000010001000100010001000100004000A2
:1058C00040002000000000000000000000000098E0
:1058D000012401440144014400FC000410001FFCA9
:1058E00000880104010400880070000000000070BE
:1058F0000088010401040104008800000000007019
:1059000000880104010411081FFC0004000000F8D5
:10591000014401440144014400C8000000000104A6
:1059200001040FFC1104110411001800000000D63E
:1059300001290129012901C90106000010041FFCE9
:10594000008401000100010400FC000400000104C7
:10595000190419FC0004000400000000000000030A
:1059600000010101190119FE0000000010041FFCD4
:105970000024004001B4010C0104000000001004E8
:1059800010041FFC0004000400000000010401FCDE
:105990000104010001FC0104010000FC010401FC00
:1059A000008401000100010400FC0004000000F874
:1059B000010401040104010400F80000010101FFD9
:1059C00000850104010400880070000000000070E0
:1059D000008801040104010501FF00010104010424
:1059E00001FC00840104010001800000000000CCE3
:1059F0000124012401240124019800000000010079
:105A0000010007F80104010400000000010001F892
:105A1000000400040004010801FC000401000180EE
:105A20000170000C001001600180010001F0010C08
:105A3000003001C00030010C01F001000000010441
:105A4000018C00740170018C0104000001010181CE
:105A50000171000E00180160018001000000018446
:105A6000010C013401440184010C0000000000001D
:105A70000000000001003EFC400240020000000067
:105A800000000000FFFF00000000000000004002D6
:105A900040023EFC01000000000000000000600029
:105AA0008000800040004000200020000000000036
:105AB00000000000000000000000000000000000E6
:105AC00000000000000000000000000000000000D6
:105AD0000000000000000000000000000000000FB7
