:020000040800F2
:10000000480D00204D020008972F0008872800089F
:10001000952F0008BF160008D13500080000000029
:10002000000000000000000000000000AB300008ED
:10003000C116000800000000A9300008AD3000081B
:1000400067020008670200086702000867020008EC
:1000500067020008670200086702000867020008DC
:1000600067020008670200086702000867020008CC
:1000700067020008670200086702000867020008BC
:1000800067020008670200086702000867020008AC
:10009000670200086702000867020008670200089C
:1000A000670200086702000867020008670200088C
:1000B000670200086702000867020008670200087C
:1000C000670200086702000867020008670200086C
:1000D000670200085D3500086702000869350008FE
:1000E000670200086702000867020008670200084C
:1000F000670200086702000867020008670200083C
:10010000670200086702000867020008670200082B
:10011000670200086702000867020008670200081B
:10012000670200086702000867020008670200080B
:1001300067020008670200086702000867020008FB
:1001400067020008670200086702000867020008EB
:1001500067020008670200086702000867020008DB
:1001600067020008670200086702000867020008CB
:10017000670200086702000867020008000000002C
:10018000670200086702000800F002F800F04FF86C
:100190000AA090E8000C82448344AAF10107DA45E2
:1001A00001D100F044F8AFF2090EBAE80F0013F0E5
:1001B000010F18BFFB1A43F001031847C0A9000044
:1001C000E0A90000103A24BF78C878C1FAD85207D5
:1001D00024BF30C830C144BF04680C6070470000C1
:1001E0000023002400250026103A28BF78C1FBD840
:1001F000520728BF30C148BF0B607047662907F01F
:100200009584642900F01E81732900F01285002076
:1002100070471FB507F085FC00F010FD04000020BA
:10022000002107F0B9FAE0601FBD10B510BD00F065
:1002300009FE1146FFF7EDFF06F04AFE00F027FE2B
:1002400003B4FFF7F2FF03BC00F06AFE09488047E1
:1002500009480047FEE7FEE7FEE7FEE7FEE7FEE7A8
:10026000FEE7FEE7FEE7FEE704480549054A064BC0
:100270007047000045310008890100084807002048
:10028000480D0020480900204809002053EA020CCC
:1002900000F069802DE9F04B4FF00006002B1FBFE6
:1002A000B3FA83F503FA05F424FA05F65E4012BFAB
:1002B0001643B2FA82F502FA05F4C5F120051EBF15
:1002C00022FA05FC44EA0C04203556EA044C4FEAB5
:1002D000144418BF641C4FF000084FF0000990420E
:1002E00071EB030C39D3002919BFB1FA81F701FA78
:1002F00007F6B0FA80F700FA07F6C7F120071EBF2D
:1003000020FA07FC46EA0C062037B6FBF4FCA7EB04
:100310000507103F07F01F0BCBF120060CFA0BFB73
:100320002CFA06F644BFB3460026202FA4BF5E4633
:100330004FF0000B5BEA060C08BF4FF0010B19EB06
:100340000B09ABFB027C48EB0608C01B06FB02CC8A
:100350000BFB03CC71EB0C01C1E70B460246414697
:100360004846BDE8F08B13B54FF000004FF0000198
:10037000AFF30080BDE81C40704700000FB41CB50F
:10038000074B06AA7B4469460090059800F027FCBD
:100390000020694600F036FC1CBC5DF814FB000030
:1003A0007D08000070B5044685690068C10601D566
:1003B000302600E02026C00707D070BDD4E9012117
:1003C00030469047206A401C20626D1EF6D570BDF5
:1003D00070B5044685690078C00707D170BDD4E9BF
:1003E000012120209047206A401C20626D1EF6D516
:1003F00070BD70B50C460546012A05D028788006E8
:1004000000D5EA69002302E0012305E05B1C93426A
:1004100002D2E05C0028F9D1A869E618C01AA861E8
:10042000286A184428622846FFF7BCFF04E0D5E993
:10043000012114F8010B9047B442F8D32846FFF786
:10044000C7FF70BD2DE9F0410646002410687529EC
:10045000314616A510D0AFF30080002802DA4042E2
:1004600013A507E031688A0701D512A502E0490704
:1004700004D511A5012401E0AFF3008000210A2278
:1004800006F1240709E0B0FBF2FCB0FBF2F302FB3B
:100490001C00303078541846491C0028F3D12346FC
:1004A0002A463046BDE8F04100F02CB900000000BB
:1004B0002D0000002B000000200000002DE9F05F5F
:1004C000894604464FF0000ADFF824B1FB44C0F827
:1004D00020A02046E168884700287DD0252806D046
:1004E000D4E901219047206A401C2062F1E70025F1
:1004F0005F462046E16888472028064607DB312E04
:1005000005D2B81910F8200C08B10543F1E7A80787
:1005100001D525F00405C4F81CA00027C4F818A0D4
:100520002A2E09D0304603F099F838B304EB870837
:10053000303EC8F8186019E059F8041B204604EB57
:1005400087029161E1688847012F064618D1E0696A
:10055000002820DA25F020051DE0D8F8180000EB6F
:10056000800006EB40003038C8F818002046E168EB
:100570008847064603F072F80028EED1012F0AD012
:100580002E2E08D12046E16888477F1C0646022FA0
:1005900045F02005C4DBA069002803DA404245F09D
:1005A0000105A061E80701D025F01005A6B1A6F16C
:1005B0004100192802D8203645F400654A463146E4
:1005C000204625604D46FFF719FE60B1012807D08F
:1005D000ED1D25F0070000E007E000F1080978E7CD
:1005E00005F1040975E730467AE7206ABDE8F09F17
:1005F00004A6000030B505460B462A4613F8014B09
:1006000012F8010B08B1A042F8D01CB1002802D0AA
:100610006D1CF1E7284630BD10B5431C02E010F810
:10062000011B71B18107FAD14FF0013202C88C1A57
:100630008C4314EAC211F9D0C01A0A0603D0C01EB6
:1006400010BDC01A10BD0A0401D0801E10BD0902E1
:10065000FCD0401E10BD4FF000020429C0F01280F3
:1006600010F0030C00F01B80CCF1040CBCF1020F65
:1006700018BF00F8012BA8BF20F8022BA1EB0C013A
:1006800000F00DB85FEAC17C24BF00F8012B00F830
:10069000012B48BF00F8012B70474FF0000200B556
:1006A000134694469646203922BFA0E80C50A0E895
:1006B0000C50B1F12001BFF4F7AF090728BFA0E843
:1006C0000C5048BF0CC05DF804EB890028BF40F80F
:1006D000042B08BF704748BF20F8022B11F0804F51
:1006E00018BF00F8012B704770477047704710B56E
:1006F00000F0A8FA006810BD10B5044600F0A2FA98
:10070000046010BD2DE9F0470D4699469246044617
:1007100000F124080168880604D5E06921F0100181
:10072000216000E00120A84201DD471B00E0002716
:10073000A1697A1902EB0900081AA0612078C006A5
:1007400002D42046FFF72EFE002608E0D4E901215E
:100750001AF806009047206A401C761C20624E451D
:10076000F4DB2078C0060AD52046FFF71BFE06E022
:10077000D4E9012130209047206A401C2062381EB5
:10078000A7F10107F4DC07E0D4E9012118F805001E
:100790009047206A401C2062281EA5F10105F3DC69
:1007A0002046FFF715FE2078000602D50220BDE89E
:1007B000F0870120FBE770472DE9FF4F0C461E46EE
:1007C0004FF0FF378BB0D2E90001DDF860800A906E
:1007D0008A46C1F30A5505B93D46002108464FF047
:1007E0000000BAF1000F00F4400005DA00EB8000D1
:1007F0004FF4400101EA50004FEA9059B9F1010F5E
:1008000000DDB9460A9850EA4A000ED044F610506E
:10081000A5F2FF3545432F14B8F1000F1ED07542E5
:10082000291E1EDDC9F100021CE0B8F1010F4FF0D6
:10083000000001D0302103E0F24305E02154401CC8
:10084000B042FBDB30460022002121540B99C1F855
:100850000880C1E900200FB0BDE8F08FBD1B6D1C02
:10086000DEE74A4600DA694206A800F075FA06ABF0
:1008700093E8070003AB83E8070050460A9900F0AD
:1008800056FB8DE80700A0F500501F380090039834
:10089000002D0ADD42F21F014A460844002303A945
:1008A0000390684600F0BFFD09E0A0F500504A46FD
:1008B0001F38002303A90390684600F0C9FD8DE8A6
:1008C00007000004000C03D04FF0FF30410800E0A7
:1008D0001046B8F1000F03D00022009215461EE02A
:1008E000751E05D400F0B2F9303262556D1EF9D58F
:1008F000B3460122084302D000227F1C04E0207886
:10090000302801D100227F1E002A099784D01DE0E3
:10091000112D07DA00F09AF9303262556D1C50EA59
:100920000102F5D1084302D00098C8B10EE00021C1
:10093000681E05E0235C625C63542254401E491C1F
:100940008142F7DBAB46A81B401E0990002004F84B
:100950000B000B98099AC0F80880C0E9002B7AE7D1
:1009600011264FF0000857E72DE9F04F884604465E
:10097000D21D22F0070191B0D1E90001CDE90A01B1
:1009800002F027FE02460B98C00F01D02D2007E091
:100990002068810701D52B2002E0202101EAC00058
:1009A000032A099001D0072A05DB03464146204669
:1009B00000F092F90BE12078800601D5E06900E0B3
:1009C0000620B8F1650F814606D0B8F1660F18D041
:1009D000B8F1670F70D131E00020B9F1110F00902C
:1009E00001DB112301E009F101030AAA01A90CA806
:1009F000FFF7E2FEDDE90C70002609F101058346F0
:100A000047E001204B4600904FF000470AAA01A999
:100A10000CA8FFF7D1FEDDE90DB00C995D4600266C
:100A200010B909F101000D18B9EB050003D4C0F1AC
:100A3000FF3609F10105A5EB09002BE0B9F1010F23
:100A400001DA4FF001090020B9F1110F009048467A
:100A500001DD112300E003460AAA01A90CA8FFF753
:100A6000ABFEDDE90C704D4600268346207800077A
:100A70000AD4AB4500DA5D4601A8012D04DD411919
:100A800011F8011C302907D04F4502DA17F1040F85
:100A900004DA012082460FE06D1EEEE7002F02DC33
:100AA000ED1B3E4403E0781CA84200DD7D1CB81B12
:100AB00000F1010A4FF000472078000703D4AA454F
:100AC00001DB4FF0FF3A0021B7F1004F0DF1430871
:100AD0008DF8431024D002202B23002F01DA7F420F
:100AE0002D230A21021EA0F1010000DC5FB197FB5B
:100AF000F1FC97FBF1F201FB1C7C17460CF1300C6A
:100B000008F801CDEEE7A8F101000370218809057E
:100B100001D5452100E06521A0F1010800F8011C84
:100B200009980FA9A1EB0807FF1D00B10120411989
:100B300001EBEA70A1693844081A401EA0612078D0
:100B4000C00602D42046FFF72DFC099828B1D4E94D
:100B500001219047206A401C20622078C00622D5DF
:100B60002046FFF71FFC1EE0002E04DBB34502DD2C
:100B700001A8805D00E03020D4E901219047206A7F
:100B8000401C2062761CAAF101005FEA000A0AD12B
:100B900000F054F8C0680168405CD4E90121904736
:100BA000206A401C2062281EA5F10105DCDC07E05C
:100BB000D4E9012118F8010B9047206A401C2062FB
:100BC000381EA7F10107F3DC2046FFF701FC0320E4
:100BD00011B041E601694A1C02610878704700B50E
:100BE0008FB0CDE901310021059105497944CDE966
:100BF000031011466846FFF761FC0FB000BD00000E
:100C0000E5FFFFFF0A6802F8010B0A60704710B5A4
:100C1000436913B1AFF3008001E0FFF7EAFB012065
:100C200010BD127800F124010A7000224A700122DE
:100C3000EDE711684FF0FF32E9E700000048704728
:100C40000407002000487047E406002030B5B0F1EA
:100C50000A024FEA900E71F100034EEA817EB0EB7A
:100C60000E0061EB91014FEA101E4EEA017E10EB7F
:100C70000E0041EB11114FEA102E4EEA016E10EBFF
:100C80000E0041EB11214FEA104E4EEA014E10EBDF
:100C90000E0041EB1141401841F100014FEAD00034
:100CA00040EA41704FEAD10110EB80054FEA810420
:100CB00044EA907444EB01046D1944EB0404521BA4
:100CC000A3414FF0000348BF0A3200D530BD401C9D
:100CD00041F1000130BD00002DE9F0411F460446FE
:100CE00003260168072A01F4006004DB08B116A599
:100CF00005E016A503E008B115A500E015A521F053
:100D000010002060A069C01EA0610FB1401EA0614C
:100D10002046FFF747FB4FB1D4E901213846904701
:100D2000206A401C2062C01C206206E0206AFAE7AC
:100D3000D4E9012115F8010B9047761EF8D2204620
:100D4000FFF746FBBDE8F0814E414E006E616E003C
:100D5000494E4600696E66002DE9F0478146164609
:100D60008AB0354878440DC88DE80D003248784483
:100D7000801C03AC0DC884E80D0041F69B3008448C
:100D8000372190FBF1F290FBF1F5A5F1800501FB15
:100D900012041B3C02D56442012000E00020DFF871
:100DA00098A080460027FA44AAF1BE0A0EE0E007A8
:100DB0000AD03246684607EB470101230AEB81015E
:100DC00000F046FB8DE8070064107F1C002CEED17C
:100DD000194F7F44AE3F19E0E80715D007EB041028
:100DE0000DF1180A90E80E008AE80E00C068F04283
:100DF00001D1981908903246012306A903A800F0F2
:100E000027FB03AB83E807006D10641C002DE3D1C2
:100E10004FF0010332466946B8F1000F03A802D033
:100E200000F001FB01E000F013FBC9E90001C9F883
:100E300008200AB0BDE8F087FC9D0000004870471C
:100E4000E40600207546FFF7F9FFAE460500694647
:100E5000534620F00700854618B020B5FFF704FA86
:100E6000BDE820404FF000064FF000074FF00008AB
:100E70004FF0000B21F00701AC46ACE8C009ACE82C
:100E8000C009ACE8C009ACE8C0098D46704710B590
:100E90000446AFF300802046BDE81040FFF7D0B90C
:100EA0004FF0013C50F8042B51F8043B9A4221D1F9
:100EB000A2EB0C03934313EACC1317D150F8042B85
:100EC00051F8043B9A4215D1A2EB0C03934313EA69
:100ED000CC130BD150F8042B51F8043B9A4209D1A2
:100EE000A2EB0C03934313EACC13DBD04FF00000CA
:100EF000704700BFD01A01BAB1FA81F101F01801B0
:100F000022FA01F0CB40C1F12001DBB2C0B2C01A1D
:100F10002CFA01F3D11A914311EAC311E6D17047BB
:100F200001491820ABBEFEE72600020070475FEAC9
:100F3000400C08BF91F0000F4FEA8C234FEAC1220A
:100F400043EA51514FEA1C5018BF00F5F0404FEAF8
:100F5000300018BF41F000415FEA6C5C00F029806E
:100F6000BCF1FF3F08BF40F080407047130C06BF44
:100F700012044FF0100C4FF0000C130E04BF1202BD
:100F80000CF1080C130F04BF12010CF1040C930FA9
:100F900004BF92000CF1020CD30F04BF52000CF1FD
:100FA000010C11464FF00002A0F11F00A0EB0C0055
:100FB000704711F0004F08BF704731F000413FF417
:100FC000D5AF0B0C06BF09044FF0100C4FF0000C0E
:100FD0000B0E04BF09020CF1080C0B0F04BF090132
:100FE0000CF1040C8B0F04BF89000CF1020CCB0F29
:100FF00004BF49000CF1010CCCF12003A0EB0C0064
:1010000022FA03F302FA0CF241EA030100F10100B3
:10101000704720F07F4C80EA030023F07F47ACEB61
:10102000070303F57C5300F0004003F1FF032DE9B3
:1010300080494FEA154B09B44FEA144325EA0B4E99
:1010400024EA03480FF2042606EB132749083E78EA
:101050005FEA320203FB0667C7F5000707FB06F6E7
:101060004FEA54374FEAD64606F1020607FB066CF4
:10107000CCF1005C4FEA1C472CEA074C07FB06F456
:101080000CFB06F504EB15464FEA961634BF00201C
:101090004FF000404FEAD13706FB07FC4FEA1C4CEB
:1010A0000CFB0BF7D21B03FB0CF761EB07010CFBEE
:1010B0000EF7B0EB074072EB17420CFB08F734BF9A
:1010C000A2EB0742B2EB074261EB17414FEA0C4437
:1010D0004FEA910706FB07FC4FEA1C4C0CFB0BF791
:1010E000B0EBC74072EB573203FB0CF734BFA2EBF7
:1010F000C742B2EBC74261EB57310CFB0EF7B0EBC6
:10110000C70072EB57720CFB08F734BFA2EBC702A3
:10111000B2EBC70261EB5771039F4FEA816141EA6D
:10112000921104EBCC044FEAD1374FEA826206FBFE
:1011300007FC42EA90124FEA80604FEA1C4C0CFB1D
:101140000BF7D21B03FB0CF761EB07010CFB0EF74F
:10115000B0EB074072EB17420CFB08F734BFA2EB71
:101160000742B2EB074261EB17414FEA8C554FEA59
:10117000910704EB9C2406FB07FC4FEA1C4C0CFB7C
:101180000BF7B0EBC74072EB573203FB0CF734BFE1
:10119000A2EBC742B2EBC74261EB57310CFB0EF733
:1011A000B0EBC70072EB57720CFB08F734BFA2EB31
:1011B000C702B2EBC70261EB577115EB4C254FEA42
:1011C000816141EA92114FEA82624FEAD13742EAE5
:1011D000901206FB07FC44F100044FEA80604FEADE
:1011E0001C4C0CFB0BF7D21B03FB0CF761EB07014C
:1011F0000CFB0EF7B0EB074072EB17420CFB08F745
:1012000034BFA2EB0742B2EB074261EB174115EB8B
:101210001C154FEA813141EA92414FEA823242EA9B
:1012200090424FEA80304FEA0C7644F1000448EADD
:1012300003434EEA0B484FF0000EB2EB080C71EB83
:10124000030724BF624639464EEB0E0E4FF0000BEB
:101250000018524149414BEB0B0BB2EB080C71EB00
:1012600003077BF1000B24BF624639464EEB0E0E9E
:101270004FF0000B0018524149414BEB0B0BB2EB06
:10128000080C71EB03077BF1000B24BF6246394663
:101290004EEB0E0E51EA020718BF46F0010616EBA0
:1012A0000E7655F1000254F1000103D5BDE8890125
:1012B000BDE80088BDE88901BDE80048B619524183
:1012C00041EB0101A3F10103704780807F7E7D7CAB
:1012D0007B7A7978777676757473727171706F6EC8
:1012E0006E6D6C6C6B6A6A69686867666665646473
:1012F000636362616160605F5F5E5E5D5D5C5C5BFD
:101300005B5A5A595958585757565655555554546B
:10131000535352525251515050504F4F4F4E4E4DC9
:101320004D4D4C4C4C4B4B4B4A4A4A494949484815
:101330004847474747464646454545444444444355
:1013400043434342424242414141002B9C4630D4F8
:1013500077002BD01CB54FEA370703B44FF01000CD
:101360004FF01001BAF1000F06D0BCF1000FDCBF46
:1013700040F0080040F008014FF000000FBCBDE84D
:1013800010400BF1010BBBF1010F08BF5FEA17071B
:1013900022BF12F1010211F101014FF0004143F1AE
:1013A000000300F0004043EA00007047F9D35708FB
:1013B000D0E746EA064613F1400F4FEA16461FDD16
:1013C00013F1200FDFBF16430A46002120335B4292
:1013D000BED0C3F1200746EA064602FA07F74FEAF5
:1013E000164646EA0706C3F1200722FA03F201FA7D
:1013F00007F721FA03F14FF0000342EA0702A7E7DB
:1014000046EA020646EA06464FEA164646EA01065C
:10141000BCBF46EA0646360C4FF000034FF0000210
:101420004FF0000194E72DE9804C9A46934670B442
:1014300091E8380007C831EA400C48BF34EA430C51
:1014400003D5FFF7E6FDFFF780FFF0BCBDE8008C99
:101450002DE9804C9A46934670B491E8380007C84D
:1014600010F0804F08BF13F0804F03D100F005F853
:10147000FFF76BFFF0BCBDE8008C20F07F4780EAEF
:10148000030023F07F4C07EB0C03A3F57C5300F023
:101490000040A3F1FE0392F0000F00F0B38095F03E
:1014A000000F00F077802DE901494FEA11404FEA23
:1014B000144621EA004800FB06FC24EA064708FB24
:1014C00006F607FB08F800FB07F718EB06484CEB9D
:1014D000164C4FEA124B18EB07484FEA15464CEBF7
:1014E000174022EA0B4E0BFB06FC25EA06470EFBD3
:1014F00006F607FB0EFE0BFB07F71EEB064E4CEB4A
:10150000164C4FF000061EEB074E4CEB174B18EB3A
:101510000B0840F1000018EB0E0B58EB000840F1EF
:1015200000008F1A4FF000013CBFC943661B14BF77
:10153000B5EB040C00213CBFC943F61B4FEA17442E
:101540004EEA8E0E27EA04454FEA1C4704FB076269
:101550002CEA074C05FB07F70CFB05F604FB0CFC1B
:1015600016EB074642EB174216EB0C4642EB1C42C9
:101570001BEB060658EB0202414146EA9E0601D5E6
:10158000BDE80189B619524141EB0101A3F1010304
:10159000BDE801894FEA14454FEA114724EA0546A0
:1015A00021EA074C05FB07F406FB07F70CFB06F1E5
:1015B00005FB0CFC11EB074144EB17444FEA1247C3
:1015C00011EB0C4144EB1C4422EA074C05FB07F2EB
:1015D00006FB07F70CFB06F605FB0CFC16EB0746B3
:1015E00042EB174216EB0C4642EB1C456A1854F1CD
:1015F000000148BF7047B619524141EB0101A3F108
:101600000103704795F0000F37D04FEA11424FEABF
:10161000144721EA024624EA074C02FB07F106FBC5
:1016200007F70CFB06F402FB0CFC14EB074441EB40
:1016300017414FEA154714EB0C4441EB1C4125EAD6
:10164000074C02FB07F506FB07F70CFB06F602FB4F
:101650000CFC16EB074645EB174516EB0C4645EB25
:101660001C42121951F1000148BF7047B61952418E
:1016700041EB0101A3F1010370474FEA14454FEA22
:10168000114724EA054621EA074C05FB07F106FB52
:1016900007F70CFB06F24FF0000605FB0CFC12EB03
:1016A000074241EB174112EB0C4251EB1C4148BF82
:1016B0007047921841EB0101A3F101037047FEE767
:1016C000704772B6FEE7000070B5B3F5804F05D0E5
:1016D0006FF0704140F82210002070BD50F8224099
:1016E000084B8E891C40D1E9003543EA05138D680B
:1016F00089692D0245EA06452B430B43234340F8F5
:101700002230E9E70000F0CFF0B50C6850F8243043
:10171000114A1340D1E90125D1E903672A433E4329
:1017200032434E6932438E693243CE6932430E6A88
:1017300032434E6A32438E6A3243CE6A3243CE6BB4
:10174000096B32430A431A43082D01D142F040028B
:1017500040F824200020F0BD8000F0FF30B500EB01
:10176000820250688D8900F04043D1E9000440EACC
:1017700004108C68240244EA054420430C8A074D77
:1017800005EB045420430C7D6D0105EB046489696D
:101790002043084318435060002030BD0000F0FF94
:1017A0002DE9F0410446876D00F0B6F9064694F83D
:1017B00035000025022806D08020606584F834506A
:1017C0000120BDE8F0812068016821F01601016068
:1017D0002068416921F080014161206C08B9A06C4A
:1017E00020B12068016821F00801016020680168CB
:1017F00021F0010101600CE000F08EF9801B05284A
:1018000007D920206065032084F8350084F834501F
:10181000D7E720680068C007EED194F85C103F203D
:101820008840B860012084F8350084F834500020E6
:10183000C7E790F83510022903D0802141650120C7
:101840007047052180F835100068016821F001011A
:1018500001600020704780B201F04EBF2DE9F041D9
:1018600086B014216846FEF718FF20480168002959
:1018700039D1012101601E480024016841F00101B5
:10188000016000684FF4805800F001000C27CDF88B
:101890000080CDE90470032602250396CDE90154AA
:1018A0006946144800F02EF84FF68070CDE9000527
:1018B00002AA694682E8D0000F4800F023F84CF2F3
:1018C0003370CDE9000502AA694682E8D0000B48D2
:1018D00000F018F802AA694682E8D000CDE9008538
:1018E000074800F00FF806B0BDE8F08108000020BE
:1018F000383802400014024000100240000C024040
:10190000001802402DE9F84FDFF8BCA100220125A4
:101910000AF1040B03264FF00F090BF1040E00BF70
:101920000B6805FA02F42340A34270D10F7907F047
:101930000307012F01D0022F16D187684FEA420812
:1019400006FA08FC27EA0C07D1F80CC00CFA08FCD0
:101950004CEA070CC0F808C04768A7430C79C4F3E9
:10196000001494403C4344600C79E443A4070AD03B
:10197000C4684FEA420C06FA0CF7BC438F6807FABA
:101980000CF72743C7600C7904F00304022C12D132
:10199000D40800EB840CDCF820405707FF0E09FA4E
:1019A00007F824EA0804D1F8108008FA07F848EA92
:1019B0000408CCF8208004684FEA420C06FA0CF7C1
:1019C000BC430F7907F0030707FA0CF727430760BA
:1019D0004C6814F4403F70D03C4C276847F4804773
:1019E0002760246822F0030704F480440094384CF4
:1019F00007EB040CDCF8084897074FEA177809FA58
:101A000008F7BC43334FB84202D1002724E054E02A
:101A1000314FB84201D101271EE0304FB84201D109
:101A2000022719E02E4FB84201D1032714E02D4FB1
:101A3000B84201D104270FE02B4FB84201D105274E
:101A40000AE02A4FB84201D1062705E0284FB842E4
:101A500001D1072700E0082707FA08F72743CCF849
:101A60000878DAF800405746D1F804C09C435FEA92
:101A7000CC3C00D51C433C60DBF800405F46D1F80D
:101A800004C09C435FEA8C3C00D51C433C60DEF8FC
:101A900000407746D1F804C09C435FEACC2C00D5C7
:101AA0001C433C60084F0C373C68D1F804C09C4391
:101AB0005FEA8C2C00D51C433C60521C102AFFF4BA
:101AC0002FAFBDE8F88F0000003C014044380240D1
:101AD00000300140000002400004024000080240C3
:101AE000000C0240001002400014024000180240A6
:101AF000001C02400069084000D001207047426984
:101B000021EA02030A4043EA0241816170470AB1B7
:101B1000816170470904FBE7014880687047000055
:101B200014000020024881680278114481607047E7
:101B3000140000200B4810B5016841F400710160E9
:101B4000016841F480610160016841F480710160C5
:101B5000032000F06FF80F2000F006F800F024F8E2
:101B6000002010BD003C024070B50D4D04464FF4FE
:101B70007A712878B1FBF0F00A490968B1FBF0F0FE
:101B800000F037FB48B9102C07D200222146501E26
:101B900000F030F800206C6070BD012070BD0000C6
:101BA00014000020200000200A4808B5016841F414
:101BB00080410160006800F4804000900548001FEB
:101BC000016841F080510160006800F08050009091
:101BD00008BD000044380240002809DB00F01F0265
:101BE000012191404009800000F1E020C0F800117F
:101BF00070470000F0B40E4B1B680C46C3F3022381
:101C0000C3F10705042D00D90425191D072901D2A8
:101C1000002300E0DB1E012606FA05F1491E2140E3
:101C200099409E40761E16403143F0BC01F0E9BC5D
:101C30000CED00E0064900F0070208684FF6FF03CC
:101C4000184040EA0220034A104308607047000031
:101C50000CED00E00000FA052DE9F0470E46050006
:101C600065D0DFF81481D8F80000F7B200F0070063
:101C7000B04207D288F80070D8F8000000F00700E2
:101C8000B04254D128683D4C810712D5400703D596
:101C9000206840F4E05020602878000703D52068D1
:101CA00040F4604020602068A96820F0F0000843FC
:101CB00020602878C0072DD030496868083901288D
:101CC00012D0022813D0032811D0096889070029EF
:101CD0002DDA216821F0030101432160FFF71CFF89
:101CE000814641F2883A0EE009688903EFE7096806
:101CF0008901ECE7FFF710FFA0EB0901514502D97C
:101D00000320BDE8F0872068696800F00C00B0EBA4
:101D1000810FEFD1D8F80010404601F00701B14221
:101D200007D90770006800F00700B04201D0012019
:101D3000E7E72878400705D52068E96820F4E050F7
:101D4000084320602878000706D52068296920F418
:101D5000604040EAC100206000F038F82168084A7D
:101D6000C1F30311515CC840064908600648006889
:101D7000FFF7FAFE0020C4E7003C024008380240AA
:101D8000307B00082000002018000020044805498E
:101D900000680968044AC1F38221515CC840704759
:101DA0002000002008380240407B00080448054914
:101DB00000680968044AC1F34231515CC840704769
:101DC0002000002008380240407B0008154810B56C
:101DD000006810F00C02144813D04110042A0FD0F0
:101DE000082A0ED10F4C241F2268236802F03F02FC
:101DF0005B0207D52068C0F38810A0FB010106E054
:101E0000084610BD2168C1F38811A1FB0001002321
:101E1000FEF73CFA2168C1F30141491C4900B0FBBF
:101E2000F1F010BD083802400024F4002DE9F84F0D
:101E300004006ED02078DFF84C93C007A9F10405A8
:101E40004AD009F104000168C1F38101012908D0D9
:101E50000068C0F3810002280AD1D9F800004002CE
:101E600006D52868800337D560680028E1D033E0C4
:101E70006068B0F5803F10D0B0F5A02F286810D072
:101E800020F480302860286820F480202860606872
:101E9000A8B1FFF741FE06460DE0286840F4803007
:101EA000F4E740F480202860F7E700BFFFF734FE36
:101EB000801B642873D828688003F7D50CE0FFF7EF
:101EC0002BFE064605E000BFFFF726FE801B6428B8
:101ED000F0D828688003F7D42078DFF8AC82800738
:101EE0004FF0000A3ED5A748001D016811F00C0F05
:101EF00008D00068C0F3810002280BD1D9F8000097
:101F0000400207D42868800716D5E068012800D170
:101F100012E033E1E068B8B10120C8F80000FFF733
:101F2000FBFD064605E000BFFFF7F6FD801B02281B
:101F3000C0D828688007F7D52868216920F0F80004
:101F400040EAC10028600DE0C8F800A0FFF7E4FDFA
:101F5000064604E0FFF7E0FD801B02281FD8286832
:101F60008007F7D42078000722D5864F874861691B
:101F7000703771B101210160FFF7CEFD064604E024
:101F8000FFF7CAFD801B022809D838688007F7D5FB
:101F90000EE0C0F800A0FFF7BFFD064605E082E0B6
:101FA000FFF7BAFD801B02287DD838688007F7D478
:101FB0002078400768D5DFF8CCB100270BF13C0B47
:101FC000DBF80000C0000BD4DBF8001041F08051BA
:101FD000CBF80010DBF80000012700F080500090E3
:101FE0006B4E3068C00510D4306840F480703060AB
:101FF000FFF792FD009005E0FFF78EFD0099401A73
:10200000022850D83068C005F6D55E4EA0686C3600
:1020100001280FD00528306810D020F00100306072
:10202000306820F004003060A068B8B1FFF774FD9C
:1020300000900FE0306840F00100F4E740F0040049
:102040003060F7E7FFF768FD0099411A41F28830E8
:10205000814266D830688007F4D50EE0FFF75CFD5A
:10206000009007E0FFF758FD0099411A41F28830CF
:10207000814256D830688007F4D42FB1DBF80010C5
:1020800021F08051CBF80010A069C8B33D49091D6B
:102090000968C1F3810102294AD00228504607D0BD
:1020A000C8F8600000E03CE0FFF736FD04463BE086
:1020B0004746C8F86000FFF72FFD064605E000BF61
:1020C000FFF72AFD801B02282BD828688001F7D44F
:1020D000D4E907010843A16A2E4A490802EB0141ED
:1020E000626A41EA8211084394F82C1040EA0161C7
:1020F000C9F8001001203866FFF70EFD044606E01F
:102100003EE000BFFFF708FD001B022809D8286841
:102110008001F7D534E000BFFFF7FEFC001B02286A
:1021200002D90320BDE8F88F28688001F4D427E0A5
:102130000128F7D0D9F80000E26900F4800191424B
:102140001CD1226A00F03F01914217D147F6C071BD
:10215000626A0140B1EB821F10D1A26A4FF0FF33D7
:1021600000F4403103EB5202B1EB024F06D194F878
:102170002C1000F07060B0EB016F01D00120D1E7AE
:102180000020CFE70438024000004742800E47425B
:10219000007000400000FFFF70B515460E460400B9
:1021A00003D094F8490010B107E0012070BD002071
:1021B00084F84800204600F01AF804F1080120686D
:1021C000FFF7A2FA3146A2682068FFF7C7FAD4E900
:1021D00001022946236BFFF777FAA168206850F8BF
:1021E000212042F0010240F82120002070BDFFF7BD
:1021F00035BB10B5401EB0F1807F01D3012010BD6A
:102200004FF0E02460610F21601701F0FAF900201F
:10221000A06107202061002010BD000070B590F87B
:102220003C20012A32D0012480F83C40022280F870
:102230003D2003685A689D6822F070060A683243A0
:102240005A60134B02689A4214D0B2F1804F11D0F9
:10225000104B9A420ED0104B9A420BD00F4B9A4221
:1022600008D00F4B9A4205D00E4B9A4202D00E4B2B
:102270009A4204D1496825F080031943916080F89F
:102280003D40002180F83C10084670BD022070BD22
:10229000000001400004004000080040000C004025
:1022A00000040140004001400018004010B5040047
:1022B00003D094F83D0010B107E0012010BD0020CC
:1022C00084F83C00204600F01FF8022084F83D000E
:1022D000211D206800F03EFF012084F8460084F8AC
:1022E0003E0084F83F0084F8400084F8410084F800
:1022F000420084F8430084F8440084F8450084F8E0
:102300003D00002010BD000008B500680649884265
:1023100008D10648016841F008010160006800F03A
:102320000800009008BD0000000C0040403802404A
:1023300070B5044690F83C000025012817D001260E
:1023400084F83C60022084F83D002068826822F016
:10235000770222F47F4282600868502838D00DDC72
:1023600020284FD005DC90B3102811D14AE002207C
:1023700070BD302846D040280AD13BE060282FD0DD
:1023800070280DD0B0F5805F03D0B0F5005F12D09B
:10239000012584F83D60002084F83C00284670BD8B
:1023A000CB68D1E90121206800F038FF20688168FE
:1023B00041F0770109E0CB68D1E90121206800F004
:1023C0002DFF2068816841F480418160E1E719E0D8
:1023D000CA684968206800F033FF5021206806E091
:1023E000CA684968206800F03CFF6021206800F05E
:1023F0001FFFCEE7CA684968206800F021FF40212E
:102400002068F4E7226801461046F0E770477047FD
:10241000F8B5016804460868CA684B6910F00F0FE8
:102420004FF0000559D003F0010602F490773743CE
:1024300065D0C10705D0D10503D5616C41F001011C
:102440006164410705D5D90703D0616C41F00201F1
:102450006164810705D5D90703D0616C41F004019F
:102460006164010707D502F02001314303D0616C9C
:1024700041F008016164616C00293AD0800604D5FE
:10248000900602D5204600F02DFF20684069616C5F
:10249000C0F38010090700D460B3204600F0FBFEB3
:1024A00020684069400621D52068143050E8001F9C
:1024B00021F0400140E80012002AF5D1E06BA8B1FC
:1024C0006E490165E06BFFF7B4F9002811D0E06BAD
:1024D000016D01B0BDE8F040084783060FD59306B3
:1024E0000DD52046BDE8F84000F0FCBE2046FFF7C1
:1024F0008EFFF8BD2046FFF78AFF6564F8BD266BA6
:102500002023012E7DD1C6067BD5D60679D5086855
:102510004868009048694FF00206400641D5E16BDB
:10252000086840680004000CE8D0A28D8242E5D91A
:10253000E085C869B0F5807F2DD020680C3050E868
:10254000001F21F4807140E80012002AF5D12068B4
:10255000143050E8001F21F0010140E80012002A69
:10256000F5D12068143050E8001F21F0400140E808
:102570000012002AF5D184F84230256320680C301F
:1025800050E8001F21F0100140E80012002AF5D1A8
:10259000E06BFFF705F96663A08DE18D401A81B20B
:1025A0002AE0A08DE18D401A81B2E08D0028A5D0EF
:1025B0000029A3D022680C3252E8000F20F490705A
:1025C00042E80007002FF5D12068143050E8002FB2
:1025D00022F0010240E80027002FF5D184F84230B4
:1025E000256320680C3050E8002F22F0100240E8EC
:1025F0000023002BF5D166632046FFF707FFF8BDE7
:10260000FFE705062BD5150629D594F841002128AA
:10261000F5D1A068B0F5805F01D12069B0B1206A22
:10262000411C2162216800784860E08C401E000453
:10263000000CE084E3D12068C16821F08001C16012
:102640002068C16841F04001C160D8E7206A008875
:10265000C0F308004860206A801C2062E5E740065D
:10266000CDD55006CBD5CA68204622F04002CA60BC
:1026700084F8413000F006F9C1E700008732000815
:1026800070B5040004D094F84100002510B106E0B4
:10269000012070BD84F84050204600F023F824202B
:1026A00084F841002068C16821F40051C1602046CF
:1026B00000F07AFE2068016921F4904101612068F0
:1026C000416921F02A0141612068C16841F400514B
:1026D000C1606564202084F8410084F8420065638D
:1026E000002070BD70B586B0044614216846FDF721
:1026F000D4FF2B4E226800212A48022303240725F9
:10270000B24222D1274A1432166846F010061660EB
:10271000126802F010020592026842F001020260A3
:10272000006802AA00F00100059082E83200600211
:10273000CDE9000369461C48FFF7E4F800220521B3
:102740002520FFF757FA252025E0184EB24224D164
:10275000144A1032166846F480261660126802F495
:1027600080220592026842F002020260006802AA1A
:1027700000F00200059082E832004FF44060CDE99D
:10278000000369460A48FFF7BDF80022052127200B
:10279000FFF730FA2720FFF71FFA06B070BD0000E0
:1027A0000010014030380240000002400048004064
:1027B0000004024090F84230202B01D002207047E4
:1027C00021B11AB10023036300F074BE01207047E9
:1027D00000680349884201D100F038BC704700000E
:1027E000001001402DE9F843044690F84100984656
:1027F00016460D46202802D00220BDE8F88385B198
:102800007EB100206064212084F84100FFF784F944
:10281000A6848146E684A0682027B0F5805F02D0B8
:1028200003E00120E9E7206910B12E4600250EE003
:1028300000260CE08021204600F057FEA8B9C6B162
:1028400016F8010B21684860E08C401EE084E08CA3
:102850004B464FF00002CDF800800028EAD14FF03F
:102860004001204600F041FE40B184F84170032051
:10287000C3E735F8020BC0F30800E3E784F84170C2
:102880000020BAE77047FEE77CB514460D460646C1
:102890006B4606223B21682000F09EF900280BD1F0
:1028A000BDF8001049BA3180BDF8021049BA29803C
:1028B000BDF8041049BA21807CBD000010B586B077
:1028C00014216846FDF7E9FE1448016841F0020151
:1028D0000160016801F002010591016841F0020107
:1028E000016000680E4C00F002000590402000904E
:1028F0000120019002900220039069462046FFF7D4
:1029000001F8802000901120019069462046FEF7D2
:10291000F9FF00F0B3F806B010BD000030380240F7
:10292000000402402DE9F04100242B4E07462546C5
:102930006006040E012240213046FFF7E8F802202D
:1029400000F0E0FE80213046FFF7D4F808B1641CA7
:10295000E4B2002240213046FFF7D9F8022000F00F
:10296000D1FE6D1CEDB2082DE2D317B300228021F9
:102970003046FFF7CCF8022000F0C4FE01224021CF
:102980003046FFF7C4F8022000F0BCFE00224021D0
:102990003046FFF7BCF8022000F0B4FE012280218F
:1029A0003046FFF7B4F8022000F0ACFE2046BDE848
:1029B000F081012280213046FFF7A9F8022000F0C3
:1029C000A1FE012240213046FFF7A1F8022000F0CD
:1029D00099FE00224021E3E70004024070B5144E46
:1029E00005460024280601D5012200E000228021AE
:1029F0003046FFF78CF8022000F084FE01224021CF
:102A00003046FFF784F8022000F07CFE00224021CF
:102A10003046FFF77CF86806641C050EE4B2082C0B
:102A2000E0D33046BDE8704001228021FFF76FB847
:102A30000004024010B5104C012280212046FFF70F
:102A400066F8012240212046FFF761F8022000F0DD
:102A500059FE002280212046FFF759F8022000F09D
:102A600051FE002240212046FFF751F8BDE81040FA
:102A7000022000F047BE00000004024010B50D4CDB
:102A8000002280212046FFF742F8022000F03AFEA3
:102A9000012240212046FFF73AF8022000F032FEE2
:102AA000012280212046FFF732F8BDE810400220C5
:102AB00000F028BE0004024070B5164E00242546E2
:102AC000012280213046FFF722F8022000F01AFE92
:102AD000012240213046FFF71AF8022000F012FED2
:102AE00007E0641CE4B2FA2C03D9FFF7C7FF012505
:102AF00005E080213046FEF7FDFF0028F1D10022DD
:102B000040213046FFF703F8022000F0FBFD284685
:102B100070BD00000004024010B5FFF7CFFE802119
:102B20006B2000F0C8F86420FEF795FE00216B20B2
:102B300000F0C1F80A20FEF78EFE032000F087F8AF
:102B4000002000F07FF8322000F09EF800213820AD
:102B500000F0B1F800216A2000F0ADF80021232038
:102B600000F0A9F88021372000F0A5F8752000F0CA
:102B700015F8682805D0702803D0712801D00120ED
:102B800010BD01216B2000F096F800216C2000F0B0
:102B900092F8322000F078F8002010BD10B50446FD
:102BA000FFF748FFD020FFF719FFFFF785FF20460A
:102BB000FFF714FFFFF780FFFFF73CFFD120FFF77F
:102BC0000DFFFFF779FF0020FFF7ACFE0446FFF78B
:102BD00055FF204610BD00002DE9F0411D4614466A
:102BE0000F460646FFF726FF7006000EFFF7F6FEBB
:102BF000FFF762FF20B1FFF741FF0120BDE8F08140
:102C00003846FFF7EBFEFFF757FFFFF713FF0120F2
:102C100000EB4600C0B2FFF7E1FEFFF74DFF09E011
:102C2000012C0DD05FF00100FFF77CFE641E05F85B
:102C3000010BE4B2002CF3D1FFF720FF0020DDE709
:102C40000020F1E7C006010E1C2000F034B8C006D9
:102C5000010E1B2000F02FB8BC2801D3012110E089
:102C6000622801D302210CE02A2801D3032108E0C5
:102C7000142801D3042104E00A2801D3052100E02F
:102C800006211A2000F017B810B504464FF47A70E8
:102C9000844201D9044602E0042C00D20424B0FB93
:102CA000F4F0401EC1B2192000F005F86008BDE83C
:102CB0001040FFF7D1BF70B50C460546FFF7BAFECE
:102CC000D020FFF78BFEFFF7F7FE50B92846FFF73D
:102CD00085FEFFF7F1FE2046FFF780FEFFF7ECFED2
:102CE00018B1FFF7CBFE012070BDFFF7C7FE002033
:102CF00070BD000010B58EB01C216846FDF7CDFCFC
:102D00001C2107A8FDF7C9FC1A484FF020411022EA
:102D1000016019494160062181600021C160C0E95C
:102D200004128161C16113020162C0E909139302B7
:102D3000C0E90B13416381634164022000900F20BE
:102D4000CDE9010203AC112384E80E0004240691AE
:102D5000CDE9074009AC092084E80F000D9107AACE
:102D600069460448FFF718FA002801D0FEF7A9FCCD
:102D70000EB010BD80000020040100A02DE9F0413C
:102D800086B014216846FDF788FC49480024016894
:102D900041F004010160016801F00401059101683E
:102DA00041F020010160016801F0200105910168F6
:102DB00041F080010160016801F080010591016826
:102DC00041F001010160016801F001010591016814
:102DD00041F010010160016801F0100105910168E6
:102DE00041F002010160016801F0020105910168F2
:102DF00041F008010160016801F0080105910168D6
:102E000041F04001016000682A4E00F0400005904A
:102E100000224FF480713046FEF779FE01224FF414
:102E2000C0613046FEF773FE234F01224021384631
:102E3000FEF76DFEDFF88480002248F2C0014046B4
:102E4000FEF765FE4FF4E0600125CDE900050220A4
:102E5000CDE9024069463046FEF754FD102000904F
:102E60004FF44410CDE9010469463846FEF74AFDA7
:102E700040200090CDE90154694638460394FEF79E
:102E800041FDE803CDE90005CDE90254694640461D
:102E9000FEF738FDC020009011200394CDE9010514
:102EA00069464046FEF72EFD06B0BDE8F081000001
:102EB000303802400014024000000240000402408A
:102EC00010B586B00024164800940194029403942F
:102ED000049412490594C0E90014611EC0E902413E
:102EE00004618461FFF7E2F908B1FEF7EAFB4FF4F1
:102EF0008050009069460A48FFF71AFA08B1FEF7B9
:102F0000E0FB049404A906480594FFF787F900281C
:102F100001D0FEF7D6FB06B010BD0000000C00404B
:102F2000D00000200C4810B50A4901604FF416513A
:102F30004160002181600C22C160C0E904128161FE
:102F4000C161FFF79DFB002803D0BDE81040FEF7EC
:102F5000B8BB10BD00100140180100200C4810B58E
:102F60000A4901604FF4E1314160002181600C2287
:102F7000C160C0E904128161C161FFF781FB0028D3
:102F800003D0BDE81040FEF79CBB10BD00480040D8
:102F900060010020FEE7FEE700487047A80100201E
:102FA00010B51A210648FDF756FB064900200870A7
:102FB0000349BDE810401A3101220348FFF7FABB6C
:102FC000A8010020250000201801002001784229D6
:102FD00039D141784D2936D1418849BA1C2932D19D
:102FE00000221146435C491C1A4492B21E29F9DBA7
:102FF000C18B49BA8A4226D1818801224BBA124933
:103000000B80C3885BBA4B8003895BBA8B80438992
:103010005BBACB8083895BBA0B81C3895BBA4B8176
:10302000038A5BBA8B81438A5BBACB81838A5BBAA2
:103030000B82C38A5BBA4B82038B5BBA8B82408B59
:1030400040BAC8820A767047A801002070B5134CB8
:10305000134AA078617861B1002501290ED050543F
:10306000491CC8B2607020280FD31046FFF7AEFF8E
:1030700006E0422809D11070012005E04D2801D05A
:10308000657002E0507002206070BDE87040034936
:103090000122891C0348FFF78DBB0000250000209A
:1030A000020200201801002070477047FEF73ABD69
:1030B00030B593B030216846FDF7EFFA14210CA823
:1030C000FDF7EBFA1D480025016841F080510160D1
:1030D000006800F0805011901948016841F4804167
:1030E00001600068022400F48040119001200090EB
:1030F000000401908001CDE9064008AA0420A8211F
:1031000082E813000B906846FEF790FE08B172B695
:10311000FEE70CA90F2081E831004FF4A0500F907A
:103120004FF48050109005210CA8FEF795FD002863
:1031300001D072B6FEE713B030BD00004038024047
:10314000007000400248016841F47001016070475E
:1031500088ED00E0F0B50268254C264D264E274F3D
:10316000274B4FF0804CA04209D0604507D0A842C1
:1031700005D0B04203D0B84201D0984204D122F029
:10318000700E4A6842EA0E02A0421BD0604519D078
:10319000A84217D0B04215D0B84213D0984211D0EF
:1031A000184DA8420ED0184DA8420BD0174DA8427A
:1031B00008D0174DA84205D0164DA84202D0164D92
:1031C000A84203D122F44075CA682A434D6922F00F
:1031D00080022A4302608A68C2620A688262A04250
:1031E00001D0984201D10969016301214161F0BD1B
:1031F000000001400004004000080040000C0040B6
:1032000000040140004001400044014000480140EA
:1032100000180040001C00400020004010B58468E9
:1032200042EA032224F47F440A432243826010BD11
:10323000826822F070020A4342F007018160704701
:1032400010B5036A046A24F001040462846924F05E
:10325000F00444EA021423F00A020A438461026281
:1032600010BD10B5036A23F0100303628369046A7A
:1032700023F4704343EA023224F0A00343EA01112D
:103280008261016210BD10B5806B0021C185C184CF
:10329000FFF7BDF810BD01680C3151E8002F22F492
:1032A000907241E80023002BF5D10168143151E8F8
:1032B000002F22F0010241E80023002BF5D1016B21
:1032C000012909D101680C3151E8002F22F01002C8
:1032D00041E80023002BF5D1202180F84210002185
:1032E0000163704708B590F84210222901D00220EE
:1032F00008BD82684FF480539A4201D1016921B11F
:10330000816A9A421BD04AB10AE00268816A526817
:10331000C2F308020A80816A891C08E0026972B15E
:103320000268526802F07F020A70816A491C816259
:10333000C18D491E0904090CC18503D01BE0026838
:103340005268F1E70168CA6822F02002CA60016889
:10335000CA6822F48072CA6001684A6922F00102D8
:103360004A61202180F8421000214163026B012A4A
:1033700003D0FFF72DFA002008BD016301680C316E
:1033800051E8002F22F0100241E80023002BF5D174
:1033900001680A68D20602D50A6849680091818DE1
:1033A000FFF734F8E7E7000070B5044600680169EC
:1033B000E26821F44051114301612169A068E2698A
:1033C00008436169114308432168CA6849F20C63E4
:1033D0009A430243CA6020684169A26921F440719E
:1033E0001143416131492068884202D03049884206
:1033F00002D1FEF7DBFC01E0FEF7C8FCE269002326
:10340000192164253226B2F5004F626828D0A0FB4E
:103410000101930F9200FCF739FF0146B0FBF5F074
:103420006FF01802504301EB800006EB0010B0FB78
:10343000F5F000F0F002B1FBF5F002EB0012B1FB89
:10344000F5F06FF01803584301EB800006EB001015
:10345000B0FBF5F000F00F0021681044886070BDEB
:10346000A0FB010192185B41FCF710FF0146B0FB85
:10347000F5F00201B1FBF5F06FF01803584301EBD2
:10348000800006EBC000B0FBF5F000F0F80002EBA6
:103490004002B1FBF5F0584301EB800006EBC000A1
:1034A000B0FBF5F000F00700D6E700000010014087
:1034B0000014014081628285C2850021416422217D
:1034C00080F84210016921B10168CA6842F4807233
:1034D000CA6001684A6942F001024A610068C16835
:1034E00041F02001C160002070472DE9F843984663
:1034F00017460D460446089E24E0701C22D0FEF7B5
:103500000BFBA0EB0800B0421AD8CEB12068C1680E
:10351000490717D5802D15D0402D13D00168C94318
:1035200009070FD401680025406800902046FFF786
:10353000B2FE0820606484F840500120BDE8F883A2
:103540000320FBE72068006835EA000004D0002073
:10355000B842D2D00020F1E70120F9E70148FEF798
:1035600057BF00001801002078B5164800680168B0
:103570004FF00003C943090704D401684168009172
:10358000016841680168104CC9438A060F490BD491
:10359000426840F2FF36D5B20A88B24203D2A5543F
:1035A000521C0A8000E00B800268D243D20607D486
:1035B0000268406800900888B0F5806F00D22354FC
:1035C00078BD000060010020830200202800002058
:1035D000FEE703B401984100009850EAC12018BFEB
:1035E00004204A0D18BF40F0010040F2FF72B2EB18
:1035F000515F08BF40F00200012808BF052002B05B
:1036000070470907090E002804DB00F1E02080F86C
:103610000014704700F00F0000F1E02080F8141D46
:10362000704710B52DED028BB1EEC08A18EE100A6E
:1036300020F00040C0F1FF40C00F0AD010EE100A89
:1036400020F00040C0F1FF40C00F04BF0120FDF793
:1036500053F8B0EE480ABDEC028B10BD30380A2892
:1036600001D20120704700207047000030B587B0BC
:1036700014216846FDF711F80E480021026842F057
:103680002002026000684FF4807400F02000009473
:1036900005900120CDE90101074D039169462846B7
:1036A000FEF730F9002221462846FEF730FA07B02F
:1036B00030BD0000303802400014024000224FF4B8
:1036C00080710148FEF723BA001402400122110262
:1036D0000148FEF71CBA0000001402404FF480714C
:1036E0000148FEF70CBA00000014024001490860CE
:1036F00070470000100000204FF47A71484300F03A
:1037000001B8000070B54FF0E02400226569094956
:10371000A36909684843A1699942FCD002D2A3EB8E
:10372000010302E0A5EB010633441A440B46824232
:10373000F1D370BD1000002001A101A000F046B837
:10374000000000002DE9FE43144ADFF854800024F5
:1037500007CA8DE807006F464FF4FA7657F8241031
:103760000F48C8F80410FEF78BFF6420FEF773F8CB
:10377000022532460BA10CA000F004F900280AD063
:103780003046FEF768F86D1EEDB2F2D2641CE4B26A
:10379000032CE3D30120BDE8FE830000487B000832
:1037A000600100204F4B000041540D0A0000000052
:1037B00010B54FF480610348FCF74DFF024900202B
:1037C000088010BD830200202800002030B5054687
:1037D000A1B00C46012000F0FDF8002822D17CB1F8
:1037E000207868B123462A460FA16846FCF7C6FD3B
:1037F00042F2107212A1684600F0C4F821B030BD48
:103800004FF4FA6422460EA10EA000F0BBF840F679
:10381000B830FEF720F822460FA111A000F0B2F850
:103820000028EBD00120E9E741542B43574A41508F
:103830003D222573222C222573220D0A0000000050
:103840004F4B000041542B43574155544F434F4E6B
:103850004E3D310D0A0000002B43574A41503A00BB
:1038600041542B43574A41503F0D0A0000B5A1B0C7
:103870000B46024607A16846FCF780FD42F2107233
:103880000BA1684600F07EF8002800D0012021B08E
:1038900000BD000041542B41544B434C4453544110
:1038A0003D222573222C222573220D0A00000000E0
:1038B000434C4F554420434F4E4E454354454400DE
:1038C0004FF4FA6201A102A000F05CB84F4B000077
:1038D00041542B43575141500D0A000010B54FF48D
:1038E000FA7204A108A000F04DF8002800D00120D1
:1038F00010BD0000434C4F554420444953434F4EA4
:103900004E4543540000000041542B41544B434C5E
:1039100044434C530D0A000010B5114C0F480C21C4
:1039200020604FF4E13060600020A060E060C4E9F6
:103930000401A061E0612046FEF7A2FE08B1FDF798
:10394000C0FE2068C16841F02001C160FFF730FF70
:10395000BDE810404FF47A70FDF77DBF004800408D
:103960006001002010B50446FCF756FE82B24FF409
:103970007A7321460248FEF735FF002010BD000093
:103980006001002070B515460E460446FFF710FF93
:103990002046FCF741FE82B2642321460B48FEF725
:1039A00021FFFEF7B9F8044609E031460848FCF764
:1039B00021FE08B1002070BD0A20FDF74CFFFEF784
:1039C000ABF8001BA842F0D3012070BD60010020BD
:1039D0008302002000B589B0024606A16846FCF7C4
:1039E000CDFC4FF4FA6207A16846FFF7CBFF09B0A0
:1039F00000BD000041542B43574D4F44453D2564C5
:103A00000D0A00004F4B000010B50120FFF7E2FF48
:103A100008B1012010BDBDE810404FF4FA6202A1C8
:103A200002A0FFF7AFBF00004F4B000041542B43F3
:103A3000575354415254534D4152540D0A00000003
:103A40004FF4FA6201A102A0FFF79CBF4F4B0000A8
:103A500041542B435753544F50534D4152540D0A28
:103A60000000000005280ED2DFE800F0030507097A
:103A70000B0006A0704707A0704709A070470AA076
:103A800070470BA070470CA0704700004E6F726D1E
:103A9000616C00004672656546616C6C0000000058
:103AA000496D706163740000537461626C6500005D
:103AB00046414C4C21000000556E6B6E6F776E00D6
:103AC00010B504462DED028B3C21FCF7E6FD0020ED
:103AD000207060609FED0F8AA06084F83800B0EE1F
:103AE000480A04F10C0003F0CFF9B0EE480A04F1E3
:103AF000180003F0C9F9B0EE480A04F1240003F0FD
:103B0000C3F99FED050A84ED0C0A84ED0D0ABDECA6
:103B1000028B10BD9A99993E000080462DE9F04134
:103B200000EE101A2DED028B04461E461746B8EE25
:103B3000C00A0C30089D03F0B3F9B0EE408A00EEE5
:103B4000107A04F11800B8EEC00A03F0A9F9F0EEFB
:103B5000408A00EE106A04F12400B8EEC00A03F0B7
:103B60009FF9F0EE400A94ED0C0A84ED0D0AB0EED8
:103B7000480A20EE000A08EEA80A00EEA00AFFF7A5
:103B800050FD84ED0C0A94F8380040F6B83218B1B4
:103B9000A068281A90424FD3267800200121274B95
:103BA0004FF47A77052E47D2DFE806F0030A112496
:103BB0003F0010EE100A224A90423DDA217012E0D6
:103BC00010EE101A1F4A91420FDD02200AE0D4EDD8
:103BD0000D0A30EE600AB0EEC00A10EE101A9942DB
:103BE00003DA03202070656026E06168691AB94233
:103BF00019D821E0D4ED0D0A30EE600AB0EEC00A0B
:103C000010EE102A9A420EDA6068281AB0F5AF7FDB
:103C100012D30420207084F838100120A560BDEC78
:103C2000028BBDE8F081207006E0A168691A91421C
:103C300002D3207084F838000020F0E700007A45B5
:103C40000010244600D0844630B587B01421684661
:103C5000FCF723FD21480024016841F001010160C7
:103C6000016801F001010591016841F01001016056
:103C7000016801F010010591016841F01001016037
:103C8000016801F010010591016841F01001016027
:103C90000068012500F01000009505900220CDE994
:103CA000014069460E480394FDF72CFE10208DE874
:103CB000310003940B4C69462046FDF723FE082093
:103CC000009069462046FDF71DFE042000906946DD
:103CD0002046FDF717FE07B030BD00003038024027
:103CE00000000240001002402DE9F0470025DFF8F7
:103CF000D490354C354EA846012802D0207810B11A
:103D000044E084F8008001214846FDF7F3FE0127D6
:103D100001280FD010213046FDF7ECFEB0B108218C
:103D20003046FDF7E7FEE0B104213046FDF7E2FE44
:103D300010B32BE00A20FFF7DFFC01214846FDF716
:103D4000D9FE012822D1277001251FE00A20FFF7A4
:103D5000D3FC10213046FDF7CDFEB8B927700225FF
:103D600014E00A20FFF7C8FC08213046FDF7C2FE28
:103D700060B92770032509E00A20FFF7BDFC042184
:103D80003046FDF7B7FE08B92770042501214846E3
:103D9000FDF7B0FE98B910213046FDF7ABFE0128C3
:103DA0000DD108213046FDF7A5FE012807D10421D9
:103DB0003046FDF79FFE012801D184F80080284697
:103DC000BDE8F087000002402400002000100240FF
:103DD00070B50A490646002408884D8821464543A7
:103DE000204602F0EDFE03F03FF84FF0D84002E02D
:103DF000A0F88060641CAC42FAD370BDD4060020E9
:103E00002DE9F04F38492C260A46887192884FF4E4
:103E1000305A4FF4285B41F6631E2B274FF02A0CD3
:103E20004FF0F00845F210594FF448754FF4A07464
:103E30004FF4F07358B10C80A1F802804A4530D19C
:103E4000A1F808A0A1F80AB03802888141E0A1F8E1
:103E500000804C804A4507D1A1F808A0A1F80AB01B
:103E60004FF42C50888105E072450E8105D14F81B9
:103E7000A1F80CC00B804D8002E0A1F80AC08F8130
:103E8000A2F5A640103803D0A2F5EE40963801D135
:103E90000C804B80A2F5184006381FD10B804D8056
:103EA0001CE0724511D0A2F5184006380DD00E81E5
:103EB000A1F80AC0A1F80C70A2F5A64010380BD0EA
:103EC000A2F5EE40963807D008E00E81A1F80AC0AE
:103ED0008F810D804B80EFE70B804C80BDE8F04F69
:103EE000002002F0ABBD0000D406002010B514463F
:103EF00002F066FE02F0B8FF4FF0D840A0F8804014
:103F000010BD10B5CF2002F0A3FF002002F094FFF7
:103F1000C12002F091FF302002F08EFFED2002F070
:103F200097FF642002F088FF032002F085FF122033
:103F300002F082FF812002F07FFFE82002F088FF7C
:103F4000852002F079FF102002F076FF7A2002F03F
:103F500073FFCB2002F07CFF392002F06DFF2C2094
:103F600002F06AFF002002F067FF342002F064FFD5
:103F7000022002F061FFF72002F06AFF202002F029
:103F80005BFFEA2002F064FF002002F055FF0020F2
:103F900002F052FFC02002F05BFF1B2002F04CFF3A
:103FA000C12002F055FF012002F046FFC52002F0BB
:103FB0004FFF302002F040FF302002F03DFFC720CD
:103FC00002F046FFB72002F037FF362002F040FF34
:103FD000482002F031FF3A2002F03AFF552002F06B
:103FE0002BFFB12002F034FF002002F025FF1A2041
:103FF00002F022FFB62002F02BFF0A2002F01CFF85
:10400000A22002F019FFF22002F022FF002002F0AD
:1040100013FF262002F01CFF012002F00DFFE0201C
:1040200002F016FF0F2002F007FF2A2002F004FF23
:10403000282002F001FF082002F0FEFE0E2002F010
:10404000FBFE082002F0F8FE542002F0F5FEA92045
:1040500002F0F2FE432002F0EFFE0A2002F0ECFE36
:104060000F2002F0E9FE002002F0E6FE002002F040
:10407000E3FE002002F0E0FE002002F0DDFEE12081
:1040800002F0E6FE002002F0D7FE152002F0D4FE7A
:10409000172002F0D1FE072002F0CEFE112002F020
:1040A000CBFE062002F0C8FE2B2002F0C5FE5620F3
:1040B00002F0C2FE3C2002F0BFFE052002F0BCFE72
:1040C000102002F0B9FE0F2002F0B6FE3F2002F0F1
:1040D000B3FE3F2002F0B0FE0F2002F0ADFE2B2019
:1040E00002F0B6FE002002F0A7FE002002F0A4FEBF
:1040F000012002F0A1FE3F2002F09EFE2A2002F0E5
:10410000A7FE002002F098FE002002F095FE00209D
:1041100002F092FEEF2002F08FFE112002F098FED6
:104120007820FDF798FBBDE81040292002F090BEF2
:1041300010B5FF2002F08CFEFF2002F07DFE9820DB
:1041400002F07AFE062002F077FEBC2002F080FE2C
:10415000012002F071FE0F2002F06EFE612002F0DD
:104160006BFEFF2002F068FE012002F065FE0120D8
:1041700002F062FE0B2002F05FFE102002F05CFEF7
:10418000372002F059FE632002F056FEFF2002F0B5
:1041900053FEFF2002F050FE012002F04DFE0120F0
:1041A00002F04AFE002002F047FE002002F044FE2A
:1041B000FF2002F041FE522002F03EFE012002F0FC
:1041C0003BFE002002F038FE402002F035FEBD200C
:1041D00002F03EFE012002F02FFE232002F02CFE12
:1041E000452002F029FE672002F026FE012002F0A1
:1041F00023FE232002F020FE452002F01DFE672052
:1042000002F01AFEBE2002F023FE002002F014FE8F
:10421000012002F011FEAB2002F00EFE602002F041
:104220000BFE222002F008FE222002F005FE2220D2
:1042300002F002FE222002F0FFFD222002F0FCFD2F
:10424000C72002F005FE362002F0F6FDED2002F058
:10425000FFFD7F2002F0F0FD0F2002F0EDFDC020F9
:1042600002F0F6FD0F2002F0E7FD0B2002F0E4FD66
:104270000A2002F0E1FDFC2002F0EAFD082002F035
:10428000DBFDDF2002F0E4FD002002F0D5FD002080
:1042900002F0D2FD002002F0CFFD002002F0CCFDA4
:1042A000002002F0C9FD202002F0C6FDF32002F03C
:1042B000CFFD742002F0C0FDB42002F0C9FD002043
:1042C00002F0BAFD002002F0B7FD002002F0B4FDBC
:1042D000F72002F0BDFD822002F0AEFDB12002F019
:1042E000B7FD002002F0A8FD132002F0A5FD132069
:1042F00002F0A2FDF22002F0ABFD802002F09CFD56
:10430000042002F099FD402002F096FD282002F0E2
:1043100093FDC12002F09CFD172002F08DFD882046
:1043200002F08AFD882002F087FD202002F084FD43
:10433000E02002F08DFD002002F07EFD0A2002F058
:104340007BFD122002F078FD102002F075FD0E209A
:1043500002F072FD202002F06FFDCC2002F06CFD17
:10436000072002F069FD062002F066FD0B2002F036
:1043700063FD0E2002F060FD0F2002F05DFD0D20B8
:1043800002F05AFD152002F057FD102002F054FDF6
:10439000002002F051FDE12002F05AFD002002F061
:1043A0004BFD0B2002F048FD132002F045FD0D20CF
:1043B00002F042FD0E2002F03FFD1B2002F03CFD0A
:1043C000712002F039FD062002F036FD062002F0D1
:1043D00033FD0A2002F030FD0F2002F02DFD0E20EB
:1043E00002F02AFD0F2002F027FD152002F024FD27
:1043F0000C2002F021FD002002F01EFD2A2002F018
:1044000027FD002002F018FD002002F015FD01201C
:1044100002F012FDDF2002F00FFD2B2002F018FD4C
:10442000002002F009FD002002F006FD032002F04A
:1044300003FD1F2002F000FD3A2002F009FD552087
:1044400002F0FAFC362002F003FD002002F0F4FC3A
:10445000112002F0FDFC7820FDF7FDF9292002F083
:10446000F7FC1420FDF7F7F9BDE810402C2002F00E
:10447000EFBC10B5ED2002F0EBFC012002F0DCFCFB
:10448000FE2002F0D9FCEE2002F0E2FCDE2002F079
:10449000D3FC212002F0D0FCF12002F0D9FC012055
:1044A00002F0CAFCDF2002F0D3FC102002F0C4FCB2
:1044B000C42002F0CDFC8F2002F0BEFCC62002F02A
:1044C000C7FC002002F0B8FCE22002F0B5FCE220BC
:1044D00002F0B2FCE22002F0AFFCBF2002F0B8FC18
:1044E000AA2002F0A9FCB02002F0B2FC0D2002F0DC
:1044F000A3FC002002F0A0FC0D2002F09DFC002097
:1045000002F09AFC112002F097FC002002F094FCCB
:10451000192002F091FC002002F08EFC212002F014
:104520008BFC002002F088FC2D2002F085FC00208E
:1045300002F082FC3D2002F07FFC002002F07CFCB7
:104540005D2002F079FC002002F076FC5D2002F094
:1045500073FC002002F070FCB12002F079FC802096
:1045600002F06AFC002002F067FC8B2002F064FC81
:10457000002002F061FC962002F05EFC002002F0B8
:104580005BFCB22002F064FC002002F055FC00202D
:1045900002F052FC022002F04FFC002002F04CFC22
:1045A000032002F049FC002002F046FCB32002F098
:1045B0004FFC002002F040FC002002F03DFC0020F7
:1045C00002F03AFC002002F037FC002002F034FC3C
:1045D000002002F031FC002002F02EFC002002F04E
:1045E0002BFC002002F028FC002002F025FC00201B
:1045F00002F022FC002002F01FFC002002F01CFC54
:10460000002002F019FC002002F016FC002002F04D
:1046100013FC002002F010FC002002F00DFC002032
:1046200002F00AFC002002F007FC002002F004FC6B
:10463000002002F001FC002002F0FEFB002002F04E
:10464000FBFBB42002F004FC8B2002F0F5FB002001
:1046500002F0F2FB962002F0EFFB002002F0ECFBF0
:10466000A12002F0E9FB002002F0E6FBB52002F0F9
:10467000EFFB022002F0E0FB002002F0DDFB032054
:1046800002F0DAFB002002F0D7FB042002F0D4FB9A
:10469000002002F0D1FBB62002F0DAFB002002F08D
:1046A000CBFB002002F0C8FBB72002F0D1FB0020BA
:1046B00002F0C2FB002002F0BFFB3F2002F0BCFB77
:1046C000002002F0B9FB5E2002F0B6FB002002F0F1
:1046D000B3FB642002F0B0FB002002F0ADFB8C20A5
:1046E00002F0AAFB002002F0A7FBAC2002F0A4FB22
:1046F000002002F0A1FBDC2002F09EFB002002F073
:104700009BFB702002F098FB002002F095FB9020AC
:1047100002F092FB002002F08FFBEB2002F08CFBFA
:10472000002002F089FBDC2002F086FB002002F072
:1047300083FBB82002F08CFB002002F07DFB002000
:1047400002F07AFB002002F077FB002002F074FBFD
:10475000002002F071FB002002F06EFB002002F04E
:104760006BFB002002F068FBBA2002F071FB2420F2
:1047700002F062FB002002F05FFB002002F05CFB15
:10478000002002F059FBC12002F062FB202002F061
:1047900053FB002002F050FB542002F04DFB0020A0
:1047A00002F04AFBFF2002F047FB002002F044FB2E
:1047B000C22002F04DFB0A2002F03EFB002002F076
:1047C0003BFB042002F038FB002002F035FBC32045
:1047D00002F03EFB3C2002F02FFB002002F02CFBFD
:1047E0003A2002F029FB002002F026FB392002F0DB
:1047F00023FB002002F020FB372002F01DFB0020ED
:1048000002F01AFB3C2002F017FB002002F014FB20
:10481000362002F011FB002002F00EFB322002F0E5
:104820000BFB002002F008FB2F2002F005FB00200C
:1048300002F002FB2C2002F0FFFA002002F0FCFA4A
:10484000292002F0F9FA002002F0F6FA262002F000
:10485000F3FA002002F0F0FA242002F0EDFA002032
:1048600002F0EAFA242002F0E7FA002002F0E4FA6B
:10487000232002F0E1FA002002F0DEFA3C2002F0F0
:10488000DBFA002002F0D8FA362002F0D5FA002038
:1048900002F0D2FA322002F0CFFA002002F0CCFA75
:1048A0002F2002F0C9FA002002F0C6FA2C2002F0F4
:1048B000C3FA002002F0C0FA292002F0BDFA00205D
:1048C00002F0BAFA262002F0B7FA002002F0B4FA99
:1048D000242002F0B1FA002002F0AEFA242002F007
:1048E000ABFA002002F0A8FA232002F0A5FA00207B
:1048F00002F0A2FAC42002F0ABFA622002F09CFAA5
:10490000002002F099FA052002F096FA002002F049
:1049100093FA842002F090FA002002F08DFAF02041
:1049200002F08AFA002002F087FA182002F084FAD6
:10493000002002F081FAA42002F07EFA002002F0AA
:104940007BFA182002F078FA002002F075FA502065
:1049500002F072FA002002F06FFA0C2002F06CFAFA
:10496000002002F069FA172002F066FA002002F037
:1049700063FA952002F060FA002002F05DFAF3205D
:1049800002F05AFA002002F057FAE62002F054FA38
:10499000002002F051FAC52002F05AFA322002F04B
:1049A0004BFA002002F048FA442002F045FA0020B9
:1049B00002F042FA652002F03FFA002002F03CFAD1
:1049C000762002F039FA002002F036FA882002F050
:1049D00033FA002002F030FAC62002F039FA202023
:1049E00002F02AFA002002F027FA172002F024FA37
:1049F000002002F021FA012002F01EFA002002F04D
:104A00001BFAC72002F024FA002002F015FA002059
:104A100002F012FA002002F00FFA002002F00CFA65
:104A2000C82002F015FA002002F006FA002002F079
:104A300003FA002002F000FA002002F0FDF9C9207C
:104A400002F006FA002002F0F7F9002002F0F4F973
:104A5000002002F0F1F9002002F0EEF9002002F04F
:104A6000EBF9002002F0E8F9002002F0E5F900205F
:104A700002F0E2F9002002F0DFF9002002F0DCF998
:104A8000002002F0D9F9002002F0D6F9002002F04F
:104A9000D3F9002002F0D0F9002002F0CDF9002077
:104AA00002F0CAF9E02002F0D3F9162002F0C4F9AE
:104AB000002002F0C1F91C2002F0BEF9002002F033
:104AC000BBF9212002F0B8F9002002F0B5F9362038
:104AD00002F0B2F9002002F0AFF9462002F0ACF982
:104AE000002002F0A9F9522002F0A6F9002002F0FD
:104AF000A3F9642002F0A0F9002002F09DF97A20C9
:104B000002F09AF9002002F097F98B2002F094F954
:104B1000002002F091F9992002F08EF9002002F0B5
:104B20008BF9A82002F088F9002002F085F9B9205D
:104B300002F082F9002002F07FF9C42002F07CF933
:104B4000002002F079F9CA2002F076F9002002F084
:104B500073F9D22002F070F9002002F06DF9D9202B
:104B600002F06AF9002002F067F9E02002F064F92F
:104B7000002002F061F9F32002F05EF9002002F05B
:104B80005BF9E12002F064F9162002F055F90020EB
:104B900002F052F91C2002F04FF9002002F04CF90B
:104BA000222002F049F9002002F046F9362002F0F6
:104BB00043F9002002F040F9452002F03DF90020C1
:104BC00002F03AF9522002F037F9002002F034F9ED
:104BD000642002F031F9002002F02EF97A2002F070
:104BE0002BF9002002F028F98B2002F025F9002093
:104BF00002F022F9992002F01FF9002002F01CF9BE
:104C0000A82002F019F9002002F016F9B92002F0EC
:104C100013F9002002F010F9C42002F00DF9002071
:104C200002F00AF9CA2002F007F9002002F004F9A4
:104C3000D22002F001F9002002F0FEF8D82002F0A4
:104C4000FBF8002002F0F8F8E02002F0F5F8002070
:104C500002F0F2F8F32002F0EFF8002002F0ECF896
:104C6000E22002F0F5F8052002F0E6F8002002F05C
:104C7000E3F80B2002F0E0F8002002F0DDF81B2042
:104C800002F0DAF8002002F0D7F8342002F0D4F86D
:104C9000002002F0D1F8442002F0CEF8002002F00B
:104CA000CBF84F2002F0C8F8002002F0C5F86120D0
:104CB00002F0C2F8002002F0BFF8792002F0BCF840
:104CC000002002F0B9F8882002F0B6F8002002F0C7
:104CD000B3F8972002F0B0F8002002F0ADF8A6205B
:104CE00002F0AAF8002002F0A7F8B72002F0A4F81A
:104CF000002002F0A1F8C22002F09EF8002002F08D
:104D00009BF8C72002F098F8002002F095F8D12017
:104D100002F092F8002002F08FF8D62002F08CF812
:104D2000002002F089F8DD2002F086F8002002F071
:104D300083F8F32002F080F8002002F07DF8E320F1
:104D400002F086F8052002F077F8002002F074F8EF
:104D50000A2002F071F8002002F06EF81C2002F028
:104D60006BF8002002F068F8332002F065F80020AC
:104D700002F062F8442002F05FF8002002F05CF8D4
:104D8000502002F059F8002002F056F8622002F09C
:104D900053F8002002F050F8782002F04DF800207F
:104DA00002F04AF8882002F047F8002002F044F8A8
:104DB000972002F041F8002002F03EF8A62002F011
:104DC0003BF8002002F038F8B72002F035F8002058
:104DD00002F032F8C22002F02FF8002002F02CF886
:104DE000C72002F029F8002002F026F8D12002F0B6
:104DF00023F8002002F020F8D52002F01DF8002052
:104E000002F01AF8DD2002F017F8002002F014F882
:104E1000F32002F011F8002002F00EF8E42002F076
:104E200017F8012002F008F8002002F005F8012030
:104E300002F002F8002001F0FFFF022001F0FCFF69
:104E4000002001F0F9FF2A2001F0F6FF002001F018
:104E5000F3FF3C2001F0F0FF002001F0EDFF4B20BC
:104E600001F0EAFF002001F0E7FF5D2001F0E4FF20
:104E7000002001F0E1FF742001F0DEFF002001F0CE
:104E8000DBFF842001F0D8FF002001F0D5FF932044
:104E900001F0D2FF002001F0CFFFA22001F0CCFFF3
:104EA000002001F0C9FFB32001F0C6FF002001F08F
:104EB000C3FFBE2001F0C0FF002001F0BDFFC420F1
:104EC00001F0BAFF002001F0B7FFCD2001F0B4FFE0
:104ED000002001F0B1FFD32001F0AEFF002001F06F
:104EE000ABFFDD2001F0A8FF002001F0A5FFF320BB
:104EF00001F0A2FF002001F09FFFE52001F0A8FFD4
:104F0000002001F099FF002001F096FF002001F041
:104F100093FF002001F090FF022001F08DFF0020A0
:104F200001F08AFF292001F087FF002001F084FFB3
:104F30003C2001F081FF002001F07EFF4B2001F0BA
:104F40007BFF002001F078FF5D2001F075FF00205D
:104F500001F072FF742001F06FFF002001F06CFF80
:104F6000842001F069FF002001F066FF932001F02A
:104F700063FF002001F060FFA22001F05DFF002030
:104F800001F05AFFB32001F057FF002001F054FF59
:104F9000BE2001F051FF002001F04EFFC42001F0BF
:104FA0004BFF002001F048FFCD2001F045FF00201D
:104FB00001F042FFD32001F03FFF002001F03CFF51
:104FC000DC2001F039FF002001F036FFF32001F072
:104FD00033FF002001F030FFE62001F039FF1120FF
:104FE00001F02AFF002001F027FF342001F024FF08
:104FF000002001F021FF562001F01EFF002001F0EB
:105000001BFF762001F018FF002001F015FF77202C
:1050100001F012FF002001F00FFF662001F00CFFED
:10502000002001F009FF882001F006FF002001F0B8
:1050300003FF992001F000FF002001F0FDFEBB20DE
:1050400001F0FAFE002001F0F7FE992001F0F4FED5
:10505000002001F0F1FE662001F0EEFE002001F0DC
:10506000EBFE552001F0E8FE002001F0E5FE5520A2
:1050700001F0E2FE002001F0DFFE452001F0DCFE41
:10508000002001F0D9FE432001F0D6FE002001F0FF
:10509000D3FE442001F0D0FE002001F0CDFEE72039
:1050A00001F0D6FE322001F0C7FE002001F0C4FE60
:1050B000552001F0C1FE002001F0BEFE762001F077
:1050C000BBFE002001F0B8FE662001F0B5FE002016
:1050D00001F0B2FE672001F0AFFE002001F0ACFE4F
:1050E000672001F0A9FE002001F0A6FE872001F054
:1050F000A3FE002001F0A0FE992001F09DFE0020FB
:1051000001F09AFEBB2001F097FE002001F094FE12
:10511000992001F091FE002001F08EFE772001F031
:105120008BFE002001F088FE442001F085FE002067
:1051300001F082FE562001F07FFE002001F07CFE8F
:10514000232001F079FE002001F076FE332001F0EB
:1051500073FE002001F070FE452001F06DFE00207E
:1051600001F06AFEE82001F073FE002001F064FE09
:10517000002001F061FE992001F05EFE002001F0A8
:105180005BFE872001F058FE002001F055FE8820CC
:1051900001F052FE002001F04FFE772001F04CFE9E
:1051A000002001F049FE662001F046FE002001F0DB
:1051B00043FE882001F040FE002001F03DFEAA20C1
:1051C00001F03AFE002001F037FEBB2001F034FE72
:1051D000002001F031FE992001F02EFE002001F0A8
:1051E0002BFE662001F028FE002001F025FE552050
:1051F00001F022FE002001F01FFE552001F01CFEF0
:10520000002001F019FE442001F016FE002001F0FC
:1052100013FE442001F010FE002001F00DFE552089
:1052200001F00AFE002001F007FEE92001F010FE67
:10523000AA2001F001FE002001F0FEFD002001F097
:10524000FBFD002001F0F8FD002001F001FEAA2086
:1052500001F0F2FDCF2001F0FBFD002001F0ECFD9C
:10526000002001F0E9FD002001F0E6FD002001F042
:10527000E3FD002001F0E0FD002001F0DDFD002055
:1052800001F0DAFD002001F0D7FD002001F0D4FD8F
:10529000002001F0D1FD002001F0CEFD002001F042
:1052A000CBFD002001F0C8FD002001F0C5FD00206D
:1052B00001F0C2FD002001F0BFFD002001F0BCFDA7
:1052C000F02001F0C5FD002001F0B6FD502001F0F6
:1052D000B3FD002001F0B0FD002001F0ADFD002085
:1052E00001F0AAFDF32001F0B3FD002001F0A4FDC0
:1052F000F92001F0ADFD062001F09EFD102001F027
:105300009BFD292001F098FD002001F095FD3A2039
:1053100001F09EFD552001F08FFD112001F098FD58
:105320006420FCF798FA292001F092FD352001F065
:105330008FFD002001F080FD512001F089FDFF204C
:1053400001F07AFD532001F083FD2C2001F074FD63
:10535000552001F07DFD822001F06EFDBDE810407A
:105360002C2001F075BD2DE9F05F4FF470445521FC
:10537000204601F083FD651CAA21284601F07EFD30
:10538000A61C5221304601F079FDE71C0821384661
:1053900001F074FD4FF204080121404601F06EFD5A
:1053A0004FF436433421184601F068FD34214BF2A6
:1053B000016001F063FD34214BF2026001F05EFDFB
:1053C0004FF430490D21484601F058FD4BF2010AD7
:1053D0000D21504601F052FD4BF2020B0D215846B3
:1053E00001F04CFD24214FF4374001F047FD24210A
:1053F0004BF2017001F042FD24214BF2027001F0EA
:105400003DFD0D214FF4314001F038FD0D214BF2EF
:10541000011001F033FD0D214BF2021001F02EFDC1
:1054200024214FF4384001F029FD24214BF60100DE
:1054300001F024FD24214BF6020001F01FFD0021A4
:105440004FF4324001F01AFD24214FF4394001F0AD
:1054500015FD24214BF6011001F010FD24214BF61F
:10546000021001F00BFD05214FF4334001F006FD61
:1054700005214BF2013001F001FD05214BF2023014
:1054800001F0FCFC34214FF43A4001F0F7FC3421E8
:105490004BF6012001F0F2FC34214BF6022001F022
:1054A000EDFC0B214FF4354001F0E8FC0B214BF2F1
:1054B000015001F0E3FC0B214BF2025001F0DEFC45
:1054C00000214FF43C4001F0D9FCA3214BF60140F0
:1054D00001F0D4FC00214BF6024001F0CFFC00218A
:1054E0004FF43D4001F0CAFCA3214BF6015001F0FE
:1054F000C5FC00214BF6025001F0C0FC00214FF426
:105500003E4001F0BBFC37214BF6016001F0B6FCD8
:1055100000214FF4514001F0B1FC37214DF2011050
:1055200001F0ACFC00214DF2021001F0A7FC532168
:105530004DF2031001F0A2FC00214DF2041001F025
:105540009DFC79214DF2051001F098FC00214DF2EF
:10555000061001F093FC97214DF2071001F08EFC2C
:1055600000214DF2081001F089FCB1214DF2091023
:1055700001F084FC00214DF20A1001F07FFCD521DE
:105580004DF20B1001F07AFC00214DF20C1001F0ED
:1055900075FCF4214DF20D1001F070FC01214DF26B
:1055A0000E1001F06BFC23214DF20F1001F066FC90
:1055B00001214DF2101001F061FC49214DF2111052
:1055C00001F05CFC01214DF2121001F057FC872123
:1055D0004DF2131001F052FC01214DF2141001F0B4
:1055E0004DFCB6214DF2151001F048FC02214DF2A0
:1055F000161001F043FC00214DF2171001F03EFCA3
:1056000002214DF2181001F039FC3B214DF2191026
:1056100001F034FC02214DF21A1001F02FFC3D2163
:105620004DF21B1001F02AFC02214DF21C1001F07A
:1056300025FC75214DF21D1001F020FC02214DF2D8
:105640001E1001F01BFCB1214DF21F1001F016FCE1
:1056500002214DF2201001F011FCD5214DF2211054
:1056600001F00CFC03214DF2221001F007FC09218E
:105670004DF2231001F002FC03214DF2241001F041
:10568000FDFB28214DF2251001F0F8FB03214DF21E
:10569000261001F0F3FB52214DF2271001F0EEFB32
:1056A00003214DF2281001F0E9FB6B214DF2291086
:1056B00001F0E4FB03214DF22A1001F0DFFB8D2104
:1056C0004DF22B1001F0DAFB03214DF22C1001F00A
:1056D000D5FBA2214DF22D1001F0D0FB03214DF29C
:1056E0002E1001F0CBFBBB214DF22F1001F0C6FBB9
:1056F00003214DF2301001F0C1FBC1214DF23110F8
:1057000001F0BCFB03214DF2321001F0B7FBC121C7
:105710004DF2331001F0B2FB00214FF4524001F082
:10572000ADFB37214DF2012001F0A8FB00214DF225
:10573000022001F0A3FB53214DF2032001F09EFB58
:1057400000214DF2042001F099FB79214DF2052052
:1057500001F094FB00214DF2062001F08FFB972110
:105760004DF2072001F08AFB00214DF2082001F0E4
:1057700085FBB1214DF2092001F080FB00214DF2A3
:105780000A2001F07BFBD5214DF20B2001F076FBC6
:1057900000214DF20C2001F071FBF4214DF20D209F
:1057A00001F06CFB01214DF20E2001F067FB23217B
:1057B0004DF20F2001F062FB01214DF2102001F0AB
:1057C0005DFB49214DF2112001F058FB01214DF202
:1057D000122001F053FB87214DF2132001F04EFB04
:1057E00001214DF2142001F049FBB6214DF21520A4
:1057F00001F044FB02214DF2162001F03FFB002195
:105800004DF2172001F03AFB02214DF2182001F071
:1058100035FB3B214DF2192001F030FB02214DF206
:105820001A2001F02BFB3D214DF21B2001F026FB3D
:1058300002214DF21C2001F021FB75214DF21D20AB
:1058400001F01CFB02214DF21E2001F017FBB121DB
:105850004DF21F2001F012FB02214DF2202001F039
:105860000DFBD5214DF2212001F008FB03214DF263
:10587000222001F003FB09214DF2232001F0FEFA62
:1058800003214DF2242001F0F9FA28214DF22520C0
:1058900001F0F4FA03214DF2262001F0EFFA522133
:1058A0004DF2272001F0EAFA03214DF2282001F001
:1058B000E5FA6B214DF2292001F0E0FA03214DF2C7
:1058C0002A2001F0DBFA8D214DF22B2001F0D6FACF
:1058D00003214DF22C2001F0D1FAA2214DF22D200E
:1058E00001F0CCFA03214DF22E2001F0C7FABB21C2
:1058F0004DF22F2001F0C2FA03214DF2302001F0C9
:10590000BDFAC1214DF2312001F0B8FA03214DF268
:10591000322001F0B3FAC1214DF2332001F0AEFA8A
:1059200000214FF4534001F0A9FA37214DF2013024
:1059300001F0A4FA00214DF2023001F09FFA532148
:105940004DF2033001F09AFA00214DF2043001F0DB
:1059500095FA79214DF2053001F090FA00214DF2CF
:10596000063001F08BFA97214DF2073001F086FAEC
:1059700000214DF2083001F081FAB1214DF20930D9
:1059800001F07CFA00214DF20A3001F077FAD521BE
:105990004DF20B3001F072FA00214DF20C3001F0A3
:1059A0006DFAF4214DF20D3001F068FA01214DF24B
:1059B0000E3001F063FA23214DF20F3001F05EFA50
:1059C00001214DF2103001F059FA49214DF2113008
:1059D00001F054FA01214DF2123001F04FFA872103
:1059E0004DF2133001F04AFA01214DF2143001F06A
:1059F00045FAB6214DF2153001F040FA02214DF280
:105A0000163001F03BFA00214DF2173001F036FA62
:105A100002214DF2183001F031FA3B214DF21930DC
:105A200001F02CFA02214DF21A3001F027FA3D2143
:105A30004DF21B3001F022FA02214DF21C3001F030
:105A40001DFA75214DF21D3001F018FA02214DF2B8
:105A50001E3001F013FAB1214DF21F3001F00EFAA1
:105A600002214DF2203001F009FAD5214DF221300A
:105A700001F004FA03214DF2223001F0FFF909216F
:105A80004DF2233001F0FAF903214DF2243001F0F8
:105A9000F5F928214DF2253001F0F0F903214DF2FE
:105AA000263001F0EBF952214DF2273001F0E6F9F2
:105AB00003214DF2283001F0E1F96B214DF229303C
:105AC00001F0DCF903214DF22A3001F0D7F98D21E4
:105AD0004DF22B3001F0D2F903214DF22C3001F0C0
