:020000040800F2
:10000000E80A002091010008EF090008E70900084C
:10001000EB0900085D050008AF0F000800000000B4
:10002000000000000000000000000000590B000864
:10003000ED07000800000000610A00086D0C0008D0
:10004000AB010008AB010008AB010008AB010008E0
:10005000AB010008AB010008AB010008AB010008D0
:10006000AB010008AB010008AB010008AB010008C0
:10007000AB010008AB010008AB010008AB010008B0
:10008000AB010008AB010008AB010008AB010008A0
:10009000AB010008AB010008AB010008AB01000890
:1000A000AB010008AB010008AB010008AB01000880
:1000B000AB010008AB010008AB010008AB01000870
:1000C000AB010008AB010008AB010008AB01000860
:1000D000AB010008D10C0008950D0008AB01000829
:1000E000AB010008AB010008AB01000800F002F80A
:1000F00000F03FF80AA090E8000C82448344AAF183
:100100000107DA4501D100F034F8AFF2090EBAE880
:100110000F0013F0010F18BFFB1A43F0010318473B
:100120007413000094130000103A24BF78C878C1FB
:10013000FAD8520724BF30C830C144BF04680C60ED
:10014000704700000023002400250026103A28BF35
:1001500078C1FBD8520728BF30C148BF0B60704739
:10016000642900F04D80002070471FB51FBD10B5F9
:1001700010BD00F0C0F91146FFF7F7FF00F092FF45
:1001800000F0DEF903B4FFF7F2FF03BC00F088FFD4
:100190000948804709480047FEE7FEE7FEE7FEE71B
:1001A000FEE7FEE7FEE7FEE7FEE7FEE70448054957
:1001B000054A064B70470000710C0008ED0000086E
:1001C000E8040020E80A0020E8060020E8060020F5
:1001D000704700000FB41CB5084B06AA7B44694663
:1001E0000090059800F06FF904460020694600F081
:1001F0007DF920461CBC5DF814FB00000D030000D7
:100200002DE9F0410646002410687529314616A5EF
:1002100010D0AFF30080002802DA404213A507E0B7
:1002200031688A0701D512A502E0490704D511A556
:10023000012401E0AFF3008000210A2206F1240727
:1002400009E0B0FBF2FCB0FBF2F302FB1C00303023
:1002500078541846491C0028F3D123462A463046D4
:10026000BDE8F04100F0D0B8000000002D00000013
:100270002B000000200000002DE9F05F89460446B5
:100280004FF0000ADFF874B1FB44C0F820A020460C
:10029000E1688847002874D0252806D0D4E90121D8
:1002A0009047206A401C2062F1E700265F46204606
:1002B000E16888472028054607DB312D05D27819EB
:1002C00010F8200C08B10643F1E7B00701D526F07D
:1002D0000406C4F81CA00027C4F818A02A2D09D0D1
:1002E000284600F0D6FE38B304EB8708303DC8F846
:1002F000185019E059F8041B204604EB870291615D
:10030000E1688847012F054618D1E069002820DA06
:1003100026F020061DE0D8F8180000EB800005EB61
:1003200040003038C8F818002046E1688847054684
:1003300000F0AFFE0028EED1012F0AD02E2D08D1FB
:100340002046E16888477F1C0546022F46F02006BC
:10035000C4DBA069002803DA404246F00106A06130
:10036000F00701D026F010066C2D0BD0682D09D0B7
:100370004C2D39D06A2D35D0742D35D07A2D33D00F
:1003800016E038E0E1682F4620468847B842054627
:1003900009D16C2F26D04FF48060E16806432046D7
:1003A0008847054604E06C2F1AD04FF4807006434E
:1003B0000DB3A5F14100192802D8203546F4006696
:1003C0004A462946204626604E46FFF7C9FE80B1C0
:1003D00001280BD0F61D26F0070000F1080956E7AA
:1003E0004020E4E78020D8E70020D6E706F10409A2
:1003F0004DE7284652E7206ABDE8F09FF41100005F
:1004000070477047704770472DE9F0470D46994691
:100410009246044600F124080168880604D5E06984
:1004200021F01001216000E00120A84201DD471BFE
:1004300000E00027A1697A1902EB0900081AA061FF
:100440002078C00602D42046AFF30080002608E0E2
:10045000D4E901211AF806009047206A401C761C56
:1004600020624E45F4DB2078C0060AD52046AFF363
:10047000008006E0D4E9012130209047206A401C2A
:100480002062381EA7F10107F4DC07E0D4E901215E
:1004900018F805009047206A401C2062281EA5F12C
:1004A0000105F3DC2046AFF300802078000602D57A
:1004B0000220BDE8F0870120FBE7000001694A1C2B
:1004C00002610878704700B58FB0CDE90131002195
:1004D000059105497944CDE9031011466846FFF7B7
:1004E000CBFE0FB000BD0000E5FFFFFF0A6802F879
:1004F000010B0A607047754600F02CF8AE46050007
:100500006946534620F00700854618B020B5FFF72E
:100510004DFEBDE820404FF000064FF000074FF0C1
:1005200000084FF0000B21F00701AC46ACE8C00911
:10053000ACE8C009ACE8C009ACE8C0098D4670471A
:1005400010B50446AFF300802046BDE81040FFF729
:1005500019BE0000004870478804002000BFFEE775
:1005600010B500241548006820F070601349086039
:100570000846006840F00060086004E0601CC4B2F7
:10058000012000F07DF90E48006808B1C82CF5DBA9
:10059000C82C01DB012010BD002404E0601CC4B2A3
:1005A000012000F06DF90648006808B9F02CF5DB71
:1005B000F02C01DB0120EEE70020ECE7000C01400D
:1005C000188121422DE9F84F00F0CAF800F0A6F892
:1005D000FFF7C6FFCC2000F0CFF8BE2000F0CCF82B
:1005E00000F08AF8834600F087F80446072C08DDFF
:1005F000E043C4B26FEA0B0000F0FF0B4FF0000ABB
:1006000001E04FF0010AA1464FEA09200FFA80F9F4
:1006100009EB0B000FFA80F9484600F0D3FE00907A
:1006200000F0A4FE07460022084B00F0A1FD05469D
:1006300000F06EFD0FFA80F9BAF1000F02D04846C3
:10064000BDE8F88FC9F1000000B2F9E70000E43F0F
:1006500008B50121082000F005FA4020ADF800009F
:1006600010208DF8030003208DF80200694606482B
:1006700000F02CF94021044800F0B3F900F04EF8E6
:10068000FFF76EFF08BD0000000C014010B51748D1
:10069000006820F07060154908600846006840F066
:1006A00040700860002012490860022000F0E8F85D
:1006B00001201049C1F898010C48006820F07060D2
:1006C0000A4908600846006840F0006008600C2095
:1006D00000F0D6F806488038006808B1012400E030
:1006E0000024322000F0CCF8204610BD000C014060
:1006F000988121420080214270B50026012508E042
:10070000FFF7C4FF0446E00140EA6600C6B2681C79
:10071000C5B2082DF4DD304670BD000010B50D489F
:10072000006820F070600B4908600846006840F0DF
:100730004070086000200849086040F2EE2000F098
:100740009FF801200549C1F898010F2000F098F8A2
:1007500010BD0000000C0140988121420080214220
:1007600010B5FFF7DBFFFFF7FBFECC2000F004F82D
:10077000442000F001F810BD70B504461848006828
:1007800020F07060164908600846006840F040702C
:100790000860012520E004F0010664106EB100201D
:1007A00010490860022000F06BF801200E49C1F8E2
:1007B00098013C2000F064F80CE000200949086032
:1007C0003C2000F05DF801200749C1F898010220A3
:1007D00000F056F8681CC5B2082DDCDD70BD0000C5
:1007E000000C0140988121420080214270470000A6
:1007F00010B56FF0040000F025FA0A4800680A49B5
:10080000B0FBF1F0094908700846007800EB4001A0
:10081000C1EBC0104FF6FF7101EAC0000449088027
:1008200010BD00000000002000127A002800002007
:100830002A0000200146114A12884A434FF0E02363
:100840005A6100229A611A46126942F001021A6145
:1008500000BF4FF0E022106900F001021AB100F46D
:100860008032002AF5D04FF0E022126922F0010216
:100870004FF0E0231A6100229A6170472A0000209D
:100880000146114A12784A434FF0E0235A61002290
:100890009A611A46126942F001021A6100BF4FF0D4
:1008A000E022106900F001021AB100F48032002A3F
:1008B000F5D04FF0E022126922F001024FF0E02360
:1008C0001A6100229A617047280000202DE9F0414A
:1008D000024600250026002000230024002791F86E
:1008E00003C00CF00F0591F803C00CF0100CBCF124
:1008F000000F03D091F802C04CEA050591F800C042
:10090000BCF1000F31D0146800202BE04FF0010C37
:100910000CFA00F3B1F800C00CEA03069E4220D1A5
:1009200083004FF00F0C0CFA03F7BC4305FA03FCED
:100930004CEA040491F803C0BCF1280F06D14FF033
:10094000010C0CFA00FCC2F814C00AE091F803C0D4
:10095000BCF1480F05D14FF0010C0CFA00FCC2F8B5
:1009600010C0401C0828D1D31460B1F800C0BCF1FD
:10097000FF0F34DD546800202EE000F1080C4FF02A
:10098000010808FA0CF3B1F800C00CEA03069E4215
:1009900021D183004FF00F0C0CFA03F7BC4305FA8A
:1009A00003FC4CEA040491F803C0BCF1280F05D104
:1009B00000F1080C08FA0CF8C2F8148091F803C092
:1009C000BCF1480F07D100F1080C4FF0010808FAFC
:1009D0000CF8C2F81080401C0828CED35460BDE843
:1009E000F0810161704700BFFEE700BFFEE770477E
:1009F00070B5002100230F22C47804B3154C24687D
:100A000004F4E064C4F5E064210AC1F10403CA40BF
:100A1000447804FA03F184781440214309010E4C10
:100A20000678A155047804F01F050124AC40057830
:100A30006D11AD0005F1E025C5F8004109E004782D
:100A400004F01F050124AC40044D0678761145F8EA
:100A5000264070BD0CED00E000E400E080E100E025
:100A60007047000029B1064A92690243044B9A611B
:100A700004E0034A92698243014B9A617047000087
:100A80000010024030B500210022002400232D4D2B
:100A90006D6805F00C0121B1042905D0082923D186
:100AA00005E0294D056022E0274D05601FE0254D3A
:100AB0006D6805F47012234D6D6805F480340225CD
:100AC00005EB92421CB9214D554305600BE01D4DCD
:100AD0006D6805F400351DB11C4D5543056002E0FD
:100AE000194D5543056002E0174D056000BF00BF7A
:100AF000144D6D6805F0F0010909154D6B5C056832
:100B0000DD4045600F4D6D6805F4E061090A104D48
:100B10006B5C4568DD4085600A4D6D6805F4605189
:100B2000C90A0B4D6B5C4568DD40C560054D6D68BD
:100B300005F44041890B074D6B5CC568B5FBF3F5C7
:100B4000056130BD0010024000127A0000093D002E
:100B50001400002024000020704710B500F002F8B7
:100B600010BD00000CB500200190009033480068D3
:100B700040F480303149086000BF3048006800F41C
:100B8000003000900198401C0190009818B901981D
:100B9000B0F5A06FF1D12948006800F4003010B121
:100BA0000120009001E0002000900098012843D12E
:100BB0002348006840F0100021490860084600689A
:100BC00020F0030008600846006840F0020008605A
:100BD0001A48406819494860084640684860084615
:100BE000406840F4806048600846406820F47C100B
:100BF00048600846406840F4E810486008460068CD
:100C000040F08070086000BF0C48006800F0007081
:100C10000028F9D00948406820F0030007494860DF
:100C20000846406840F00200486000BF0348406842
:100C300000F00C000828F9D10CBD000000100240A3
:100C400000200240042808D14FF0E021096941F05A
:100C500004014FF0E022116107E04FF0E021096943
:100C600021F004014FF0E02211617047704700004D
:100C700010B51348006840F00100114908600846AB
:100C80004068104908400E494860084600680E490F
:100C900008400B4908600846006820F4802008607E
:100CA0000846406820F4FE0048604FF41F0088604A
:100CB000FFF753FF4FF000600449086010BD0000CB
:100CC000001002400000FFF8FFFFF6FE08ED00E014
:100CD00010B540F225511E4800F0A4F8002836D087
:100CE0001B4800F05BF904461A490868411C194B7F
:100CF000196019490C540120184908600D2C01D0C5
:100D00000A2C02D10020134908600D2C0AD00A2CAD
:100D100008D0202C06D00F490868411C0D4B1960E3
:100D20000D490C540E480068012805D1084800F010
:100D300035F90C49087002E000200A49087005489E
:100D400000681E2802DB00200249086000BF10BDB9
:100D50000038014030000020580000202C00002006
:100D6000340000203C00002010B504460BE014F8CD
:100D7000011B074800F017F900BF8021044800F06C
:100D800044F80028F9D020780028F0D110BD0000E8
:100D90000038014010B540F225510E4800F042F8ED
:100DA000B0B10D480088FF2802D900200A49088008
:100DB0000848001D0088C1B2074802880088401C0E
:100DC000054B1880054881542021024800F008F89E
:100DD00010BD0000004400404800002058030020DF
:100DE00001F40072B2F5007F00D100BFCA43028057
:100DF000704721B1828942F40052828104E08289E5
:100E00004DF6FF731A408281704702460020B1F50B
:100E1000007F00D100BF13880B400BB1012000E020
:100E20000020704770B502460024002300250020F2
:100E300040F66A16B14200D100BFC1F3421501F07D
:100E40001F03012606FA03F3012D02D196893340D0
:100E500006E0022D02D1168A334001E0968A334023
:100E60000C12012606FA04F41688344013B10CB1B2
:100E7000012000E0002070BDF0B5034600240026EC
:100E80000025002040F66A17B94200D100BF18467D
:100E9000C1F3421401F01F06012707FA06F5012CE1
:100EA00001D10C3004E0022C01D1103000E01430EC
:100EB0001AB107682F43076002E00768AF43076075
:100EC000F0BD00002DE9F04786B005460E4600242F
:100ED000A24600BFA1460027B08900B100BF2F463F
:100EE0002C8A4CF6FF700440F08804432C82AC89B5
:100EF0004EF6F3100440B0883189084371890843E5
:100F00000443AC81AC8A4FF6FF400440B0890443EF
:100F1000AC8201A8FFF7B6FD1F48874202D1DDF879
:100F200010A001E0DDF80CA0A88900F4004040B159
:100F30000AEBCA0000EB0A1031684900B0FBF1F877
:100F400007E00AEBCA0000EB0A1031688900B0FB29
:100F5000F1F86420B8FBF0F004012009642101FBE2
:100F60001089A88900F4004040B1322000EBC9008C
:100F7000B0FBF1F000F00700044308E0322000EB82
:100F800009106421B0FBF1F000F00F0004432C8144
:100F900006B0BDE8F08700000038014001468888AF
:100FA000C0F308007047C1F308028280704700BF99
:100FB000FEE7000010B586B0044601210420FFF7CB
:100FC00051FD01218803FFF74DFD18208DF8170012
:100FD0004FF40070ADF8140003208DF8160005A939
:100FE0001D48FFF773FC04208DF817000002ADF8D0
:100FF000140003208DF8160005A91748FFF766FCBA
:1010000025208DF8000001208DF8030000208DF8C8
:1010100001008DF802006846FFF7EAFC0194002009
:10102000ADF810000C20ADF80E000020ADF80C005B
:10103000ADF80A00ADF8080001A90848FFF742FF23
:10104000012240F225510548FFF716FF0121034810
:10105000FFF7CFFE06B010BD000801400038014088
:101060002DE9F04107460C46154600260DE014F820
:10107000011B3846FFF797FF00BF40213846FFF7B6
:10108000C4FE0028F9D0701C86B2AE42EFDBBDE88A
:10109000F08130380A2801D20120704700207047C3
:1010A00000BF7047FFF7A4FB4FF41650FFF782FF15
:1010B000FFF7CEFA4FF4C870FFF7BCFB19E0FFF75B
:1010C00081FA0C4908804FF47A70FFF7B3FB0AA04D
:1010D000FFF74AFE0748B0F9002009A10948FFF7C9
:1010E00079F8022207490848FFF7BAFF07A0FFF77F
:1010F0003BFEE4E7540000200ACEC2B6C8A3BA0003
:101100002564000058040020003801400A0D00004A
:101110004FEA41034FEA5353A3F58063D3F11E0313
:10112000C8BFD3F1210C0CDD4FF0004242EAC122CE
:1011300042EA505232FA03FC8CEAE17CACEBE170FB
:101140007047102BC4BF0020704703F5787CBCF1BA
:10115000FF3F04D06FF0004282EA2100704770B573
:1011600000F0B0F84992248000207047F2E70000B8
:10117000DFF848C170B51CEA111E1EBF1CEA13152A
:101180009EEA0C0F95EA0C0F00F06F8081EA0304D1
:1011900023EA4C134EEAD47E21EA4C1141F480112B
:1011A00043F48013AE44A1FB024CA0FB0365AEF1F7
:1011B0007F7E361955EB0C05A1FB034C4CF1000367
:1011C000A0FB021C16EB0C06654153F1000309421B
:1011D00018BF46F0010613F4007F0BD14FEA03312C
:1011E0004FEA0530340341EA155140EA16506FF0DA
:1011F00003020AE04FEAC3214FEAC520F40241EAA4
:10120000555140EA56506FF0020202EB2E4201EBBC
:10121000025585EACE710AD05FEA440C18BF24F06B
:10122000004450F1000041F1000120EAD47040F286
:10123000FE7C624500D270BDA84214BF4FF08044CE
:101240004FF04044002E08BF0024BEF1806FA8BFBD
:10125000A1F1C041BDE8704080F282804FF00000F3
:1012600001F1C04101F0004170479EEA0C0F0CEA09
:10127000131518BF95EA0C0F06D04FF0000081EA55
:10128000030E0EF0004170BD00F01CF88900013E15
:1012900000F007B800F009B84FEA430C5FEA5C5C65
:1012A00008D081EA030100F05BB84FEA410C5FEA25
:1012B0005C5CF6D14FF00000014970470000FF0769
:1012C0000000F87F0EF1020E2EF0030E5EF8046BA4
:1012D000364205D4012A43EB030515F5001F12D849
:1012E000012841EB010C1CF5001F0CD80ED14FEA70
:1012F000D17C15F5001F0CEB4C0C0CF1020C08BF57
:101300004CEBD37C04E04FF0080C01E04FEAD37CB7
:101310000CEB4C0526FA05F606F00706B6F1040CB0
:1013200006D20EEB860CBDE870404CF0010C604715
:10133000DFE80CF0090B02024FF000414FF0000013
:10134000A1F5002170BD19461046012851EB01049A
:1013500018BFD4F5001484BF002001F0004170BD17
:101360000808A0F500114FEA3101704743004FEA29
:10137000D30C4FEA3C0C43401FBF40070CF16051B7
:1013800013F0FE4F70471CF0006F03D100200CF0EB
:10139000004170470CF0004343EA507010B540EA3A
:1013A000CC0000F027F800BF000000924FEA0001D7
:1013B000FFF7D6BF4FF000414FF00000A1F500212C
:1013C0007047000010F0004148BF4042B0FA80F37F
:1013D00010FA03F2C3F19D030BD051EAC35101EBA4
:1013E0001220530638BF704700F1010008BF20F0FB
:1013F000010070470EF1020E2EF0030E5EF8044B52
:10140000244204D44FEA4102B2F17F4F11D84FEA8F
:101410004003B3F17F4F0CD80ED14FEAD07CB2F12C
:101420007F4F0CEB4C0C0CF1020C08BF4CEBD17C49
:1014300004E04FF0080C01E04FEAD17C0CEB4C03C8
:1014400024FA03F404F00704B4F1040C06D20EEB02
:10145000840CBDE810404CF0010C6047DFE80CF054
:10146000070802024FF00040A0F5800010BD0846BA
:10147000420018BFD2F1807288BF00F0004010BD5A
:10148000040000080000000000000002000100004D
:1014900010000000B41400080000002058000000F4
:1014A000280100080C15000858000020900A0000D0
:1014B0004401000800A24A040000000000000000EF
:1014C00001020304060708090000000001020304EA
:1014D00001020304060708090204060800000000D0
:1014E00000000000000000000100000000000000FB
:1014F00000000000010000000000000000000000EB
:0C150000000000007501960000000000D3
:04000005080000ED02
:00000001FF
