:020000040800F2
:10000000C0420020310200082F1B0008271B0008F7
:100010002B1B00082D060008E5200008000000004A
:10002000000000000000000000000000791C000833
:100030003106000800000000311B00087B1C00088E
:100040005502000855020008550200085502000834
:100050005502000855020008550200085502000824
:100060005502000855020008550200085502000814
:100070005502000855020008550200085502000804
:1000800055020008550200085502000855020008F4
:1000900055020008550200085502000855020008E4
:1000A00055020008550200085502000855020008D4
:1000B00055020008550200085502000855020008C4
:1000C00055020008550200085502000855020008B4
:1000D0005502000895200008550200085502000846
:1000E0005502000855020008550200085502000894
:1000F0005502000855020008550200085502000884
:100100005502000855020008550200085502000873
:100110005502000855020008550200085502000863
:100120005502000855020008550200085502000853
:100130005502000855020008550200085502000843
:100140005502000855020008550200085502000833
:100150005502000855020008550200085502000823
:100160005502000855020008550200085502000813
:100170005502000855020008550200080000000062
:10018000550200085502000800F002F800F041F89E
:100190000AA090E8000C82448344AAF10107DA45E2
:1001A00001D100F036F8AFF2090EBAE80F0013F0F3
:1001B000010F18BFFB1A43F0010318474CDA000087
:1001C0006CDA0000103A24BF78C878C1FAD8520718
:1001D00024BF30C830C144BF04680C6070470000C1
:1001E0000023002400250026103A28BF78C1FBD840
:1001F000520728BF30C148BF0B607047782900F014
:10020000F580002070471FB507F0C1FC1FBD10B579
:1002100010BD00F0DDF91146FFF7F5FF06F074FEA2
:1002200000F0FBF903B4FFF7F2FF03BC02F06CFC33
:100230000C48016841F4700101600B4880470B488D
:100240000047FEE7FEE7FEE7FEE7FEE7FEE7FEE724
:10025000FEE7FEE7FEE7000005480649044A064BB4
:100260007047000088ED00E0851C00088901000847
:10027000C03E0020C0420020C03E0020704753EA2C
:10028000020C00F069802DE9F04B4FF00006002BC6
:100290001FBFB3FA83F503FA05F424FA05F65E40AE
:1002A00012BF1643B2FA82F502FA05F4C5F1200531
:1002B0001EBF22FA05FC44EA0C04203556EA044C21
:1002C0004FEA144418BF641C4FF000084FF00009B7
:1002D000904271EB030C39D3002919BFB1FA81F7B1
:1002E00001FA07F6B0FA80F700FA07F6C7F120071F
:1002F0001EBF20FA07FC46EA0C062037B6FBF4FCCA
:10030000A7EB0507103F07F01F0BCBF120060CFAF7
:100310000BFB2CFA06F644BFB3460026202FA4BFE1
:100320005E464FF0000B5BEA060C08BF4FF0010B76
:1003300019EB0B09ABFB027C48EB0608C01B06FB64
:1003400002CC0BFB03CC71EB0C01C1E70B46024660
:1003500041464846BDE8F08B13B54FF000004FF022
:100360000001AFF30080BDE81C4070470FB40449A2
:1003700010B503AA029800F0F5F810BC5DF814FB64
:10038000800000202DE9F0410E4604460020206246
:100390002046E168884730B3252805D0D4E90121FB
:1003A0009047206A401CF2E7E16820460027884712
:1003B000050018D0A5F14100192802D820354FF4C6
:1003C00000673246294620462760FFF717FF40B1F5
:1003D000012804D0F61D26F007060836D8E7361D9A
:1003E000D6E72846DAE7206ABDE8F08170B5044612
:1003F0000D4621461068AFF300802188090502D51B
:100400000F4A7A4402E00E4A7A440E32002104F187
:10041000240305E000F00F060009965D5E54491CB8
:100420000028F7D120780023000704D5702D02D0D2
:1004300009B1022311322046BDE8704000F038B8FF
:10044000B4D600004FF0000200B51346944696461D
:10045000203922BFA0E80C50A0E80C50B1F12001D7
:10046000BFF4F7AF090728BFA0E80C5048BF0CC085
:100470005DF804EB890028BF40F8042B08BF7047E3
:1004800048BF20F8022B11F0804F18BF00F8012B55
:100490007047704770477047704710B500F074F8A8
:1004A000006810BD10B5044600F06EF8046010BD81
:1004B0002DE9F0470D4699469246044600F124087E
:1004C0000168880604D5E06921F01001216000E090
:1004D0000120A84201DD471B00E00027A1697A192D
:1004E00002EB0900081AA0612078C00602D4204659
:1004F000AFF30080002608E0D4E901211AF80600D5
:100500009047206A401C761C20624E45F4DB207820
:10051000C0060AD52046AFF3008006E0D4E90121E9
:1005200030209047206A401C2062381EA7F1010746
:10053000F4DC07E0D4E9012118F805009047206AAF
:10054000401C2062281EA5F10105F3DC2046AFF314
:1005500000802078000602D50220BDE8F087012047
:10056000FBE70000074B70B50D467B4400F015F823
:100570000446284600F024F810B14FF0FF3070BD5B
:10058000204670BDFB32000000487047603E0020EE
:1005900001694A1C02610878704700B58FB0CDE947
:1005A00001310021059105497944CDE90310114637
:1005B0006846FFF7E7FE0FB000BD0000E5FFFFFF54
:1005C000007B00F08000704700487047603E0020CC
:1005D0007546FFF7F9FFAE4605006946534620F021
:1005E0000700854618B020B5FFF736FEBDE820406D
:1005F0004FF000064FF000074FF000084FF0000BDF
:1006000021F00701AC46ACE8C009ACE8C009ACE891
:10061000C009ACE8C0098D46704710B50446AFF379
:1006200000802046BDE81040FFF7FCBD00BFFEE79C
:100630007047000070B504461D460023B5F5804F95
:1006400013D154F822300C480340D1E9000640EAA7
:1006500006108E6840EA06208E8940EA06408E69C0
:100660003043034344F8223003E06FF0704044F815
:100670002200002070BD00000000F0CF10B503463E
:100680000022086853F8202012480240D1E90104F2
:100690002043CC6820430C6920434C6920438C697B
:1006A0002043CC6920430C6A20434C6A20438C6A67
:1006B0002043CC6A2043CC6B20430C6B2043024385
:1006C0008868082801D142F04002086843F82020D9
:1006D000002010BD8000F0FF30B503460024501C00
:1006E00053F8204004F04044D1E9000540EA0510E9
:1006F0008D6840EA05208D8940EA0545088A401E3C
:1007000045EA0055087D801E45EA00608D69284352
:100710000443501C43F82040002030BD70B504460F
:10072000A56D00F073F9064694F83500022808D04C
:100730008020606500BF002084F8340000BF0120E5
:1007400070BD2068006820F01600216808602068ED
:10075000406920F0800021684861206C08B9A06CD5
:1007600028B12068006820F008002168086020682F
:10077000006820F00100216808600FE000F046F9F1
:10078000801B05280AD92020606500BF002084F85E
:10079000340000BF032084F83500D1E720680068EA
:1007A00000F001000028E9D194F85C103F20884057
:1007B000A86000BF002084F8340000BF012084F846
:1007C00035000020BCE7014691F83500022803D02F
:1007D0008020486501207047052081F835000868B1
:1007E000006820F001000A6810600020F3E70000B4
:1007F000F8B502460B460025002400200021DEE06B
:10080000012606FA01F51E6806EA0504AC4275D118
:100810001E7906F00306012E04D01E7906F00306A9
:10082000022E13D190684F000326BE40B0434F0004
:10083000DE68BE4030439060506801268E40B04371
:100840001E79C6F300168E40304350601E7906F0C4
:100850000306032E09D0D0684F000326BE40B043E4
:100860004F009E68BE403043D0601E7906F00306FC
:10087000022E13D1CF0802F1200656F827004E07AA
:10088000F70E0F26BE40B0434F07FF0E1E69BE4055
:100890003043CF0802F1200646F8270010684F00C9
:1008A0000326BE40B0431E7906F003064F00BE404B
:1008B000304310605E6806F08056B6F1805F7DD1EF
:1008C00000BF00260096404E366846F480463E4FF4
:1008D0003E603E46366806F48046009600BF00BF84
:1008E0003A4E8F0856F827008E07370F0F26BE4066
:1008F000B043374EB24202D1002624E05EE0354ECE
:10090000B24201D101261EE0334EB24201D102268D
:1009100019E0324EB24201D1032614E0304EB24209
:1009200001D104260FE02F4EB24201D105260AE084
:100930002D4EB24201D1062605E02C4EB24201D125
:10094000072600E008268F073F0FBE4030431F4EAA
:100950008F0846F82700264E3068A0435E6806F4EC
:100960008036B6F5803F00D12043214E3060361DE1
:100970003068A0435E6806F40036B6F5003F00D14B
:1009800020431B4E361D3060361D3068A0435E6824
:1009900006F48016B6F5801F00D12043144E0836A9
:1009A0003060361D3068A0435E6806F40016B6F568
:1009B000001F00D120430E4E0C363060491C102918
:1009C000FFF41EAFF8BD0000443802400838014073
:1009D000000002400004024000080240000C0240F7
:1009E000001002400014024000180240001C0240A7
:1009F000003C01400AB1816101E00B048361704752
:100A000001480068000C7047002004E001480068BD
:100A100070470000880000200348006803490978F7
:100A200008440149086070478800002090000020B9
:100A300010B50A48006840F400700849086008468C
:100A4000006840F480600860032000F07FF80F2009
:100A500000F006F800F02AF8002010BD003C02402B
:100A600070B504460E4800784FF47A71B1FBF0F08F
:100A70000C490968B1FBF0F5284600F0FFFD08B10C
:100A8000012070BD102C07D200222146501E00F01C
:100A90001EF80548046001E00120F2E70020F0E7BD
:100AA00090000020000000208C00002070470146CC
:100AB0000846002809DB00F01F0301229A40430981
:100AC0009B0003F1E023C3F8002100BF70472DE92C
:100AD000F05F80460D461646002701F01DFB0746D5
:100AE00039462A46334601F00700C0F1070ABAF139
:100AF000040F02D94FF0040A01E0C0F1070AD14601
:100B000000F1040ABAF1070F02D24FF0000A01E027
:100B1000A0F1030AD4464FF0010A0AFA09FAAAF131
:100B2000010A0AEA020A0AFA0CFA4FF0010B0BFA60
:100B30000CFBABF1010B0BEA030B4AEA0B04214659
:100B4000404601F0F1FABDE8F09F000000BF00F060
:100B50000702064B19684FF6FF031940044B0B437D
:100B600043EA0221014B196000BF70470CED00E021
:100B70000000FA0570B504460D460CB9012070BDA1
:100B80005848006800F00700A84209D255490D7086
:100B90000846006800F00700A84201D00120EEE7F7
:100BA000207800F0020002281DD1207800F0040017
:100BB000042805D14C48006840F4E0504A490860D8
:100BC000207800F00800082805D14748006840F464
:100BD0006040454908604448006820F0F000A16882
:100BE000084341490860207800F00100A8B360681C
:100BF000012807D13C4808380068C0F34040B8B924
:100C00000120BCE76068022802D06068032807D191
:100C1000354808380068C0F3406048B90120AEE7A5
:100C2000314808380068C0F3400008B90120A6E741
:100C30002D48006820F00300616808432A490860D5
:100C4000FFF7E4FE064609E0FFF7E0FE801B41F2F5
:100C50008831884202D9032091E707E022480068E2
:100C600000F00C006168B0EB810FEDD11D48006809
:100C700000F00700A84209D91A490D70084600681B
:100C800000F00700A84201D0012078E7207800F0AA
:100C90000400042807D11448006820F4E050E168FB
:100CA000084311490860207800F00800082808D19E
:100CB0000D48006820F46040216940EAC1000A49FB
:100CC000086000F03FF808490968C1F30311074ABA
:100CD000515CC8400649086006480068FFF7C0FE3E
:100CE00000204CE7003C024008380240A27B00088C
:100CF000000000208C0000200148006870470000C0
:100D00000000002000B5FFF7F7FF04490968C1F3B0
:100D10008221034A515CC84000BD000008380240EF
:100D2000B27B000800B5FFF7E7FF04490968C1F38B
:100D30004231034A515CC84000BD000008380240FF
:100D4000B27B00082DE9F047002400250026A146CB
:100D50002548006800F00C0020B1042805D00828C0
:100D60003AD105E0DFF8849039E0DFF8849036E08E
:100D70001D48001F006800F03F041B48001F00686A
:100D800000F4800078B11A481749091F0968C1F3B7
:100D90008811A0FB01700146224600233846FFF768
:100DA0006EFA05460EE011480F49091F0968C1F3A4
:100DB0008811A0FB01700146224600233846FFF748
:100DC0005EFA05460848001F0068C0F30140401C59
:100DD0004600B5FBF6F902E0DFF8109000BF00BF57
:100DE0004846BDE8F0870000083802400024F400BF
:100DF00000127A00F8B504460CB90120F8BD20783D
:100E000000F00100002874D0F948006800F00C00E0
:100E100004280DD0F648006800F00C00082813D113
:100E2000F348001F006800F48000B0F5800F0BD17C
:100E3000EF4808380068C0F34040002859D0606887
:100E4000002856D10120D9E700BF6068B0F5803F87
:100E500008D1E7480838006840F48030E449083990
:100E600008601EE06068B0F5A02F0DD1E04808389A
:100E7000006840F48020DE490839086008460068B0
:100E800040F4803008600CE0D9480838006820F44D
:100E90008030D749083908600846006820F480206F
:100EA000086000BF606890B1FFF7B0FD054606E03E
:100EB000FFF7ACFD401B642801D903209EE7CC4816
:100EC00008380068C0F340400028F1D011E0FFF777
:100ED0009DFD054606E0FFF799FD401B642801D9FA
:100EE00003208BE7C24808380068C0F34040002860
:100EF000F1D1207800F0020002285FD1BC480068E0
:100F000000F00C0058B1BA48006800F00C00082846
:100F10001CD1B748001F006800F48000B0B9B44885
:100F200008380068C0F3400020B1E068012801D013
:100F3000012063E7AE480838006820F0F800216916
:100F400040EAC100AA490839086037E0E06800B308
:100F50000120A8490860FFF759FD054606E0FFF7A4
:100F600055FD401B022801D9032047E7A048083857
:100F70000068C0F340000028F1D09D4808380068A0
:100F800020F0F800216940EAC10099490839086059
:100F900014E0002097490860FFF738FD054606E099
:100FA000FFF734FD401B022801D9032026E79048B3
:100FB00008380068C0F340000028F1D1207800F024
:100FC000080008282CD16069A8B101208A4908606E
:100FD000FFF71CFD054606E0FFF718FD401B022841
:100FE00001D903200AE782486C300068C0F3400052
:100FF0000028F1D014E000207F490860FFF706FDCB
:10100000054606E0FFF702FD401B022801D9032038
:10101000F4E677486C300068C0F340000028F1D156
:10102000207800F00400042870D100277048383080
:10103000006800F0805090B900BF002000906C481C
:101040003830006840F080506949383108600846FF
:10105000006800F08050009000BF00BF0127674883
:10106000006800F48070B0B96448006840F4807093
:1010700062490860FFF7CAFC054606E0FFF7C6FCB8
:10108000401B022801D90320B8E65C48006800F440
:1010900080700028F2D000BFA068012808D1544811
:1010A0006830006840F001005149683108601DE077
:1010B000A06805280DD14E486830006840F0040053
:1010C0004B49683108600846006840F0010008603C
:1010D0000CE047486830006820F00100444968315E
:1010E00008600846006820F00400086000BFA0689F
:1010F000A8B1FFF78BFC054609E0FFF787FC401B12
:1011000041F28831884202D9032077E626E0384848
:1011100068300068C0F340000028EED013E0FFF70D
:1011200075FC054608E0FFF771FC401B41F2883171
:10113000884201D9032061E62D4868300068C0F379
:1011400040000028EFD1012F07D12948383000682E
:1011500020F0805026493831086000BFA06900287F
:1011600045D02348006800F00C0008285DD0A06935
:10117000022845D100201F490866FFF747FC0546B5
:1011800006E0FFF743FC401B022801D9032035E6A7
:10119000174808380068C0F340600028F1D1D4E94E
:1011A00007010843616A40EA81110122A06AC2EB8B
:1011B000500041EA00412C20005D41EA00600C49EA
:1011C000091F086001200B490866FFF71FFC054650
:1011D00006E0FFF71BFC401B022801D903200DE6A7
:1011E000034808380068C0F340600028F1D049E0A7
:1011F0000838024000004742800E4742007000401D
:10120000002021490866FFF701FC054606E0FFF7CC
:10121000FDFB401B022801D90320EFE51B480068B5
:10122000C0F340600028F2D12CE0A069012800D171
:10123000E4E51648001D0668A069012820D006F4E0
:101240008001E06981421BD106F03F01206A8142A2
:1012500016D147F6C0703040616AB0EB811F0FD1E4
:1012600006F440310122A06AC2EB5000B1EB004FFE
:1012700006D106F070612C20005DB1EB006F01D04B
:101280000120BBE50020B9E50000474200380240DC
:1012900010B504460CB9012010BD606A38B9606809
:1012A000B0F5827F00D105E00021E16102E000217C
:1012B00021616161A06AB0F5005F00D100BF94F8C0
:1012C000510028B9002084F85000204600F04FF863
:1012D000022084F851002068006820F04000216856
:1012E0000860A08800F48270218901F40441084359
:1012F000A18901F400610843217C01F00201084347
:10130000217D01F001010843218B01F400710843A4
:10131000217F01F0380108432021095D01F080019F
:101320000843218D01F4005108432168086004211D
:10133000A06901EA104094F8241001F0100108435C
:1013400021684860A06AB0F5005F03D1A08D80B22B
:10135000216808612068C06920F400602168C861C4
:1013600000206065012084F85100002094E7704758
:101370002DE9F84F0446884616461D464FF0000AF0
:1013800000BF94F85000012802D10220BDE8F88F78
:10139000012084F8500000BFFFF738FB0746B14634
:1013A00094F85100012802D04FF0020AC9E0B8F1C8
:1013B000000F00D016B94FF0010AC2E0032084F8F4
:1013C000510000206065C4F83080A686E686A063E0
:1013D000A087E08760642064A068B0F5004F0BD15F
:1013E0002068006820F040002168086020680068DC
:1013F00040F4804021680860A06AB0F5005F0DD11C
:1014000000BF2068006820F4005021680860206850
:10141000006840F400502168086000BF2068006840
:1014200000F04000402805D02068006840F04000EF
:1014300021680860E068B0F5006F2FD1606810B1D6
:10144000B9F1010F09D1206B00882168C860206BB9
:10145000801C2063E08E401EE0861BE020688068D0
:1014600000F0020002280AD1206B00882168C860C1
:10147000206B801C2063E08E401EE0860AE0FFF7B0
:10148000C5FAC01BA84201D3681C00B915B94FF0BA
:10149000030A56E0E08E0028E0D12EE0606810B12B
:1014A000B9F1010F09D1206B007821680873206B16
:1014B000401C2063E08E401EE0861BE020688068B0
:1014C00000F0020002280AD1206B0078216808731E
:1014D000206B401C2063E08E401EE0860AE0FFF790
:1014E00095FAC01BA84201D3681C00B915B94FF08A
:1014F000030A26E0E08E0028E0D1A06AB0F5005F84
:1015000005D12068006840F48050216808603A46A0
:101510002946204600F00EFB08B120206065A06837
:1015200050B900BF002000902068C068009020687B
:101530008068009000BF00BF606D08B14FF0010AE5
:1015400000BF012084F8510000BF002084F8500043
:1015500000BF50461AE770B504460E4615460CB952
:10156000012070BD94F8490028B9002084F8480093
:10157000204600F01DF804F108012068FFF77EF80E
:101580003146A2682068FFF7A7F82946236BD4E903
:101590000102FFF74FF8A168206850F8210040F0E1
:1015A0000100A268216841F822000020D9E700006C
:1015B00010B586B0044600BF0020009022480068A5
:1015C00040F00100204908600846006800F0010072
:1015D000009000BF00BF00BF002000901A480838EC
:1015E000006840F00800184908390860084600689B
:1015F00000F00800009000BF00BF00BF0020009076
:101600000846006840F0100008600846006800F0D6
:101610001000009000BF00BF4CF203700190022048
:10162000029001200390022004900C20059001A953
:101630000648FFF7DDF84FF68070019001A90448D5
:10164000FFF7D6F806B010BD38380240000C024053
:1016500000100240042808D14FF0E021096941F050
:1016600004014FF0E022116107E04FF0E021096929
:1016700021F004014FF0E0221161704770B504467B
:101680002546681EB0F1807F01D301200FE0681E5F
:101690004FF0E02148610F214FF0FF3000F044FD92
:1016A00000204FF0E021886107200861002070BD14
:1016B0007047704701460022002391F83D2091F8C1
:1016C0003E3042EA030070472DE9F84F0446206897
:1016D00005682068C668206847694FF00009CA4657
:1016E00005F00F09B9F1000F0AD105F0200038B15B
:1016F00006F0200020B1204600F003FBBDE8F88F83
:10170000B9F1000F72D007F0010018B906F490701B
:1017100000286BD005F0010030B106F4807018B1DC
:10172000206C40F00100206405F0040030B107F0A7
:10173000010018B1206C40F00200206405F00200A6
:1017400030B107F0010018B1206C40F004002064B3
:1017500005F0080048B106F0200010B907F00100BC
:1017600018B1206C40F008002064206C70B305F0C4
:10177000200028B106F0200010B1204600F0C1FA88
:1017800020684069C0F3801A206C00F0080010B98E
:10179000BAF1000F23D0204600F088FA2068406993
:1017A00000F04000402816D12068406920F0400039
:1017B00021684861A06B50B15648A16B0865A06BC9
:1017C000FFF701F810B1A06B016D88470CE02046CF
:1017D000FFF76FFF08E02046FFF76BFF04E02046AD
:1017E000FFF767FF0020206488E7FFE7206B0128F0
:1017F00079D105F01000002875D006F010000028FF
:1018000071D000BF00200090206800680090206820
:101810004068009000BF00BF2068406900F04000B1
:10182000402839D1A06B006840681FFA80F8B8F1F1
:10183000000F30D0A08D40452DDDA4F82E80A06B88
:10184000C069B0F5807F1FD02068C06820F4807028
:101850002168C8602068406920F001002168486163
:101860002068406920F0400021684861202084F809
:101870003E00002020632068C06820F0100021682E
:10188000C860A06BFEF74AFFA08DE28D801A81B27E
:101890002046FFF70DFF31E7A08DE18D401A1FFABA
:1018A00080F8E08DE8B1B8F1000F1AD02068C06868
:1018B00020F490702168C8602068406920F0010021
:1018C00021684861202084F83E00002020632068C1
:1018D000C06820F010002168C86041462046FFF72C
:1018E000E7FE0BE7FFE705F0800030B106F080006F
:1018F00018B1204600F09DFB00E705F0400030B134
:1019000006F0400018B1204600F0EBF9F6E600BF03
:10191000F4E60000991C000810B504460CB901203B
:1019200010BDA06900B100E000BF94F83D0028B9E7
:10193000002084F83C00204600F028F8242084F899
:101940003D002068C06820F400502168C86020462F
:1019500000F036FA2068006920F4904021680861A0
:101960002068406920F02A00216848612068C0682A
:1019700040F400502168C86000202064202084F8D2
:101980003D0084F83E000020CAE7000010B586B094
:1019900004462E492068884255D100BF00BF002070
:1019A00000902B48006840F0100029490860084664
:1019B000006800F01000009000BF00BF00BF00BF33
:1019C00000BF0020009022481438006840F0010059
:1019D0001F49143908600846006800F001000090B3
:1019E00000BF00BF00BF00BF00BF0020009008463E
:1019F000006840F0010008600846006800F001003F
:101A0000009000BF00BF00BF481501900220029067
:101A100001200390022004900720059001A90D48A1
:101A2000FEF7E6FE4FF4806001900720059001A9C3
:101A30000848FEF7DDFE2520FFF739F8032211469E
:101A40002520FFF744F806B010BD0000001001404B
:101A5000443802400000024070B504460D46164668
:101A600094F83E00202816D105B10EB9012070BDB2
:101A700000BF94F83C00012801D10220F7E70120C3
:101A800084F83C0000BF00202063324629462046EF
:101A900000F0ACFAEBE70220E9E700001D4A01681C
:101AA000914236D11C49098801F4004189BB1A4989
:101AB000098801F4804171B1184909780A2903D0D5
:101AC0000021154A118024E01349098841F400419E
:101AD000114A11801DE0114909780D2906D10E49DE
:101AE000098841F480410C4A118012E00B490978C1
:101AF000094A1288C2F30D02094B99540649098814
:101B0000491C054A118011460988C72901DD0021B9
:101B100011807047001001408400002086000020E2
:101B20009C000020704700BFFEE700BFFEE7704743
:101B3000704700007CB504460D46164616480068FE
:101B40001821B0FBF1F01549B0FBF1F04FF47A71B8
:101B5000484301906068B0F5827F0DD12B4600228A
:101B600080212046009600F01BF898B1606D40F08F
:101B70002000606503207CBD00BF019800B908E02B
:101B80000198401E019020688068C0F3C0100028B2
:101B9000F3D100BF0020EEE70000002040420F001C
:101BA0002DE9F84F04460D4690461E46DDF8289074
:101BB000FEF72CFFA0EB0900371AFEF727FF82463D
:101BC0002C480068C0F3CB307843009045E0701C8F
:101BD000002842D0FEF71AFFA0EB0A00B84200D25C
:101BE000A7BB2068406820F0E0002168486060687A
:101BF000B0F5827F0DD1A068B0F5004F03D0A0688A
:101C0000B0F5806F05D12068006820F040002168A1
:101C10000860A06AB0F5005F0DD100BF20680068C1
:101C200020F40050216808602068006840F40050EB
:101C30002168086000BF012084F8510000BF002027
:101C400084F8500000BF0320BDE8F88FFFE700983C
:101C500000B900270098401E009020688068284046
:101C6000A84201D1012000E000204045AFD1002072
:101C7000EAE7000000000020704710B5FEF7CCFE38
:101C800010BD00000348006840F47000014908607E
:101C90007047000088ED00E070B50546AC6B002091
:101CA000E085E0842046FFF704FD70BD0168C96847
:101CB00021F490710268D1600168496921F0010145
:101CC00002685161016B012905D10168C96821F0E1
:101CD00010010268D160202180F83E1000210163CC
:101CE000704710B504462068C06820F040002168A5
:101CF000C860202084F83D002046FFF713FF002035
:101D000010BD70B5044694F83E00222856D1A06854
:101D1000B0F5805F0CD1206950B90025A66A206813
:101D20004068C0F308003080A06A801CA06215E003
:101D3000A56A0026A068B0F5805F03D0A06828B926
:101D4000206918B920684068287004E0206840685D
:101D500000F07F002870A06A401CA062E08D401E49
:101D600080B2E08540BB2068C06820F02000216878
:101D7000C8602068C06820F480702168C86020684E
:101D8000406920F0010021684861202084F83E006D
:101D9000206B01280AD12068C06820F0100021685B
:101DA000C860A18D2046FFF783FC02E02046FFF7C4
:101DB00075FE0020206370BD0020FCE70220FAE7DA
:101DC0002DE9F84F04462068006920F44050E1688E
:101DD0000843216808612169A068084361690843D4
:101DE000E169084300902068C06849F20C618843AB
:101DF000009908432168C8602068406920F4407059
:101E0000A16908432168486176492068884203D067
:101E100075492068884203D1FEF784FF814602E0BD
:101E2000FEF770FF8146E069B0F5004F6CD10220EB
:101E30006168A0FB015003461920A9FB0070014610
:101E40002A463846FEF71BFA6421B0FBF1F04FEA50
:101E5000001A02206168A0FB01510B461920A9FB62
:101E600000712A463846FEF70AFA83460220616866
:101E7000A0FB015003461920A9FB00712A463846F1
:101E8000FEF7FDF96421B0FBF1F000EBC00101EBBE
:101E90000010ABEB8000322101EBC0006421B0FBED
:101EA000F1F000F0F8000AEB400A02206168A0FBA4
:101EB000015003461920A9FB007001462A46384606
:101EC000FEF7DDF9834602206168A0FB015003465E
:101ED0001920A9FB00712A463846FEF7D0F9642183
:101EE000B0FBF1F000EBC00101EB0010ABEB8000A8
:101EF000322101EBC0006421B0FBF1F000F00700DB
:101F00005044216888606AE004206168A0FB0150A9
:101F100003461920A9FB007001462A463846FEF701
:101F2000AEF9824604206168A0FB015003461920E7
:101F3000A9FB007001462A463846FEF7A0F9642145
:101F4000B0FBF1F000EBC00101EB0010AAEB800048
:101F5000322101EB00106421B0FBF1F000F0F00A37
:101F600004206168A0FB017003461920A9FB005101
:101F70003A462846FEF783F96421B0FBF1F00AEBFC
:101F8000001A04206168A0FB01510B461920A9FB2F
:101F900000712A463846FEF772F9834604206168CC
:101FA000A0FB015003461920A9FB007001462A46F8
:101FB0003846FEF764F96421B0FBF1F000EBC00194
:101FC00001EB0010ABEB8000322101EB001064212B
:101FD000B0FBF1F000F00F00504421688860BDE8CC
:101FE000F88F0000001001400014014010B50346B6
:101FF00099629A85DA8500201864222083F83E00D1
:1020000000BF002083F83C0000BF1868C06840F49F
:1020100080701C68E0601868406940F001001C682E
:1020200060611868C06840F020001C68E060002013
:1020300010BD014691F83D00212828D18868B0F5EF
:10204000805F0BD1086948B90A6A1088C0F308009C
:102050000B685860086A801C086205E00B6A581C0F
:10206000086218780B685860C88C401E80B2C8841B
:1020700058B90868C06820F080000B68D86008680C
:10208000C06840F040000B68D86000207047022014
:10209000FCE7000070B500240F4D1048FFF714FB5B
:1020A00000BF03E0641CAC4200D904E00B48FFF71A
:1020B00001FB2028F6D100BF002403E0641CAC42E1
:1020C00000D906E0012206490448FFF7C5FC0028B4
:1020D000F4D100BF70BD0000FFFF010064010020CB
:1020E0008600002000BFFEE703B40198410000987D
:1020F00050EAC12018BF04204A0D18BF40F001006B
:1021000040F2FF72B2EB515F08BF40F002000128BD
:1021100008BF052002B0704702480068C0F30220E3
:10212000704700000CED00E010B5002804DB0A0742
:10213000130E054A135406E00A07140E034A00F072
:102140000F031B1FD45410BD00E400E018ED00E0A5
:1021500010B52F499FED2C1B2DED020B84B0059877
:1021600020F000408842D8BF9DED040B2DDD2949A9
:10217000884209D1049840B94FF00100FEF792F966
:1021800000F0A2FC06B010BD05DB9DED040B00F0D5
:102190008FFC06B010BD68469DED040B00F0A0F862
:1021A00010F0030004BF9DED021B9DED000B0CD051
:1021B00001280ED09DED021B9DED000B022817D0CB
:1021C000012000F0DDFB06B010BD00F0A5FA06B05E
:1021D00010BD9DED021B9DED000B012000F0D0FB1A
:1021E00051EC100B04F0A8FF06B041EC100B10BD31
:1021F00000F092FA51EC100B04F09EFF06B041EC97
:10220000100B10BD000000000000000000000000E6
:10221000FB21E93F0000F07F10B52F499FED2C1BFB
:102220002DED020B84B0059820F000408842DCBF01
:1022300000209DED040B32DD2849884209D1049825
:1022400040B94FF00100FEF72DF900F03DFC06B05B
:1022500010BD05DB9DED040B00F02AFC06B010BD9F
:1022600068469DED040B00F03BF810F0030011D020
:10227000012818D09DED021B9DED000B02281AD0FD
:1022800000F04AFA51EC100B04F056FF06B041EC96
:10229000100B10BD9DED021B9DED000B012000F009
:1022A0006FFB06B010BD9DED021B9DED000B00F015
:1022B00033FA06B010BD012000F062FB51EC100BA8
:1022C00004F03AFF06B041EC100B10BD0000000016
:1022D0000000000000000000FB21E93F0000F07F4B
:1022E0002DE9F14F04462DED020B2DED088B8AB040
:1022F0009FEDE70B80ED020B139EE74826F00045AB
:1023000085420ADC9DED120B002084ED000B0AB023
:10231000BDEC088B03B0BDE8F08FE0489FEDE0AB6B
:102320009FEDE1BBA84247DDE14F9FEDE39B9FEDB1
:10233000E48B9DED120B53EC1A2B51EC100B002E7D
:102340001CDD05F0C9FA41EC100BBD4208D053EC7E
:102350001B2B51EC100B05F0BFFAC4E900010BE098
:1023600053EC192B51EC100B05F0B6FA53EC182B6B
:1023700005F0B2FAC4E900010120C8E704F01AFF31
:1023800041EC100BBD4208D053EC1B2B51EC100B51
:1023900004F010FFC4E900010BE053EC192B51ECE1
:1023A000100B04F007FF53EC182B04F003FFC4E9F3
:1023B00000014FF0FF30AAE7C348A84279DB9DED4A
:1023C000120B51EC100B01F043FA41EC180B9FED8E
:1023D000C00B53EC102B05F075F99FEDBF1B53ECB0
:1023E000112B04F0E7FE05F0E5F8074605F03FF98C
:1023F00041EC190B53EC1A2B05F064F953EC182B34
:1024000005F05EFA41EC180B53EC1B2B51EC190B49
:1024100005F058F9DFF8C8A241EC100B4FEA155847
:102420000125FA4453EC102B51EC180B05F054FA2B
:10243000032DC4E900013DD0C1F30A5005EB45115D
:10244000A8EB00001139814234DA0AEB051BB0EE2B
:1024500048AA9BED000BF0EE68AA53EC102B51EC50
:10246000190B05F02FF941EC1B0B51EC1A0B53EC37
:102470001B2B05F031FA41EC180B51EC1A0B53EC05
:10248000182B05F029FA53EC1B2B05F025FA9BEDD0
:10249000020B41EC1A0B53EC102B51EC190B05F00D
:1024A00011F953EC1A2B05F017FA41EC100B6D1CC7
:1024B000B8E70EE0002EA8BF3846BFF628AF94ED6F
:1024C000000B51EC100B04F037FEC4E90001784218
:1024D0001DE7C6F3130040F4801EC6F30A50A0F2B5
:1024E000F530471100F01F05C5F12000DDF848B0B8
:1024F00008900020069007900520EC467949002DB1
:1025000007EB0002794408BF51F8221009D051F8B6
:10251000223001EB8201AB404A68089922FA01F1AE
:102520001943A1FB0E26A1FB0B131A449A4234BF98
:102530000123002303EB06080CEB8003D3E901A67B
:102540000E448E4234BF0121002192448A4411B1CD
:10255000924502D903E0924501D2012100E0002119
:10256000C3E901A641444CF82010011EA0F101006E
:10257000C4DC029800F10050850F0298DDE9036782
:102580008000DDF8148005F072F841EC1A0B30463B
:1025900005F084F89FED541B53EC112B05F092F8D5
:1025A00041EC1B0B384605F079F89FED511B53ECBD
:1025B000112B05F087F841EC180B404605F06EF83A
:1025C0009FED4D1B53EC112B05F07CF841EC190BE2
:1025D00051EC180B53EC192B04F0ECFD53EC1B2BB6
:1025E00004F0E8FD53EC1A2B04F0E4FDCDE90801FA
:1025F000002008909DED080B53EC1A2B51EC100BAA
:1026000005F06AF953EC1B2B05F066F953EC182B17
:1026100005F062F953EC192B05F052F99FED381BC8
:1026200053EC112B05F04EF89FED370B41EC180BD6
:1026300053EC102B9DED080B51EC100B05F042F8FC
:1026400053EC182B04F0B6FD9FED310B41EC180B49
:1026500053EC102B9DED080B51EC100B05F032F8EC
:1026600053EC182B04F0A6FD41EC100B139810F05E
:10267000004F06D06D4251EC100B04F05DFD41ECB3
:10268000100B284684ED000B41E60000000000001E
:102690000000000000000000FB21E93F7CD902405F
:1026A00000004054FB21F93F3163621A61B4D03D10
:1026B000FB21F93F000000000000601A61B4D03D2A
:1026C0007370032E8A19A33BFB21394100000000DF
:1026D00083C8C96D305FE43F000000000000E03FA8
:1026E000F2B6000040B60000000000000000103EFE
:1026F000000000000000103C000000000000103A44
:10270000182D4454FB21F93D3326A611460B113CEC
:1027100000000054FB21F93D10B52DED040B2DED0B
:10272000088B82B0B0EE419AF0EE619A0B9820F0DF
:1027300000449FED4BABB4F1795F11DA9DED0A0BCC
:1027400051EC100B04F036FF002801BFB0EE4A0A2E
:10275000F0EE6A0A02B0BDEC088B04BF04B010BDF5
:102760009DED0A0B53EC102B51EC100B04F0AAFF5B
:1027700041EC180B3C480621B0EE480AF0EE680A1E
:10278000784400F081F853EC182B51EC100B04F056
:1027900099FF9DED0A0B41EC1B0B53EC192B51ECEF
:1027A000100B04F08FFF41EC190B53EC1B2B51EC79
:1027B000180B04F087FF53EC192B05F08DF89FEDF3
:1027C0002C0B41EC190B53EC102B51EC180B04F0B3
:1027D00079FF41EC100B2848844210DA53EC192B96
:1027E00051EC100B05F078F853EC1A2B05F068F853
:1027F00041EC100B02B0BDEC088B04B010BD1F48BB
:10280000A042BCBF9FED1E1B8DED001B06DBA4F597
:1028100000100190002000909DED001B51EC100B6A
:1028200053EC112B05F058F89DED000B41EC180B03
:1028300053EC102B51EC1A0B05F04EF841EC1A0B2F
:1028400053EC192B51EC180B05F046F853EC1A2BEE
:1028500005F036F841EC100BCCE70000000000005A
:10286000000000000000F03F64B300000000000022
:10287000000000000000E03F3333D33F0000E93F99
:10288000000000000000D23F70B504462DED028B21
:102890004D1E00EBC500B0EE408AF0EE608A90ED70
:1028A000000B35F0060017D053EC182B51EC100B31
:1028B00004F008FF41EC100B6D1E04EBC50090ED19
:1028C000001B51EC100B53EC112B04F073FC41EC8A
:1028D000100B35F00600E7D1022D36D0042D1CD0A8
:1028E000062D1CBFBDEC028B70BD53EC182B51ECB8
:1028F000100B04F0E7FE94ED0A1B53EC112B04F0CF
:1029000059FC53EC182B04F0DDFE94ED081B53EC3E
:10291000112B04F04FFC41EC100B53EC182B51EC35
:10292000100B04F0CFFE94ED061B53EC112B04F0BA
:1029300041FC53EC182B04F0C5FE94ED040B53EC52
:10294000102B04F037FC41EC100B53EC182B51EC1E
:10295000100B04F0B7FE94ED021B53EC112B04F0A6
:1029600029FC53EC182B04F0ADFE94ED001B53EC46
:10297000112B04F01FFCBDEC028B41EC100B70BD61
:1029800031B504462DED040B2DED0A8BB0EE41BAA6
:10299000F0EE61BA0B989DED0A0B20F00040B0F10B
:1029A000795F0DDA51EC100BFFF79EFB042808BF8E
:1029B00000F09AF89DED0A0BBDEC0A8B05B030BD16
:1029C00053EC102B51EC100B04F07CFE41EC180B77
:1029D0009DED0A0B53EC182B51EC100B04F072FE1A
:1029E00041EC190B2C48B0EE480AF0EE680A0521BC
:1029F0007844FFF749FF9FED2ACBB0EE40AAF0EEF6
:102A000060AA9CB353EC1C2B51EC190B04F05AFE3A
:102A100041EC1C0B53EC1A2B51EC190B04F052FE39
:102A20009FED210B41EC190B53EC102B51EC1B0BC0
:102A300004F048FE53EC192B04F04EFF53EC182B16
:102A400004F040FE53EC1B2B04F046FF53EC1C2B10
:102A500004F042FF9DED0A1B53EC112B04F030FFF4
:102A6000BDEC0A8B05B041EC100B30BDFFE753EC19
:102A70001A2B51EC180B04F025FE53EC1C2B04F020
:102A800099FB53EC192B04F01DFE9DED0A1B53EC32
:102A9000112B04F08FFBE3E7ECB100000000000015
:102AA000495555555555C5BF000000000000E03F91
:102AB00010B553EC102B51EC100B04F07BFB41ECE8
:102AC000100B10BD000000009FED050B10B553EC7E
:102AD000102B51EC100B04F015FC41EC100B10BD49
:102AE00000000000000000009FED050B10B553EC46
:102AF000102B51EC100B04F0E5FD41EC100B10BD58
:102B0000000000000000001000BF704738B5044608
:102B100040F23F13EF2200210846009400F06CF8C9
:102B200038BD000010B500BF012240210248FDF76A
:102B300061FF00BF10BD0000001802402DE9FC5FDE
:102B400004460D4616461F46B44201DA301B00E02B
:102B5000A01B1FFA80F8BD4201DA781B00E0E81BD9
:102B60001FFA80F9B44201DA012001E04FF0FF3092
:102B70000190BD4201DA012001E04FF0FF300090EA
:102B8000A8EB09000FFA80FA394630460C9A00F09B
:102B900024F81CE0294620460C9A00F01EF84FEA63
:102BA0004A000FFA80FBC9F10000834506DDAAEB5D
:102BB00009000FFA80FA0198204484B2C34506DA6E
:102BC0000AEB08000FFA80FA0098284485B2B44254
:102BD000E0D1BD42DED1BDE8FC9F70B504460D4694
:102BE00016462B4622462946204600F0C5F93046B7
:102BF00000F062FB70BD00002DE9F05F07468846DB
:102C000091469A46DDF828B00026A9EB0700401C43
:102C1000AAEB0801491C48434500B5F5705F03D98C
:102C2000A5F570564FF4705553464A46414638460E
:102C300000F0A2F900BF012210211448FDF7DAFECE
:102C400000BF1FE000240CE04FEA1B20104901F8F0
:102C50001400012101EB44010D4A02F801B0601C8F
:102C600084B2B4EB550FEFD3A9B2094800F0F6FADD
:102C700006B908E0B6F5705F02D9A6F5705601E016
:102C800035460026DEE700BFBDE8F09F00040240A5
:102C90000602002000B587B0142102A8FDF7D2FB80
:102CA00000BF00BF002001903B48006840F040009A
:102CB000394908600846006800F04000019000BFF4
:102CC00000BF00BF00BF00BF0020019008460068A1
:102CD00040F0400008600846006800F040000190A5
:102CE00000BF00BF00BF00BF00BF0020019008462A
:102CF000006840F0020008600846006800F002002A
:102D0000019000BF00BF00BF00BF00BF00200190C6
:102D10000846006840F0400008600846006800F07F
:102D20004000019000BF00BF00BF40200290012082
:102D3000039004900220059002A91848FDF758FD61
:102D4000802002900120039004900220059002A9A7
:102D50001248FDF74DFD10200290012003900490D1
:102D60000220059002A90E48FDF742FD4FF4807045
:102D700002900120039004900220059002A90748C8
:102D8000FDF736FD00BF002280210448FDF732FE2A
:102D900000BF07B000BD00003038024000180240FC
:102DA0000004024010B500BF00224FF480710948B2
:102DB000FDF720FE00BF0A2000F09EFA00BF0122AE
:102DC00011020448FDF716FE00BF782000F094FAC7
:102DD00010BD00000018024010B5FFF75BFFFFF7C1
:102DE000E1FF00F0BFF900F00EF840F23F13EF22D0
:102DF0000021084600F0C0F8FFF794FE4FF6FF7080
:102E0000FFF784FE10BD10B5112000F035FA7820D0
:102E100000F072FA362000F02FFA002000F03CFAA1
:102E20003A2000F029FA652000F036FAB22000F0CE
:102E300023FA0C2000F030FA0C2000F02DFA0020CC
:102E400000F02AFA332000F027FA332000F024FAA9
:102E5000B72000F011FA722000F01EFABB2000F03B
:102E60000BFA3D2000F018FAC02000F005FA2C20E3
:102E700000F012FAC22000F0FFF9012000F00CFA75
:102E8000C32000F0F9F9192000F006FAC42000F080
:102E9000F3F9202000F000FAC62000F0EDF90F2031
:102EA00000F0FAF9D02000F0E7F9A42000F0F4F9DE
:102EB000A12000F0F1F9E02000F0DEF9D02000F0D0
:102EC000EBF9042000F0E8F90D2000F0E5F91120FD
:102ED00000F0E2F9242000F0DFF92B2000F0DCF90B
:102EE0003F2000F0D9F9542000F0D6F94C2000F032
:102EF000D3F9182000F0D0F90D2000F0CDF90B2007
:102F000000F0CAF91F2000F0C7F9232000F0C4F92F
:102F1000E12000F0B1F9D02000F0BEF9042000F06B
:102F2000BBF90C2000F0B8F9112000F0B5F924200D
:102F300000F0B2F92C2000F0AFF93F2000F0ACF91E
:102F4000442000F0A9F9512000F0A6F92F2000F04C
:102F5000A3F91F2000F0A0F91F2000F09DF9202008
:102F600000F09AF9232000F097F9212000F084F96D
:102F7000292000F081F910BD2DE9F04104460D46ED
:102F800016461F462A2000F077F9200A00F084F93F
:102F9000E0B200F081F9300A00F07EF9F0B200F002
:102FA0007BF92B2000F068F9280A00F075F9E8B2E7
:102FB00000F072F9380A00F06FF9F8B200F06CF91D
:102FC0002C2000F059F9BDE8F08100002DE9FF4FF9
:102FD00085B082468B4600200290019007982038E9
:102FE00000F0FF08089830B101280DD0022812D057
:102FF000032820D118E008EB4800324901EB800596
:1030000006260C240C2719E02F4800EB081508268B
:103010001024102712E008EBC8002C4901EB8005B2
:103020000C261824242709E0294800EB88151026CF
:103030002024402702E009B0BDE8F08F00BF0AEB72
:103040000600F02804DC0BEB0400B0F5A07F00DDE7
:10305000F1E74FF0000930E015F809000490002076
:10306000039022E0049800F0800040B1019A5A4495
:1030700091B2029A524490B2129AFFF7AEFD0198B3
:10308000401CC0B201900198A04206D100200190DE
:103090000298401CC0B202900AE004984006000E5C
:1030A00004900398401CC0B2039003980828D9DB11
:1030B00000BF09F1010000F0FF09B945CCDB00BFFA
:1030C000B9E700003AAB0008AEAF00089EB50008B3
:1030D000FAC200082DE9F84F074688461646994679
:1030E000DDF828A0B9F1000F09D0B9F1010F09D01E
:1030F000B9F1020F09D0B9F1030F0CD108E0062491
:103100000C250AE00824102507E00C24182504E00B
:103110001024202501E0BDE8F88F00BF1AE038191F
:10312000F02804DB002708EB05001FFA80F808EB05
:103130000500B0F5A07F02DB4FF000080027CDF8B6
:1031400000A032784B4641463846FFF73FFF38191A
:1031500087B2761C3078202802DB30787E28DEDDCE
:1031600000BFD8E700B587B0142102A8FDF76AF9BF
:1031700000BF00BF002001903448006840F4805038
:10318000324908600846006800F48050019000BF92
:1031900000BF00BF00BF00BF002001902B481438C3
:1031A000006840F0020029491439086008460068A8
:1031B00000F00200019000BF00BF00BF00BF00BFD1
:1031C000002001900846006840F0020008600846B0
:1031D000006800F00200019000BF00BF00BF08209F
:1031E0000290022003900120049002200590052007
:1031F000069002A91648FDF7FBFA20200290022053
:10320000039001200490022005900520069002A959
:103210000F48FDF7EDFA0F480F4908604FF4827030
:10322000486000210C488160C160022101610121D8
:103230004161490281610021C16101624162816293
:103240000A21C162FEF724F807B000BD44380240ED
:103250000004024000300140083E002070B50446E2
:103260000D464FF0FF332A4621460248FEF780F80C
:1032700070BD0000083E002001B500BF00221021F3
:103280000448FDF7B7FB00BF01216846FFF7E6FFE2
:1032900008BD00000004024001B500BF012210215A
:1032A0000448FDF7A7FB00BF01216846FFF7D6FFE2
:1032B00008BD00000004024038B50446200A8DF81D
:1032C0000000E0B28DF8010000BF01221021044887
:1032D000FDF790FB00BF02216846FFF7BFFF38BD36
:1032E0000004024010B504460420FEF7B3F901487B
:1032F000046010BD7C00002070B504461E2094FBC5
:10330000F0F594FBF0F100FB114604E047F2305079
:1033100000F00CF86D1E002DF8D12EB14FF47A712B
:1033200006FB01F000F002F870BD000070B5034626
:1033300000224FF0E02675690D4E366803FB06F457
:103340004FF0E026B16910E04FF0E026B069884206
:103350000BD0884202D20E1A324402E02E1A0E44DA
:1033600032440146A24200D300E0EDE700BF70BD49
:103370007C0000201EB50B46002124E001EB410437
:1033800003EB840494ED000AD0ED000A20EE200A3D
:1033900001EB410403EB8404D4ED010A90ED011A22
:1033A00000EE810A01EB410403EB8404D4ED020A30
:1033B00090ED021A00EE810A6C4604EB810484ED64
:1033C000000A4C1CE1B20329D8DB00220AE06C465B
:1033D00004EB820494ED000A00EB820484ED000A01
:1033E000541CE2B2032AF2DB1EBD000070B52DEDC5
:1033F0000A8B9CB00446B0EE408AF0EE608AB0EED4
:10340000419A9FEDB30AC8EE000AB0EE608A9FEDC4
:10341000B00AC8EE800AF0EE608A9FEDAD0AC9EEF0
:10342000000AB0EE609A18EE100A04F03FFB41EC7F
:103430001B0BB0EE4B0AF0EE6B0AFEF789FEB0EE06
:1034400040AAF0EE60AA51EC1A0B03F081FE139033
:103450009FEDA00A8DED140A18EE100A04F026FB69
:1034600041EC1B0BB0EE4B0AF0EE6B0AFEF7D4FEFC
:10347000B0EE40AAF0EE60AA51EC1A0B03F068FE21
:1034800015909FED940A8DED160AB7EE000A8DEDAA
:10349000170A9FED900A8DED180A18EE100A04F035
:1034A00005FB41EC1C0BB0EE4C0AF0EE6C0AFEF78B
:1034B000B3FEB0EE40BAF0EE60BA51EC1B0B03F075
:1034C0003BFE41EC1A0B03F043FE19909FED810A7D
:1034D0008DED1A0A18EE100A04F0E8FA41EC1B0B05
:1034E000B0EE4B0AF0EE6B0AFEF732FEB0EE40AAE9
:1034F000F0EE60AA51EC1A0B03F02AFE1B90B7EE17
:10350000000A8DED0A0A9FED730A8DED0B0A9FEDFF
:10351000710A8DED0C0A9FED6F0A8DED0D0A18EE04
:10352000900A04F0C3FA41EC1B0BB0EE4B0AF0EE2C
:103530006B0AFEF70DFEB0EE40AAF0EE60AA51EC69
:103540001A0B03F005FE0E9018EE900A04F0AEFA86
:1035500041EC1C0BB0EE4C0AF0EE6C0AFEF75CFE80
:10356000B0EE40BAF0EE60BA51EC1B0B03F0E4FD94
:1035700041EC1A0B03F0ECFD0F909FED560A8DED18
:10358000100A18EE900A04F091FA41EC1B0BB0EE11
:103590004B0AF0EE6B0AFEF73FFEB0EE40AAF0EEEB
:1035A00060AA51EC1A0B03F0D3FD119018EE900AAB
:1035B00004F07CFA41EC1B0BB0EE4B0AF0EE6B0A08
:1035C000FEF7C6FDB0EE40AAF0EE60AA51EC1A0B71
:1035D00003F0BEFD129019EE100A04F067FA41ECF8
:1035E0001B0BB0EE4B0AF0EE6B0AFEF7B1FDB0EE2E
:1035F00040AAF0EE60AA51EC1A0B03F0A9FD01906D
:1036000019EE100A04F052FA41EC1C0BB0EE4C0A11
:10361000F0EE6C0AFEF700FEB0EE40BAF0EE60BAD3
:1036200051EC1B0B03F088FD41EC1A0B03F090FDED
:1036300002909FED280A8DED030A19EE100A04F09E
:1036400035FA41EC1B0BB0EE4B0AF0EE6B0AFEF7BD
:10365000E3FDB0EE40AAF0EE60AA51EC1A0B03F0C5
:1036600077FD049019EE100A04F020FA41EC1B0BD0
:10367000B0EE4B0AF0EE6B0AFEF76AFDB0EE40AA20
:10368000F0EE60AA51EC1A0B03F062FD05909FED7D
:10369000110A8DED060A9FED0F0A8DED070A9FEDC9
:1036A0000D0A8DED080AB7EE000A8DED090A01A991
:1036B0002046FFF75FFE06460AA9FFF75BFE0546B8
:1036C00013A9FFF757FE1CB0BDEC0A8B70BD0000BC
:1036D000DA0F49400000000008B5FFF77DFB4FF608
:1036E000FF70FFF713FA4FF4784003230DA20A216D
:1036F00000900846FFF7EEFC4FF4784002230BA23F
:103700002A2100900A20FFF7E5FC4FF478400123BE
:1037100009A2422100900A20FFF7DCFC01E000F042
:1037200013F8FCE753544D333200000041544B2D45
:103730004D4430323430000041544F4D40414C49EB
:10374000454E54454B000000F8B500250EE005EB52
:103750004501394A02EB81009FED381ADFED380A46
:10376000B6EE000AFFF742FE681CC5B2082DEEDB7C
:10377000002451E01F20334F661C0090BE5D761E72
:1037800006EB46062C4F07EB860696ED010ADFEDA9
:103790002E0A30EE200ABCEEC00A10EE106AB3B258
:1037A000284F661CBE5D761E06EB4606224F07EBD1
:1037B000860696ED000ADFED250A30EE200ABCEE03
:1037C000C00A10EE106AB2B21E4E365D761E06EBCF
:1037D000460607EB860696ED010ADFED1B0A30EE82
:1037E000200ABCEEC00A10EE106AB1B2154E365D6A
:1037F000761E06EB460607EB860696ED000ADFED21
:10380000130A30EE200ABCEEC00A10EE106AB0B205
:10381000FFF794F9A01CC4B2182CABDB6420FFF7AF
:103820006BFD4FF6FF70B0239422782100905C204E
:10383000FFF7E2F9F8BD000004000020CDCC4C3EBB
:103840009A99993E64000020000014430000F04261
:1038500082B0CDE9000121F0004001909DED000B08
:1038600002B051EC100B704700BF054A126802F01D
:103870004002002AF9D0C2B2014B5A6070470000E2
:103880000010014000B587B000BF00BF00200190CC
:103890003848006840F01000364908600846006863
:1038A00000F01000019000BF00BF00BF00BF00BFCC
:1038B000002001900846006840F0100008600846AB
:1038C000006800F01000019000BF00BF00BF00BF03
:1038D00000BF002001900846006840F0100008601A
:1038E0000846006800F01000019000BF00BF00BF54
:1038F00000BF00BF002001900846006840F00100B2
:1039000008600846006800F00100019000BF00BF99
:1039100000BF10200290002003900120049002209C
:10392000059002A91448FCF763FF082002900020CC
:103930000390012004900220059002A90E48FCF794
:1039400057FF0420029000200390012004900220E1
:10395000059002A90848FCF74BFF012002900020C7
:10396000039002200490059002A90448FCF740FF50
:1039700007B000BD30380240001002400000024095
:1039800070B5044600260948058840884543002153
:10399000084603F0ABF803F057FA00BF02E0044812
:1039A0000480761CAE42FAD370BD0000F8010020FE
:1039B0008000006C10B5044658488471002C58D122
:1039C000F020564908804FF4A0704880084680884F
:1039D00045F21051884210D14FF430504F490881C0
:1039E0004FF4285048814FF42C5088814FF4F070E8
:1039F00008804FF4487048801AE04848808841F6B3
:103A0000631188420DD12C20444908812B20488124
:103A10002A2088814FF4F07008804FF44870488065
:103A200006E02C203D4908812A2048812B208881EE
:103A30003A48808845F21031884205D0374880885E
:103A400047F29671884206D14FF4A070334908803E
:103A50004FF4F07048803148808849F6060188426A
:103A600058D14FF4F0702D4908804FF448704880C9
:103A700050E04FF4A07029490880F02048800846A3
:103A8000808845F21051884210D14FF430502349BC
:103A900008814FF4285048814FF42C5088814FF40E
:103AA000487008804FF4F070488020E01B48808800
:103AB00041F66311884205D01848808849F606010E
:103AC00088420DD12C20154908812A2048812B20BD
:103AD00088814FF4487008804FF4F070488006E009
:103AE0002C200E4908812A2048812B2088810B48F0
:103AF000808845F21031884205D00848808847F216
:103B00009671884206D14FF4F070044908804FF452
:103B1000A0704880002002F0CBFE10BDF80100200C
:103B200070B505460E4614463146284602F0DEFFC3
:103B300003F08AF901490C8070BD00008000006C20
:103B400010B5CF2003F074F9002003F065F9C1200F
:103B500003F062F9302003F05FF9ED2003F068F91B
:103B6000642003F059F9032003F056F9122003F002
:103B700053F9812003F050F9E82003F059F985202A
:103B800003F04AF9102003F047F97A2003F044F9D2
:103B9000CB2003F04DF9392003F03EF92C2003F03F
:103BA0003BF9002003F038F9342003F035F9022006
:103BB00003F032F9F72003F03BF9202003F02CF951
:103BC000EA2003F035F9002003F026F9002003F085
:103BD00023F9C02003F02CF91B2003F01DF9C120AC
:103BE00003F026F9012003F017F9C52003F020F9AE
:103BF000302003F011F9302003F00EF9C72003F054
:103C000017F9B72003F008F9362003F011F948201E
:103C100003F002F93A2003F00BF9552003F0FCF809
:103C2000B12003F005F9002003F0F6F81A2003F0A4
:103C3000F3F8B62003F0FCF80A2003F0EDF8A22018
:103C400003F0EAF8F22003F0F3F8002003F0E4F8C0
:103C5000262003F0EDF8012003F0DEF8E02003F069
:103C6000E7F80F2003F0D8F82A2003F0D5F8282031
:103C700003F0D2F8082003F0CFF80E2003F0CCF8C0
:103C8000082003F0C9F8542003F0C6F8A92003F077
:103C9000C3F8432003F0C0F80A2003F0BDF80F205A
:103CA00003F0BAF8002003F0B7F8002003F0B4F8EE
:103CB000002003F0B1F8002003F0AEF8E12003F09B
:103CC000B7F8002003F0A8F8152003F0A5F8172096
:103CD00003F0A2F8072003F09FF8112003F09CF8EE
:103CE000062003F099F82B2003F096F8562003F0F5
:103CF00093F83C2003F090F8052003F08DF8102095
:103D000003F08AF80F2003F087F83F2003F084F8CF
:103D10003F2003F081F80F2003F07EF82B2003F002
:103D200087F8002003F078F8002003F075F80120F0
:103D300003F072F83F2003F06FF82A2003F078F8C0
:103D4000002003F069F8002003F066F8002003F07B
:103D500063F8EF2003F060F8112003F069F8782091
:103D6000FFF7CAFA292003F063F810BD10B5FF2051
:103D700003F05EF8FF2003F04FF8982003F04CF8B2
:103D8000062003F049F8BC2003F052F8012003F0AC
:103D900043F80F2003F040F8612003F03DF8FF20C6
:103DA00003F03AF8012003F037F8012003F034F86B
:103DB0000B2003F031F8102003F02EF8372003F029
:103DC0002BF8632003F028F8FF2003F025F8FF20EC
:103DD00003F022F8012003F01FF8012003F01CF883
:103DE000002003F019F8002003F016F8FF2003F07C
:103DF00013F8522003F010F8012003F00DF8002012
:103E000003F00AF8402003F007F8BD2003F010F893
:103E1000012003F001F8232002F0FEFF452002F00C
:103E2000FBFF672002F0F8FF012002F0F5FF2320DE
:103E300002F0F2FF452002F0EFFF672002F0ECFFF6
:103E4000BE2002F0F5FF002002F0E6FF012002F0A4
:103E5000E3FFAB2002F0E0FF602002F0DDFF222054
:103E600002F0DAFF222002F0D7FF222002F0D4FF76
:103E7000222002F0D1FF222002F0CEFFC72002F064
:103E8000D7FF362002F0C8FFED2002F0D1FF7F20DF
:103E900002F0C2FF0F2002F0BFFFC02002F0C8FFF7
:103EA0000F2002F0B9FF0B2002F0B6FF0A2002F04B
:103EB000B3FFFC2002F0BCFF082002F0ADFFDF20C2
:103EC00002F0B6FF002002F0A7FF002002F0A4FFDE
:103ED000002002F0A1FF002002F09EFF002002F06F
:103EE0009BFF202002F098FFF32002F0A1FF742036
:103EF00002F092FFB42002F09BFF002002F08CFF42
:103F0000002002F089FF002002F086FFF72002F077
:103F10008FFF822002F080FFB12002F089FF002095
:103F200002F07AFF132002F077FF132002F074FFF3
:103F3000F22002F07DFF802002F06EFF042002F0EC
:103F40006BFF402002F068FF282002F065FFC120CF
:103F500002F06EFF172002F05FFF882002F05CFF86
:103F6000882002F059FF202002F056FFE02002F0E6
:103F70005FFF002002F050FF0A2002F04DFF1220E8
:103F800002F04AFF102002F047FF0E2002F044FF2B
:103F9000202002F041FFCC2002F03EFF072002F07B
:103FA0003BFF062002F038FF0B2002F035FF0E2009
:103FB00002F032FF0F2002F02FFF0D2002F02CFF45
:103FC000152002F029FF102002F026FF002002F049
:103FD00023FFE12002F02CFF002002F01DFF0B2048
:103FE00002F01AFF132002F017FF0D2002F014FF59
:103FF0000E2002F011FF1B2002F00EFF712002F0D4
:104000000BFF062002F008FF062002F005FF0A2041
:1040100002F002FF0F2002F0FFFE0E2002F0FCFE75
:104020000F2002F0F9FE152002F0F6FE0C2002F03F
:10403000F3FE002002F0F0FE2A2002F0F9FE00203C
:1040400002F0EAFE002002F0E7FE012002F0E4FEAA
:10405000DF2002F0E1FE2B2002F0EAFE002002F059
:10406000DBFE002002F0D8FE032002F0D5FE1F2068
:1040700002F0D2FE3A2002F0DBFE552002F0CCFE28
:10408000362002F0D5FE002002F0C6FE112002F01C
:10409000CFFE7820FFF730F9292002F0C9FE142066
:1040A000FFF72AF92C2002F0C3FE10BD10B5ED2059
:1040B00002F0BEFE012002F0AFFEFE2002F0ACFED8
:1040C000EE2002F0B5FEDE2002F0A6FE212002F076
:1040D000A3FEF12002F0ACFE012002F09DFEDF20E5
:1040E00002F0A6FE102002F097FEC42002F0A0FE0F
:1040F0008F2002F091FEC62002F09AFE002002F00E
:104100008BFEE22002F088FEE22002F085FEE22033
:1041100002F082FEBF2002F08BFEAA2002F07CFE9D
:10412000B02002F085FE0D2002F076FE002002F0A5
:1041300073FE0D2002F070FE002002F06DFE1120D3
:1041400002F06AFE002002F067FE192002F064FE11
:10415000002002F061FE212002F05EFE002002F04D
:104160005BFE2D2002F058FE002002F055FE3D209F
:1041700002F052FE002002F04FFE5D2002F04CFEE5
:10418000002002F049FE5D2002F046FE002002F011
:1041900043FEB12002F04CFE802002F03DFE0020E4
:1041A00002F03AFE8B2002F037FE002002F034FECF
:1041B000962002F031FE002002F02EFEB22002F026
:1041C00037FE002002F028FE002002F025FE02202B
:1041D00002F022FE002002F01FFE032002F01CFE6F
:1041E000002002F019FEB32002F022FE002002F0AF
:1041F00013FE002002F010FE002002F00DFE002051
:1042000002F00AFE002002F007FE002002F004FE89
:10421000002002F001FE002002F0FEFD002002F06E
:10422000FBFD002002F0F8FD002002F0F5FD00206B
:1042300002F0F2FD002002F0EFFD002002F0ECFDA4
:10424000002002F0E9FD002002F0E6FD002002F06F
:10425000E3FD002002F0E0FD002002F0DDFD002083
:1042600002F0DAFD002002F0D7FD002002F0D4FDBC
:10427000002002F0D1FD002002F0CEFDB42002F0BB
:10428000D7FD8B2002F0C8FD002002F0C5FD96206E
:1042900002F0C2FD002002F0BFFDA12002F0BCFD33
:1042A000002002F0B9FDB52002F0C2FD022002F0AC
:1042B000B3FD002002F0B0FD032002F0ADFD0020B0
:1042C00002F0AAFD042002F0A7FD002002F0A4FDE8
:1042D000B62002F0ADFD002002F09EFD002002F0AD
:1042E0009BFDB72002F0A4FD002002F095FD002008
:1042F00002F092FD3F2002F08FFD002002F08CFDC5
:104300005E2002F089FD002002F086FD642002F0AC
:1043100083FD002002F080FD8C2002F07DFD002056
:1043200002F07AFDAC2002F077FD002002F074FD6F
:10433000DC2002F071FD002002F06EFD702002F022
:104340006BFD002002F068FD902002F065FD00206A
:1043500002F062FDEB2002F05FFD002002F05CFD48
:10436000DC2002F059FD002002F056FDB82002F0DA
:104370005FFD002002F050FD002002F04DFD002006
:1043800002F04AFD002002F047FD002002F044FD4B
:10439000002002F041FD002002F03EFD002002F06E
:1043A0003BFDBA2002F044FD242002F035FD002040
:1043B00002F032FD002002F02FFD002002F02CFD63
:1043C000C12002F035FD202002F026FD002002F081
:1043D00023FD542002F020FD002002F01DFDFF20EF
:1043E00002F01AFD002002F017FDC22002F020FDAD
:1043F0000A2002F011FD002002F00EFD042002F060
:104400000BFD002002F008FDC32002F011FD3C204E
:1044100002F002FD002002F0FFFC3A2002F0FCFC5A
:10442000002002F0F9FC392002F0F6FC002002F036
:10443000F3FC372002F0F0FC002002F0EDFC3C2001
:1044400002F0EAFC002002F0E7FC362002F0E4FC77
:10445000002002F0E1FC322002F0DEFC002002F03D
:10446000DBFC2F2002F0D8FC002002F0D5FC2C2031
:1044700002F0D2FC002002F0CFFC292002F0CCFC9C
:10448000002002F0C9FC262002F0C6FC002002F049
:10449000C3FC242002F0C0FC002002F0BDFC24205C
:1044A00002F0BAFC002002F0B7FC232002F0B4FCBA
:1044B000002002F0B1FC3C2002F0AEFC002002F033
:1044C000ABFC362002F0A8FC002002F0A5FC322054
:1044D00002F0A2FC002002F09FFC2F2002F09CFCC6
:1044E000002002F099FC2C2002F096FC002002F043
:1044F00093FC292002F090FC002002F08DFC262085
:1045000002F08AFC002002F087FC242002F084FCE8
:10451000002002F081FC242002F07EFC002002F04A
:104520007BFC232002F078FC002002F075FCC42004
:1045300002F07EFC622002F06FFC002002F06CFCB6
:10454000052002F069FC002002F066FC842002F0E5
:1045500063FC002002F060FCF02002F05DFC002013
:1045600002F05AFC182002F057FC002002F054FC24
:10457000A42002F051FC002002F04EFC182002F0B2
:104580004BFC002002F048FC502002F045FC0020CB
:1045900002F042FC0C2002F03FFC002002F03CFC48
:1045A000172002F039FC002002F036FC952002F0C2
:1045B00033FC002002F030FCF32002F02DFC002040
:1045C00002F02AFCE62002F027FC002002F024FC86
:1045D000C52002F02DFC322002F01EFC002002F06B
:1045E0001BFC442002F018FC002002F015FC6520A2
:1045F00002F012FC002002F00FFC762002F00CFC0E
:10460000002002F009FC882002F006FC002002F0E5
:1046100003FCC62002F00CFC202002F0FDFB002071
:1046200002F0FAFB172002F0F7FB002002F0F4FB87
:10463000012002F0F1FB002002F0EEFBC72002F0A7
:10464000F7FB002002F0E8FB002002F0E5FB002071
:1046500002F0E2FB002002F0DFFBC82002F0E8FBE2
:10466000002002F0D9FB002002F0D6FB002002F06F
:10467000D3FB002002F0D0FBC92002F0D9FB0020C0
:1046800002F0CAFB002002F0C7FB002002F0C4FBCE
:10469000002002F0C1FB002002F0BEFB002002F06F
:1046A000BBFB002002F0B8FB002002F0B5FB0020AD
:1046B00002F0B2FB002002F0AFFB002002F0ACFBE6
:1046C000002002F0A9FB002002F0A6FB002002F06F
:1046D000A3FB002002F0A0FB002002F09DFBE020E5
:1046E00002F0A6FB162002F097FB002002F094FBDC
:1046F0001C2002F091FB002002F08EFB212002F032
:104700008BFB002002F088FB362002F085FB0020A6
:1047100002F082FB462002F07FFB002002F07CFBCF
:10472000522002F079FB002002F076FB642002F0B8
:1047300073FB002002F070FB7A2002F06DFB00207A
:1047400002F06AFB8B2002F067FB002002F064FBA2
:10475000992002F061FB002002F05EFBA82002F02D
:104760005BFB002002F058FBB92002F055FB002053
:1047700002F052FBC42002F04FFB002002F04CFB81
:10478000CA2002F049FB002002F046FBD22002F0D2
:1047900043FB002002F040FBD92002F03DFB00204B
:1047A00002F03AFBE02002F037FB002002F034FB7D
:1047B000F32002F031FB002002F02EFBE12002F09A
:1047C00037FB162002F028FB002002F025FB1C20FE
:1047D00002F022FB002002F01FFB222002F01CFB53
:1047E000002002F019FB362002F016FB002002F038
:1047F00013FB452002F010FB002002F00DFB5220BD
:1048000002F00AFB002002F007FB642002F004FB28
:10481000002002F001FB7A2002F0FEFA002002F0F4
:10482000FBFA8B2002F0F8FA002002F0F5FA99204A
:1048300002F0F2FA002002F0EFFAA82002F0ECFAFF
:10484000002002F0E9FAB92002F0E6FA002002F0B6
:10485000E3FAC42002F0E0FA002002F0DDFACA20F8
:1048600002F0DAFA002002F0D7FAD22002F0D4FAED
:10487000002002F0D1FAD82002F0CEFA002002F097
:10488000CBFAE02002F0C8FA002002F0C5FAF320CB
:1048900002F0C2FA002002F0BFFAE22002F0C8FAE9
:1048A000052002F0B9FA002002F0B6FA0B2002F05F
:1048B000B3FA002002F0B0FA1B2002F0ADFA00209B
:1048C00002F0AAFA342002F0A7FA002002F0A4FABB
:1048D000442002F0A1FA002002F09EFA4F2002F0DC
:1048E0009BFA002002F098FA612002F095FA00206D
:1048F00002F092FA792002F08FFA002002F08CFA8E
:10490000882002F089FA002002F086FA972002F04F
:1049100083FA002002F080FAA62002F07DFA00203F
:1049200002F07AFAB72002F077FA002002F074FA67
:10493000C22002F071FA002002F06EFAC72002F0E5
:104940006BFA002002F068FAD12002F065FA00202C
:1049500002F062FAD62002F05FFA002002F05CFA60
:10496000DD2002F059FA002002F056FAF32002F09E
:1049700053FA002002F050FAE32002F059FA052021
:1049800002F04AFA002002F047FA0A2002F044FA44
:10499000002002F041FA1C2002F03EFA002002F052
:1049A0003BFA332002F038FA002002F035FA4420B6
:1049B00002F032FA002002F02FFA502002F02CFA16
:1049C000002002F029FA622002F026FA002002F00C
:1049D00023FA782002F020FA002002F01DFA882045
:1049E00002F01AFA002002F017FA972002F014FAE7
:1049F000002002F011FAA62002F00EFA002002F0C8
:104A00000BFAB72002F008FA002002F005FAC220E3
:104A100002F002FA002002F0FFF9C72002F0FCF9D0
:104A2000002002F0F9F9D12002F0F6F9002002F09E
:104A3000F3F9D52002F0F0F9002002F0EDF9DD20C5
:104A400002F0EAF9002002F0E7F9F32002F0E4F9BD
:104A5000002002F0E1F9E42002F0EAF9012002F07E
:104A6000DBF9002002F0D8F9012002F0D5F900208E
:104A700002F0D2F9022002F0CFF9002002F0CCF9C6
:104A80002A2002F0C9F9002002F0C6F93C2002F009
:104A9000C3F9002002F0C0F94B2002F0BDF900205C
:104AA00002F0BAF95D2002F0B7F9002002F0B4F983
:104AB000742002F0B1F9002002F0AEF9842002F077
:104AC000ABF9002002F0A8F9932002F0A5F900202C
:104AD00002F0A2F9A22002F09FF9002002F09CF956
:104AE000B32002F099F9002002F096F9BE2002F0FE
:104AF00093F9002002F090F9C42002F08DF9002013
:104B000002F08AF9CD2002F087F9002002F084F942
:104B1000D32002F081F9002002F07EF9DD2002F0BE
:104B20007BF9002002F078F9F32002F075F90020FB
:104B300002F072F9E52002F07BF9002002F06CF936
:104B4000002002F069F9002002F066F9002002F06E
:104B500063F9022002F060F9002002F05DF92920DB
:104B600002F05AF9002002F057F93C2002F054F903
:104B7000002002F051F94B2002F04EF9002002F023
:104B80004BF95D2002F048F9002002F045F974204D
:104B900002F042F9002002F03FF9842002F03CF9D3
:104BA000002002F039F9932002F036F9002002F0DB
:104BB00033F9A22002F030F9002002F02DF9B320E1
:104BC00002F02AF9002002F027F9BE2002F024F9B1
:104BD000002002F021F9C42002F01EF9002002F0AA
:104BE0001BF9CD2002F018F9002002F015F9D320AE
:104BF00002F012F9002002F00FF9DC2002F00CF9AB
:104C0000002002F009F9F32002F006F9002002F07A
:104C100003F9E62002F00CF9112002F0FDF8002063
:104C200002F0FAF8342002F0F7F8002002F0F4F86D
:104C3000562002F0F1F8002002F0EEF8762002F0A3
:104C4000EBF8002002F0E8F8772002F0E5F8002009
:104C500002F0E2F8662002F0DFF8002002F0DCF853
:104C6000882002F0D9F8002002F0D6F8992002F04E
:104C7000D3F8002002F0D0F8BB2002F0CDF80020DD
:104C800002F0CAF8992002F0C7F8002002F0C4F838
:104C9000662002F0C1F8002002F0BEF8552002F0B4
:104CA000BBF8002002F0B8F8552002F0B5F800205B
:104CB00002F0B2F8452002F0AFF8002002F0ACF8A4
:104CC000432002F0A9F8002002F0A6F8442002F0E8
:104CD000A3F8002002F0A0F8E72002F0A9F83220A3
:104CE00002F09AF8002002F097F8552002F094F8AC
:104CF000002002F091F8762002F08EF8002002F0F9
:104D00008BF8662002F088F8002002F085F8672012
:104D100002F082F8002002F07FF8672002F07CF8B1
:104D2000002002F079F8872002F076F8002002F0E7
:104D300073F8992002F070F8002002F06DF8BB20A3
:104D400002F06AF8002002F067F8992002F064F897
:104D5000002002F061F8772002F05EF8002002F0F7
:104D60005BF8442002F058F8002002F055F8562075
:104D700002F052F8002002F04FF8232002F04CF825
:104D8000002002F049F8332002F046F8002002F03B
:104D900043F8452002F040F8002002F03DF8E820FA
:104DA00002F046F8002002F037F8002002F034F854
:104DB000992002F031F8002002F02EF8872002F04E
:104DC0002BF8002002F028F8882002F025F80020B7
:104DD00002F022F8772002F01FF8002002F01CF801
:104DE000662002F019F8002002F016F8882002F080
:104DF00013F8002002F010F8AA2002F00DF80020AD
:104E000002F00AF8BB2002F007F8002002F004F8D4
:104E1000992002F001F8002001F0FEFF662001F069
:104E2000FBFF002001F0F8FF552001F0F5FF002006
:104E300001F0F2FF552001F0EFFF002001F0ECFF40
:104E4000442001F0E9FF002001F0E6FF442001F0DA
:104E5000E3FF002001F0E0FF552001F0DDFF00201E
:104E600001F0DAFFE92001F0E3FFAA2001F0D4FF0E
:104E7000002001F0D1FF002001F0CEFF002001F062
:104E8000CBFF002001F0D4FFAA2001F0C5FFCF2006
:104E900001F0CEFF002001F0BFFF002001F0BCFFB9
:104EA000002001F0B9FF002001F0B6FF002001F062
:104EB000B3FF002001F0B0FF002001F0ADFF0020A3
:104EC00001F0AAFF002001F0A7FF002001F0A4FFDD
:104ED000002001F0A1FF002001F09EFF002001F062
:104EE0009BFF002001F098FF002001F095FF0020BB
:104EF00001F092FF002001F08FFFF02001F098FFF9
:104F0000002001F089FF502001F086FF002001F011
:104F100083FF002001F080FF002001F07DFFF320DF
:104F200001F086FF002001F077FFF92001F080FFFB
:104F3000062001F071FF102001F06EFF292001F022
:104F40006BFF002001F068FF3A2001F071FF55204F
:104F500001F062FF112001F06BFF6420FEF7CCF935
:104F6000292001F065FF352001F062FF002001F0EB
:104F700053FF512001F05CFFFF2001F04DFF532053
:104F800001F056FF2C2001F047FF552001F050FFA3
:104F9000822001F041FF2C2001F04AFF10BD10B526
:104FA00055214FF4704001F059FFAA214FF2010042
:104FB00001F054FF52214FF2020001F04FFF08218F
:104FC0004FF2030001F04AFF01214FF2040001F00B
:104FD00045FF0D214FF4304001F040FF0D214BF211
:104FE000010001F03BFF0D214BF2020001F036FF02
:104FF00034214FF4364001F031FF34214BF201608F
:1050000001F02CFF34214BF2026001F027FF0D214B
:105010004FF4314001F022FF0D214BF2011001F05D
:105020001DFF0D214BF2021001F018FF34214FF447
:10503000374001F013FF34214BF2017001F00EFFF5
:1050400034214BF2027001F009FF00214FF432408D
:1050500001F004FF00214BF2012001F0FFFE0021CE
:105060004BF2022001F0FAFE24214FF4384001F007
:10507000F5FE24214BF6010001F0F0FE24214BF651
:10508000020001F0EBFE01214FF43F4001F0E6FE8B
:105090000F214FF4334001F0E1FE0F214BF20130BC
:1050A00001F0DCFE0F214BF2023001F0D7FE34217B
:1050B0004FF4394001F0D2FE34214BF6011001F0DB
:1050C000CDFE34214BF6021001F0C8FE08214FF44A
:1050D000354001F0C3FE08214BF2015001F0BEFE45
:1050E00008214BF2025001F0B9FE03214FF4424077
:1050F00001F0B4FE24214FF43A4001F0AFFE242128
:105100004BF6012001F0AAFE24214BF6022001F00B
:10511000A5FE00214FF43C4001F0A0FE78214BF6A3
:10512000014001F09BFE00214BF6024001F096FE8B
:1051300000214FF43D4001F091FE78214BF60150E3
:1051400001F08CFE00214BF6025001F087FE002199
:105150004FF43E4001F082FE64214BF6016001F005
:105160007DFE00214FF4514001F078FE33214DF2D5
:10517000011001F073FE00214DF2021001F06EFEED
:1051800034214DF2031001F069FE00214DF20410AC
:1051900001F064FE3A214DF2051001F05FFE00219E
:1051A0004DF2061001F05AFE4A214DF2071001F0AF
:1051B00055FE00214DF2081001F050FE5C214DF229
:1051C000091001F04BFE00214DF20A1001F046FEDD
:1051D00081214DF20B1001F041FE00214DF20C1027
:1051E00001F03CFEA6214DF20D1001F037FE00212A
:1051F0004DF20E1001F032FEE5214DF20F1001F0DC
:105200002DFE01214DF2101001F028FE13214DF268
:10521000111001F023FE01214DF2121001F01EFECB
:1052200054214DF2131001F019FE01214DF214101A
:1052300001F014FE82214DF2151001F00FFE012144
:105240004DF2161001F00AFECA214DF2171001F0BE
:1052500005FE02214DF2181001F000FE00214DF272
:10526000191001F0FBFD02214DF21A1001F0F6FDBC
:1052700001214DF21B1001F0F1FD02214DF21C1035
:1052800001F0ECFD34214DF21D1001F0E7FD02218B
:105290004DF21E1001F0E2FD67214DF21F1001F0EA
:1052A000DDFD02214DF2201001F0D8FD84214DF2E8
:1052B000211001F0D3FD02214DF2221001F0CEFDAC
:1052C000A4214DF2231001F0C9FD02214DF224105A
:1052D00001F0C4FDB7214DF2251001F0BFFD022100
:1052E0004DF2261001F0BAFDCF214DF2271001F04A
:1052F000B5FD02214DF2281001F0B0FDDE214DF286
:10530000291001F0ABFD02214DF22A1001F0A6FD9B
:10531000F2214DF22B1001F0A1FD02214DF22C10D3
:1053200001F09CFDFE214DF22D1001F097FD0321AF
:105330004DF22E1001F092FD10214DF22F1001F0D0
:105340008DFD03214DF2301001F088FD33214DF227
:10535000311001F083FD03214DF2321001F07EFD8A
:105360006D214DF2331001F079FD00214FF45240D0
:1053700001F074FD33214DF2012001F06FFD002199
:105380004DF2022001F06AFD34214DF2032001F0BC
:1053900065FD00214DF2042001F060FD3A214DF23F
:1053A000052001F05BFD00214DF2062001F056FDC5
:1053B0004A214DF2072001F051FD00214DF2082055
:1053C00001F04CFD5C214DF2092001F047FD002168
:1053D0004DF20A2001F042FD81214DF20B2001F037
:1053E0003DFD00214DF20C2001F038FDA6214DF2CB
:1053F0000D2001F033FD00214DF20E2001F02EFDB5
:10540000E5214DF20F2001F029FD01214DF2102080
:1054100001F024FD13214DF2112001F01FFD0121A7
:105420004DF2122001F01AFD54214DF2132001F02B
:1054300015FD01214DF2142001F010FD82214DF2E5
:10544000152001F00BFD01214DF2162001F006FDA3
:10545000CA214DF2172001F001FD02214DF2182062
:1054600001F0FCFC00214DF2192001F0F7FC0221B3
:105470004DF21A2001F0F2FC01214DF21B2001F047
:10548000EDFC02214DF21C2001F0E8FC34214DF22C
:105490001D2001F0E3FC02214DF21E2001F0DEFC94
:1054A00067214DF21F2001F0D9FC02214DF220208E
:1054B00001F0D4FC84214DF2212001F0CFFC022127
:1054C0004DF2222001F0CAFCA4214DF2232001F06C
:1054D000C5FC02214DF2242001F0C0FCB7214DF2A1
:1054E000252001F0BBFC02214DF2262001F0B6FC84
:1054F000CF214DF2272001F0B1FC02214DF22820EE
:1055000001F0ACFCDE214DF2292001F0A7FC0221C4
:105510004DF22A2001F0A2FCF2214DF22B2001F0E5
:105520009DFC02214DF22C2001F098FCFE214DF251
:105530002D2001F093FC03214DF22E2001F08EFC72
:1055400010214DF22F2001F089FC03214DF2302073
:1055500001F084FC33214DF2312001F07FFC032166
:105560004DF2322001F07AFC6D214DF2332001F032
:1055700075FC00214FF4534001F070FC33214DF2D3
:10558000013001F06BFC00214DF2023001F066FCAD
:1055900034214DF2033001F061FC00214DF2043062
:1055A00001F05CFC3A214DF2053001F057FC00217E
:1055B0004DF2063001F052FC4A214DF2073001F065
:1055C0004DFC00214DF2083001F048FC5C214DF209
:1055D000093001F043FC00214DF20A3001F03EFC9D
:1055E00081214DF20B3001F039FC00214DF20C30DD
:1055F00001F034FCA6214DF20D3001F02FFC00210A
:105600004DF20E3001F02AFCE5214DF20F3001F091
:1056100025FC01214DF2103001F020FC13214DF248
:10562000113001F01BFC01214DF2123001F016FC8B
:1056300054214DF2133001F011FC01214DF21430D0
:1056400001F00CFC82214DF2153001F007FC012124
:105650004DF2163001F002FCCA214DF2173001F074
:10566000FDFB02214DF2183001F0F8FB00214DF254
:10567000193001F0F3FB02214DF21A3001F0EEFB7C
:1056800001214DF21B3001F0E9FB02214DF21C30EB
:1056900001F0E4FB34214DF21D3001F0DFFB02216B
:1056A0004DF21E3001F0DAFB67214DF21F3001F0A0
:1056B000D5FB02214DF2203001F0D0FB84214DF2C8
:1056C000213001F0CBFB02214DF2223001F0C6FB6C
:1056D000A4214DF2233001F0C1FB02214DF2243010
:1056E00001F0BCFBB7214DF2253001F0B7FB0221E0
:1056F0004DF2263001F0B2FBCF214DF2273001F000
:10570000ADFB02214DF2283001F0A8FBDE214DF265
:10571000293001F0A3FB02214DF22A3001F09EFB5B
:10572000F2214DF22B3001F099FB02214DF22C3089
:1057300001F094FBFE214DF22D3001F08FFB03218F
:105740004DF22E3001F08AFB10214DF22F3001F086
:1057500085FB03214DF2303001F080FB33214DF207
:10576000313001F07BFB03214DF2323001F076FB4A
:105770006D214DF2333001F071FB00214FF45440A4
:1057800001F06CFB33214DF2014001F067FB002179
:105790004DF2024001F062FB34214DF2034001F072
:1057A0005DFB00214DF2044001F058FB3A214DF21F
:1057B000054001F053FB00214DF2064001F04EFB85
:1057C0004A214DF2074001F049FB00214DF208400B
:1057D00001F044FB5C214DF2094001F03FFB002148
:1057E0004DF20A4001F03AFB81214DF20B4001F0ED
:1057F00035FB00214DF20C4001F030FBA6214DF2AB
:105800000D4001F02BFB00214DF20E4001F026FB74
:10581000E5214DF20F4001F021FB01214DF2104036
:1058200001F01CFB13214DF2114001F017FB012187
:105830004DF2124001F012FB54214DF2134001F0E1
:105840000DFB01214DF2144001F008FB82214DF2C5
:10585000154001F003FB01214DF2164001F0FEFA64
:10586000CA214DF2174001F0F9FA02214DF2184019
:1058700001F0F4FA00214DF2194001F0EFFA022193
:105880004DF21A4001F0EAFA01214DF21B4001F0FD
:10589000E5FA02214DF21C4001F0E0FA34214DF20C
:1058A0001D4001F0DBFA02214DF21E4001F0D6FA54
:1058B00067214DF21F4001F0D1FA02214DF2204044
:1058C00001F0CCFA84214DF2214001F0C7FA022107
:1058D0004DF2224001F0C2FAA4214DF2234001F022
:1058E000BDFA02214DF2244001F0B8FAB7214DF281
:1058F000254001F0B3FA02214DF2264001F0AEFA44
:10590000CF214DF2274001F0A9FA02214DF22840A3
:1059100001F0A4FADE214DF2294001F09FFA0221A4
:105920004DF22A4001F09AFAF2214DF22B4001F09B
:1059300095FA02214DF22C4001F090FAFE214DF231
:105940002D4001F08BFA03214DF22E4001F086FA32
:1059500010214DF22F4001F081FA03214DF2304029
:1059600001F07CFA33214DF2314001F077FA032146
:105970004DF2324001F072FA6D214DF2334001F0E8
:105980006DFA00214FF4554001F068FA33214DF2D1
:10599000015001F063FA00214DF2025001F05EFA6D
:1059A00034214DF2035001F059FA00214DF2045018
:1059B00001F054FA3A214DF2055001F04FFA00215E
:1059C0004DF2065001F04AFA4A214DF2075001F01B
:1059D00045FA00214DF2085001F040FA5C214DF2E9
:1059E000095001F03BFA00214DF20A5001F036FA5D
:1059F00081214DF20B5001F031FA00214DF20C5093
:105A000001F02CFAA6214DF20D5001F027FA0021E9
:105A10004DF20E5001F022FAE5214DF20F5001F047
:105A20001DFA01214DF2105001F018FA13214DF228
:105A3000115001F013FA01214DF2125001F00EFA4B
:105A400054214DF2135001F009FA01214DF2145086
:105A500001F004FA82214DF2155001F0FFF9012105
:105A60004DF2165001F0FAF9CA214DF2175001F02B
:105A7000F5F902214DF2185001F0F0F900214DF234
:105A8000195001F0EBF902214DF21A5001F0E6F93C
:105A900001214DF21B5001F0E1F902214DF21C50A1
:105AA00001F0DCF934214DF21D5001F0D7F902214B
:105AB0004DF21E5001F0D2F967214DF21F5001F056
:105AC000CDF902214DF2205001F0C8F984214DF2A8
:105AD000215001F0C3F902214DF2225001F0BEF92C
