:020000040800F2
:10000000F8060020D50200084932000841320008F5
:1000100045320008591D000829380008000000007A
:100020000000000000000000000000004D32000849
:100030005D1D0008000000004B3200084F32000830
:10004000F9020008F9020008F9020008F9020008A4
:10005000F9020008F9020008F9020008F902000894
:10006000F9020008F9020008F9020008F902000884
:10007000F9020008F9020008F9020008F902000874
:10008000F9020008F9020008F9020008F902000864
:10009000F9020008F9020008F9020008F902000854
:1000A000F9020008F9020008F9020008F902000844
:1000B000F9020008F9020008F9020008F902000834
:1000C000F9020008F9020008F9020008F902000824
:1000D000F9020008D5360008F902000825370008A3
:1000E000F9020008F9020008F9020008F902000804
:1000F000F9020008F9020008F9020008F9020008F4
:10010000F9020008F9020008F9020008F9020008E3
:10011000F9020008F9020008F9020008F9020008D3
:10012000F9020008F9020008F9020008F9020008C3
:10013000F9020008F9020008F9020008F9020008B3
:10014000F9020008F9020008F9020008F9020008A3
:10015000F9020008F9020008F9020008F902000893
:10016000F9020008F9020008F9020008F902000883
:10017000F9020008F9020008F90200080000000076
:10018000F9020008F902000800F002F800F092F805
:100190000AA090E8000C82448344AAF10107DA45E2
:1001A00001D100F087F8AFF2090EBAE80F0013F0A2
:1001B000010F18BFFB1A43F00103184778AC000089
:1001C00098AC0000103A24BF78C878C1FAD852071A
:1001D00024BF30C830C144BF04680C6070470000C1
:1001E0000023002400250026103A28BF78C1FBD840
:1001F000520728BF30C148BF0B6070476E2900F01E
:100200007783702900F0A181662907F0C4856529EC
:1002100007F0C185672907F0BE85612907F0BD8514
:1002200003681B0A28BF41F08001692900F024837C
:10023000642900F02183752900F01E836F2900F0E6
:100240006E84782900F06D81E92900F00984E429A1
:1002500000F00684F52900F00384EF2900F06B8498
:10026000F82900F06C810368DB0928BF41F08001A8
:10027000632900F07883732900F07D83E32901F07E
:100280004180F32901F04680002070471FB507F038
:100290007DFD01F095F804000020002107F022FC0C
:1002A000401C60600020002107F006FCE0601FBDDC
:1002B00010B510BD01F056F81146FFF7E7FF07F043
:1002C00097FA01F033F903B4FFF7F2FF03BC03F030
:1002D000E8FA00000C48016841F4700101600B4825
:1002E00080470B480047FEE7FEE7FEE7FEE7FEE734
:1002F000FEE7FEE7FEE7FEE7FEE7000005480649E9
:10030000044A064B7047000088ED00E059320008AF
:1003100089010008F8020020F8060020F8020020F9
:10032000704753EA020C00F069802DE9F04B4FF062
:100330000006002B1FBFB3FA83F503FA05F424FA75
:1003400005F65E4012BF1643B2FA82F502FA05F4D2
:10035000C5F120051EBF22FA05FC44EA0C04203535
:1003600056EA044C4FEA144418BF641C4FF00008CE
:100370004FF00009904271EB030C39D3002919BFEB
:10038000B1FA81F701FA07F6B0FA80F700FA07F63A
:10039000C7F120071EBF20FA07FC46EA0C062037EB
:1003A000B6FBF4FCA7EB0507103F07F01F0BCBF1E2
:1003B00020060CFA0BFB2CFA06F644BFB3460026C7
:1003C000202FA4BF5E464FF0000B5BEA060C08BF6F
:1003D0004FF0010B19EB0B09ABFB027C48EB060855
:1003E000C01B06FB02CC0BFB03CC71EB0C01C1E77D
:1003F0000B46024641464846BDE8F08B13B54FF028
:1004000000004FF00001AFF30080BDE81C407047D2
:100410001CB50C46064B7B4469460090204600F014
:1004200080FA04460020694600F08EFA20461CBD82
:100430002F0500000FB4044910B503AA029800F07C
:100440009FFA10BC5DF814FB080000200FB41CB527
:10045000084B06AA7B4469460090059800F061FAB3
:1004600004460020694600F06FFA20461CBC5DF887
:1004700014FB0000F104000070B50C460546012A8B
:1004800005D02878800600D5EA69002302E0012320
:1004900005E05B1C934202D2E05C0028F9D1A86918
:1004A000E618C01AA861286A18442862284600F095
:1004B00050F904E0D5E9012114F8010B9047B4424A
:1004C000F8D3284600F05BF970BD0000F0B40D468B
:1004D0000188090502D5214C7C4402E01F4C7C4474
:1004E0000E34002100F1240608E002F00F07120983
:1004F000E75D42EA03721B097754491C52EA03077D
:10050000F3D102780023120704D5702D06D009B16B
:10051000022311342246F0BC00F054B901231034F8
:10052000F8E770B504460D462146106800F041F921
:10053000024629462046BDE870400023C6E7D21D8A
:1005400022F00703D3E90023C0E70368126843F0F1
:10055000200303600823C3610023B7E75AA8000003
:100560002DE9F05F894604464FF0000ADFF874B1C8
:10057000FB44C0F820A02046E1688847002874D0DA
:10058000252806D0D4E901219047206A401C20622A
:10059000F1E700265F462046E168884720280546A7
:1005A00007DB312D05D2781910F8200C08B106436D
:1005B000F1E7B00701D526F00406C4F81CA0002717
:1005C000C4F818A02A2D09D0284603F063F938B3DF
:1005D00004EB8708303DC8F8185019E059F8041B9F
:1005E000204604EB87029161E1688847012F0546A8
:1005F00018D1E069002820DA26F020061DE0D8F89E
:10060000180000EB800005EB40003038C8F81800F7
:100610002046E1688847054603F03CF90028EED102
:10062000012F0AD02E2D08D12046E16888477F1C73
:100630000546022F46F02006C4DBA069002803DA35
:10064000404246F00106A061F00701D026F01006F6
:100650006C2D0BD0682D09D04C2D39D06A2D35D09A
:10066000742D35D07A2D33D016E038E0E1682F466E
:1006700020468847B842054609D16C2F26D04FF452
:100680008060E168064320468847054604E06C2FF9
:100690001AD04FF4807006430DB3A5F1410019281C
:1006A00002D8203546F400664A4629462046266090
:1006B0004E46FFF7A3FD80B101280BD0F61D26F0B2
:1006C000070000F1080956E74020E4E78020D8E75A
:1006D0000020D6E706F104094DE7284652E7206AD4
:1006E000BDE8F09FEAA7000030B505460B462A4654
:1006F00013F8014B12F8010B08B1A042F8D01CB15D
:10070000002802D06D1CF1E7284630BD10B5431C0F
:1007100002E010F8011B71B18107FAD14FF00132EC
:1007200002C88C1A8C4314EAC211F9D0C01A0A0606
:1007300003D0C01E10BDC01A10BD0A0401D0801E17
:1007400010BD0902FCD0401E10BD704770477047B5
:10075000704770B5044685690068C10601D530262A
:1007600000E02026C00707D070BDD4E90121304643
:100770009047206A401C20626D1EF6D570BD70B592
:10078000044685690078C00707D170BDD4E901210E
:1007900020209047206A401C20626D1EF6D570BD57
:1007A00009684A0501D540B27047C905FCD500B2B9
:1007B000704709684A0501D5C0B27047C905FCD524
:1007C00080B270472DE9F0470D469946924604469F
:1007D00000F124080168880604D5E06921F01001C1
:1007E000216000E00120A84201DD471B00E0002756
:1007F000A1697A1902EB0900081AA0612078C006E5
:1008000002D42046FFF7A5FF002608E0D4E9012125
:100810001AF806009047206A401C761C20624E455C
:10082000F4DB2078C0060AD52046FFF792FF06E0E9
:10083000D4E9012130209047206A401C2062381EF4
:10084000A7F10107F4DC07E0D4E9012118F805005D
:100850009047206A401C2062281EA5F10105F3DCA8
:100860002046FFF78CFF2078000602D50220BDE865
:10087000F0870120FBE700002DE9F0410646002447
:1008800010687529314616A510D0FFF789FF00289A
:1008900002DA404213A507E031688A0701D512A5A4
:1008A00002E0490704D511A5012401E0FFF781FF0B
:1008B00000210A2206F1240709E0B0FBF2FCB0FB9C
:1008C000F2F302FB1C00303078541846491C002813
:1008D000F3D123462A463046BDE8F041FFF772BF08
:1008E000000000002D0000002B0000002000000090
:1008F00011680268006A530501D508700AE0D30543
:1009000001D5088006E0130603D5C217C1E900022D
:1009100000E008600120704701694A1C0261087804
:10092000704700B58FB0CDE901310021059105492F
:100930007944CDE9031011466846FFF711FE0FB068
:1009400000BD0000E5FFFFFF0A6802F8010B0A6026
:10095000704710B5436913B1AFF3008001E0FFF7B2
:100960008BFD012010BD127800F124010A700022D5
:100970004A700122EDE711684FF0FF32E9E700000D
:10098000074B70B50D467B44FFF7CBFF0446284666
:1009900000F0C4FC10B14FF0FF3070BD204670BDB8
:1009A000033700002DE9FF5F15468A460446DFF84D
:1009B000AC80F8440027D8E900103E46CDE900108D
:1009C00010E03AF816106A4602A800F0ABFC411C91
:1009D00007D02178890603D5E269391891420DD8EC
:1009E0000744761C2078800602D5E069B84205DD10
:1009F000AE42E6DB3AF816000028E2D1A069C01B3F
:100A0000A0612046FFF7A5FED8E90010CDE900104F
:100A1000002017E03AF818106A4602A800F082FC9D
:100A2000B0F1FF3F81460BD000250DF1080B05E02A
:100A3000D4E901211BF8050090476D1C4D45F7D303
:100A400008F10100B0428046E4DB206A38442062AD
:100A50002046FFF794FEBDE8FF9F0000BAA3000008
:100A60002DE9F0418046D21D22F007020025D2E98F
:100A70000002F52915A614D0011E72F1000106DA54
:100A80000023D0EB030063EB020211A608E0D8F8C4
:100A900000108B0701D50FA602E0490701D50EA66D
:100AA00001251146002408F1240704E000F04EF867
:100AB00030323A55641C50EA0102F7D12B463246D7
:100AC00021464046BDE8F041FFF77CBE0000000033
:100AD0002D0000002B0000002000000030B4002199
:100AE00000F1240408E002F00705D208303542EA9C
:100AF0004372DB086554491C52EA0305F3D10468CC
:100B0000002310A2250707D5A40600D421B1C4698B
:100B100001230DA2641EC46130BCFFF753BE10B5A3
:100B2000044621461068FFF744FE02462046BDE811
:100B300010400023D2E7D21D22F00701D1E90023A3
:100B4000CCE70000000000003000000030B5B0F13C
:100B50000A024FEA900E71F100034EEA817EB0EB7B
:100B60000E0061EB91014FEA101E4EEA017E10EB80
:100B70000E0041EB11114FEA102E4EEA016E10EB00
:100B80000E0041EB11214FEA104E4EEA014E10EBE0
:100B90000E0041EB1141401841F100014FEAD00035
:100BA00040EA41704FEAD10110EB80054FEA810421
:100BB00044EA907444EB01046D1944EB0404521BA5
:100BC000A3414FF0000348BF0A3200D530BD401C9E
:100BD00041F1000130BD70472DE9FF4F0C461E4624
:100BE0004FF0FF378BB0D2E90001DDF860800A904A
:100BF0008A46C1F30A5505B93D46002108464FF023
:100C00000000BAF1000F00F4400005DA00EB8000AC
:100C10004FF4400101EA50004FEA9059B9F1010F39
:100C200000DDB9460A9850EA4A000ED044F610504A
:100C3000A5F2FF3545432F14B8F1000F1ED07542C1
:100C4000291E1EDDC9F100021CE0B8F1010F4FF0B2
:100C5000000001D0302103E0F24305E02154401CA4
:100C6000B042FBDB30460022002121540B99C1F831
:100C70000880C1E900200FB0BDE8F08FBD1B6D1CDE
:100C8000DEE74A4600DA694206A800F0DDFB06AB63
:100C900093E8070003AB83E8070050460A9900F089
:100CA00093FC8DE80700A0F500501F3800900398D2
:100CB000002D0ADD42F21F014A460844002303A921
:100CC0000390684600F0FCFE09E0A0F500504A469B
:100CD0001F38002303A90390684600F006FF8DE843
:100CE00007000004000C03D04FF0FF30410800E083
:100CF0001046B8F1000F03D00022009215461EE006
:100D0000751E05D4FFF722FF303262556D1EF9D5EE
:100D1000B3460122084302D000227F1C04E0207861
:100D2000302801D100227F1E002A099784D01DE0BF
:100D3000112D07DAFFF70AFF303262556D1C50EAB9
:100D40000102F5D1084302D00098C8B10EE000219D
:100D5000681E05E0235C625C63542254401E491CFB
:100D60008142F7DBAB46A81B401E0990002004F827
:100D70000B000B98099AC0F80880C0E9002B7AE7AD
:100D800011264FF0000857E72DE9F04F884604463A
:100D9000D21D22F0070191B0D1E90001CDE90A018D
:100DA00002F044FD02460B98C00F01D02D2007E051
:100DB0002068810701D52B2002E0202101EAC00034
:100DC000032A099001D0072A05DB03464146204645
:100DD00000F0FAFA0BE12078800601D5E06900E026
:100DE0000620B8F1650F814606D0B8F1660F18D01D
:100DF000B8F1670F70D131E00020B9F1110F009008
:100E000001DB112301E009F101030AAA01A90CA8E1
:100E1000FFF7E2FEDDE90C70002609F101058346CB
:100E200047E001204B4600904FF000470AAA01A975
:100E30000CA8FFF7D1FEDDE90DB00C995D46002648
:100E400010B909F101000D18B9EB050003D4C0F188
:100E5000FF3609F10105A5EB09002BE0B9F1010FFF
:100E600001DA4FF001090020B9F1110F0090484656
:100E700001DD112300E003460AAA01A90CA8FFF72F
:100E8000ABFEDDE90C704D46002683462078000756
:100E90000AD4AB4500DA5D4601A8012D04DD4119F5
:100EA00011F8011C302907D04F4502DA17F1040F61
:100EB00004DA012082460FE06D1EEEE7002F02DC0F
:100EC000ED1B3E4403E0781CA84200DD7D1CB81BEE
:100ED00000F1010A4FF000472078000703D4AA452B
:100EE00001DB4FF0FF3A0021B7F1004F0DF143084D
:100EF0008DF8431024D002202B23002F01DA7F42EB
:100F00002D230A21021EA0F1010000DC5FB197FB36
:100F1000F1FC97FBF1F201FB1C7C17460CF1300C45
:100F200008F801CDEEE7A8F101000370218809055A
:100F300001D5452100E06521A0F1010800F8011C60
:100F400009980FA9A1EB0807FF1D00B10120411965
:100F500001EBEA70A1693844081A401EA0612078AC
:100F6000C00602D42046FFF7F4FB099828B1D4E963
:100F700001219047206A401C20622078C00622D5BB
:100F80002046FFF7E6FB1EE0002E04DBB34502DD42
:100F900001A8805D00E03020D4E901219047206A5B
:100FA000401C2062761CAAF101005FEA000A0AD107
:100FB00000F006FAC0680168405CD4E9012190475E
:100FC000206A401C2062281EA5F10105DCDC07E038
:100FD000D4E9012118F8010B9047206A401C2062D7
:100FE000381EA7F10107F3DC2046FFF7C8FB0320FA
:100FF00011B041E62DE9F04F04460D46D21D22F016
:10100000070089B0D0E900974846394602F00EFC47
:101010000246F80F01D02D2307E02068810701D593
:101020002B2302E0202101EAC0038DF820300BB110
:10103000012000E00020032A824601D0072A04DBB9
:101040002946204600F0C0F93FE12078800601D40F
:101050000D2500E0E569C7F30A560D2D49DA002198
:101060004FEA175B08464FF00000002F00F44000E5
:1010700007DA00EB80004FF4400100EBD07001EA8A
:1010800060008115012901DD4FF0FF3100224FEA98
:10109000850CBCF1180F06D31346ACF118004FF0C5
:1010A0008052C24003E04FF4801323FA0CF30CF19A
:1010B0000C0CBCF1200F04D3ACF1200C09FA0CF09D
:1010C00001E007FA0CF000294FF0004801DD18B9E3
:1010D0000FE00ED140450CD319EB02095F4121B955
:1010E000404502D19F4329EA0209BBEB175F00D0BC
:1010F000761C2088000502D57B48784402E07A48B7
:101100007844193808AA302302F80A30037C0AF11F
:101110000101002E0AF1020A53546A4602DC4FF024
:10112000300101E04FF031014FF001088DF800105F
:1011300002D0A6F2FF3603E059EA470100D06B4E19
:10114000002D02DC2178090704D54FF002082E217A
:101150008DF80110C44600210BE0C7F303433F01A3
:10116000C35C491C6D1E02F80830052908F101080E
:1011700001DA002DF1DC00210CE000EB1973491CB1
:101180001B786D1E082902F808304FEA091908F18A
:10119000010801DA002DF0DC21688B0602D516E08B
:1011A000A8F10108E04505DD02EB080313F8013C56
:1011B000302BF5D0B8F1000F09DD02EB080313F86E
:1011C000013C2E2B03D1090701D4A8F10108002D01
:1011D00005DD3E2102F808106D1E08F10108407C73
:1011E000002E02F8080008F1010804DA2D207642EA
:1011F00002F8080002E02B2002F808000A214FF450
:101200007A70864208F101080BDB96FBF0F330336D
:1012100002F8083096FBF0F308F1010800FB1366B2
:1012200001E0642E0CDB642096FBF0F3303302F80F
:10123000083096FBF0F308F1010800FB136601E0AB
:101240000A2E06DB96FBF1F0303002F8080008F1B8
:10125000010896FBF1F001FB1060303002F8080045
:10126000A16908F1010808EB050202EB0A00081A5F
:10127000A0612078C00602D42046FFF76AFA216AEE
:1012800008AE01EB0A00206204E0D4E9012116F85F
:10129000010B9047BAF1010AF7D22078C00602D5B7
:1012A0002046FFF756FA6E4609E016F8010B3E2875
:1012B0000FD0D4E901219047206A401C2062B8F188
:1012C0000108F2D22046FFF75AFA09B00320BDE820
:1012D000F08F206A2844206203E0D4E90121302005
:1012E00090476D1EEBD3F8E78D9C000002FCFFFFDA
:1012F00010B5436913B1AFF3008001E0FFF752FB73
:10130000012010BD128800F1240182840022C284D1
:101310000122EDE711684FF0FF32E9E7007B00F0B2
:101320008000704770B516460C46054600F040F840
:10133000036893F80101012806D0FF2C0FD8185D2F
:1013400068B101202C7070BDD3F8070132462146E8
:1013500003F2071303442846BDE8704018474FF0D6
:10136000FF3070BD754600F0EBF8AE4605006946EB
:10137000534620F00700854618B020B5FEF7BEFFA3
:10138000BDE820404FF000064FF000074FF0000886
:101390004FF0000B21F00701AC46ACE8C009ACE807
:1013A000C009ACE8C009ACE8C0098D467047000030
:1013B00010B500F005F8001D10BD00BF2967000042
:1013C00000487047B80200202DE9F0411F4604464E
:1013D00003260168072A01F4006004DB08B116A5A2
:1013E00005E016A503E008B115A500E015A521F05C
:1013F00010002060A069C01EA0610FB1401EA06156
:101400002046FFF7A6F94FB1D4E9012138469047AD
:10141000206A401C2062C01C206206E0206AFAE7B5
:10142000D4E9012115F8010B9047761EF8D2204629
:10143000FFF7A5F9BDE8F0814E414E006E616E00E8
:10144000494E4600696E66002DE9F0478146164612
:101450008AB0354878440DC88DE80D00324878448C
:10146000801C03AC0DC884E80D0041F69B30084495
:10147000372190FBF1F290FBF1F5A5F1800501FB1E
:1014800012041B3C02D56442012000E00020DFF87A
:1014900098A080460027FA44AAF1BE0A0EE0E007B1
:1014A0000AD03246684607EB470101230AEB810167
:1014B00000F01BFB8DE8070064107F1C002CEED1B0
:1014C000194F7F44AE3F19E0E80715D007EB041031
:1014D0000DF1180A90E80E008AE80E00C068F0428C
:1014E00001D1981908903246012306A903A800F0FB
:1014F000FCFA03AB83E807006D10641C002DE3D1F8
:101500004FF0010332466946B8F1000F03A802D03C
:1015100000F0D6FA01E000F0E8FAC9E90001C9F8E4
:1015200008200AB0BDE8F087C499000010B5044651
:10153000AFF300802046BDE81040FEF7C4BE0000B7
:1015400000487047980200204FF0013C50F8042BEF
:1015500051F8043B9A4221D1A2EB0C03934313EAC6
:10156000CC1317D150F8042B51F8043B9A4215D1F3
:10157000A2EB0C03934313EACC130BD150F8042BCA
:1015800051F8043B9A4209D1A2EB0C03934313EAAE
:10159000CC13DBD04FF00000704700BFD01A01BA67
:1015A000B1FA81F101F0180122FA01F0CB40C1F14A
:1015B0002001DBB2C0B2C01A2CFA01F3D11A914358
:1015C00011EAC311E6D170475FEA400C08BF91F001
:1015D000000F4FEA8C234FEAC12243EA51514FEAF0
:1015E0001C5018BF00F5F0404FEA300018BF41F022
:1015F00000415FEA6C5C00F02980BCF1FF3F08BF4E
:1016000040F080407047130C06BF12044FF0100CDE
:101610004FF0000C130E04BF12020CF1080C130F54
:1016200004BF12010CF1040C930F04BF92000CF1E3
:10163000020CD30F04BF52000CF1010C11464FF005
:101640000002A0F11F00A0EB0C00704711F0004F4A
:1016500008BF704731F000413FF4D5AF0B0C06BF17
:1016600009044FF0100C4FF0000C0B0E04BF0902E0
:101670000CF1080C0B0F04BF09010CF1040C8B0FCB
:1016800004BF89000CF1020CCB0F04BF49000CF120
:10169000010CCCF12003A0EB0C0022FA03F302FAB8
:1016A0000CF241EA030100F10100704720F07F4C89
:1016B00080EA030023F07F47ACEB070303F57C537C
:1016C00000F0004003F1FF032DE980494FEA154B7C
:1016D00009B44FEA144325EA0B4E24EA03480FF2FB
:1016E000042606EB132749083E785FEA320203FB23
:1016F0000667C7F5000707FB06F64FEA54374FEABF
:10170000D64606F1020607FB066CCCF1005C4FEAF8
:101710001C472CEA074C07FB06F40CFB06F504EB10
:1017200015464FEA961634BF00204FF000404FEAAE
:10173000D13706FB07FC4FEA1C4C0CFB0BF7D21B06
:1017400003FB0CF761EB07010CFB0EF7B0EB074056
:1017500072EB17420CFB08F734BFA2EB0742B2EB67
:10176000074261EB17414FEA0C444FEA910706FB31
:1017700007FC4FEA1C4C0CFB0BF7B0EBC74072EBBD
:10178000573203FB0CF734BFA2EBC742B2EBC742A0
:1017900061EB57310CFB0EF7B0EBC70072EB5772E1
:1017A0000CFB08F734BFA2EBC702B2EBC70261EB38
:1017B0005771039F4FEA816141EA921104EBCC0417
:1017C0004FEAD1374FEA826206FB07FC42EA9012E9
:1017D0004FEA80604FEA1C4C0CFB0BF7D21B03FB5B
:1017E0000CF761EB07010CFB0EF7B0EB074072EB57
:1017F00017420CFB08F734BFA2EB0742B2EB0742DB
:1018000061EB17414FEA8C554FEA910704EB9C249A
:1018100006FB07FC4FEA1C4C0CFB0BF7B0EBC74078
:1018200072EB573203FB0CF734BFA2EBC742B2EBAB
:10183000C74261EB57310CFB0EF7B0EBC70072EB00
:1018400057720CFB08F734BFA2EBC702B2EBC7021A
:1018500061EB577115EB4C254FEA816141EA92111A
:101860004FEA82624FEAD13742EA901206FB07FC48
:1018700044F100044FEA80604FEA1C4C0CFB0BF76C
:10188000D21B03FB0CF761EB07010CFB0EF7B0EB6F
:10189000074072EB17420CFB08F734BFA2EB07427C
:1018A000B2EB074261EB174115EB1C154FEA813192
:1018B00041EA92414FEA823242EA90424FEA803056
:1018C0004FEA0C7644F1000448EA03434EEA0B4821
:1018D0004FF0000EB2EB080C71EB030724BF624619
:1018E00039464EEB0E0E4FF0000B001852414941A5
:1018F0004BEB0B0BB2EB080C71EB03077BF1000B0E
:1019000024BF624639464EEB0E0E4FF0000B001816
:10191000524149414BEB0B0BB2EB080C71EB030747
:101920007BF1000B24BF624639464EEB0E0E51EAA6
:10193000020718BF46F0010616EB0E7655F10002BD
:1019400054F1000103D5BDE88901BDE80088BDE878
:101950008901BDE80048B619524141EB0101A3F1EC
:101960000103704780807F7E7D7C7B7A79787776F3
:1019700076757473727171706F6E6E6D6C6C6B6A6C
:101980006A6968686766666564646363626161600A
:10199000605F5F5E5E5D5D5C5C5B5B5A5A59595887
:1019A00058575756565555555454535352525251F1
:1019B000515050504F4F4F4E4E4D4D4D4C4C4C4B47
:1019C0004B4B4A4A4A49494948484847474747468E
:1019D00046464545454444444443434343424242CA
:1019E00042414141002B9C4630D477002BD01CB59E
:1019F0004FEA370703B44FF010004FF01001BAF16F
:101A0000000F06D0BCF1000FDCBF40F0080040F032
:101A100008014FF000000FBCBDE810400BF1010BB6
:101A2000BBF1010F08BF5FEA170722BF12F10102E5
:101A300011F101014FF0004143F1000300F00040BB
:101A400043EA00007047F9D35708D0E746EA064654
:101A500013F1400F4FEA16461FDD13F1200FDFBFD1
:101A600016430A46002120335B42BED0C3F1200753
:101A700046EA064602FA07F74FEA164646EA07061E
:101A8000C3F1200722FA03F201FA07F721FA03F162
:101A90004FF0000342EA0702A7E746EA020646EAD9
:101AA00006464FEA164646EA0106BCBF46EA064627
:101AB000360C4FF000034FF000024FF0000194E7A6
:101AC0002DE9804C9A46934670B491E8380007C8D7
:101AD00031EA400C48BF34EA430C03D5FFF7E6FD7A
:101AE000FFF780FFF0BCBDE8008C2DE9804C9A46E2
:101AF000934670B491E8380007C810F0804F08BFD3
:101B000013F0804F03D100F005F8FFF76BFFF0BC36
:101B1000BDE8008C20F07F4780EA030023F07F4C73
:101B200007EB0C03A3F57C5300F00040A3F1FE0388
:101B300092F0000F00F0B38095F0000F00F0778076
:101B40002DE901494FEA11404FEA144621EA0048C5
:101B500000FB06FC24EA064708FB06F607FB08F82C
:101B600000FB07F718EB06484CEB164C4FEA124BFC
:101B700018EB07484FEA15464CEB174022EA0B4E8C
:101B80000BFB06FC25EA06470EFB06F607FB0EFEDE
:101B90000BFB07F71EEB064E4CEB164C4FF0000606
:101BA0001EEB074E4CEB174B18EB0B0840F10000F7
:101BB00018EB0E0B58EB000840F100008F1A4FF0A5
:101BC00000013CBFC943661B14BFB5EB040C0021E8
:101BD0003CBFC943F61B4FEA17444EEA8E0E27EA74
:101BE00004454FEA1C4704FB07622CEA074C05FB3F
:101BF00007F70CFB05F604FB0CFC16EB074642EB63
:101C0000174216EB0C4642EB1C421BEB060658EB48
:101C10000202414146EA9E0601D5BDE80189B61996
:101C2000524141EB0101A3F10103BDE801894FEAF3
:101C300014454FEA114724EA054621EA074C05FB03
:101C400007F406FB07F70CFB06F105FB0CFC11EB98
:101C5000074144EB17444FEA124711EB0C4144EBA8
:101C60001C4422EA074C05FB07F206FB07F70CFBB6
:101C700006F605FB0CFC16EB074642EB174216EB8B
:101C80000C4642EB1C456A1854F1000148BF7047EE
:101C9000B619524141EB0101A3F10103704795F0E0
:101CA000000F37D04FEA11424FEA144721EA0246AB
:101CB00024EA074C02FB07F106FB07F70CFB06F4CE
:101CC00002FB0CFC14EB074441EB17414FEA1547AC
:101CD00014EB0C4441EB1C4125EA074C02FB07F5D1
:101CE00006FB07F70CFB06F602FB0CFC16EB07469F
:101CF00045EB174516EB0C4645EB1C42121951F10A
:101D0000000148BF7047B619524141EB0101A3F1F0
:101D1000010370474FEA14454FEA114724EA05468C
:101D200021EA074C05FB07F106FB07F70CFB06F25F
:101D30004FF0000605FB0CFC12EB074241EB17418C
:101D400012EB0C4251EB1C4148BF7047921841EB1B
:101D50000101A3F10103704700BFFEE770470000D7
:101D600070B504461D460023B5F5804F13D154F8D5
:101D700022300C480340D1E9000640EA06108E6884
:101D800040EA06208E8940EA06408E6930430343CC
:101D900044F8223003E06FF0704044F82200002045
:101DA00070BD00000000F0CF10B5034600220868A7
:101DB00053F8202012480240D1E901042043CC68A6
:101DC00020430C6920434C6920438C692043CC6933
:101DD00020430C6A20434C6A20438C6A2043CC6A1F
:101DE0002043CC6B20430C6B2043024388680828B7
:101DF00001D142F04002086843F82020002010BDC5
:101E00008000F0FF30B503460024501C53F82040FA
:101E100004F04044D1E9000540EA05108D6840EA2D
:101E200005208D8940EA0545088A401E45EA00558F
:101E3000087D801E45EA00608D6928430443501CDC
:101E400043F82040002030BD70B50446A56D00F079
:101E500085F9064694F83500022808D08020606590
:101E600000BF002084F8340000BF012070BD20684E
:101E7000006820F01600216808602068406920F0A2
:101E8000800021684861206C08B9A06C28B12068E6
:101E9000006820F00800216808602068006820F0D1
:101EA0000100216808600FE000F058F9801B052848
:101EB0000AD92020606500BF002084F8340000BFEC
:101EC000032084F83500D1E72068006800F00100A5
:101ED0000028E9D194F85C103F208840A86000BF3A
:101EE000002084F8340000BF012084F83500002071
:101EF000BCE7014691F83500022803D080204865F0
:101F000001207047052081F835000868006820F03E
:101F100001000A6810600020F3E70000F8B50246EF
:101F20000B460025002400200021DEE0012606FAF1
:101F300001F51E6806EA0504AC4275D11E7906F06B
:101F40000306012E04D01E7906F00306022E13D1DB
:101F500090684F000326BE40B0434F00DE68BE408D
:101F600030439060506801268E40B0431E79C6F31E
:101F700000168E40304350601E7906F00306032E93
:101F800009D0D0684F000326BE40B0434F009E6882
:101F9000BE403043D0601E7906F00306022E13D1F6
:101FA000CF0802F1200656F827004E07F70E0F263D
:101FB000BE40B0434F07FF0E1E69BE403043CF08FE
:101FC00002F1200646F8270010684F000326BE40A5
:101FD000B0431E7906F003064F00BE403043106048
:101FE0005E6806F08056B6F1805F7DD100BF0026A6
:101FF0000096404E366846F480463E4F3E603E4670
:10200000366806F48046009600BF00BF3A4E8F083F
:1020100056F827008E07370F0F26BE40B043374EC5
:10202000B24202D1002624E05EE0354EB24201D138
:1020300001261EE0334EB24201D1022619E0324E93
:10204000B24201D1032614E0304EB24201D104263F
:102050000FE02F4EB24201D105260AE02D4EB242CA
:1020600001D1062605E02C4EB24201D1072600E040
:1020700008268F073F0FBE4030431F4E8F0846F89B
:102080002700264E3068A0435E6806F48036B6F519
:10209000803F00D12043214E3060361D3068A04380
:1020A0005E6806F40036B6F5003F00D120431B4EB3
:1020B000361D3060361D3068A0435E6806F4801619
:1020C000B6F5801F00D12043144E08363060361D0F
:1020D0003068A0435E6806F40016B6F5001F00D114
:1020E00020430E4E0C363060491C1029FFF41EAF01
:1020F000F8BD0000443802400838014000000240AA
:102100000004024000080240000C0240001002409F
:102110000014024000180240001C0240003C014034
:10212000024613690B400BB1012000E0002070470C
:1021300010B5426921EA020302EA010443EA0443BA
:10214000836110BD0AB1816101E00B0483617047B6
:1021500001480068000C7047002004E00148006856
:102160007047000010000020034800680349097808
:102170000844014908607047100000201800002042
:1021800010B50A48006840F4007008490860084625
:10219000006840F480600860032000F07FF80F20A2
:1021A00000F006F800F02AF8002010BD003C0240C4
:1021B00070B504460E4800784FF47A71B1FBF0F028
:1021C0000C490968B1FBF0F5284600F09BFC08B10A
:1021D000012070BD102C07D200222146501E00F0B5
:1021E0001EF80548046001E00120F2E70020F0E756
:1021F0001800002000000020140000207047014655
:102200000846002809DB00F01F0301229A40430919
:102210009B0003F1E023C3F8002100BF70472DE9C4
:10222000F05F80460D461646002701F017FB074673
:1022300039462A46334601F00700C0F1070ABAF1D1
:10224000040F02D94FF0040A01E0C0F1070AD14699
:1022500000F1040ABAF1070F02D24FF0000A01E0C0
:10226000A0F1030AD4464FF0010A0AFA09FAAAF1CA
:10227000010A0AEA020A0AFA0CFA4FF0010B0BFAF9
:102280000CFBABF1010B0BEA030B4AEA0B042146F2
:10229000404601F0EBFABDE8F09F000000BF00F0FF
:1022A0000702064B19684FF6FF031940044B0B4316
:1022B00043EA0221014B196000BF70470CED00E0BA
:1022C0000000FA0570B504460D460CB9012070BD3A
:1022D0005848006800F00700A84209D255490D701F
:1022E0000846006800F00700A84201D00120EEE790
:1022F000207800F0020002281DD1207800F00400B0
:10230000042805D14C48006840F4E0504A49086070
:10231000207800F00800082805D14748006840F4FC
:102320006040454908604448006820F0F000A1681A
:10233000084341490860207800F00100A8B36068B4
:10234000012807D13C4808380068C0F34040B8B9BC
:102350000120BCE76068022802D06068032807D12A
:10236000354808380068C0F3406048B90120AEE73E
:10237000314808380068C0F3400008B90120A6E7DA
:102380002D48006820F00300616808432A4908606E
:10239000FFF7E4FE064609E0FFF7E0FE801B41F28E
:1023A0008831884202D9032091E707E0224800687B
:1023B00000F00C006168B0EB810FEDD11D480068A2
:1023C00000F00700A84209D91A490D7008460068B4
:1023D00000F00700A84201D0012078E7207800F043
:1023E0000400042807D11448006820F4E050E16894
:1023F000084311490860207800F00800082808D137
:102400000D48006820F46040216940EAC1000A4993
:10241000086000F03FF808490968C1F30311074A52
:10242000515CC8400649086006480068FFF7C0FED6
:1024300000204CE7003C0240083802409E7D000826
:1024400000000020140000200148006870470000D0
:102450000000002000B5FFF7F7FF04490968C1F349
:102460008221034A515CC84000BD00000838024088
:10247000AE7D000800B5FFF7E7FF04490968C1F326
:102480004231034A515CC84000BD00000838024098
:10249000AE7D00082DE9F047002400250026A14666
:1024A0002548006800F00C0020B1042805D0082859
:1024B0003AD105E0DFF8849039E0DFF8849036E027
:1024C0001D48001F006800F03F041B48001F006803
:1024D00000F4800078B11A481749091F0968C1F350
:1024E0008811A0FB01700146224600233846FDF703
:1024F00018FF05460EE011480F49091F0968C1F38E
:102500008811A0FB01700146224600233846FDF7E2
:1025100008FF05460848001F0068C0F30140401C42
:102520004600B5FBF6F902E0DFF8109000BF00BFEF
:102530004846BDE8F0870000083802400024F40057
:1025400000127A00F8B504460CB90120F8BD2078D5
:1025500000F00100002874D0F948006800F00C0079
:1025600004280DD0F648006800F00C00082813D1AC
:10257000F348001F006800F48000B0F5800F0BD115
:10258000EF4808380068C0F34040002859D0606820
:10259000002856D10120D9E700BF6068B0F5803F20
:1025A00008D1E7480838006840F48030E449083929
:1025B00008601EE06068B0F5A02F0DD1E048083833
:1025C000006840F48020DE49083908600846006849
:1025D00040F4803008600CE0D9480838006820F4E6
:1025E0008030D749083908600846006820F4802008
:1025F000086000BF606890B1FFF7B0FD054606E0D7
:10260000FFF7ACFD401B642801D903209EE7CC48AE
:1026100008380068C0F340400028F1D011E0FFF70F
:102620009DFD054606E0FFF799FD401B642801D992
:1026300003208BE7C24808380068C0F340400028F8
:10264000F1D1207800F0020002285FD1BC48006878
:1026500000F00C0058B1BA48006800F00C000828DF
:102660001CD1B748001F006800F48000B0B9B4481E
:1026700008380068C0F3400020B1E068012801D0AC
:10268000012063E7AE480838006820F0F8002169AF
:1026900040EAC100AA490839086037E0E06800B3A1
:1026A0000120A8490860FFF759FD054606E0FFF73D
:1026B00055FD401B022801D9032047E7A0480838F0
:1026C0000068C0F340000028F1D09D480838006839
:1026D00020F0F800216940EAC100994908390860F2
:1026E00014E0002097490860FFF738FD054606E032
:1026F000FFF734FD401B022801D9032026E790484C
:1027000008380068C0F340000028F1D1207800F0BC
:10271000080008282CD16069A8B101208A49086006
:10272000FFF71CFD054606E0FFF718FD401B0228D9
:1027300001D903200AE782486C300068C0F34000EA
:102740000028F1D014E000207F490860FFF706FD63
:10275000054606E0FFF702FD401B022801D90320D1
:10276000F4E677486C300068C0F340000028F1D1EF
:10277000207800F00400042870D100277048383019
:10278000006800F0805090B900BF002000906C48B5
:102790003830006840F08050694938310860084698
:1027A000006800F08050009000BF00BF012767481C
:1027B000006800F48070B0B96448006840F480702C
:1027C00062490860FFF7CAFC054606E0FFF7C6FC51
:1027D000401B022801D90320B8E65C48006800F4D9
:1027E00080700028F2D000BFA068012808D15448AA
:1027F0006830006840F001005149683108601DE010
:10280000A06805280DD14E486830006840F00400EB
:102810004B49683108600846006840F001000860D4
:102820000CE047486830006820F0010044496831F6
:1028300008600846006820F00400086000BFA06837
:10284000A8B1FFF78BFC054609E0FFF787FC401BAA
:1028500041F28831884202D9032077E626E03848E1
:1028600068300068C0F340000028EED013E0FFF7A6
:1028700075FC054608E0FFF771FC401B41F288310A
:10288000884201D9032061E62D4868300068C0F312
:1028900040000028EFD1012F07D1294838300068C7
:1028A00020F0805026493831086000BFA069002818
:1028B00045D02348006800F00C0008285DD0A069CE
:1028C000022845D100201F490866FFF747FC05464E
:1028D00006E0FFF743FC401B022801D9032035E640
:1028E000174808380068C0F340600028F1D1D4E9E7
:1028F00007010843616A40EA81110122A06AC2EB24
:10290000500041EA00412C20005D41EA00600C4982
:10291000091F086001200B490866FFF71FFC0546E8
:1029200006E0FFF71BFC401B022801D903200DE63F
:10293000034808380068C0F340600028F1D049E03F
:102940000838024000004742800E474200700040B5
:10295000002021490866FFF701FC054606E0FFF765
:10296000FDFB401B022801D90320EFE51B4800684E
:10297000C0F340600028F2D12CE0A069012800D10A
:10298000E4E51648001D0668A069012820D006F479
:102990008001E06981421BD106F03F01206A81423B
:1029A00016D147F6C0703040616AB0EB811F0FD17D
:1029B00006F440310122A06AC2EB5000B1EB004F97
:1029C00006D106F070612C20005DB1EB006F01D0E4
:1029D0000120BBE50020B9E5000047420038024075
:1029E00070B504460E4615460CB9012070BD94F82A
:1029F000490028B9002084F84800204600F01CF85F
:102A000004F108012068FFF7CFF93146A268206879
:102A1000FFF7F8F92946236BD4E90102FFF7A0F983
:102A2000A168206850F8210040F00100A2682168E8
:102A300041F822000020D9E710B586B0044600BF57
:102A4000002000902248006840F001002049086002
:102A50000846006800F00100009000BF00BF00BF02
:102A6000002000901A480838006840F00800184913
:102A7000083908600846006800F00800009000BFB0
:102A800000BF00BF002000900846006840F0100022
:102A900008600846006800F01000009000BF00BF0A
:102AA0004CF203700190022002900120039002205A
:102AB00004900C20059001A90648FFF72FFA4FF665
:102AC0008070019001A90448FFF728FA06B010BDF4
:102AD00038380240000C024000100240042808D19F
:102AE0004FF0E021096941F004014FF0E02211614B
:102AF00007E04FF0E021096921F004014FF0E022E6
:102B00001161704770B504462546681EB0F1807F9C
:102B100001D301200FE0681E4FF0E02148610F2132
:102B20004FF0FF3000F0A2FE00204FF0E02188615E
:102B300007200861002070BD7047704701460022E1
:102B4000002391F83D2091F83E3042EA030070479F
:102B50002DE9F84F0446206805682068C66820689B
:102B600047694FF00009CA4605F00F09B9F1000F97
:102B70000AD105F0200038B106F0200020B120462F
:102B800000F0A9FBBDE8F88FB9F1000F72D007F093
:102B9000010018B906F4907000286BD005F0010010
:102BA00030B106F4807018B1206C40F00100206450
:102BB00005F0040030B107F0010018B1206C40F0BE
:102BC0000200206405F0020030B107F0010018B1E6
:102BD000206C40F00400206405F0080048B106F0C5
:102BE000200010B907F0010018B1206C40F0080077
:102BF0002064206C70B305F0200028B106F020009E
:102C000010B1204600F067FB20684069C0F3801ACD
:102C1000206C00F0080010B9BAF1000F23D0204654
:102C200000F02EFB2068406900F04000402816D1DB
:102C30002068406920F0400021684861A06B50B1D5
:102C40005648A16B0865A06BFFF753F910B1A06B54
:102C5000016D88470CE02046FFF76FFF08E0204633
:102C6000FFF76BFF04E02046FFF767FF00202064BA
:102C700088E7FFE7206B012879D105F010000028D4
:102C800075D006F01000002871D000BF0020009021
:102C900020680068009020684068009000BF00BF76
:102CA0002068406900F04000402839D1A06B0068DE
:102CB00040681FFA80F8B8F1000F30D0A08D404571
:102CC0002DDDA4F82E80A06BC069B0F5807F1FD0E9
:102CD0002068C06820F480702168C860206840695E
:102CE00020F00100216848612068406920F0400020
:102CF00021684861202084F83E000020206320687D
:102D0000C06820F010002168C860A06BFFF79CF835
:102D1000A08DE28D801A81B22046FFF70DFF31E7CA
:102D2000A08DE18D401A1FFA80F8E08DE8B1B8F16E
:102D3000000F1AD02068C06820F490702168C86025
:102D40002068406920F0010021684861202084F853
:102D50003E00002020632068C06820F01000216839
:102D6000C86041462046FFF7E7FE0BE7FFE705F0A6
:102D7000800030B106F0800018B1204600F043FC1E
:102D800000E705F0400030B106F0400018B12046E1
:102D900000F091FAF6E600BFF4E600006D3200089C
:102DA00010B504460CB9012010BDA06900B100E0C7
:102DB00000BF94F83D0028B9002084F83C0020466C
:102DC00000F028F8242084F83D002068C06820F432
:102DD00000502168C860204600F0DCFA20680069D5
:102DE00020F49040216808612068406920F02A00A2
:102DF000216848612068C06840F400502168C860BC
:102E000000202064202084F83D0084F83E0000204B
:102E1000CAE7000010B586B00446654920688842BC
:102E200056D100BF00BF002000906248006840F00B
:102E30001000604908600846006800F0100000902B
:102E400000BF00BF00BF00BF00BF00200090594876
:102E50001438006840F001005649143908600846EB
:102E6000006800F00100009000BF00BF00BF00BF7D
:102E700000BF002000900846006840F00100086094
:102E80000846006800F00100009000BF00BF00BFCE
:102E90004815019002200290012003900220049026
:102EA0000720059001A94448FFF738F84FF48060E7
:102EB00001900720059001A93F48FFF72FF8252032
:102EC000FFF79DF9032211462520FFF7A8F96DE0D1
:102ED0003A492068884269D100BF00BF00200090B5
:102EE00034481438006840F0020032491439086050
:102EF0000846006800F00200009000BF00BF00BF5D
:102F000000BF00BF002000900846006840F00200AB
:102F100008600846006800F00200009000BF00BF93
:102F200000BF00BF00BF002000902248001F0068C3
:102F300040F480201F49091F08600846006800F41B
:102F40008020009000BF00BF00BF08150190022044
:102F5000029000200390022004900720059001A910
:102F60001748FEF7DBFF4FF400600190022002904B
:102F700000200390022004900720059001A910482A
:102F8000FEF7CCFF002211462720FFF748F9272043
:102F9000FFF735F92068C06840F020002168C8605C
:102FA0002068C06840F010002168C86006B010BDFD
:102FB0000010014044380240000002400048004038
:102FC000000402402DE9F84F04460E461746994684
:102FD0004FF0000A94F83E0020285FD106B117B9DF
:102FE0000120BDE8F88F00BF94F83C00012801D112
:102FF0000220F6E7012084F83C0000BF0020206496
:10300000222084F83E0000202063FFF7A7F88246C4
:10301000A785E785A068B0F5805F04D1206910B965
:103020000025B04602E035464FF0000800BF002002
:1030300084F83C0000BF29E05346002220212046AE
:10304000CDF8009000F00FFB08B10320C9E745B9A7
:1030500020684068C0F30800A8F8000008F10208E2
:1030600011E0A068B0F5805F03D0A06828B920699E
:1030700018B920684068287004E02068406800F0B3
:103080007F0028706D1CE08D401EE085E08D0028DB
:10309000D2D1202084F83E000020A2E70220A0E741
:1030A00070B504460D46164694F83E00202816D109
:1030B00005B10EB9012070BD00BF94F83C00012895
:1030C00001D10220F7E7012084F83C0000BF002076
:1030D000206332462946204600F072FAEBE70220D0
:1030E000E9E700001D4A0168914236D11C49098870
:1030F00001F4004189BB1A49098801F4804171B18A
:10310000184909780A2903D00021154A118024E0C2
:103110001349098841F40041114A11801DE0114909
:1031200009780D2906D10E49098841F480410C4ADD
:10313000118012E00B490978094A1288C2F30D0286
:10314000094B995406490988491C054A11801146C2
:103150000988C72901DD0021118070470010014056
:103160000C0000200E000020240000202DE9F84F64
:1031700004460E46174699464FF0000A94F83D0063
:1031800020285AD106B117B90120BDE8F88F00BF39
:1031900094F83C00012801D10220F6E7012084F8D0
:1031A0003C0000BF00202064212084F83D00FEF791
:1031B000D5FF8246A784E784A068B0F5805F04D17C
:1031C000206910B90025B04602E035464FF00008EE
:1031D00000BF002084F83C0000BF1BE053460022E3
:1031E00080212046CDF8009000F03DFA08B1032080
:1031F000CBE745B9B8F80000C0F308002168486083
:1032000008F1020803E02878216848606D1CE08C12
:10321000401EE084E08C0028E0D15346002240218B
:103220002046CDF8009000F01EFA08B10320ACE76C
:10323000202084F83D000020A7E70220A5E7704782
:1032400000BFFEE700BFFEE770477047704710B54C
:10325000FEF78AFF10BD00000348006840F47000CC
:10326000014908607047000088ED00E070B5054630
:10327000AC6B0020E085E0842046FFF75EFC70BD6B
:103280000168C96821F490710268D16001684969D8
:1032900021F0010102685161016B012905D101682A
:1032A000C96821F010010268D160202180F83E1029
:1032B00000210163704710B504462068C06820F003
:1032C00040002168C860202084F83D002046FFF7B8
:1032D000B6FF002010BD70B5044694F83E002228C9
:1032E00056D1A068B0F5805F0CD1206950B9002597
:1032F000A66A20684068C0F308003080A06A801C7D
:10330000A06215E0A56A0026A068B0F5805F03D032
:10331000A06828B9206918B920684068287004E0BE
:103320002068406800F07F002870A06A401CA062FE
:10333000E08D401E80B2E08540BB2068C06820F070
:1033400020002168C8602068C06820F4807021686F
:10335000C8602068406920F0010021684861202091
:1033600084F83E00206B01280AD12068C06820F054
:1033700010002168C860A18D2046FFF7DDFB02E048
:103380002046FFF7AFFE0020206370BD0020FCE761
:103390000220FAE72DE9F84F04462068006920F47E
:1033A0004050E1680843216808612169A06808432A
:1033B00061690843E169084300902068C06849F2E8
:1033C0000C618843009908432168C86020684069FF
:1033D00020F44070A169084321684861764920685B
:1033E000884203D075492068884203D1FFF742F82C
:1033F000814602E0FFF72EF88146E069B0F5004F04
:103400006CD102206168A0FB015003461920A9FB82
:10341000007001462A463846FCF783FF6421B0FB62
:10342000F1F04FEA001A02206168A0FB01510B463F
:103430001920A9FB00712A463846FCF772FF834623
:1034400002206168A0FB015003461920A9FB00710E
:103450002A463846FCF765FF6421B0FBF1F000EB2B
:10346000C00101EB0010ABEB8000322101EBC0008A
:103470006421B0FBF1F000F0F8000AEB400A0220F2
:103480006168A0FB015003461920A9FB00700146AA
:103490002A463846FCF745FF834602206168A0FBB8
:1034A000015003461920A9FB00712A463846FCF753
:1034B00038FF6421B0FBF1F000EBC00101EB00101C
:1034C000ABEB8000322101EBC0006421B0FBF1F0D6
:1034D00000F007005044216888606AE004206168B9
:1034E000A0FB015003461920A9FB007001462A46A3
:1034F0003846FCF716FF824604206168A0FB0150A5
:1035000003461920A9FB007001462A463846FCF7FD
:1035100008FF6421B0FBF1F000EBC00101EB0010EB
:10352000AAEB8000322101EB00106421B0FBF1F026
:1035300000F0F00A04206168A0FB01700346192026
:10354000A9FB00513A462846FCF7EBFE6421B0FB8C
:10355000F1F00AEB001A04206168A0FB01510B4650
:103560001920A9FB00712A463846FCF7DAFE83468B
:1035700004206168A0FB015003461920A9FB0070DC
:1035800001462A463846FCF7CCFE6421B0FBF1F038
:1035900000EBC00101EB0010ABEB8000322101EB2E
:1035A00000106421B0FBF1F000F00F0050442168DE
:1035B0008860BDE8F88F0000001001400014014051
:1035C00010B5034699629A85DA8500201864222096
:1035D00083F83E0000BF002083F83C0000BF18685D
:1035E000C06840F480701C68E0601868406940F072
:1035F00001001C6860611868C06840F020001C6809
:10360000E060002010BD014691F83D00212828D13E
:103610008868B0F5805F0BD1086948B90A6A1088DC
:10362000C0F308000B685860086A801C086205E057
:103630000B6A581C086218780B685860C88C401ECA
:1036400080B2C88458B90868C06820F080000B6850
:10365000D8600868C06840F040000B68D86000205F
:1036600070470220FCE72DE9F04104460D4617465D
:103670009846069E21E0701CF8B12EB1FEF76EFD53
:10368000A0EB0800B04218D92068C06820F4D070C0
:103690002168C8602068406920F001002168486105
:1036A000202084F83D0084F83E0000BF002084F80C
:1036B0003C0000BF0320BDE8F0812068006828407E
:1036C000A84201D1012000E00020B842D3D0002060
:1036D000F1E7000070B500240F4D1048FFF738FAED
:1036E00000BF03E0641CAC4200D904E00B48FFF7C4
:1036F00025FA2028F6D100BF002403E0641CAC4268
:1037000000D906E0012206490448FFF7C9FC002859
:10371000F4D100BF70BD0000FFFF0100EC000020ED
:103720000E0000201CB53E4800680068C0F3C000D1
:1037300090B100BF002000903948006800680090F8
:10374000374800684068009000BF00BF34480068F8
:103750000068334800684068314800680068C0F37A
:10376000401010B34FF0FF33012201A92C48FFF79E
:1037700029FC2C48B0F88000C0F30E007F2815DA31
:103780009DF804002749B1F88010C1F30E01254AC5
:1037900050541046B0F88000401C1146B1F880101B
:1037A00060F30E011046A0F880101BE01D48B0F831
:1037B00080006FF30E001B49A1F880009DF8040003
:1037C000B1F88010C1F30E01164A50541046B0F8FB
:1037D0008000401C1146B1F8801060F30E011046C5
:1037E000A0F880100E4800680068C0F30010B0B167
:1037F0000C48B0F8800020F4004000F50040094972
:10380000A1F8800000BF0020009005480068006813
:103810000090034800684068009000BF00BF1CBDD6
:1038200090010020D401002000BFFEE703B40198FE
:103830004100009850EAC12018BF04204A0D18BF6B
:1038400040F0010040F2FF72B2EB515F08BF40F060
:103850000200012808BF052002B070470248006836
:10386000C0F30220704700000CED00E010B5002806
:1038700004DB0A07130E054A135406E00A07140E68
:10388000034A00F00F031B1FD45410BD00E400E0F6
:1038900018ED00E030380A2801D2012070470020DE
:1038A000704700BF7047000070B500250BE04FF473
:1038B000FA7207A107A000F051F904460CB90020E4
:1038C00070BD681CC5B20A2DF1DB0120F8E70000CD
:1038D0004F4B00004154000070B5054615B1012D55
:1038E00010D107E04FF4FA720AA10BA000F036F9EC
:1038F000044609E04FF4FA7206A109A000F02EF97F
:10390000044601E0032070BD00BF0CB90020FAE7B7
:103910000120F8E74F4B0000415445300000000003
:10392000415445310000000070B590B004460D468A
:103930002B46224608A16846FCF788FD41F28832F2
:103940000CA1684600F00AF9064616B9002010B02E
:1039500070BD0120FBE7000041542B4349505354F4
:103960004152543D22544350222C222573222C25AF
:1039700073000000434F4E4E4543540010B54FF4C2
:10398000FA7209A109A000F0E9F804464FF4FA72AE
:103990000AA10BA000F0E2F82044C4B20CB9002048
:1039A00010BD0120FCE700004F4B000041542B43A9
:1039B00049504D4F44453D31000000003E0000009D
:1039C00041542B43495053454E44000010B502A0CA
:1039D00000F05EF910BD00002B2B2B002DE9F0410B
:1039E00006464FF4FA720FA10FA000F0B7F8074691
:1039F00017B10120BDE8F08100F068F980460DA103
:103A0000FCF772FE04460BA1601CFCF76DFE054638
:103A100000202870621C08A13046FCF717FD00202A
:103A2000E8E700004F4B000041542B4349465352F6
:103A300000000000220000002573000000B587B0E0
:103A400000BF00BF002001900D48006840F020003A
:103A50000B4908600846006800F02000019000BF94
:103A600000BF00BF4020029001200390002004907E
:103A70000220059002A90348FEF750FA07B000BDE6
:103A8000303802400014024010B500BF002240212F
:103A90000948FEF757FB00BF642000F049F900BF5A
:103AA000012240210448FEF74DFB00BF4FF4FA709D
:103AB00000F03EF910BD00000014024010B50446AD
:103AC000FFF7BCFFFFF7E0FF204600F0C9F8FFF763
:103AD000EBFE08B1012010BD0020FCE770B590B0EE
:103AE00004460D462B46224608A16846FCF7AEFC6C
:103AF00042F210720AA1684600F030F8064616B984
:103B0000002010B070BD0120FBE7000041542B43A2
:103B1000574A41503D222573222C22257322000052
:103B20005749464920474F542049500010B540F6A8
:103B3000B83205A106A000F011F804460CB9002027
:103B400010BD0120FCE7000072656164790000008F
:103B500041542B524553544F524500002DE9F0413A
:103B600005460E461446002700F0C6F829460FA069
:103B700000F08EF806B114B90020BDE8F08110E025
:103B800000F0A4F8074647B131463846FCF7ACFDD3
:103B900008B10020F1E700F0AFF8641E012000F04A
:103BA000C7F8002CECD10220E7E7000025730D0ACE
:103BB0000000000070B50546012D04D0022D0AD08A
:103BC000032D18D10FE04FF4FA720FA10FA0FFF7E9
:103BD000C5FF044611E04FF4FA720BA10EA0FFF7E7
:103BE000BDFF044609E04FF4FA7207A10DA0FFF7EC
:103BF000B5FF044601E0032070BD00BF0CB90020F2
:103C0000FAE70120F8E700004F4B000041542B4336
:103C1000574D4F44453D310041542B43574D4F4480
:103C2000453D320041542B43574D4F44453D3300F1
:103C300010B54FF4FA7207A107A0FFF78FFF0446F3
:103C40002CB94FF47A7000F073F8002010BD0120F9
:103C5000FCE700004F4B000041542B52535400002E
:103C600010B5044608480949086008464460002128
:103C70008160C16001610C21416100218161C161EC
:103C8000FFF78EF810BD00000048004090010020B2
:103C90000FB438B505A800900A48009A0499FCF7BB
:103CA000B7FB002000900748FCF730FD84B24FF0CE
:103CB000FF33224603490448FFF758FA38BC5DF841
:103CC00014FB000056020020900100200948B0F8C3
:103CD00080000121B1EBD03F09D100200549B1F8A6
:103CE0008010C1F30E01034A505410467047002063
:103CF000FCE70000D40100200748B0F880006FF313
:103D00000E000549A1F880000846B0F8800020F4B4
:103D10000040A1F880007047D401002010B504468F
:103D20000420FEF7DBFE0148046010BD0400002003
:103D300070B504461E2094FBF0F594FBF0F100FBF7
:103D4000114604E047F2305000F00CF86D1E002DD3
:103D5000F8D12EB14FF47A7106FB01F000F002F8B1
:103D600070BD000070B5034600224FF0E026756973
:103D70000D4E366803FB06F44FF0E026B16910E003
:103D80004FF0E026B06988420BD0884202D20E1A6A
:103D9000324402E02E1A0E4432440146A24200D3BD
:103DA00000E0EDE700BF70BD0400002070B50546DF
:103DB0005DB9FFF779FD04461CB906A0FCF73AFB94
:103DC00006E009A0FCF736FB02E00CA0FFF760FF5D
:103DD00070BD000041542074657374207375636373
:103DE000657373210D0A00004154207465737420BB
:103DF0006661696C6564210D0A000000546869738E
:103E00002041544B2D4D57383236364420544350C0
:103E100020436F6E6E65637420546573742E0D0AB3
:103E20000000000070B50446207868B9FFF7A6FDD1
:103E300005462DB90120207007A0FCF7FBFA0AE027
:103E40000BA0FCF7F7FA06E0FFF7C0FD002020709A
:103E50000EA0FCF7EFFA70BD456E74657220756EAA
:103E60007661726E6973686564210D0A0000000056
:103E7000456E74657220756E7661726E69736865E1
:103E800064206661696C6564210D0A004578697477
:103E900020756E7661726E6973686564210D0A0023
:103EA00086B0002001904FF4E130FFF707FE044692
:103EB00074B13CA0FCF7BEFA09E000BF4FF40071FA
:103EC0003F48FEF735F900BFC820FFF731FFF4E7A0
:103ED0003CA0FCF7AFFAFFF729FE0446FFF7E4FC2D
:103EE0002044C4B20120FFF765FE2044C4B2FFF7AE
:103EF0009FFE2044C4B20020FFF7EEFC2044C4B271
:103F000035A138A0FFF7EAFD2044C4B202A8FFF7AC
:103F100065FD2044C4B274B135A0FCF78BFA09E00A
:103F200000BF4FF400712648FEF702F900BFC82019
:103F3000FFF7FEFEF4E702A800F07EF831A133A0FF
:103F4000FFF7F2FC044674B133A0FCF773FA09E002
:103F500000BF4FF400711A48FEF7EAF800BFC8200E
:103F6000FFF7E6FEF4E7FFF7C7FE1AE0002000F0D7
:103F700019F90546012D02D0022D09D104E09DF862
:103F80000400FFF713FF04E001A8FFF74BFF00E078
:103F900000BF00BF9DF8040000F066F80A20FFF79C
:103FA000C7FEE3E741544B2D4D5738323636442097
:103FB000696E6974206661696C6564210D0A000090
:103FC000001402404A6F696E696E6720746F204169
:103FD000502E2E2E0D0A000031353930323032305D
:103FE00033353300414C49454E54454B2D5946001D
:103FF0004572726F7220746F206A6F696E206170F3
:10400000210D0A0038303830000000003139322EDE
:104010003136382E312E33004572726F7220746F34
:1040200020636F6E6E6563742074637020736572B5
:10403000766572210D0A00003EB50446214607A0B0
:10404000FCF7F8F91F2010210B468022CDE900145F
:10405000029097213C2003F0EDFA3EBD49503A20F2
:1040600025730D0A0000000070B50546012D09D129
:10407000FFF72CFE04462CB1214603A0FCF7DAF929
:10408000FFF73AFE70BD00002573000000BF054A2F
:10409000126802F04002002AF9D0C2B2014B5A6005
:1040A000704700000010014000B587B000BF00BF9E
:1040B000002001903848006840F010003649086040
:1040C0000846006800F01000019000BF00BF00BF6C
:1040D00000BF00BF002001900846006840F01000BB
:1040E00008600846006800F01000019000BF00BFA3
:1040F00000BF00BF00BF002001900846006840F0EC
:10410000100008600846006800F01000019000BF31
:1041100000BF00BF00BF00BF00200190084600683C
:1041200040F0010008600846006800F001000190BE
:1041300000BF00BF00BF10200290002003900120AC
:1041400004900220059002A91448FDF7E7FE08201C
:10415000029000200390012004900220059002A903
:104160000E48FDF7DBFE04200290002003900120A2
:1041700004900220059002A90848FDF7CFFE012017
:1041800002900020039002200490059002A90448A8
:10419000FDF7C4FE07B000BD3038024000100240F9
:1041A0000000024070B50446002514B101202B49DF
:1041B00008702A480078002834D010212848FDF7DC
:1041C000AFFF78B108212648FDF7AAFF50B10421BE
:1041D0002348FDF7A5FF28B101212248FDF7A0FFE4
:1041E00001281FD10A20FFF7A3FD00201B490870FA
:1041F00010211B48FDF794FF00B90125082118483C
:10420000FDF78EFF00B9022504211548FDF788FF50
:1042100000B9032501211348FDF782FF01281BD1B6
:10422000042519E010210E48FDF77AFF012813D16B
:1042300008210B48FDF774FF01280DD1042108481F
:10424000FDF76EFF012807D101210648FDF768FF41
:1042500010B9012001490870284670BD19000020DE
:10426000001002400000024070B5044600260948D4
:104270000588408845430021084603F0ABF803F069
:1042800057FA00BF02E004480480761CAE42FAD31D
:1042900070BD0000800100208000006C10B5044655
:1042A00058488471002C58D1F020564908804FF4AA
:1042B000A07048800846808845F21051884210D18D
:1042C0004FF430504F4908814FF4285048814FF443
:1042D0002C5088814FF4F07008804FF4487048806B
:1042E0001AE04848808841F6631188420DD12C209D
:1042F000444908812B2048812A2088814FF4F0709E
:1043000008804FF44870488006E02C203D49088121
:104310002A2048812B2088813A48808845F2103134
:10432000884205D03748808847F29671884206D186
:104330004FF4A070334908804FF4F0704880314842
:10434000808849F60601884258D14FF4F0702D4913
:1043500008804FF44870488050E04FF4A07029491D
:104360000880F02048800846808845F21051884235
:1043700010D14FF43050234908814FF42850488120
:104380004FF42C5088814FF4487008804FF4F0703F
:10439000488020E01B48808841F66311884205D0A0
:1043A0001848808849F6060188420DD12C2015490D
:1043B00008812A2048812B2088814FF4487008808A
:1043C0004FF4F070488006E02C200E4908812A2026
:1043D00048812B2088810B48808845F21031884223
:1043E00005D00848808847F29671884206D14FF47C
:1043F000F070044908804FF4A0704880002002F05B
:10440000CBFE10BD8001002070B505460E46144657
:104410003146284602F0DEFF03F08AF901490C809C
:1044200070BD00008000006C10B5CF2003F074F95F
:10443000002003F065F9C12003F062F9302003F099
:104440005FF9ED2003F068F9642003F059F90320C7
:1044500003F056F9122003F053F9812003F050F9CC
:10446000E82003F059F9852003F04AF9102003F001
:1044700047F97A2003F044F9CB2003F04DF93920B5
:1044800003F03EF92C2003F03BF9002003F038F94B
:10449000342003F035F9022003F032F9F72003F05D
:1044A0003BF9202003F02CF9EA2003F035F9002035
:1044B00003F026F9002003F023F9C02003F02CF9C3
:1044C0001B2003F01DF9C12003F026F9012003F0A1
:1044D00017F9C52003F020F9302003F011F930203E
:1044E00003F00EF9C72003F017F9B72003F008F91D
:1044F000362003F011F9482003F002F93A2003F0C6
:104500000BF9552003F0FCF8B12003F005F9002069
:1045100003F0F6F81A2003F0F3F8B62003F0FCF8E5
:104520000A2003F0EDF8A22003F0EAF8F22003F0ED
:10453000F3F8002003F0E4F8262003F0EDF8012062
:1045400003F0DEF8E02003F0E7F80F2003F0D8F8DE
:104550002A2003F0D5F8282003F0D2F8082003F031
:10456000CFF80E2003F0CCF8082003F0C9F854204F
:1045700003F0C6F8A92003F0C3F8432003F0C0F805
:104580000A2003F0BDF80F2003F0BAF8002003F072
:10459000B7F8002003F0B4F8002003F0B1F80020D1
:1045A00003F0AEF8E12003F0B7F8002003F0A8F81C
:1045B000152003F0A5F8172003F0A2F8072003F058
:1045C0009FF8112003F09CF8062003F099F82B20A7
:1045D00003F096F8562003F093F83C2003F090F88F
:1045E000052003F08DF8102003F08AF80F2003F067
:1045F00087F83F2003F084F83F2003F081F80F2074
:1046000003F07EF82B2003F087F8002003F078F801
:10461000002003F075F8012003F072F83F2003F04A
:104620006FF82A2003F078F8002003F069F80020E2
:1046300003F066F8002003F063F8EF2003F060F861
:10464000112003F069F87820FFF772FB292003F0AE
:1046500063F810BD10B5FF2003F05EF8FF2003F0F3
:104660004FF8982003F04CF8062003F049F8BC20DE
:1046700003F052F8012003F043F80F2003F040F854
:10468000612003F03DF8FF2003F03AF8012003F029
:1046900037F8012003F034F80B2003F031F8102034
:1046A00003F02EF8372003F02BF8632003F028F8EE
:1046B000FF2003F025F8FF2003F022F8012003F08B
:1046C0001FF8012003F01CF8002003F019F8002067
:1046D00003F016F8FF2003F013F8522003F010F84F
:1046E000012003F00DF8002003F00AF8402003F049
:1046F00007F8BD2003F010F8012003F001F8232093
:1047000002F0FEFF452002F0FBFF672002F0F8FFF9
:10471000012002F0F5FF232002F0F2FF452002F015
:10472000EFFF672002F0ECFFBE2002F0F5FF002053
:1047300002F0E6FF012002F0E3FFAB2002F0E0FF11
:10474000602002F0DDFF222002F0DAFF222002F0DA
:10475000D7FF222002F0D4FF222002F0D1FF222036
:1047600002F0CEFFC72002F0D7FF362002F0C8FFCC
:10477000ED2002F0D1FF7F2002F0C2FF0F2002F0F7
:10478000BFFFC02002F0C8FF0F2002F0B9FF0B20CE
:1047900002F0B6FF0A2002F0B3FFFC2002F0BCFFDB
:1047A000082002F0ADFFDF2002F0B6FF002002F08B
:1047B000A7FF002002F0A4FF002002F0A1FF0020CC
:1047C00002F09EFF002002F09BFF202002F098FFE5
:1047D000F32002F0A1FF742002F092FFB42002F057
:1047E0009BFF002002F08CFF002002F089FF0020D8
:1047F00002F086FFF72002F08FFF822002F080FF98
:10480000B12002F089FF002002F07AFF132002F0AD
:1048100077FF132002F074FFF22002F07DFF80206A
:1048200002F06EFF042002F06BFF402002F068FFF0
:10483000282002F065FFC12002F06EFF172002F071
:104840005FFF882002F05CFF882002F059FF2020E3
:1048500002F056FFE02002F05FFF002002F050FF60
:104860000A2002F04DFF122002F04AFF102002F051
:1048700047FF0E2002F044FF202002F041FFCC2031
:1048800002F03EFF072002F03BFF062002F038FF57
:104890000B2002F035FF0E2002F032FF0F2002F055
:1048A0002FFF0D2002F02CFF152002F029FF102011
:1048B00002F026FF002002F023FFE12002F02CFF8F
:1048C000002002F01DFF0B2002F01AFF132002F05F
:1048D00017FF0D2002F014FF0E2002F011FF1B2025
:1048E00002F00EFF712002F00BFF062002F008FF1D
:1048F000062002F005FF0A2002F002FF0F2002F05E
:10490000FFFE0E2002F0FCFE0F2002F0F9FE152043
:1049100002F0F6FE0C2002F0F3FE002002F0F0FEA2
:104920002A2002F0F9FE002002F0EAFE002002F048
:10493000E7FE012002F0E4FEDF2002F0E1FE2B2082
:1049400002F0EAFE002002F0DBFE002002F0D8FEBA
:10495000032002F0D5FE1F2002F0D2FE3A2002F022
:10496000DBFE552002F0CCFE362002F0D5FE002002
:1049700002F0C6FE112002F0CFFE7820FFF7D8F932
:10498000292002F0C9FE1420FFF7D2F92C2002F0F2
:10499000C3FE10BD10B5ED2002F0BEFE012002F0F6
:1049A000AFFEFE2002F0ACFEEE2002F0B5FEDE20EF
:1049B00002F0A6FE212002F0A3FEF12002F0ACFEE0
:1049C000012002F09DFEDF2002F0A6FE102002F082
:1049D00097FEC42002F0A0FE8F2002F091FEC620B8
:1049E00002F09AFE002002F08BFEE22002F088FE28
:1049F000E22002F085FEE22002F082FEBF2002F0FB
:104A00008BFEAA2002F07CFEB02002F085FE0D2075
:104A100002F076FE002002F073FE0D2002F070FE20
:104A2000002002F06DFE112002F06AFE002002F06C
:104A300067FE192002F064FE002002F061FE2120D2
:104A400002F05EFE002002F05BFE2D2002F058FE18
:104A5000002002F055FE3D2002F052FE002002F040
:104A60004FFE5D2002F04CFE002002F049FE5D206A
:104A700002F046FE002002F043FEB12002F04CFEA0
:104A8000802002F03DFE002002F03AFE8B2002F072
:104A900037FE002002F034FE962002F031FE0020A6
:104AA00002F02EFEB22002F037FE002002F028FEB7
:104AB000002002F025FE022002F022FE002002F07B
:104AC0001FFE032002F01CFE002002F019FEB3209E
:104AD00002F022FE002002F013FE002002F010FE81
:104AE000002002F00DFE002002F00AFE002002F07D
:104AF00007FE002002F004FE002002F001FE00206C
:104B000002F0FEFD002002F0FBFD002002F0F8FDA7
:104B1000002002F0F5FD002002F0F2FD002002F07E
:104B2000EFFD002002F0ECFD002002F0E9FD002086
:104B300002F0E6FD002002F0E3FD002002F0E0FDBF
:104B4000002002F0DDFD002002F0DAFD002002F07E
:104B5000D7FD002002F0D4FD002002F0D1FD00209E
:104B600002F0CEFDB42002F0D7FD8B2002F0C8FD8C
:104B7000002002F0C5FD962002F0C2FD002002F0E8
:104B8000BFFDA12002F0BCFD002002F0B9FDB52060
:104B900002F0C2FD022002F0B3FD002002F0B0FDE1
:104BA000032002F0ADFD002002F0AAFD042002F077
:104BB000A7FD002002F0A4FDB62002F0ADFD00200C
:104BC00002F09EFD002002F09BFDB72002F0A4FD44
:104BD000002002F095FD002002F092FD3F2002F03F
:104BE0008FFD002002F08CFD5E2002F089FD002088
:104BF00002F086FD642002F083FD002002F080FDBB
:104C00008C2002F07DFD002002F07AFDAC2002F045
:104C100077FD002002F074FDDC2002F071FD002021
:104C200002F06EFD702002F06BFD002002F068FDC6
:104C3000902002F065FD002002F062FDEB2002F002
:104C40005FFD002002F05CFDDC2002F059FD002039
:104C500002F056FDB82002F05FFD002002F050FD8A
:104C6000002002F04DFD002002F04AFD002002F07D
:104C700047FD002002F044FD002002F041FD00202D
:104C800002F03EFD002002F03BFDBA2002F044FDA0
:104C9000242002F035FD002002F032FD002002F059
:104CA0002FFD002002F02CFDC12002F035FD202058
:104CB00002F026FD002002F023FD542002F020FD2A
:104CC000002002F01DFDFF2002F01AFD002002F07E
:104CD00017FDC22002F020FD0A2002F011FD002085
:104CE00002F00EFD042002F00BFD002002F008FD92
:104CF000C32002F011FD3C2002F002FD002002F072
:104D0000FFFC3A2002F0FCFC002002F0F9FC392004
:104D100002F0F6FC002002F0F3FC372002F0F0FC79
:104D2000002002F0EDFC3C2002F0EAFC002002F042
:104D3000E7FC362002F0E4FC002002F0E1FC322027
:104D400002F0DEFC002002F0DBFC2F2002F0D8FC99
:104D5000002002F0D5FC2C2002F0D2FC002002F052
:104D6000CFFC292002F0CCFC002002F0C9FC262058
:104D700002F0C6FC002002F0C3FC242002F0C0FCBC
:104D8000002002F0BDFC242002F0BAFC002002F05A
:104D9000B7FC232002F0B4FC002002F0B1FC3C2060
:104DA00002F0AEFC002002F0ABFC362002F0A8FCC2
:104DB000002002F0A5FC322002F0A2FC002002F04C
:104DC0009FFC2F2002F09CFC002002F099FC2C207C
:104DD00002F096FC002002F093FC292002F090FCE7
:104DE000002002F08DFC262002F08AFC002002F058
:104DF00087FC242002F084FC002002F081FC2420A7
:104E000002F07EFC002002F07BFC232002F078FC04
:104E1000002002F075FCC42002F07EFC622002F04B
:104E20006FFC002002F06CFC052002F069FC002001
:104E300002F066FC842002F063FC002002F060FCBB
:104E4000F02002F05DFC002002F05AFC182002F075
:104E500057FC002002F054FCA42002F051FC00207A
:104E600002F04EFC182002F04BFC002002F048FC3F
:104E7000502002F045FC002002F042FC0C2002F021
:104E80003FFC002002F03CFC172002F039FC00201F
:104E900002F036FC952002F033FC002002F030FCDA
:104EA000F32002F02DFC002002F02AFCE62002F0A4
:104EB00027FC002002F024FCC52002F02DFC32204B
:104EC00002F01EFC002002F01BFC442002F018FC43
:104ED000002002F015FC652002F012FC002002F018
:104EE0000FFC762002F00CFC002002F009FC882068
:104EF00002F006FC002002F003FCC62002F00CFCCD
:104F0000202002F0FDFB002002F0FAFB172002F047
:104F1000F7FB002002F0F4FB012002F0F1FB00207F
:104F200002F0EEFBC72002F0F7FB002002F0E8FBE6
:104F3000002002F0E5FB002002F0E2FB002002F07E
:104F4000DFFBC82002F0E8FB002002F0D9FB0020C4
:104F500002F0D6FB002002F0D3FB002002F0D0FBD1
:104F6000C92002F0D9FB002002F0CAFB002002F0A9
:104F7000C7FB002002F0C4FB002002F0C1FB0020B0
:104F800002F0BEFB002002F0BBFB002002F0B8FBE9
:104F9000002002F0B5FB002002F0B2FB002002F07E
:104FA000AFFB002002F0ACFB002002F0A9FB0020C8
:104FB00002F0A6FB002002F0A3FB002002F0A0FB01
:104FC000002002F09DFBE02002F0A6FB162002F07C
:104FD00097FB002002F094FB1C2002F091FB0020C4
:104FE00002F08EFB212002F08BFB002002F088FBF8
:104FF000362002F085FB002002F082FB462002F002
:105000007FFB002002F07CFB522002F079FB0020A5
:1050100002F076FB642002F073FB002002F070FBCC
:105020007A2002F06DFB002002F06AFB8B2002F078
:1050300067FB002002F064FB992002F061FB002076
:1050400002F05EFBA82002F05BFB002002F058FBA0
:10505000B92002F055FB002002F052FBC42002F000
:105060004FFB002002F04CFBCA2002F049FB00205D
:1050700002F046FBD22002F043FB002002F040FB8E
:10508000D92002F03DFB002002F03AFBE02002F0C4
:1050900037FB002002F034FBF32002F031FB00204C
:1050A00002F02EFBE12002F037FB162002F028FB75
:1050B000002002F025FB1C2002F022FB002002F061
:1050C0001FFB222002F01CFB002002F019FB3620FF
:1050D00002F016FB002002F013FB452002F010FB4B
:1050E000002002F00DFB522002F00AFB002002F02B
:1050F00007FB642002F004FB002002F001FB7A2091
:1051000002F0FEFA002002F0FBFA8B2002F0F8FA1F
:10511000002002F0F5FA992002F0F2FA002002F0E5
:10512000EFFAA82002F0ECFA002002F0E9FAB92028
:1051300002F0E6FA002002F0E3FAC42002F0E0FAFE
:10514000002002F0DDFACA2002F0DAFA002002F0B4
:10515000D7FAD22002F0D4FA002002F0D1FAD820F7
:1051600002F0CEFA002002F0CBFAE02002F0C8FAFA
:10517000002002F0C5FAF32002F0C2FA002002F08B
:10518000BFFAE22002F0C8FA052002F0B9FA0020C6
:1051900002F0B6FA0B2002F0B3FA002002F0B0FAE7
:1051A0001B2002F0ADFA002002F0AAFA342002F02F
:1051B000A7FA002002F0A4FA442002F0A1FA00208D
:1051C00002F09EFA4F2002F09BFA002002F098FABB
:1051D000612002F095FA002002F092FA792002F0A4
:1051E0008FFA002002F08CFA882002F089FA002061
:1051F00002F086FA972002F083FA002002F080FA8B
:10520000A62002F07DFA002002F07AFAB72002F020
:1052100077FA002002F074FAC22002F071FA00203E
:1052200002F06EFAC72002F06BFA002002F068FA72
:10523000D12002F065FA002002F062FAD62002F0D6
:105240005FFA002002F05CFADD2002F059FA00203B
:1052500002F056FAF32002F053FA002002F050FA5E
:10526000E32002F059FA052002F04AFA002002F089
:1052700047FA0A2002F044FA002002F041FA1C200A
:1052800002F03EFA002002F03BFA332002F038FA36
:10529000002002F035FA442002F032FA002002F039
:1052A0002FFA502002F02CFA002002F029FA622096
:1052B00002F026FA002002F023FA782002F020FA09
:1052C000002002F01DFA882002F01AFA002002F0F5
:1052D00017FA972002F014FA002002F011FAA62023
:1052E00002F00EFA002002F00BFAB72002F008FAE2
:1052F000002002F005FAC22002F002FA002002F0BB
:10530000FFF9C72002F0FCF9002002F0F9F9D120E2
:1053100002F0F6F9002002F0F3F9D52002F0F0F9DE
:10532000002002F0EDF9DD2002F0EAF9002002F0A1
:10533000E7F9F32002F0E4F9002002F0E1F9E420BB
:1053400002F0EAF9012002F0DBF9002002F0D8F9BE
:10535000012002F0D5F9002002F0D2F9022002F07B
:10536000CFF9002002F0CCF92A2002F0C9F9002080
:1053700002F0C6F93C2002F0C3F9002002F0C0F9A7
:105380004B2002F0BDF9002002F0BAF95D2002F0D6
:10539000B7F9002002F0B4F9742002F0B1F900204E
:1053A00002F0AEF9842002F0ABF9002002F0A8F977
:1053B000932002F0A5F9002002F0A2F9A22002F049
:1053C0009FF9002002F09CF9B32002F099F9002027
:1053D00002F096F9BE2002F093F9002002F090F955
:1053E000C42002F08DF9002002F08AF9CD2002F0ED
:1053F00087F9002002F084F9D32002F081F900201F
:1054000002F07EF9DD2002F07BF9002002F078F94D
:10541000F32002F075F9002002F072F9E52002F0A5
:105420007BF9002002F06CF9002002F069F90020FD
:1054300002F066F9002002F063F9022002F060F940
:10544000002002F05DF9292002F05AF9002002F054
:1054500057F93C2002F054F9002002F051F94B209A
:1054600002F04EF9002002F04BF95D2002F048F9FD
:10547000002002F045F9742002F042F9002002F009
:105480003FF9842002F03CF9002002F039F9932022
:1054900002F036F9002002F033F9A22002F030F9D0
:1054A000002002F02DF9B32002F02AF9002002F0CA
:1054B00027F9BE2002F024F9002002F021F9C420CF
:1054C00002F01EF9002002F01BF9CD2002F018F9BD
:1054D000002002F015F9D32002F012F9002002F0AA
:1054E0000FF9DC2002F00CF9002002F009F9F3209A
:1054F00002F006F9002002F003F9E62002F00CF9B0
:10550000112002F0FDF8002002F0FAF8342002F039
:10551000F7F8002002F0F4F8562002F0F1F800202D
:1055200002F0EEF8762002F0EBF8002002F0E8F846
:10553000772002F0E5F8002002F0E2F8662002F0A1
:10554000DFF8002002F0DCF8882002F0D9F8002013
:1055500002F0D6F8992002F0D3F8002002F0D0F83B
:10556000BB2002F0CDF8002002F0CAF8992002F02A
:10557000C7F8002002F0C4F8662002F0C1F800204D
:1055800002F0BEF8552002F0BBF8002002F0B8F897
:10559000552002F0B5F8002002F0B2F8452002F0E4
:1055A000AFF8002002F0ACF8432002F0A9F8002088
:1055B00002F0A6F8442002F0A3F8002002F0A0F8C0
:1055C000E72002F0A9F8322002F09AF8002002F059
:1055D00097F8552002F094F8002002F091F8762018
:1055E00002F08EF8002002F08BF8662002F088F8B6
:1055F000002002F085F8672002F082F8002002F017
:105600007FF8672002F07CF8002002F079F887200C
:1056100002F076F8002002F073F8992002F070F89A
:10562000002002F06DF8BB2002F06AF8002002F0C2
:1056300067F8992002F064F8002002F061F8772002
:1056400002F05EF8002002F05BF8442002F058F807
:10565000002002F055F8562002F052F8002002F027
:105660004FF8232002F04CF8002002F049F83320D4
:1056700002F046F8002002F043F8452002F040F81E
:10568000002002F03DF8E82002F046F8002002F089
:1056900037F8002002F034F8992002F031F80020A9
:1056A00002F02EF8872002F02BF8002002F028F8F4
:1056B000882002F025F8002002F022F8772002F07E
:1056C0001FF8002002F01CF8662002F019F80020F4
:1056D00002F016F8882002F013F8002002F010F80B
:1056E000AA2002F00DF8002002F00AF8BB2002F018
:1056F00007F8002002F004F8992002F001F80020D9
:1057000001F0FEFF662001F0FBFF002001F0F8FF32
:10571000552001F0F5FF002001F0F2FF552001F0C7
:10572000EFFF002001F0ECFF442001F0E9FF002032
:1057300001F0E6FF442001F0E3FF002001F0E0FF6C
:10574000552001F0DDFF002001F0DAFFE92001F033
:10575000E3FFAA2001F0D4FF002001F0D1FF0020D8
:1057600001F0CEFF002001F0CBFF002001F0D4FFBC
:10577000AA2001F0C5FFCF2001F0CEFF002001F0EC
:10578000BFFF002001F0BCFF002001F0B9FF0020A6
:1057900001F0B6FF002001F0B3FF002001F0B0FFE0
:1057A000002001F0ADFF002001F0AAFF002001F071
:1057B000A7FF002001F0A4FF002001F0A1FF0020BE
:1057C00001F09EFF002001F09BFF002001F098FFF8
:1057D000002001F095FF002001F092FF002001F071
:1057E0008FFFF02001F098FF002001F089FF50208A
:1057F00001F086FF002001F083FF002001F080FF10
:10580000002001F07DFFF32001F086FF002001F071
:1058100077FFF92001F080FF062001F071FF1020D2
:1058200001F06EFF292001F06BFF002001F068FFFE
:105830003A2001F071FF552001F062FF112001F0C4
:105840006BFF6420FEF774FA292001F065FF352014
:1058500001F062FF002001F053FF512001F05CFFD6
:10586000FF2001F04DFF532001F056FF2C2001F0E6
:1058700047FF552001F050FF822001F041FF2C200E
:1058800001F04AFF10BD10B555214FF4704001F0F2
:1058900059FFAA214FF2010001F054FF52214FF2AB
:1058A000020001F04FFF08214FF2030001F04AFF10
:1058B00001214FF2040001F045FF0D214FF430406B
:1058C00001F040FF0D214BF2010001F03BFF0D21E3
:1058D0004BF2020001F036FF34214FF4364001F064
:1058E00031FF34214BF2016001F02CFF34214BF2E7
:1058F000026001F027FF0D214FF4314001F022FF3B
:105900000D214BF2011001F01DFF0D214BF2021091
:1059100001F018FF34214FF4374001F013FF342118
:105920004BF2017001F00EFF34214BF2027001F0D6
:1059300009FF00214FF4324001F004FF00214BF237
:10594000012001F0FFFE00214BF2022001F0FAFEDF
:1059500024214FF4384001F0F5FE24214BF60100DC
:1059600001F0F0FE24214BF6020001F0EBFE0121D4
:105970004FF43F4001F0E6FE0F214FF4334001F0B9
:10598000E1FE0F214BF2013001F0DCFE0F214BF262
:10599000023001F0D7FE34214FF4394001F0D2FE3D
:1059A00034214BF6011001F0CDFE34214BF60210EC
:1059B00001F0C8FE08214FF4354001F0C3FE082174
:1059C0004BF2015001F0BEFE08214BF2025001F0F3
:1059D000B9FE03214FF4424001F0B4FE24214FF4FC
:1059E0003A4001F0AFFE24214BF6012001F0AAFE5F
:1059F00024214BF6022001F0A5FE00214FF43C408B
:105A000001F0A0FE78214BF6014001F09BFE002141
:105A10004BF6024001F096FE00214FF43D4001F0AC
:105A200091FE78214BF6015001F08CFE00214BF6DF
:105A3000025001F087FE00214FF43E4001F082FE4B
:105A400064214BF6016001F07DFE00214FF45140CE
:105A500001F078FE33214DF2011001F073FE0021B8
:105A60004DF2021001F06EFE34214DF2031001F0F0
:105A700069FE00214DF2041001F064FE3A214DF25E
:105A8000051001F05FFE00214DF2061001F05AFEF4
:105A90004A214DF2071001F055FE00214DF2081089
:105AA00001F050FE5C214DF2091001F04BFE002187
:105AB0004DF20A1001F046FE81214DF20B1001F06B
:105AC00041FE00214DF20C1001F03CFEA6214DF2EA
:105AD0000D1001F037FE00214DF20E1001F032FEE4
