:020000040800F2
:10000000D80E00203D020008D11D0008C91D0008BF
:10001000CD1D0008F1080008B5230008000000000D
:10002000000000000000000000000000D51D0008D6
:10003000F508000800000000D31D0008D71D0008C7
:100040006102000861020008610200086102000804
:1000500061020008610200086102000861020008F4
:1000600061020008610200086102000861020008E4
:1000700061020008610200086102000861020008D4
:1000800061020008610200086102000861020008C4
:1000900061020008610200086102000861020008B4
:1000A00061020008610200086102000861020008A4
:1000B0006102000861020008610200086102000894
:1000C0006102000861020008610200086102000884
:1000D000610200085D22000861020008AD220008EC
:1000E0006102000861020008610200086102000864
:1000F0006102000861020008610200086102000854
:100100006102000861020008610200086102000843
:100110006102000861020008610200086102000833
:100120006102000861020008610200086102000823
:100130006102000861020008610200086102000813
:100140006102000861020008610200086102000803
:1001500061020008610200086102000861020008F3
:1001600061020008610200086102000861020008E3
:10017000610200086102000861020008000000003E
:10018000610200086102000800F002F800F047F880
:100190000AA090E8000C82448344AAF10107DA45E2
:1001A00001D100F03CF8AFF2090EBAE80F0013F0ED
:1001B000010F18BFFB1A43F00103184754A90000B0
:1001C00074A90000103A24BF78C878C1FAD8520741
:1001D00024BF30C830C144BF04680C6070470000C1
:1001E0000023002400250026103A28BF78C1FBD840
:1001F000520728BF30C148BF0B607047642900F028
:100200002D81782900F09181732900F0248300204A
:1002100070471FB507F08EFC1FBD10B510BD00F074
:1002200035FB1146FFF7F5FF07F02EFA00F053FB00
:1002300003B4FFF7F2FF03BC02F0E1F80C480168D9
:1002400041F4700101600B4880470B480047FEE70E
:10025000FEE7FEE7FEE7FEE7FEE7FEE7FEE7FEE776
:10026000FEE7000005480649044A064B70470000B7
:1002700088ED00E0E11D000889010008D80A00208F
:10028000D80E0020D80A0020704753EA020C00F074
:1002900069802DE9F04B4FF00006002B1FBFB3FA29
:1002A00083F503FA05F424FA05F65E4012BF1643FF
:1002B000B2FA82F502FA05F4C5F120051EBF22FA52
:1002C00005FC44EA0C04203556EA044C4FEA144479
:1002D00018BF641C4FF000084FF00009904271EB0A
:1002E000030C39D3002919BFB1FA81F701FA07F6D7
:1002F000B0FA80F700FA07F6C7F120071EBF20FA10
:1003000007FC46EA0C062037B6FBF4FCA7EB050712
:10031000103F07F01F0BCBF120060CFA0BFB2CFA59
:1003200006F644BFB3460026202FA4BF5E464FF01A
:10033000000B5BEA060C08BF4FF0010B19EB0B0931
:10034000ABFB027C48EB0608C01B06FB02CC0BFB98
:1003500003CC71EB0C01C1E70B460246414648460F
:10036000BDE8F08B13B54FF000004FF00001AFF384
:100370000080BDE81C4070470FB4044910B503AAC3
:10038000029800F06DFA10BC5DF814FB0800002024
:100390000FB41CB5084B06AA7B446946009005982B
:1003A00000F02FFA04460020694600F03DFA20468E
:1003B0001CBC5DF814FB00008D04000070B5044601
:1003C00085690068C10601D5302600E02026C007F7
:1003D00007D070BDD4E9012130469047206A401C07
:1003E00020626D1EF6D570BD70B504468569007833
:1003F000C00707D170BDD4E9012120209047206AB1
:10040000401C20626D1EF6D570BD70B50C460546C9
:10041000012A05D02878800600D5EA69002302E089
:10042000012305E05B1C934202D2E05C0028F9D175
:10043000A869E618C01AA861286A184428622846E4
:10044000FFF7BCFF04E0D5E9012114F8010B904748
:10045000B442F8D32846FFF7C7FF70BD2DE9F0413D
:100460000646002410687529314616A510D0AFF352
:100470000080002802DA404213A507E031688A07AD
:1004800001D512A502E0490704D511A5012401E018
:10049000AFF3008000210A2206F1240709E0B0FB37
:1004A000F2FCB0FBF2F302FB1C003030785418462B
:1004B000491C0028F3D123462A463046BDE8F041C6
:1004C00000F041B9000000002D0000002B000000EA
:1004D00020000000F0B40D460188090502D5214C2A
:1004E0007C4402E01F4C7C440E34002100F12406C1
:1004F00008E002F00F071209E75D42EA03721B09E8
:100500007754491C52EA0307F3D1027800231207FB
:1005100004D5702D06D009B1022311342246F0BC57
:1005200000F011B901231034F8E770B504460D4608
:1005300021461068AFF30080024629462046BDE8F8
:1005400070400023C6E7D21D22F00703D3E9002341
:10055000C0E70368126843F0200303600823C36107
:100560000023B7E7F2A500002DE9F05F89460446B5
:100570004FF0000ADFF874B1FB44C0F820A0204619
:10058000E1688847002874D0252806D0D4E90121E5
:100590009047206A401C2062F1E700265F46204613
:1005A000E16888472028054607DB312D05D27819F8
:1005B00010F8200C08B10643F1E7B00701D526F08A
:1005C0000406C4F81CA00027C4F818A02A2D09D0DE
:1005D000284601F00DFF38B304EB8708303DC8F81A
:1005E000185019E059F8041B204604EB870291616A
:1005F000E1688847012F054618D1E069002820DA14
:1006000026F020061DE0D8F8180000EB800005EB6E
:1006100040003038C8F818002046E1688847054691
:1006200001F0E6FE0028EED1012F0AD02E2D08D1D0
:100630002046E16888477F1C0546022F46F02006C9
:10064000C4DBA069002803DA404246F00106A0613D
:10065000F00701D026F010066C2D0BD0682D09D0C4
:100660004C2D39D06A2D35D0742D35D07A2D33D01C
:1006700016E038E0E1682F4620468847B842054634
:1006800009D16C2F26D04FF48060E16806432046E4
:100690008847054604E06C2F1AD04FF4807006435B
:1006A0000DB3A5F14100192802D8203546F40066A3
:1006B0004A462946204626604E46FFF79FFD80B1F8
:1006C00001280BD0F61D26F0070000F1080956E7B7
:1006D0004020E4E78020D8E70020D6E706F10409AF
:1006E0004DE7284652E7206ABDE8F09F82A500004A
:1006F0004FF0000200B5134694469646203922BFBB
:10070000A0E80C50A0E80C50B1F12001BFF4F7AF05
:10071000090728BFA0E80C5048BF0CC05DF804EBE7
:10072000890028BF40F8042B08BF704748BF20F855
:10073000022B11F0804F18BF00F8012B7047704753
:100740007047704770472DE9F0470D46994692462D
:10075000044600F124080168880604D5E06921F008
:100760001001216000E00120A84201DD471B00E0EC
:100770000027A1697A1902EB0900081AA061207804
:10078000C00602D42046FFF719FE002608E0D4E98F
:1007900001211AF806009047206A401C761C20624E
:1007A0004E45F4DB2078C0060AD52046FFF706FE4A
:1007B00006E0D4E9012130209047206A401C2062E5
:1007C000381EA7F10107F4DC07E0D4E9012118F88D
:1007D00005009047206A401C2062281EA5F10105F3
:1007E000F3DC2046FFF700FE2078000602D5022049
:1007F000BDE8F0870120FBE701694A1C0261087827
:10080000704700B58FB0CDE9013100210591054950
:100810007944CDE9031011466846FFF7A5FE0FB0F5
:1008200000BD0000E5FFFFFF0A6802F8010B0A6047
:10083000704710B5436913B1AFF3008001E0FFF7D3
:10084000E4FD012010BD127800F124010A7000229D
:100850004A700122EDE711684FF0FF32E9E700002E
:10086000074B70B50D467B44FFF7CBFF0446284687
:1008700000F008F810B14FF0FF3070BD204670BD99
:100880007F370000007B00F080007047754600F065
:100890002BF8AE4605006946534620F00700854612
:1008A00018B020B5FFF7DEFCBDE820404FF0000691
:1008B0004FF000074FF000084FF0000B21F0070148
:1008C000AC46ACE8C009ACE8C009ACE8C009ACE88B
:1008D000C0098D46704710B50446AFF3008020462E
:1008E000BDE81040FFF7A4BC00487047740A002020
:1008F00000BFFEE77047000070B504461D460023A8
:10090000B5F5804F13D154F822300C480340D1E99B
:10091000000640EA06108E6840EA06208E8940EA0A
:1009200006408E693043034344F8223003E06FF001
:10093000704044F82200002070BD00000000F0CF9D
:1009400010B503460022086853F8202012480240E0
:10095000D1E901042043CC6820430C6920434C6951
:1009600020438C692043CC6920430C6A20434C6AA5
:1009700020438C6A2043CC6A2043CC6B20430C6B11
:10098000204302438868082801D142F040020868E9
:1009900043F82020002010BD8000F0FF30B5034652
:1009A0000024501C53F8204004F04044D1E90005D5
:1009B00040EA05108D6840EA05208D8940EA05452A
:1009C000088A401E45EA0055087D801E45EA006001
:1009D0008D6928430443501C43F82040002030BD5B
:1009E00070B50446A56D00F07DF9064694F8350013
:1009F000022808D08020606500BF002084F8340001
:100A000000BF012070BD2068006820F0160021683A
:100A100008602068406920F0800021684861206CEF
:100A200008B9A06C28B12068006820F0080021688F
:100A300008602068006820F00100216808600FE06D
:100A400000F050F9801B05280AD92020606500BFFE
:100A5000002084F8340000BF032084F83500D1E77B
:100A60002068006800F001000028E9D194F85C10CB
:100A70003F208840A86000BF002084F8340000BFF9
:100A8000012084F835000020BCE7014691F83500CC
:100A9000022803D08020486501207047052081F896
:100AA00035000868006820F001000A681060002026
:100AB000F3E70000F8B502460B46002500240020AD
:100AC0000021DEE0012606FA01F51E6806EA0504AB
:100AD000AC4275D11E7906F00306012E04D01E79B2
:100AE00006F00306022E13D190684F000326BE4085
:100AF000B0434F00DE68BE4030439060506801262E
:100B00008E40B0431E79C6F300168E4030435060CD
:100B10001E7906F00306032E09D0D0684F00032685
:100B2000BE40B0434F009E68BE403043D0601E7947
:100B300006F00306022E13D1CF0802F1200656F864
:100B400027004E07F70E0F26BE40B0434F07FF0E9B
:100B50001E69BE403043CF0802F1200646F8270048
:100B600010684F000326BE40B0431E7906F003060E
:100B70004F00BE40304310605E6806F08056B6F10C
:100B8000805F7DD100BF00260096404E366846F457
:100B900080463E4F3E603E46366806F480460096EC
:100BA00000BF00BF3A4E8F0856F827008E07370F58
:100BB0000F26BE40B043374EB24202D1002624E099
:100BC0005EE0354EB24201D101261EE0334EB24204
:100BD00001D1022619E0324EB24201D1032614E0BF
:100BE000304EB24201D104260FE02F4EB24201D165
:100BF00005260AE02D4EB24201D1062605E02C4E14
:100C0000B24201D1072600E008268F073F0FBE4001
:100C100030431F4E8F0846F82700264E3068A04309
:100C20005E6806F48036B6F5803F00D12043214E41
:100C30003060361D3068A0435E6806F40036B6F5B5
:100C4000003F00D120431B4E361D3060361D3068FA
:100C5000A0435E6806F48016B6F5801F00D12043DD
:100C6000144E08363060361D3068A0435E6806F4C6
:100C70000016B6F5001F00D120430E4E0C36306032
:100C8000491C1029FFF41EAFF8BD00004438024093
:100C90000838014000000240000402400008024001
:100CA000000C0240001002400014024000180240F4
:100CB000001C0240003C014010B5426921EA0203D9
:100CC00002EA010443EA0443836110BD0AB1816171
:100CD00001E00B048361704701480068000C704715
:100CE000002004E001480068704700001000002068
:100CF00003480068034909780844014908607047BF
:100D0000100000201800002010B50A48006840F4C8
:100D10000070084908600846006840F48060086078
:100D2000032000F07FF80F2000F006F800F02AF80A
:100D3000002010BD003C024070B504460E4800780B
:100D40004FF47A71B1FBF0F00C490968B1FBF0F592
:100D5000284600F09BFC08B1012070BD102C07D282
:100D600000222146501E00F01EF80548046001E0F4
:100D70000120F2E70020F0E718000020000000202A
:100D800014000020704701460846002809DB00F0E7
:100D90001F0301229A4043099B0003F1E023C3F89B
:100DA000002100BF70472DE9F05F80460D461646D2
:100DB000002701F001FB074639462A46334601F079
:100DC0000700C0F1070ABAF1040F02D94FF0040A74
:100DD00001E0C0F1070AD14600F1040ABAF1070F99
:100DE00002D24FF0000A01E0A0F1030AD4464FF00E
:100DF000010A0AFA09FAAAF1010A0AEA020A0AFA37
:100E00000CFA4FF0010B0BFA0CFBABF1010B0BEAE8
:100E1000030B4AEA0B042146404601F0D5FABDE82F
:100E2000F09F000000BF00F00702064B19684FF664
:100E3000FF031940044B0B4343EA0221014B1960A5
:100E400000BF70470CED00E00000FA0570B50446E5
:100E50000D460CB9012070BD5848006800F007002D
:100E6000A84209D255490D700846006800F00700F5
:100E7000A84201D00120EEE7207800F0020002280D
:100E80001DD1207800F00400042805D14C480068EA
:100E900040F4E0504A490860207800F00800082833
:100EA00005D14748006840F460404549086044481F
:100EB000006820F0F000A1680843414908602078EC
:100EC00000F00100A8B36068012807D13C48083849
:100ED0000068C0F34040B8B90120BCE76068022850
:100EE00002D06068032807D1354808380068C0F38D
:100EF000406048B90120AEE7314808380068C0F3C7
:100F0000400008B90120A6E72D48006820F0030042
:100F1000616808432A490860FFF7E4FE064609E0D5
:100F2000FFF7E0FE801B41F28831884202D903209E
:100F300091E707E02248006800F00C006168B0EB20
:100F4000810FEDD11D48006800F00700A84209D9C3
:100F50001A490D700846006800F00700A84201D049
:100F6000012078E7207800F00400042807D1144815
:100F7000006820F4E050E1680843114908602078D7
:100F800000F00800082808D10D48006820F46040EF
:100F9000216940EAC1000A49086000F03FF80849A9
:100FA0000968C1F30311074A515CC840064908604B
:100FB00006480068FFF7C0FE00204CE7003C0240F6
:100FC000083802403E7B000800000020140000208A
:100FD00001480068704700000000002000B5FFF7DE
:100FE000F7FF04490968C1F38221034A515CC840F4
:100FF00000BD0000083802404E7B000800B5FFF736
:10100000E7FF04490968C1F34231034A515CC84013
:1010100000BD0000083802404E7B00082DE9F04773
:10102000002400250026A1462548006800F00C0099
:1010300020B1042805D008283AD105E0DFF88490D3
:1010400039E0DFF8849036E01D48001F006800F0AA
:101050003F041B48001F006800F4800078B11A4864
:101060001749091F0968C1F38811A0FB01700146E7
:10107000224600233846FFF708F905460EE01148DE
:101080000F49091F0968C1F38811A0FB01700146CF
:10109000224600233846FFF7F8F805460848001FA7
:1010A0000068C0F30140401C4600B5FBF6F902E0C1
:1010B000DFF8109000BF00BF4846BDE8F087000091
:1010C000083802400024F40000127A00F8B5044603
:1010D0000CB90120F8BD207800F00100002874D080
:1010E000F948006800F00C0004280DD0F6480068AC
:1010F00000F00C00082813D1F348001F006800F42A
:101100008000B0F5800F0BD1EF4808380068C0F3BD
:101110004040002859D06068002856D10120D9E706
:1011200000BF6068B0F5803F08D1E7480838006824
:1011300040F48030E449083908601EE06068B0F58A
:10114000A02F0DD1E0480838006840F48020DE4927
:10115000083908600846006840F4803008600CE0F8
:10116000D9480838006820F48030D7490839086029
:101170000846006820F48020086000BF606890B1D5
:10118000FFF7B0FD054606E0FFF7ACFD401B642805
:1011900001D903209EE7CC4808380068C0F34040DE
:1011A0000028F1D011E0FFF79DFD054606E0FFF7AE
:1011B00099FD401B642801D903208BE7C2480838F9
:1011C0000068C0F340400028F1D1207800F0020010
:1011D00002285FD1BC48006800F00C0058B1BA4842
:1011E000006800F00C0008281CD1B748001F0068F8
:1011F00000F48000B0B9B44808380068C0F340007B
:1012000020B1E068012801D0012063E7AE4808382A
:10121000006820F0F800216940EAC100AA490839B5
:10122000086037E0E06800B30120A8490860FFF7D4
:1012300059FD054606E0FFF755FD401B022801D980
:10124000032047E7A04808380068C0F340000028A2
:10125000F1D09D480838006820F0F800216940EA84
:10126000C10099490839086014E0002097490860D6
:10127000FFF738FD054606E0FFF734FD401B022866
:1012800001D9032026E7904808380068C0F34000E1
:101290000028F1D1207800F0080008282CD16069DE
:1012A000A8B101208A490860FFF71CFD054606E049
:1012B000FFF718FD401B022801D903200AE78248E6
:1012C0006C300068C0F340000028F1D014E000202A
:1012D0007F490860FFF706FD054606E0FFF702FDBF
:1012E000401B022801D90320F4E677486C300068DF
:1012F000C0F340000028F1D1207800F00400042859
:1013000070D1002770483830006800F0805090B9E4
:1013100000BF002000906C483830006840F08050DA
:101320006949383108600846006800F08050009034
:1013300000BF00BF01276748006800F48070B0B9A3
:101340006448006840F4807062490860FFF7CAFC96
:10135000054606E0FFF7C6FC401B022801D9032022
:10136000B8E65C48006800F480700028F2D000BF46
:10137000A068012808D154486830006840F0010096
:101380005149683108601DE0A06805280DD14E481C
:101390006830006840F004004B4968310860084636
:1013A000006840F0010008600CE0474868300068C1
:1013B00020F001004449683108600846006820F0C8
:1013C0000400086000BFA068A8B1FFF78BFC0546C9
:1013D00009E0FFF787FC401B41F28831884202D9BF
:1013E000032077E626E0384868300068C0F3400004
:1013F0000028EED013E0FFF775FC054608E0FFF784
:1014000071FC401B41F28831884201D9032061E61A
:101410002D4868300068C0F340000028EFD1012F4C
:1014200007D129483830006820F0805026493831EB
:10143000086000BFA069002845D02348006800F07C
:101440000C0008285DD0A069022845D100201F4962
:101450000866FFF747FC054606E0FFF743FC401B24
:10146000022801D9032035E6174808380068C0F380
:1014700040600028F1D1D4E907010843616A40EADD
:1014800081110122A06AC2EB500041EA00412C20E8
:10149000005D41EA00600C49091F086001200B490A
:1014A0000866FFF71FFC054606E0FFF71BFC401B24
:1014B000022801D903200DE6034808380068C0F36C
:1014C00040600028F1D049E008380240000047425F
:1014D000800E474200700040002021490866FFF757
:1014E00001FC054606E0FFF7FDFB401B022801D981
:1014F0000320EFE51B480068C0F340600028F2D1EC
:101500002CE0A069012800D1E4E51648001D06681A
:10151000A069012820D006F48001E06981421BD136
:1015200006F03F01206A814216D147F6C070304074
:10153000616AB0EB811F0FD106F440310122A06A2D
:10154000C2EB5000B1EB004F06D106F070612C20C9
:10155000005DB1EB006F01D00120BBE50020B9E5D3
:10156000000047420038024070B504460E4615465A
:101570000CB9012070BD94F8490028B9002084F806
:101580004800204600F01CF804F108012068FFF72D
:10159000D7F93146A2682068FFF700FA2946236B85
:1015A000D4E90102FFF7A8F9A168206850F82100EA
:1015B00040F00100A268216841F822000020D9E72C
:1015C00010B586B0044600BF002000902248006895
:1015D00040F00100204908600846006800F0010062
:1015E000009000BF00BF00BF002000901A480838DC
:1015F000006840F00800184908390860084600688B
:1016000000F00800009000BF00BF00BF0020009065
:101610000846006840F0100008600846006800F0C6
:101620001000009000BF00BF4CF203700190022038
:10163000029001200390022004900C20059001A943
:101640000648FFF737FA4FF68070019001A9044869
:10165000FFF730FA06B010BD38380240000C0240E7
:1016600000100240042808D14FF0E021096941F040
:1016700004014FF0E022116107E04FF0E021096919
:1016800021F004014FF0E0221161704770B504466B
:101690002546681EB0F1807F01D301200FE0681E4F
:1016A0004FF0E02148610F214FF0FF3000F08CFE39
:1016B00000204FF0E021886107200861002070BD04
:1016C0007047704701460022002391F83D2091F8B1
:1016D0003E3042EA030070472DE9F84F0446206887
:1016E00005682068C668206847694FF00009CA4647
:1016F00005F00F09B9F1000F0AD105F0200038B14B
:1017000006F0200020B1204600F0A9FBBDE8F88FCC
:10171000B9F1000F72D007F0010018B906F490700B
:1017200000286BD005F0010030B106F4807018B1CC
:10173000206C40F00100206405F0040030B107F097
:10174000010018B1206C40F00200206405F0020096
:1017500030B107F0010018B1206C40F004002064A3
:1017600005F0080048B106F0200010B907F00100AC
:1017700018B1206C40F008002064206C70B305F0B4
:10178000200028B106F0200010B1204600F067FBD1
:1017900020684069C0F3801A206C00F0080010B97E
:1017A000BAF1000F23D0204600F02EFB20684069DC
:1017B00000F04000402816D12068406920F0400029
:1017C00021684861A06B50B15648A16B0865A06BB9
:1017D000FFF75BF910B1A06B016D88470CE0204664
:1017E000FFF76FFF08E02046FFF76BFF04E020469D
:1017F000FFF767FF0020206488E7FFE7206B0128E0
:1018000079D105F01000002875D006F010000028EE
:1018100071D000BF00200090206800680090206810
:101820004068009000BF00BF2068406900F04000A1
:10183000402839D1A06B006840681FFA80F8B8F1E1
:10184000000F30D0A08D40452DDDA4F82E80A06B78
:10185000C069B0F5807F1FD02068C06820F4807018
:101860002168C8602068406920F001002168486153
:101870002068406920F0400021684861202084F8F9
:101880003E00002020632068C06820F0100021681E
:10189000C860A06BFFF7A4F8A08DE28D801A81B21A
:1018A0002046FFF70DFF31E7A08DE18D401A1FFAAA
:1018B00080F8E08DE8B1B8F1000F1AD02068C06858
:1018C00020F490702168C8602068406920F0010011
:1018D00021684861202084F83E00002020632068B1
:1018E000C06820F010002168C86041462046FFF71C
:1018F000E7FE0BE7FFE705F0800030B106F080005F
:1019000018B1204600F043FC00E705F0400030B17C
:1019100006F0400018B1204600F091FAF6E600BF4C
:10192000F4E60000F51D000810B504460CB90120CE
:1019300010BDA06900B100E000BF94F83D0028B9D7
:10194000002084F83C00204600F028F8242084F889
:101950003D002068C06820F400502168C86020461F
:1019600000F0DCFA2068006920F4904021680861EA
:101970002068406920F02A00216848612068C0681A
:1019800040F400502168C86000202064202084F8C2
:101990003D0084F83E000020CAE7000010B586B084
:1019A000044665492068884256D100BF00BF002028
:1019B00000906248006840F01000604908600846E6
:1019C000006800F01000009000BF00BF00BF00BF23
:1019D00000BF0020009059481438006840F0010012
:1019E0005649143908600846006800F0010000906C
:1019F00000BF00BF00BF00BF00BF0020009008462E
:101A0000006840F0010008600846006800F001002E
:101A1000009000BF00BF00BF481501900220029057
:101A200001200390022004900720059001A944485A
:101A3000FFF740F84FF4806001900720059001A95E
:101A40003F48FFF737F82520FFF79DF9032211469D
:101A50002520FFF7A8F96DE03A492068884269D14E
:101A600000BF00BF0020009034481438006840F0E8
:101A700002003249143908600846006800F002008C
:101A8000009000BF00BF00BF00BF00BF002000905B
:101A90000846006840F0020008600846006800F050
:101AA0000200009000BF00BF00BF00BF00BF0020C9
:101AB00000902248001F006840F480201F49091F41
:101AC00008600846006800F48020009000BF00BF56
:101AD00000BF081501900220029000200390022010
:101AE00004900720059001A91748FEF7E3FF4FF483
:101AF00000600190022002900020039002200490D8
:101B00000720059001A91048FEF7D4FF00221146D6
:101B10002720FFF748F92720FFF735F92068C0682C
:101B200040F020002168C8602068C06840F01000C4
:101B30002168C86006B010BD001001404438024062
:101B40000000024000480040000402402DE9F84F28
:101B500004460E46174699464FF0000A94F83E0098
:101B600020285FD106B117B90120BDE8F88F00BF6A
:101B700094F83C00012801D10220F6E7012084F806
:101B80003C0000BF00202064222084F83E0000209A
:101B90002063FFF7A7F88246A785E785A068B0F520
:101BA000805F04D1206910B90025B04602E03546B7
:101BB0004FF0000800BF002084F83C0000BF29E07F
:101BC0005346002220212046CDF8009000F00FFB64
:101BD00008B10320C9E745B920684068C0F3080090
:101BE000A8F8000008F1020811E0A068B0F5805FD5
:101BF00003D0A06828B9206918B920684068287007
:101C000004E02068406800F07F0028706D1CE08DC3
:101C1000401EE085E08D0028D2D1202084F83E00CF
:101C20000020A2E70220A0E770B504460D46164644
:101C300094F83E00202816D105B10EB9012070BDE0
:101C400000BF94F83C00012801D10220F7E70120F1
:101C500084F83C0000BF002020633246294620461D
:101C600000F072FAEBE70220E9E700001D4A016884
:101C7000914236D11C49098801F4004189BB1A49B7
:101C8000098801F4804171B1184909780A2903D003
:101C90000021154A118024E01349098841F40041CC
:101CA000114A11801DE0114909780D2906D10E490C
:101CB000098841F480410C4A118012E00B490978EF
:101CC000094A1288C2F30D02094B99540649098842
:101CD000491C054A118011460988C72901DD0021E8
:101CE00011807047001001400C0000200E00002001
:101CF000240000202DE9F84F04460E461746994669
:101D00004FF0000A94F83D0020285AD106B117B9C7
:101D10000120BDE8F88F00BF94F83C00012801D1F4
:101D20000220F6E7012084F83C0000BF0020206478
:101D3000212084F83D00FEF7D5FF8246A784E78482
:101D4000A068B0F5805F04D1206910B90025B046C5
:101D500002E035464FF0000800BF002084F83C0048
:101D600000BF1BE05346002280212046CDF80090A2
:101D700000F03DFA08B10320CBE745B9B8F8000000
:101D8000C0F308002168486008F1020803E02878E1
:101D9000216848606D1CE08C401EE084E08C0028C7
:101DA000E0D15346002240212046CDF8009000F0BB
:101DB0001EFA08B10320ACE7202084F83D00002083
:101DC000A7E70220A5E7704700BFFEE700BFFEE7D8
:101DD00070477047704710B5FEF78AFF10BD0000CE
:101DE0000348006840F47000014908607047000033
:101DF00088ED00E070B50546AC6B0020E085E0841E
:101E00002046FFF75EFC70BD0168C96821F490713F
:101E10000268D1600168496921F0010102685161DD
:101E2000016B012905D10168C96821F01001026820
:101E3000D160202180F83E1000210163704710B569
:101E400004462068C06820F040002168C860202057
:101E500084F83D002046FFF7B6FF002010BD70B5A6
:101E6000044694F83E00222856D1A068B0F5805F61
:101E70000CD1206950B90025A66A20684068C0F3DB
:101E800008003080A06A801CA06215E0A56A0026C8
:101E9000A068B0F5805F03D0A06828B9206918B9A0
:101EA00020684068287004E02068406800F07F00E7
:101EB0002870A06A401CA062E08D401E80B2E085C0
:101EC00040BB2068C06820F020002168C8602068FE
:101ED000C06820F480702168C8602068406920F0E4
:101EE000010021684861202084F83E00206B012811
:101EF0000AD12068C06820F010002168C860A18D58
:101F00002046FFF7DDFB02E02046FFF7AFFE002092
:101F1000206370BD0020FCE70220FAE72DE9F84FAE
:101F200004462068006920F44050E16808432168B5
:101F300008612169A068084361690843E1690843B1
:101F400000902068C06849F20C61884300990843FA
:101F50002168C8602068406920F44070A169084386
:101F60002168486176492068884203D07549206815
:101F7000884203D1FFF742F8814602E0FFF72EF8CE
:101F80008146E069B0F5004F6CD102206168A0FB8A
:101F9000015003461920A9FB007001462A46384625
:101FA000FEF773F96421B0FBF1F04FEA001A02204A
:101FB0006168A0FB01510B461920A9FB00712A465C
:101FC0003846FEF762F9834602206168A0FB0150A3
:101FD00003461920A9FB00712A463846FEF755F939
:101FE0006421B0FBF1F000EBC00101EB0010ABEBA2
:101FF0008000322101EBC0006421B0FBF1F000F061
:10200000F8000AEB400A02206168A0FB0150034679
:102010001920A9FB007001462A463846FEF735F91B
:10202000834602206168A0FB015003461920A9FBEA
:1020300000712A463846FEF728F96421B0FBF1F01A
:1020400000EBC00101EB0010ABEB8000322101EB93
:10205000C0006421B0FBF1F000F00700504421689B
:1020600088606AE004206168A0FB015003461920E3
:10207000A9FB007001462A463846FEF706F982465B
:1020800004206168A0FB015003461920A9FB0070E1
:1020900001462A463846FEF7F8F86421B0FBF1F015
:1020A00000EBC00101EB0010AAEB8000322101EB34
:1020B00000106421B0FBF1F000F0F00A0420616828
:1020C000A0FB017003461920A9FB00513A4628469F
:1020D000FEF7DBF86421B0FBF1F00AEB001A0420F4
:1020E0006168A0FB01510B461920A9FB00712A462B
:1020F0003846FEF7CAF8834604206168A0FB015009
:1021000003461920A9FB007001462A463846FEF70F
:10211000BCF86421B0FBF1F000EBC00101EB001052
:10212000ABEB8000322101EB00106421B0FBF1F039
:1021300000F00F00504421688860BDE8F88F00006F
:10214000001001400014014010B5034699629A85C1
:10215000DA8500201864222083F83E0000BF0020AA
:1021600083F83C0000BF1868C06840F480701C68A9
:10217000E0601868406940F001001C686061186800
:10218000C06840F020001C68E060002010BD0146DF
:1021900091F83D00212828D18868B0F5805F0BD1E7
:1021A000086948B90A6A1088C0F308000B685860CB
:1021B000086A801C086205E00B6A581C08621878DF
:1021C0000B685860C88C401E80B2C88458B9086833
:1021D000C06820F080000B68D8600868C06840F0D4
:1021E00040000B68D860002070470220FCE72DE912
:1021F000F04104460D4617469846069E21E0701CA5
:10220000F8B12EB1FEF76EFDA0EB0800B04218D970
:102210002068C06820F4D0702168C86020684069D8
:1022200020F0010021684861202084F83D0084F8F6
:102230003E0000BF002084F83C0000BF0320BDE842
:10224000F081206800682840A84201D1012000E008
:102250000020B842D3D00020F1E7000070B5002480
:102260000F4D1048FFF738FA00BF03E0641CAC4282
:1022700000D904E00B48FFF725FA2028F6D100BF6B
:10228000002403E0641CAC4200D906E001220649A8
:102290000448FFF7C9FC0028F4D100BF70BD00005E
:1022A000FFFF0100EC0000200E0000201CB53F489D
:1022B00000680068C0F3C00090B100BF002000902B
:1022C0003A4800680068009038480068406800900C
:1022D00000BF00BF354800680068344800684068A7
:1022E000324800680068C0F3401020B34FF0FF335D
:1022F000012201A92D48FFF729FC2D48B0F800085C
:10230000C0F30E0040F2FF71884215DA9DF8040018
:102310002749B1F80018C1F30E01254A5054104660
:10232000B0F80008401C1146B1F8001860F30E0127
:102330001046A0F800181BE01D48B0F800086FF325
:102340000E001B49A1F800089DF80400B1F8001820
:10235000C1F30E01164A50541046B0F80008401C54
:102360001146B1F8001860F30E011046A0F80018ED
:102370000E4800680068C0F30010B0B10C48B0F817
:10238000000820F4004000F500400949A1F80008C9
:1023900000BF0020009005480068006800900348D6
:1023A00000684068009000BF00BF1CBDEC01002029
:1023B0003002002000BFFEE702480068C0F30220A0
:1023C000704700000CED00E010B5002804DB0A07A0
:1023D000130E054A135406E00A07140E034A00F0D0
:1023E0000F031B1FD45410BD00E400E018ED00E003
:1023F00030380A2801D2012070470020704700BF02
:1024000070477CB505460E4600200090019025B12E
:10241000012D06D0022D0CD107E001218DF803100B
:1024200009E008218DF8031005E009218DF803105B
:1024300001E003207CBD00BF16B1012E08D103E0EE
:1024400000208DF8040005E001208DF8040001E073
:102450000320EFE700BF64208DF8000019208DF8FD
:10246000010032220521684601F0D0F804460CB183
:102470000120DFE70020DDE72DE9FE4F05460E468F
:1024800017469846DDE90DABDDF83090002000904E
:10249000019002900F9810B1012808D103E00020AC
:1024A0008DF8080006E001208DF8080002E0032006
:1024B000BDE8FE8F00BF08208DF800008DF80150A8
:1024C0008DF802608DF803708DF804808DF805900A
:1024D0008DF806A08DF807B032220921684601F078
:1024E00095F804460CB10120E2E70020E0E7F8B5DA
:1024F00005460E460020009025B1012D06D0022D84
:102500000CD107E000208DF8010009E001208DF8D2
:10251000010005E002208DF8010001E00320F8BD74
:1025200000BF16B1012E08D103E000208DF8020093
:1025300005E001208DF8020001E00320EFE700BF75
:1025400009208DF8000032220321684601F05EF870
:1025500004460CB10120E2E70020E0E7F8B50446AC
:102560000E46002000900A2C2ED2DFE804F0050968
:102570000D1115191D21252901208DF8010025E0D7
:1025800002208DF8010021E004208DF801001DE0FB
:1025900005208DF8010019E008208DF8010015E0F4
:1025A0000A208DF8010011E014208DF801000DE0E3
:1025B00019208DF8010009E028208DF8010005E0C0
:1025C00032208DF8010001E00320F8BD00BF16B1F4
:1025D000012E08D103E000208DF8020005E0012063
:1025E0008DF8020001E00320EFE700BF0E208DF818
:1025F000000032220321684601F008F805460DB1BB
:102600000120E2E70020E0E72DE9F04F04460D4607
:1026100016464FF0000A14B90320BDE8F08F25B923
:10262000307810B90BB90320F7E7607894F800B060
:1026300040EA0B2C4AF2A100844501D00120ECE7CE
:10264000E07894F802B040EA0B21881D14F800B03D
:10265000481D205C4BEA002940F60A50814501D014
:102660000120DAE7081D14F80080002705E0381D76
:10267000205C80EA0A0A781C87B28F42F7DBD045DB
:1026800001D00120C9E70DB1207928704EB1002298
:1026900004E0501D205CB054501C82B2481E904291
:1026A000F7D80BB1481E18800020B6E770B5054674
:1026B0000C4600260DB9032070BD106808B9032030
:1026C000FAE7691C19E074B9881B106003B91AE0B5
:1026D00008782C2805D008782A2802D0701C86B2E9
:1026E0000AE01E800FE008782C2802D008782A28FB
:1026F00001D1601EC4B200BF491C08780D2802D069
:1027000048780A28DFD100BF0CB10120D4E70020AF
:10271000D2E70000FEB506460D4606B10DB903200E
:10272000FEBD002302AA19463046FFF7BFFF04464C
:102730005CB902988078472807D10298C07847286A
:1027400003D102980079412801D00320E8E7002353
:1027500002AA01213046FFF7A9FF04466A4601A9F3
:10276000029800F00BFF2044C4B21CB99DF8000091
:10277000032801D00120D3E79A49019890FBF1F09A
:10278000642190FBF1F201FB120028709649019838
:1027900090FBF1F0642190FBF1F201FB12006870F4
:1027A0004FF47A71019890FBF1F0642190FBF1F203
:1027B00001FB1200A8704FF47A71019890FBF1F2BE
:1027C00001FB1200A880002302AA02213046FFF775
:1027D0006DFF04466A4601A9029800F0CFFE20442E
:1027E000C4B20CB101209BE705229DF8001001A89E
:1027F00000F0B7FD7B49019890FBF1F07A4948431E
:10280000E8607849019890FBF1F201FB12003C214D
:1028100090FBF1F1E8680144E960002302AA03217A
:102820003046FFF743FF04463CB9029800784E2833
:1028300005D002980078532801D0012070E7029853
:1028400000784E2801D0012000E0002028720023EB
:1028500002AA04213046FFF729FF04466A4601A96F
:10286000029800F08BFE2044C4B20CB1012057E75F
:1028700005229DF8001001A800F073FD5949019848
:1028800090FBF1F05849484368615649019890FB24
:10289000F1F201FB12003C2190FBF1F16869014467
:1028A0006961002302AA05213046FFF7FFFE0446B6
:1028B0003CB902980078452805D00298007857283E
:1028C00001D001202CE702980078452801D0012092
:1028D00000E000202874002302AA06213046FFF7FA
:1028E000E5FE04466A4601A9029800F047FE20442E
:1028F000C4B214B99DF8000008B1012010E7019896
:1029000020B1012805D0022809D105E00020287651
:1029100007E00120287604E00220287601E001206B
:10292000FEE600BF002302AA07213046FFF7BEFEE5
:1029300004466A4601A9029800F020FE2044C4B271
:1029400014B99DF8000008B10120E9E60198687605
:10295000002302AA08213046FFF7A8FE04466A4673
:1029600001A9029800F00AFE2044C4B20CB1012073
:10297000D6E601229DF8001001A800F0F2FC0198B3
:102980006883002302AA09213046FFF78FFE044620
:102990006A4601A9029800F0F1FD2044C4B20CB1CE
:1029A0000120BDE601229DF8001001A800F0D9FC2D
:1029B0000198E861002302AA0E213046FFF776FE57
:1029C00004466A4601A9029800F0D8FD2044C4B22A
:1029D00014B99DF8000008B10120A1E601982884EF
:1029E00000209DE680969800A08601002DE9FF4119
:1029F00007460D460020029007B11DB9032004B020
:102A0000BDE8F081002303AA19463846FFF74EFEC1
:102A100004465CB903988078472807D10398C078AA
:102A2000532803D103980079412801D00320E6E719
:102A3000002303AA01213846FFF738FE04463CB9BB
:102A4000039800784D2805D003980078412801D0DC
:102A50000120D4E7039800784D2801D0012000E040
:102A600000202870002303AA02213846FFF71EFE2B
:102A700004466A4601A9039800F080FD2044C4B2D0
:102A800014B99DF8000008B10120B8E701980128A9
:102A900004D0022805D0032809D105E00020687081
:102AA00007E00120687004E00220687001E0012066
:102AB000A5E700BF002624E0F01CC1B202AB03AAC8
:102AC0003846FFF7F3FD04460CB1012097E7BDF847
:102AD000080018B90021A81C815510E06A4601A918
:102AE000039800F04BFD044614B99DF8000008B1AE
:102AF000012084E70198C1B2A81C815500BF701C59
:102B0000C6B20C2ED8DB002303AA0F213846FFF7EC
:102B1000CDFD04466A4601A9039800F02FFD20442C
:102B2000C4B20CB101206AE701229DF8001001A88F
:102B300000F017FC0198E881002303AA1021384611
:102B4000FFF7B4FD04466A4601A9039800F016FD9C
:102B50002044C4B20CB1012051E701229DF80010BD
:102B600001A800F0FEFB01982882002303AA11218E
:102B70003846FFF79BFD04466A4601A9039800F01A
:102B8000FDFC2044C4B20CB1012038E701229DF8BD
:102B9000001001A800F0E5FB0198688200202EE7F4
:102BA0002DE9F04786B082460E46BAF1000F00D0FC
:102BB0001EB9032006B0BDE8F087002305AA194618
:102BC0005046FFF773FD04465CB9059880784728A6
:102BD00007D10598C078532803D105980079562865
:102BE00001D00320E6E705980078472806D105982C
:102BF0004078502802D14FF005090CE00598007884
:102C0000422806D105984078442802D14FF00609A1
:102C100001E00120CEE7002305AA01215046FFF77D
:102C200045FD044602AA03A9059800F0A7FC20442C
:102C3000C4B214B99DF8080008B10120BAE703989E
:102C400000F0FF08002305AA03215046FFF72EFDE0
:102C5000044602AA03A9059800F090FC2044C4B2DF
:102C600064B99DF8080048B9A8F101000399B1EBD7
:102C7000800F03DB0398B0EB880F01DD012099E79B
:102C80000398307030780C2803DD0C2030704FF042
:102C900003080025FFE0681CC2B201AB494650465C
:102CA00000F078FB04460CB1012083E7002305AA5D
:102CB00001210198FFF7FAFC044602AA03A905982E
:102CC00000F05CFC2044C4B22CB99DF8080010B997
:102CD0000398404501DA01206CE7002305AA022190
:102CE0000198FFF7E3FC044602AA03A9059800F047
:102CF00045FC2044C4B234B99DF8080018B9681CDA
:102D00000399814201D0012054E7002305AA032141
:102D10000198FFF7CBFC044602AA03A9059800F02E
:102D20002DFC2044C4B234B99DF8080018B930789D
:102D30000399884201DD01203CE70027A5E0B800A7
:102D4000001DC1B2002305AA0198FFF7AFFC04469D
:102D500002AA03A9059800F011FC044614B99DF8D5
:102D6000080008B1012025E7039881B207EB85022E
:102D7000B01C20F83210B800401DC1B2002305AAD3
:102D80000198FFF793FC044602AA03A9059800F0F6
:102D9000F5FB2044C4B214B99DF8080008B1012025
:102DA00008E70398C1B207EB8502B01C00EBC20034
:102DB0008170B800801DC1B2002305AA0198FFF7F9
:102DC00075FC044602AA03A9059800F0D7FB20442D
:102DD000C4B214B99DF8080008B10120EAE60398CE
:102DE00081B207EB8502B01C00EBC2008180B80005
:102DF000C01DC1B204AB05AA0198FFF757FC0446F9
:102E00000CB10120D6E6BDF81000B8B9002107EBDF
:102E10008502B01C00EBC2008171A8F10101A9423A
:102E20000BD13078C11700EB91718910A0EB8101B3
:102E3000C1F10301B94200D12AE024E002AA03A9AA
:102E4000059800F09BFB044614B99DF8080008B1F2
:102E50000120AFE60398C1B207EB8502B01C00EB7E
:102E6000C2008171A8F10101A9420BD13078C117CC
:102E700000EB91718910A0EB8101C1F10301B9420E
:102E800000D105E000BF781CC7B2042FFFF657AF92
:102E900000BF681CC5B24545FFF6FDAE002089E6BF
:102EA000FEB506460C4606B10CB90320FEBD002354
:102EB00002AA19463046FFF7F9FB05465DB90298AC
:102EC0008078522807D10298C0784D2803D1029803
:102ED0000079432801D00320E8E7002302AA01215A
:102EE0003046FFF7E3FB05466A4601A9029800F069
:102EF00045FB2844C5B21DB99DF80000032801D048
:102F00000120D3E7AD49019890FBF1F0642190FBDB
:102F1000F1F201FB12002070A949019890FBF1F039
:102F2000642190FBF1F201FB120060704FF47A71A2
:102F3000019890FBF1F0642190FBF1F201FB12008B
:102F4000A0704FF47A71019890FBF1F201FB12002E
:102F5000A080002302AA02213046FFF7A7FB054606
:102F60003DB902980078562805D00298007841288B
:102F700001D001209AE702980078562801D001205C
:102F800000E00020A072002302AA03213046FFF7D0
:102F90008DFB05466A4601A9029800F0EFFA284425
:102FA000C5B20DB1012081E705229DF8001001A8EE
:102FB00000F0D7F98149019890FBF1F0804948432E
:102FC00020617E49019890FBF1F201FB12003C2147
:102FD00090FBF1F1206901442161002302AA042140
:102FE0003046FFF763FB05463DB9029800784E284E
:102FF00005D002980078532801D0012056E70298A6
:1030000000784E2801D0012000E00020207300232A
:1030100002AA05213046FFF749FB05466A4601A989
:10302000029800F0ABFA2844C5B20DB101203DE78B
:1030300005229DF8001001A800F093F95F4901985E
:1030400090FBF1F05E494843A0615C49019890FB18
:10305000F1F201FB12003C2190FBF1F1A069014467
:10306000A161002302AA06213046FFF71FFB054697
:103070003DB902980078452805D002980078572875
:1030800001D0012012E702980078452801D00120E4
:1030900000E000202075002302AA07213046FFF738
:1030A00005FB05466A4601A9029800F067FA284424
:1030B000C5B20DB10120F9E601229DF8001001A86A
:1030C00000F04FF90198A083002302AA082130469E
:1030D000FFF7ECFA05466A4601A9029800F04EFA9D
:1030E0002844C5B20DB10120E0E601229DF8001090
:1030F00001A800F036F90198E083002302AA092113
:103100003046FFF7D3FA05466A4601A9029800F057
:1031100035FA2844C5B215B99DF8000008B1012060
:10312000C4E66421019890FBF1F201FB120000F566
:10313000FA60E080019890FBF1F090FBF1F201FB66
:103140001200207242F21071019890FBF1F064219C
:1031500090FBF1F201FB12006072002302AA0C2125
:103160003046FFF7A3FA05467DB9029800784E284D
:103170000DD002980078412809D0029800784428A0
:1031800005D002980078452801D001208EE60298EB
:1031900000784E2801D100200CE0029800784128E8
:1031A00001D1012006E002980078442801D10220D4
:1031B00000E0032084F82000002077E68096980045
:1031C000A08601007FB506460D4606B115B903205D
:1031D00004B070BD002303AA19463046FFF766FA13
:1031E00004465CB903988078562807D10398C078C4
:1031F000542803D103980079472801D00320E7E73A
:10320000002303AA01213046FFF750FA04466A461C
:1032100001A9039800F0B2F92044C4B21CB99DF88A
:103220000000012801D00120D2E70198288002ABDC
:1032300003AA03213046FFF739FA04460CB10120F6
:10324000C6E7BDF8080010B9002068800AE06A46A9
:1032500001A9039800F092F904460CB10120B7E7E8
:1032600001986880002303AA05213046FFF71EFA63
:1032700004466A4601A9039800F080F92044C4B2CC
:103280001CB99DF80000012801D00120A0E7019899
:10329000A880002303AA07213046FFF707FA044657
:1032A0006A4601A9039800F069F92044C4B21CB928
:1032B0009DF80000012801D0012089E70198E880ED
:1032C000002303AA09213046FFF7F0F904467CB930
:1032D000039800784E280DD003980078412809D033
:1032E00003980078442805D003980078452801D039
:1032F00001206DE7039800784E2801D100200CE0F2
:1033000003980078412801D1012006E00398007855
:10331000442801D1022000E003202872002057E752
:1033200038B505460020009015B1012D08D103E005
:1033300000208DF8010005E001208DF8010001E07A
:10334000032038BD00BF04208DF800003222022186
:10335000684600F05BF904460CB10120F1E700205B
:10336000EFE710B500B910BD06E00A24036893FB2F
:10337000F4F303604B1ED9B29142F6DC06E0036819
:1033800003EB83035B0003604B1CD9B29142F6DB75
:1033900000BFE8E72DE9FC470646894617469846F0
:1033A00016B1B8F1000F02D10320BDE8FC8707B9C0
:1033B0000127B9F10A0F38D2DFE809F0050A0F1426
:1033C000191E23282D322BA16846FCF7E1FF2EE0C1
:1033D0002AA16846FCF7DCFF29E02AA16846FCF731
:1033E000D7FF24E029A16846FCF7D2FF1FE029A1FE
:1033F0006846FCF7CDFF1AE028A16846FCF7C8FF35
:1034000015E028A16846FCF7C3FF10E027A1684635
:10341000FCF7BEFF0BE027A16846FCF7B9FF06E00A
:1034200026A16846FCF7B4FF01E00320BDE700BF1A
:1034300034461AE02078242816D1002508E0601CC4
:10344000405D1DF80510884200D003E0681CC5B23D
:10345000052DF4DB00BF052D06D1781EC0B2071E76
:1034600002D1C8F80040A0E7641C20780028E1D110
:1034700001209AE7474E474741000000474E474C1E
:103480004C000000474E475341000000475047534F
:103490004100000042444753410000004750475359
:1034A000560000004244475356000000474E524D1C
:1034B00043000000474E565447000000474E5A4410
:1034C0004100000070B586B00446002005900190D0
:1034D00002900390049014B9032006B070BD02203E
:1034E0008DF8140001208DF815003222022105A864
:1034F00000F08CF805460DB10120EEE700F008F968
:10350000064600230DF1050201A906F10900FFF7A7
:103510007BF805460DB10120DFE79DF80400802807
:1035200001D00120D9E79DF8070020709DF8080020
:1035300060709DF80900A0709DF80B00E0709DF888
:103540000C1021719DF80D1061719DF80F00A07194
:103550009DF81010E1719DF8111021720020BCE758
:103560003EB50446204600F0BBF86846FFF7AAFFC8
:1035700005460DB101203EBD0020FCE7F0B5034635
:103580000C46154619464FF0000C002203B10CB949
:103590000320F0BD08782D2807D00878302802DBFA
:1035A0000878392801DD0320F3E708782D2803D1B6
:1035B000491C4FF0FF3600E0012612E00AB1501C12
:1035C000C2B208782E2803D1501CC2B2491C08E0B0
:1035D00008783038C7B20CEB8C0007EB400C491C64
:1035E00000BF08782E28E9D00878302802DB087858
:1035F0003928E3DD0CFB06F0206025B10AB1501E2E
:1036000000E0104628700020C3E700002DE9F843D1
:1036100081460C461646E01D87B25E2F02DD012072
:10362000BDE8F883A0202D490870A1204870200A29
:103630008870CC70002506E019F80510281D274A6F
:103640001154681C85B2A542F6DB0021201D234AD7
:10365000115400250AE0201D2049085C291D1F4A3D
:10366000515C4140201D1154681C85B2A542F2DB1B
:103670000D21601D194A11540A21A01D115400F09A
:103680005DF8F9B2154800F06BF80EB90020C7E7F5
:103690001FE000F03DF88046B8F1000F14D0002381
:1036A0001A4669464046FEF7AFFF38B99DF800005C
:1036B000832801D10020B3E70120B1E7F9B2074820
:1036C00000F04EF800F03AF8701E86B2642000F068
:1036D00011FA002EDDDC0220A2E700008E0100209E
:1036E00010B50446084809490860084644600021AE
:1036F0008160C16001610C21416100218161C16172
:10370000FEF712F910BD000000480040EC01002057
:103710000948B0F800080121B1EBD03F09D10020E1
:103720000549B1F80018C1F30E01034A5054104680
:1037300070470020FCE70000300200200748B0F886
:1037400000086FF30E000549A1F800080846B0F81C
:10375000000820F40040A1F8000870473002002063
:1037600070B504460D464FF0FF332A462146024805
:10377000FEF7C0FA70BD0000EC0100202DE9FF4FFC
:10378000D1B00646884693465EAF97E8800696B964
:10379000B8F1000F0FD1BBF1000F0CD1549850B904
:1037A0004FB9B9F1000F06D1BAF1000F03D10320D0
:1037B00055B0BDE8F08F00208DF838018DF810016C
:1037C0008DF8FA008DF896008DF830008DF80A001B
:1037D000FFF7B4FF7DE1FFF79BFF50905098002862
:1037E00077D0BBF1000F00D117B39DF83801F8B9BD
:1037F0004FAB002211465098FFF7CCFD0546D5B9D6
:1038000045A94F98FEF786FF0546A5B9FF208DF81C
:103810003801BBF1000F03D04C9800B2ABF80000A8
:103820004FB19DF82C0138709DF82D01787002E0A1
:10383000FF208DF8380167B39DF8100148BB4FABEE
:10384000002202215098FFF7A5FD054605BB3FA9C0
:103850004F98FFF7CBF80546D5B9FF208DF810013A
:103860009DF8FD00B870002407E00DF1FE00015D39
:10387000381D20F81410601CC4B20C2CF5DBBDF808
:103880000A01B883BDF80C01F883BDF80E01388435
:1038900002E0FF208DF81001B9F1000F4AD09DF829
:1038A000FA00E8BB4FAB002205215098FFF772FDEC
:1038B0000546B5BB26A94F98FFF772F9054685BBAB
:1038C000FF208DF8FA009DF8980089F80000002488
:1038D0002BE0E4E00DF19A0030F8341009F1020019
:1038E00020F834100DF19A0000EBC400817809F142
:1038F000020000EBC40081700DF19A0000EBC400DF
:10390000818809F1020000EBC40081800DF19A006A
:1039100000EBC400817909F1020000EBC40001E072
:1039200008E00AE08171601CC4B29DF89800A042D2
:10393000D0DC02E0FF208DF8FA00BAF1000F49D088
:103940009DF89600F0BB4FAB002206215098FFF780
:1039500021FD0546BDBB0DA94F98FFF721F905468E
:103960008DBBFF208DF896009DF834008AF800008A
:1039700000242AE00DF1360030F834100AF102007C
:1039800020F834100DF1360000EBC40081780AF104
:10399000020000EBC40081700DF1360000EBC400A2
:1039A00081880AF1020000EBC40081800DF136002D
:1039B00000EBC40081790AF1020000EBC4008171C0
:1039C000601C01E006E008E0C4B29DF83400A042AB
:1039D000D0DC02E0FF208DF8960016B9B8F1000F98
:1039E0003CD09DF83000C0BB4FAB0022072150985F
:1039F000FFF7D0FC05467DBB03A94F98FFF750FAAF
:103A000005464DBBFF208DF83000A6B1BDF8120071
:103A100030809DF81400B0709DF81500F0709DF88E
:103A20000C0030719DF80D0070719DF80E00B071A2
:103A3000BDF810003081B8F1000F12D00798C8F817
:103A400004009DF8180088F800000999C8F80C10C7
:103A50009DF8200088F8080003E0FFE7FF208DF8BC
:103A600030005498C0B19DF80A00A8B94FAB0022AD
:103A700008215098FFF78EFC054685B9FF208DF888
:103A80000A0069464F98FFF79DFB05463DB9BDF812
:103A900006105498018002E0FF208DF80A009DF87E
:103AA000380180B19DF8100168B19DF8FA0050B15D
:103AB0009DF8960038B19DF8300020B19DF80A00BD
:103AC00008B1002074E66198401E6190012000F06A
:103AD00011F8619800287FF47EAE022068E60000AD
:103AE00010B504460420FDF7BDFD0148046010BD7B
:103AF0000400002070B504461E2094FBF0F594FBF2
:103B0000F0F100FB114604E047F2305000F00CF8F1
:103B10006D1E002DF8D12EB14FF47A7106FB01F025
:103B200000F002F870BD000070B5034600224FF0AF
:103B3000E02675690D4E366803FB06F44FF0E0266B
:103B4000B16910E04FF0E026B06988420BD088429E
:103B500002D20E1A324402E02E1A0E4432440146BA
:103B6000A24200D300E0EDE700BF70BD04000020DA
:103B7000C8B04FF41640FFF7F3FC044674B1A1A09F
:103B8000FCF7FAFB09E000BF4FF40071A448FDF711
:103B900093F800BFC820FFF7ADFFF4E70120FFF75F
:103BA000BFFB044601210846FEF7A1FC2044C4B235
:103BB000012000210090CDE90101034602460146A3
:103BC0000390FEF759FC2044C4B201210320FEF704
:103BD000C5FC2044C4B201210220FEF712FC20449F
:103BE000C4B274B18FA0FCF7C7FB09E000BF4FF46B
:103BF00000718B48FDF760F800BFC820FFF77AFF1F
:103C0000F4E7FEE064211DA8FCF772FD642104A81E
:103C1000FCF76EFDF4E041F28830002136ABCDE9CF
:103C200000313FAB40AACDE9021041A945A8FFF7FA
:103C3000A5FD0646002E71D1BDF81C019DF81A1194
:103C40009DF819219DF81831CDE90032CDE9021017
:103C50009DF817319DF81621BDF8141179A0FCF7D5
:103C60008BFB84494298B0FBF1F201FB1207B0FBD9
:103C7000F1F841A8C068B0FBF1F201FB120941A8BC
:103C8000C068B0FBF1FA9DF8040108B97AA000E021
:103C90007AA0CDE9008702909DF80C0108B978A0C0
:103CA00000E078A003464A46514677A0FCF764FB43
:103CB000BDF900010A2190FBF1F201FB120790FB14
:103CC000F1F83A46414678A0FCF756FBBDF8FC00F7
:103CD0000A2190FBF1F201FB120790FBF1F83A4642
:103CE000414676A0FCF748FB9DF8D80008B978A0BB
:103CF00006E09DF8D800012801D178A000E07AA064
:103D000001467FA0FCF738FB9DF8D91081A0FCF795
:103D100033FB9DF8DA0010B96DA007E069E09DF86B
:103D2000DA00012801D181A000E081A0014681A034
:103D3000FCF722FB002513E015B982A0FCF71CFB61
:103D400037A830F8151083A0FCF716FB9DF8D900B2
:103D5000401EA84202D13AA0FCF70EFB681CC5B277
:103D60009DF8D900A842E7DCBDF8F4000A2190FBD9
:103D7000F1F201FB120790FBF1F83A46414676A0BA
:103D8000FCF7FAFABDF8F6000A2190FBF1F201FB0C
:103D9000120790FBF1F83A46414673A0FCF7ECFAA3
:103DA000BDF8F8000A2190FBF1F201FB120790FB2D
:103DB000F1F83A46414670A0FCF7DEFA012004A96A
:103DC0001DAA0023CDE90032CDE902101A4619469A
:103DD0001846FFF7D3FC9DF874106BA0FCF7CCFAE3
:103DE0009DF8101072A0FCF7C7FA15A0FCF7C4FAF2
:103DF00002E07AA0FCF7C0FA4FF47A70FFF77AFE7F
:103E000009E7FFE641544B2D4D4F313231382069DF
:103E10006E6974206661696C6564210D0A0000009A
:103E20000014024041544B2D4D4F31323138206344
:103E30006F6E666967757265206661696C6564217D
:103E40000D0A00005554432054696D653A20253011
:103E500034642D253032642D2530326420253032F3
:103E6000643A253032643A253032642E253033648A
:103E70000D0A0000A08601004E0000005300000063
:103E80004500000057000000506F736974696F6E41
:103E90003A2025642E25642725732025642E256469
:103EA0002725730D0A000000416C74697475646500
:103EB0003A2025642E25646D0D0A00005370656557
:103EC000643A2025642E25644B6D2F480D0A0000AE
:103ED000556E617661696C61626C65005350532068
:103EE0006D6F646500000000646966666572656EEA
:103EF0007469616C20475053206D6F646500000049
:103F0000466978207175616C6974793A2025730D62
:103F10000A000000536174656C6C69746573205508
:103F20007365643A2025640D0A00000032440000E5
:103F30003344000046697820747970653A2025730F
:103F40000D0A0000536174656C6C69746520494406
:103F50003A0000002025640050444F503A20256468
:103F60002E25640D0A00000048444F503A20256475
:103F70002E25640D0A00000056444F503A20256457
:103F80002E25640D0A0000004E756D626572206F6B
:103F900066204750532076697369626C65207361AF
:103FA00074656C6C6974653A2025640D0A00000024
:103FB0004E756D626572206F6620426569646F752B
:103FC0002076697369626C6520736174656C6C69D5
:103FD00074653A2025640D0A000000004572726F76
:103FE00072210D0A0000000000BF054A126802F0AD
:103FF0004002002AF9D0C2B2014B5A60704700005B
:104000000010014000B587B000BF00BF0020019044
:104010003848006840F010003649086008460068DB
:1040200000F01000019000BF00BF00BF00BF00BF44
:10403000002001900846006840F010000860084623
:10404000006800F01000019000BF00BF00BF00BF7B
:1040500000BF002001900846006840F01000086092
:104060000846006800F01000019000BF00BF00BFCC
:1040700000BF00BF002001900846006840F001002A
:1040800008600846006800F00100019000BF00BF12
:1040900000BF102002900020039001200490022015
:1040A000059002A91448FCF705FD082002900020A5
:1040B0000390012004900220059002A90E48FCF70D
:1040C000F9FC0420029000200390012004900220BB
:1040D000059002A90848FCF7EDFC012002900020A1
:1040E000039002200490059002A90448FCF7E2FC2A
:1040F00007B000BD3038024000100240000002400E
:1041000070B50446002609480588408845430021CB
:10411000084603F0ABF803F057FA00BF02E004488A
:104120000480761CAE42FAD370BD000080010020EE
:104130008000006C10B5044658488471002C58D19A
:10414000F020564908804FF4A070488008468088C7
:1041500045F21051884210D14FF430504F49088138
:104160004FF4285048814FF42C5088814FF4F07060
:1041700008804FF4487048801AE04848808841F62B
:10418000631188420DD12C20444908812B2048819D
:104190002A2088814FF4F07008804FF448704880DE
:1041A00006E02C203D4908812A2048812B20888167
:1041B0003A48808845F21031884205D037488088D7
:1041C00047F29671884206D14FF4A07033490880B7
:1041D0004FF4F07048803148808849F606018842E3
:1041E00058D14FF4F0702D4908804FF44870488042
:1041F00050E04FF4A07029490880F020488008461C
:10420000808845F21051884210D14FF43050234934
:1042100008814FF4285048814FF42C5088814FF486
:10422000487008804FF4F070488020E01B48808878
:1042300041F66311884205D01848808849F6060186
:1042400088420DD12C20154908812A2048812B2035
:1042500088814FF4487008804FF4F070488006E081
:104260002C200E4908812A2048812B2088810B4868
:10427000808845F21031884205D00848808847F28E
:104280009671884206D14FF4F070044908804FF4CB
:10429000A0704880002002F0CBFE10BD80010020FD
:1042A00070B505460E4614463146284602F0DEFF3C
:1042B00003F08AF901490C8070BD00008000006C99
:1042C00010B5CF2003F074F9002003F065F9C12088
:1042D00003F062F9302003F05FF9ED2003F068F994
:1042E000642003F059F9032003F056F9122003F07B
:1042F00053F9812003F050F9E82003F059F98520A3
:1043000003F04AF9102003F047F97A2003F044F94A
:10431000CB2003F04DF9392003F03EF92C2003F0B7
:104320003BF9002003F038F9342003F035F902207E
:1043300003F032F9F72003F03BF9202003F02CF9C9
:10434000EA2003F035F9002003F026F9002003F0FD
:1043500023F9C02003F02CF91B2003F01DF9C12024
:1043600003F026F9012003F017F9C52003F020F926
:10437000302003F011F9302003F00EF9C72003F0CC
:1043800017F9B72003F008F9362003F011F9482097
:1043900003F002F93A2003F00BF9552003F0FCF882
:1043A000B12003F005F9002003F0F6F81A2003F01D
:1043B000F3F8B62003F0FCF80A2003F0EDF8A22091
:1043C00003F0EAF8F22003F0F3F8002003F0E4F839
:1043D000262003F0EDF8012003F0DEF8E02003F0E2
:1043E000E7F80F2003F0D8F82A2003F0D5F82820AA
:1043F00003F0D2F8082003F0CFF80E2003F0CCF839
:10440000082003F0C9F8542003F0C6F8A92003F0EF
:10441000C3F8432003F0C0F80A2003F0BDF80F20D2
:1044200003F0BAF8002003F0B7F8002003F0B4F866
:10443000002003F0B1F8002003F0AEF8E12003F013
:10444000B7F8002003F0A8F8152003F0A5F817200E
:1044500003F0A2F8072003F09FF8112003F09CF866
:10446000062003F099F82B2003F096F8562003F06D
:1044700093F83C2003F090F8052003F08DF810200D
:1044800003F08AF80F2003F087F83F2003F084F848
:104490003F2003F081F80F2003F07EF82B2003F07B
:1044A00087F8002003F078F8002003F075F8012069
:1044B00003F072F83F2003F06FF82A2003F078F839
:1044C000002003F069F8002003F066F8002003F0F4
:1044D00063F8EF2003F060F8112003F069F878200A
:1044E000FFF708FB292003F063F810BD10B5FF208B
:1044F00003F05EF8FF2003F04FF8982003F04CF82B
:10450000062003F049F8BC2003F052F8012003F024
:1045100043F80F2003F040F8612003F03DF8FF203E
:1045200003F03AF8012003F037F8012003F034F8E3
:104530000B2003F031F8102003F02EF8372003F0A1
:104540002BF8632003F028F8FF2003F025F8FF2064
:1045500003F022F8012003F01FF8012003F01CF8FB
:10456000002003F019F8002003F016F8FF2003F0F4
:1045700013F8522003F010F8012003F00DF800208A
:1045800003F00AF8402003F007F8BD2003F010F80C
:10459000012003F001F8232002F0FEFF452002F085
:1045A000FBFF672002F0F8FF012002F0F5FF232057
:1045B00002F0F2FF452002F0EFFF672002F0ECFF6F
:1045C000BE2002F0F5FF002002F0E6FF012002F01D
:1045D000E3FFAB2002F0E0FF602002F0DDFF2220CD
:1045E00002F0DAFF222002F0D7FF222002F0D4FFEF
:1045F000222002F0D1FF222002F0CEFFC72002F0DD
:10460000D7FF362002F0C8FFED2002F0D1FF7F2057
:1046100002F0C2FF0F2002F0BFFFC02002F0C8FF6F
:104620000F2002F0B9FF0B2002F0B6FF0A2002F0C3
:10463000B3FFFC2002F0BCFF082002F0ADFFDF203A
:1046400002F0B6FF002002F0A7FF002002F0A4FF56
:10465000002002F0A1FF002002F09EFF002002F0E7
:104660009BFF202002F098FFF32002F0A1FF7420AE
:1046700002F092FFB42002F09BFF002002F08CFFBA
:10468000002002F089FF002002F086FFF72002F0F0
:104690008FFF822002F080FFB12002F089FF00200E
:1046A00002F07AFF132002F077FF132002F074FF6C
:1046B000F22002F07DFF802002F06EFF042002F065
:1046C0006BFF402002F068FF282002F065FFC12048
:1046D00002F06EFF172002F05FFF882002F05CFFFF
:1046E000882002F059FF202002F056FFE02002F05F
:1046F0005FFF002002F050FF0A2002F04DFF122061
:1047000002F04AFF102002F047FF0E2002F044FFA3
:10471000202002F041FFCC2002F03EFF072002F0F3
:104720003BFF062002F038FF0B2002F035FF0E2081
:1047300002F032FF0F2002F02FFF0D2002F02CFFBD
:10474000152002F029FF102002F026FF002002F0C1
:1047500023FFE12002F02CFF002002F01DFF0B20C0
:1047600002F01AFF132002F017FF0D2002F014FFD1
:104770000E2002F011FF1B2002F00EFF712002F04C
:104780000BFF062002F008FF062002F005FF0A20BA
:1047900002F002FF0F2002F0FFFE0E2002F0FCFEEE
:1047A0000F2002F0F9FE152002F0F6FE0C2002F0B8
:1047B000F3FE002002F0F0FE2A2002F0F9FE0020B5
:1047C00002F0EAFE002002F0E7FE012002F0E4FE23
:1047D000DF2002F0E1FE2B2002F0EAFE002002F0D2
:1047E000DBFE002002F0D8FE032002F0D5FE1F20E1
:1047F00002F0D2FE3A2002F0DBFE552002F0CCFEA1
:10480000362002F0D5FE002002F0C6FE112002F094
:10481000CFFE7820FFF76EF9292002F0C9FE1420A0
:10482000FFF768F92C2002F0C3FE10BD10B5ED2093
:1048300002F0BEFE012002F0AFFEFE2002F0ACFE50
:10484000EE2002F0B5FEDE2002F0A6FE212002F0EE
:10485000A3FEF12002F0ACFE012002F09DFEDF205D
:1048600002F0A6FE102002F097FEC42002F0A0FE87
:104870008F2002F091FEC62002F09AFE002002F086
:104880008BFEE22002F088FEE22002F085FEE220AC
:1048900002F082FEBF2002F08BFEAA2002F07CFE16
:1048A000B02002F085FE0D2002F076FE002002F01E
:1048B00073FE0D2002F070FE002002F06DFE11204C
:1048C00002F06AFE002002F067FE192002F064FE8A
:1048D000002002F061FE212002F05EFE002002F0C6
:1048E0005BFE2D2002F058FE002002F055FE3D2018
:1048F00002F052FE002002F04FFE5D2002F04CFE5E
:10490000002002F049FE5D2002F046FE002002F089
:1049100043FEB12002F04CFE802002F03DFE00205C
:1049200002F03AFE8B2002F037FE002002F034FE47
:10493000962002F031FE002002F02EFEB22002F09E
:1049400037FE002002F028FE002002F025FE0220A3
:1049500002F022FE002002F01FFE032002F01CFEE7
:10496000002002F019FEB32002F022FE002002F027
:1049700013FE002002F010FE002002F00DFE0020C9
:1049800002F00AFE002002F007FE002002F004FE02
:10499000002002F001FE002002F0FEFD002002F0E7
:1049A000FBFD002002F0F8FD002002F0F5FD0020E4
:1049B00002F0F2FD002002F0EFFD002002F0ECFD1D
:1049C000002002F0E9FD002002F0E6FD002002F0E8
:1049D000E3FD002002F0E0FD002002F0DDFD0020FC
:1049E00002F0DAFD002002F0D7FD002002F0D4FD35
:1049F000002002F0D1FD002002F0CEFDB42002F034
:104A0000D7FD8B2002F0C8FD002002F0C5FD9620E6
:104A100002F0C2FD002002F0BFFDA12002F0BCFDAB
:104A2000002002F0B9FDB52002F0C2FD022002F024
:104A3000B3FD002002F0B0FD032002F0ADFD002028
:104A400002F0AAFD042002F0A7FD002002F0A4FD60
:104A5000B62002F0ADFD002002F09EFD002002F025
:104A60009BFDB72002F0A4FD002002F095FD002080
:104A700002F092FD3F2002F08FFD002002F08CFD3D
:104A80005E2002F089FD002002F086FD642002F025
:104A900083FD002002F080FD8C2002F07DFD0020CF
:104AA00002F07AFDAC2002F077FD002002F074FDE8
:104AB000DC2002F071FD002002F06EFD702002F09B
:104AC0006BFD002002F068FD902002F065FD0020E3
:104AD00002F062FDEB2002F05FFD002002F05CFDC1
:104AE000DC2002F059FD002002F056FDB82002F053
:104AF0005FFD002002F050FD002002F04DFD00207F
:104B000002F04AFD002002F047FD002002F044FDC3
:104B1000002002F041FD002002F03EFD002002F0E6
:104B20003BFDBA2002F044FD242002F035FD0020B8
:104B300002F032FD002002F02FFD002002F02CFDDB
:104B4000C12002F035FD202002F026FD002002F0F9
:104B500023FD542002F020FD002002F01DFDFF2067
:104B600002F01AFD002002F017FDC22002F020FD25
:104B70000A2002F011FD002002F00EFD042002F0D8
:104B80000BFD002002F008FDC32002F011FD3C20C7
:104B900002F002FD002002F0FFFC3A2002F0FCFCD3
:104BA000002002F0F9FC392002F0F6FC002002F0AF
:104BB000F3FC372002F0F0FC002002F0EDFC3C207A
:104BC00002F0EAFC002002F0E7FC362002F0E4FCF0
:104BD000002002F0E1FC322002F0DEFC002002F0B6
:104BE000DBFC2F2002F0D8FC002002F0D5FC2C20AA
:104BF00002F0D2FC002002F0CFFC292002F0CCFC15
:104C0000002002F0C9FC262002F0C6FC002002F0C1
:104C1000C3FC242002F0C0FC002002F0BDFC2420D4
:104C200002F0BAFC002002F0B7FC232002F0B4FC32
:104C3000002002F0B1FC3C2002F0AEFC002002F0AB
:104C4000ABFC362002F0A8FC002002F0A5FC3220CC
:104C500002F0A2FC002002F09FFC2F2002F09CFC3E
:104C6000002002F099FC2C2002F096FC002002F0BB
:104C700093FC292002F090FC002002F08DFC2620FD
:104C800002F08AFC002002F087FC242002F084FC61
:104C9000002002F081FC242002F07EFC002002F0C3
:104CA0007BFC232002F078FC002002F075FCC4207D
:104CB00002F07EFC622002F06FFC002002F06CFC2F
:104CC000052002F069FC002002F066FC842002F05E
:104CD00063FC002002F060FCF02002F05DFC00208C
:104CE00002F05AFC182002F057FC002002F054FC9D
:104CF000A42002F051FC002002F04EFC182002F02B
:104D00004BFC002002F048FC502002F045FC002043
:104D100002F042FC0C2002F03FFC002002F03CFCC0
:104D2000172002F039FC002002F036FC952002F03A
:104D300033FC002002F030FCF32002F02DFC0020B8
:104D400002F02AFCE62002F027FC002002F024FCFE
:104D5000C52002F02DFC322002F01EFC002002F0E3
:104D60001BFC442002F018FC002002F015FC65201A
:104D700002F012FC002002F00FFC762002F00CFC86
:104D8000002002F009FC882002F006FC002002F05E
:104D900003FCC62002F00CFC202002F0FDFB0020EA
:104DA00002F0FAFB172002F0F7FB002002F0F4FB00
:104DB000012002F0F1FB002002F0EEFBC72002F020
:104DC000F7FB002002F0E8FB002002F0E5FB0020EA
:104DD00002F0E2FB002002F0DFFBC82002F0E8FB5B
:104DE000002002F0D9FB002002F0D6FB002002F0E8
:104DF000D3FB002002F0D0FBC92002F0D9FB002039
:104E000002F0CAFB002002F0C7FB002002F0C4FB46
:104E1000002002F0C1FB002002F0BEFB002002F0E7
:104E2000BBFB002002F0B8FB002002F0B5FB002025
:104E300002F0B2FB002002F0AFFB002002F0ACFB5E
:104E4000002002F0A9FB002002F0A6FB002002F0E7
:104E5000A3FB002002F0A0FB002002F09DFBE0205D
:104E600002F0A6FB162002F097FB002002F094FB54
:104E70001C2002F091FB002002F08EFB212002F0AA
:104E80008BFB002002F088FB362002F085FB00201F
:104E900002F082FB462002F07FFB002002F07CFB48
:104EA000522002F079FB002002F076FB642002F031
:104EB00073FB002002F070FB7A2002F06DFB0020F3
:104EC00002F06AFB8B2002F067FB002002F064FB1B
:104ED000992002F061FB002002F05EFBA82002F0A6
:104EE0005BFB002002F058FBB92002F055FB0020CC
:104EF00002F052FBC42002F04FFB002002F04CFBFA
:104F0000CA2002F049FB002002F046FBD22002F04A
:104F100043FB002002F040FBD92002F03DFB0020C3
:104F200002F03AFBE02002F037FB002002F034FBF5
:104F3000F32002F031FB002002F02EFBE12002F012
:104F400037FB162002F028FB002002F025FB1C2076
:104F500002F022FB002002F01FFB222002F01CFBCB
:104F6000002002F019FB362002F016FB002002F0B0
:104F700013FB452002F010FB002002F00DFB522035
:104F800002F00AFB002002F007FB642002F004FBA1
:104F9000002002F001FB7A2002F0FEFA002002F06D
:104FA000FBFA8B2002F0F8FA002002F0F5FA9920C3
:104FB00002F0F2FA002002F0EFFAA82002F0ECFA78
:104FC000002002F0E9FAB92002F0E6FA002002F02F
:104FD000E3FAC42002F0E0FA002002F0DDFACA2071
:104FE00002F0DAFA002002F0D7FAD22002F0D4FA66
:104FF000002002F0D1FAD82002F0CEFA002002F010
:10500000CBFAE02002F0C8FA002002F0C5FAF32043
:1050100002F0C2FA002002F0BFFAE22002F0C8FA61
:10502000052002F0B9FA002002F0B6FA0B2002F0D7
:10503000B3FA002002F0B0FA1B2002F0ADFA002013
:1050400002F0AAFA342002F0A7FA002002F0A4FA33
:10505000442002F0A1FA002002F09EFA4F2002F054
:105060009BFA002002F098FA612002F095FA0020E5
:1050700002F092FA792002F08FFA002002F08CFA06
:10508000882002F089FA002002F086FA972002F0C8
:1050900083FA002002F080FAA62002F07DFA0020B8
:1050A00002F07AFAB72002F077FA002002F074FAE0
:1050B000C22002F071FA002002F06EFAC72002F05E
:1050C0006BFA002002F068FAD12002F065FA0020A5
:1050D00002F062FAD62002F05FFA002002F05CFAD9
:1050E000DD2002F059FA002002F056FAF32002F017
:1050F00053FA002002F050FAE32002F059FA05209A
:1051000002F04AFA002002F047FA0A2002F044FABC
:10511000002002F041FA1C2002F03EFA002002F0CA
:105120003BFA332002F038FA002002F035FA44202E
:1051300002F032FA002002F02FFA502002F02CFA8E
:10514000002002F029FA622002F026FA002002F084
:1051500023FA782002F020FA002002F01DFA8820BD
:1051600002F01AFA002002F017FA972002F014FA5F
:10517000002002F011FAA62002F00EFA002002F040
:105180000BFAB72002F008FA002002F005FAC2205C
:1051900002F002FA002002F0FFF9C72002F0FCF949
:1051A000002002F0F9F9D12002F0F6F9002002F017
:1051B000F3F9D52002F0F0F9002002F0EDF9DD203E
:1051C00002F0EAF9002002F0E7F9F32002F0E4F936
:1051D000002002F0E1F9E42002F0EAF9012002F0F7
:1051E000DBF9002002F0D8F9012002F0D5F9002007
:1051F00002F0D2F9022002F0CFF9002002F0CCF93F
:105200002A2002F0C9F9002002F0C6F93C2002F081
:10521000C3F9002002F0C0F94B2002F0BDF90020D4
:1052200002F0BAF95D2002F0B7F9002002F0B4F9FB
:10523000742002F0B1F9002002F0AEF9842002F0EF
:10524000ABF9002002F0A8F9932002F0A5F90020A4
:1052500002F0A2F9A22002F09FF9002002F09CF9CE
:10526000B32002F099F9002002F096F9BE2002F076
:1052700093F9002002F090F9C42002F08DF900208B
:1052800002F08AF9CD2002F087F9002002F084F9BB
:10529000D32002F081F9002002F07EF9DD2002F037
:1052A0007BF9002002F078F9F32002F075F9002074
:1052B00002F072F9E52002F07BF9002002F06CF9AF
:1052C000002002F069F9002002F066F9002002F0E7
:1052D00063F9022002F060F9002002F05DF9292054
:1052E00002F05AF9002002F057F93C2002F054F97C
:1052F000002002F051F94B2002F04EF9002002F09C
:105300004BF95D2002F048F9002002F045F97420C5
:1053100002F042F9002002F03FF9842002F03CF94B
:10532000002002F039F9932002F036F9002002F053
:1053300033F9A22002F030F9002002F02DF9B32059
:1053400002F02AF9002002F027F9BE2002F024F929
:10535000002002F021F9C42002F01EF9002002F022
:105360001BF9CD2002F018F9002002F015F9D32026
:1053700002F012F9002002F00FF9DC2002F00CF923
:10538000002002F009F9F32002F006F9002002F0F3
:1053900003F9E62002F00CF9112002F0FDF80020DC
:1053A00002F0FAF8342002F0F7F8002002F0F4F8E6
:1053B000562002F0F1F8002002F0EEF8762002F01C
:1053C000EBF8002002F0E8F8772002F0E5F8002082
:1053D00002F0E2F8662002F0DFF8002002F0DCF8CC
:1053E000882002F0D9F8002002F0D6F8992002F0C7
:1053F000D3F8002002F0D0F8BB2002F0CDF8002056
:1054000002F0CAF8992002F0C7F8002002F0C4F8B0
:10541000662002F0C1F8002002F0BEF8552002F02C
:10542000BBF8002002F0B8F8552002F0B5F80020D3
:1054300002F0B2F8452002F0AFF8002002F0ACF81C
:10544000432002F0A9F8002002F0A6F8442002F060
:10545000A3F8002002F0A0F8E72002F0A9F832201B
:1054600002F09AF8002002F097F8552002F094F824
:10547000002002F091F8762002F08EF8002002F071
:105480008BF8662002F088F8002002F085F867208B
:1054900002F082F8002002F07FF8672002F07CF82A
:1054A000002002F079F8872002F076F8002002F060
:1054B00073F8992002F070F8002002F06DF8BB201C
:1054C00002F06AF8002002F067F8992002F064F810
:1054D000002002F061F8772002F05EF8002002F070
:1054E0005BF8442002F058F8002002F055F85620EE
:1054F00002F052F8002002F04FF8232002F04CF89E
:10550000002002F049F8332002F046F8002002F0B3
:1055100043F8452002F040F8002002F03DF8E82072
:1055200002F046F8002002F037F8002002F034F8CC
:10553000992002F031F8002002F02EF8872002F0C6
:105540002BF8002002F028F8882002F025F800202F
:1055500002F022F8772002F01FF8002002F01CF879
:10556000662002F019F8002002F016F8882002F0F8
:1055700013F8002002F010F8AA2002F00DF8002025
:1055800002F00AF8BB2002F007F8002002F004F84D
:10559000992002F001F8002001F0FEFF662001F0E2
:1055A000FBFF002001F0F8FF552001F0F5FF00207F
:1055B00001F0F2FF552001F0EFFF002001F0ECFFB9
:1055C000442001F0E9FF002001F0E6FF442001F053
:1055D000E3FF002001F0E0FF552001F0DDFF002097
:1055E00001F0DAFFE92001F0E3FFAA2001F0D4FF87
:1055F000002001F0D1FF002001F0CEFF002001F0DB
:10560000CBFF002001F0D4FFAA2001F0C5FFCF207E
:1056100001F0CEFF002001F0BFFF002001F0BCFF31
:10562000002001F0B9FF002001F0B6FF002001F0DA
:10563000B3FF002001F0B0FF002001F0ADFF00201B
:1056400001F0AAFF002001F0A7FF002001F0A4FF55
:10565000002001F0A1FF002001F09EFF002001F0DA
:105660009BFF002001F098FF002001F095FF002033
:1056700001F092FF002001F08FFFF02001F098FF71
:10568000002001F089FF502001F086FF002001F08A
:1056900083FF002001F080FF002001F07DFFF32058
:1056A00001F086FF002001F077FFF92001F080FF74
:1056B000062001F071FF102001F06EFF292001F09B
:1056C0006BFF002001F068FF3A2001F071FF5520C8
:1056D00001F062FF112001F06BFF6420FEF70AFA6F
:1056E000292001F065FF352001F062FF002001F064
:1056F00053FF512001F05CFFFF2001F04DFF5320CC
:1057000001F056FF2C2001F047FF552001F050FF1B
:10571000822001F041FF2C2001F04AFF10BD10B59E
:1057200055214FF4704001F059FFAA214FF20100BA
:1057300001F054FF52214FF2020001F04FFF082107
:105740004FF2030001F04AFF01214FF2040001F083
:1057500045FF0D214FF4304001F040FF0D214BF289
:10576000010001F03BFF0D214BF2020001F036FF7A
:1057700034214FF4364001F031FF34214BF2016007
:1057800001F02CFF34214BF2026001F027FF0D21C4
:105790004FF4314001F022FF0D214BF2011001F0D6
:1057A0001DFF0D214BF2021001F018FF34214FF4C0
:1057B000374001F013FF34214BF2017001F00EFF6E
:1057C00034214BF2027001F009FF00214FF4324006
:1057D00001F004FF00214BF2012001F0FFFE002147
:1057E0004BF2022001F0FAFE24214FF4384001F080
:1057F000F5FE24214BF6010001F0F0FE24214BF6CA
:10580000020001F0EBFE01214FF43F4001F0E6FE03
:105810000F214FF4334001F0E1FE0F214BF2013034
:1058200001F0DCFE0F214BF2023001F0D7FE3421F3
:105830004FF4394001F0D2FE34214BF6011001F053
:10584000CDFE34214BF6021001F0C8FE08214FF4C2
:10585000354001F0C3FE08214BF2015001F0BEFEBD
:1058600008214BF2025001F0B9FE03214FF44240EF
:1058700001F0B4FE24214FF43A4001F0AFFE2421A0
:105880004BF6012001F0AAFE24214BF6022001F084
:10589000A5FE00214FF43C4001F0A0FE78214BF61C
:1058A000014001F09BFE00214BF6024001F096FE04
:1058B00000214FF43D4001F091FE78214BF601505C
:1058C00001F08CFE00214BF6025001F087FE002112
:1058D0004FF43E4001F082FE64214BF6016001F07E
:1058E0007DFE00214FF4514001F078FE33214DF24E
:1058F000011001F073FE00214DF2021001F06EFE66
:1059000034214DF2031001F069FE00214DF2041024
:1059100001F064FE3A214DF2051001F05FFE002116
:105920004DF2061001F05AFE4A214DF2071001F027
:1059300055FE00214DF2081001F050FE5C214DF2A1
:10594000091001F04BFE00214DF20A1001F046FE55
:1059500081214DF20B1001F041FE00214DF20C109F
:1059600001F03CFEA6214DF20D1001F037FE0021A2
:105970004DF20E1001F032FEE5214DF20F1001F054
:105980002DFE01214DF2101001F028FE13214DF2E1
:10599000111001F023FE01214DF2121001F01EFE44
:1059A00054214DF2131001F019FE01214DF2141093
:1059B00001F014FE82214DF2151001F00FFE0121BD
:1059C0004DF2161001F00AFECA214DF2171001F037
:1059D00005FE02214DF2181001F000FE00214DF2EB
:1059E000191001F0FBFD02214DF21A1001F0F6FD35
:1059F00001214DF21B1001F0F1FD02214DF21C10AE
:105A000001F0ECFD34214DF21D1001F0E7FD022103
:105A10004DF21E1001F0E2FD67214DF21F1001F062
:105A2000DDFD02214DF2201001F0D8FD84214DF260
:105A3000211001F0D3FD02214DF2221001F0CEFD24
:105A4000A4214DF2231001F0C9FD02214DF22410D2
:105A500001F0C4FDB7214DF2251001F0BFFD022178
:105A60004DF2261001F0BAFDCF214DF2271001F0C2
:105A7000B5FD02214DF2281001F0B0FDDE214DF2FE
:105A8000291001F0ABFD02214DF22A1001F0A6FD14
:105A9000F2214DF22B1001F0A1FD02214DF22C104C
:105AA00001F09CFDFE214DF22D1001F097FD032128
:105AB0004DF22E1001F092FD10214DF22F1001F049
:105AC0008DFD03214DF2301001F088FD33214DF2A0
:105AD000311001F083FD03214DF2321001F07EFD03
